{
  "abi": [
    {
      "inputs": [
        {
          "internalType": "uint256",
          "name": "minimum",
          "type": "uint256"
        },
        {
          "internalType": "address",
          "name": "creator",
          "type": "address"
        }
      ],
      "stateMutability": "nonpayable",
      "type": "constructor"
    },
    {
      "inputs": [
        {
          "internalType": "uint256",
          "name": "index",
          "type": "uint256"
        }
      ],
      "name": "approveRequest",
      "outputs": [],
      "stateMutability": "nonpayable",
      "type": "function"
    },
    {
      "inputs": [],
      "name": "approverCount",
      "outputs": [
        {
          "internalType": "uint256",
          "name": "",
          "type": "uint256"
        }
      ],
      "stateMutability": "view",
      "type": "function"
    },
    {
      "inputs": [
        {
          "internalType": "address",
          "name": "",
          "type": "address"
        }
      ],
      "name": "approvers",
      "outputs": [
        {
          "internalType": "bool",
          "name": "",
          "type": "bool"
        }
      ],
      "stateMutability": "view",
      "type": "function"
    },
    {
      "inputs": [],
      "name": "cancelRequest",
      "outputs": [],
      "stateMutability": "payable",
      "type": "function"
    },
    {
      "inputs": [],
      "name": "contribute",
      "outputs": [],
      "stateMutability": "payable",
      "type": "function"
    },
    {
      "inputs": [
        {
          "internalType": "string",
          "name": "desc",
          "type": "string"
        },
        {
          "internalType": "uint256",
          "name": "val",
          "type": "uint256"
        },
        {
          "internalType": "address payable",
          "name": "recep",
          "type": "address"
        }
      ],
      "name": "createRequest",
      "outputs": [],
      "stateMutability": "payable",
      "type": "function"
    },
    {
      "inputs": [
        {
          "internalType": "uint256",
          "name": "_index",
          "type": "uint256"
        }
      ],
      "name": "finalizeRequest",
      "outputs": [],
      "stateMutability": "nonpayable",
      "type": "function"
    },
    {
      "inputs": [],
      "name": "getRequestsCount",
      "outputs": [
        {
          "internalType": "uint256",
          "name": "",
          "type": "uint256"
        }
      ],
      "stateMutability": "view",
      "type": "function"
    },
    {
      "inputs": [],
      "name": "getSummary",
      "outputs": [
        {
          "internalType": "uint256",
          "name": "",
          "type": "uint256"
        },
        {
          "internalType": "uint256",
          "name": "",
          "type": "uint256"
        },
        {
          "internalType": "uint256",
          "name": "",
          "type": "uint256"
        },
        {
          "internalType": "uint256",
          "name": "",
          "type": "uint256"
        },
        {
          "internalType": "address",
          "name": "",
          "type": "address"
        }
      ],
      "stateMutability": "view",
      "type": "function"
    },
    {
      "inputs": [],
      "name": "manager",
      "outputs": [
        {
          "internalType": "address",
          "name": "",
          "type": "address"
        }
      ],
      "stateMutability": "view",
      "type": "function"
    },
    {
      "inputs": [],
      "name": "minimumContribution",
      "outputs": [
        {
          "internalType": "uint256",
          "name": "",
          "type": "uint256"
        }
      ],
      "stateMutability": "view",
      "type": "function"
    },
    {
      "inputs": [
        {
          "internalType": "uint256",
          "name": "",
          "type": "uint256"
        }
      ],
      "name": "requests",
      "outputs": [
        {
          "internalType": "string",
          "name": "description",
          "type": "string"
        },
        {
          "internalType": "uint256",
          "name": "value",
          "type": "uint256"
        },
        {
          "internalType": "address",
          "name": "recipient",
          "type": "address"
        },
        {
          "internalType": "bool",
          "name": "complete",
          "type": "bool"
        },
        {
          "internalType": "uint256",
          "name": "approvalCount",
          "type": "uint256"
        }
      ],
      "stateMutability": "view",
      "type": "function"
    }
  ],
  "devdoc": {
    "kind": "dev",
    "methods": {},
    "version": 1
  },
  "evm": {
    "assembly": "    /* \"Campaign.sol\":497:3206  contract Campaign {... */\n  mstore(0x40, 0x80)\n    /* \"Campaign.sol\":1114:1236  constructor(uint256 minimum, address creator) {... */\n  callvalue\n  dup1\n  iszero\n  tag_1\n  jumpi\n  0x00\n  dup1\n  revert\ntag_1:\n  pop\n  mload(0x40)\n  sub(codesize, bytecodeSize)\n  dup1\n  bytecodeSize\n  dup4\n  codecopy\n  dup2\n  dup2\n  add\n  0x40\n  mstore\n  dup2\n  add\n  swap1\n  tag_2\n  swap2\n  swap1\n  tag_3\n  jump\t// in\ntag_2:\n    /* \"Campaign.sol\":1181:1188  creator */\n  dup1\n    /* \"Campaign.sol\":1171:1178  manager */\n  0x02\n  0x00\n    /* \"Campaign.sol\":1171:1188  manager = creator */\n  0x0100\n  exp\n  dup2\n  sload\n  dup2\n  0xffffffffffffffffffffffffffffffffffffffff\n  mul\n  not\n  and\n  swap1\n  dup4\n  0xffffffffffffffffffffffffffffffffffffffff\n  and\n  mul\n  or\n  swap1\n  sstore\n  pop\n    /* \"Campaign.sol\":1221:1228  minimum */\n  dup2\n    /* \"Campaign.sol\":1199:1218  minimumContribution */\n  0x03\n    /* \"Campaign.sol\":1199:1228  minimumContribution = minimum */\n  dup2\n  swap1\n  sstore\n  pop\n    /* \"Campaign.sol\":1114:1236  constructor(uint256 minimum, address creator) {... */\n  pop\n  pop\n    /* \"Campaign.sol\":497:3206  contract Campaign {... */\n  jump(tag_6)\n    /* \"#utility.yul\":88:205   */\ntag_8:\n    /* \"#utility.yul\":197:198   */\n  0x00\n    /* \"#utility.yul\":194:195   */\n  dup1\n    /* \"#utility.yul\":187:199   */\n  revert\n    /* \"#utility.yul\":334:411   */\ntag_10:\n    /* \"#utility.yul\":371:378   */\n  0x00\n    /* \"#utility.yul\":400:405   */\n  dup2\n    /* \"#utility.yul\":389:405   */\n  swap1\n  pop\n    /* \"#utility.yul\":334:411   */\n  swap2\n  swap1\n  pop\n  jump\t// out\n    /* \"#utility.yul\":417:539   */\ntag_11:\n    /* \"#utility.yul\":490:514   */\n  tag_23\n    /* \"#utility.yul\":508:513   */\n  dup2\n    /* \"#utility.yul\":490:514   */\n  tag_10\n  jump\t// in\ntag_23:\n    /* \"#utility.yul\":483:488   */\n  dup2\n    /* \"#utility.yul\":480:515   */\n  eq\n    /* \"#utility.yul\":470:533   */\n  tag_24\n  jumpi\n    /* \"#utility.yul\":529:530   */\n  0x00\n    /* \"#utility.yul\":526:527   */\n  dup1\n    /* \"#utility.yul\":519:531   */\n  revert\n    /* \"#utility.yul\":470:533   */\ntag_24:\n    /* \"#utility.yul\":417:539   */\n  pop\n  jump\t// out\n    /* \"#utility.yul\":545:688   */\ntag_12:\n    /* \"#utility.yul\":602:607   */\n  0x00\n    /* \"#utility.yul\":633:639   */\n  dup2\n    /* \"#utility.yul\":627:640   */\n  mload\n    /* \"#utility.yul\":618:640   */\n  swap1\n  pop\n    /* \"#utility.yul\":649:682   */\n  tag_26\n    /* \"#utility.yul\":676:681   */\n  dup2\n    /* \"#utility.yul\":649:682   */\n  tag_11\n  jump\t// in\ntag_26:\n    /* \"#utility.yul\":545:688   */\n  swap3\n  swap2\n  pop\n  pop\n  jump\t// out\n    /* \"#utility.yul\":694:820   */\ntag_13:\n    /* \"#utility.yul\":731:738   */\n  0x00\n    /* \"#utility.yul\":771:813   */\n  0xffffffffffffffffffffffffffffffffffffffff\n    /* \"#utility.yul\":764:769   */\n  dup3\n    /* \"#utility.yul\":760:814   */\n  and\n    /* \"#utility.yul\":749:814   */\n  swap1\n  pop\n    /* \"#utility.yul\":694:820   */\n  swap2\n  swap1\n  pop\n  jump\t// out\n    /* \"#utility.yul\":826:922   */\ntag_14:\n    /* \"#utility.yul\":863:870   */\n  0x00\n    /* \"#utility.yul\":892:916   */\n  tag_29\n    /* \"#utility.yul\":910:915   */\n  dup3\n    /* \"#utility.yul\":892:916   */\n  tag_13\n  jump\t// in\ntag_29:\n    /* \"#utility.yul\":881:916   */\n  swap1\n  pop\n    /* \"#utility.yul\":826:922   */\n  swap2\n  swap1\n  pop\n  jump\t// out\n    /* \"#utility.yul\":928:1050   */\ntag_15:\n    /* \"#utility.yul\":1001:1025   */\n  tag_31\n    /* \"#utility.yul\":1019:1024   */\n  dup2\n    /* \"#utility.yul\":1001:1025   */\n  tag_14\n  jump\t// in\ntag_31:\n    /* \"#utility.yul\":994:999   */\n  dup2\n    /* \"#utility.yul\":991:1026   */\n  eq\n    /* \"#utility.yul\":981:1044   */\n  tag_32\n  jumpi\n    /* \"#utility.yul\":1040:1041   */\n  0x00\n    /* \"#utility.yul\":1037:1038   */\n  dup1\n    /* \"#utility.yul\":1030:1042   */\n  revert\n    /* \"#utility.yul\":981:1044   */\ntag_32:\n    /* \"#utility.yul\":928:1050   */\n  pop\n  jump\t// out\n    /* \"#utility.yul\":1056:1199   */\ntag_16:\n    /* \"#utility.yul\":1113:1118   */\n  0x00\n    /* \"#utility.yul\":1144:1150   */\n  dup2\n    /* \"#utility.yul\":1138:1151   */\n  mload\n    /* \"#utility.yul\":1129:1151   */\n  swap1\n  pop\n    /* \"#utility.yul\":1160:1193   */\n  tag_34\n    /* \"#utility.yul\":1187:1192   */\n  dup2\n    /* \"#utility.yul\":1160:1193   */\n  tag_15\n  jump\t// in\ntag_34:\n    /* \"#utility.yul\":1056:1199   */\n  swap3\n  swap2\n  pop\n  pop\n  jump\t// out\n    /* \"#utility.yul\":1205:1712   */\ntag_3:\n    /* \"#utility.yul\":1284:1290   */\n  0x00\n    /* \"#utility.yul\":1292:1298   */\n  dup1\n    /* \"#utility.yul\":1341:1343   */\n  0x40\n    /* \"#utility.yul\":1329:1338   */\n  dup4\n    /* \"#utility.yul\":1320:1327   */\n  dup6\n    /* \"#utility.yul\":1316:1339   */\n  sub\n    /* \"#utility.yul\":1312:1344   */\n  slt\n    /* \"#utility.yul\":1309:1428   */\n  iszero\n  tag_36\n  jumpi\n    /* \"#utility.yul\":1347:1426   */\n  tag_37\n  tag_8\n  jump\t// in\ntag_37:\n    /* \"#utility.yul\":1309:1428   */\ntag_36:\n    /* \"#utility.yul\":1467:1468   */\n  0x00\n    /* \"#utility.yul\":1492:1556   */\n  tag_38\n    /* \"#utility.yul\":1548:1555   */\n  dup6\n    /* \"#utility.yul\":1539:1545   */\n  dup3\n    /* \"#utility.yul\":1528:1537   */\n  dup7\n    /* \"#utility.yul\":1524:1546   */\n  add\n    /* \"#utility.yul\":1492:1556   */\n  tag_12\n  jump\t// in\ntag_38:\n    /* \"#utility.yul\":1482:1556   */\n  swap3\n  pop\n    /* \"#utility.yul\":1438:1566   */\n  pop\n    /* \"#utility.yul\":1605:1607   */\n  0x20\n    /* \"#utility.yul\":1631:1695   */\n  tag_39\n    /* \"#utility.yul\":1687:1694   */\n  dup6\n    /* \"#utility.yul\":1678:1684   */\n  dup3\n    /* \"#utility.yul\":1667:1676   */\n  dup7\n    /* \"#utility.yul\":1663:1685   */\n  add\n    /* \"#utility.yul\":1631:1695   */\n  tag_16\n  jump\t// in\ntag_39:\n    /* \"#utility.yul\":1621:1695   */\n  swap2\n  pop\n    /* \"#utility.yul\":1576:1705   */\n  pop\n    /* \"#utility.yul\":1205:1712   */\n  swap3\n  pop\n  swap3\n  swap1\n  pop\n  jump\t// out\n    /* \"Campaign.sol\":497:3206  contract Campaign {... */\ntag_6:\n  dataSize(sub_0)\n  dup1\n  dataOffset(sub_0)\n  0x00\n  codecopy\n  0x00\n  return\nstop\n\nsub_0: assembly {\n        /* \"Campaign.sol\":497:3206  contract Campaign {... */\n      mstore(0x40, 0x80)\n      jumpi(tag_1, lt(calldatasize, 0x04))\n      shr(0xe0, calldataload(0x00))\n      dup1\n      0x81d12c58\n      gt\n      tag_14\n      jumpi\n      dup1\n      0x81d12c58\n      eq\n      tag_8\n      jumpi\n      dup1\n      0x851b16f5\n      eq\n      tag_9\n      jumpi\n      dup1\n      0x8a9cfd55\n      eq\n      tag_10\n      jumpi\n      dup1\n      0x937e09b1\n      eq\n      tag_11\n      jumpi\n      dup1\n      0xd7bb99ba\n      eq\n      tag_12\n      jumpi\n      dup1\n      0xd7d1bbdb\n      eq\n      tag_13\n      jumpi\n      jump(tag_1)\n    tag_14:\n      dup1\n      0x03441006\n      eq\n      tag_2\n      jumpi\n      dup1\n      0x0a144391\n      eq\n      tag_3\n      jumpi\n      dup1\n      0x128e9be6\n      eq\n      tag_4\n      jumpi\n      dup1\n      0x3410452a\n      eq\n      tag_5\n      jumpi\n      dup1\n      0x4051ddac\n      eq\n      tag_6\n      jumpi\n      dup1\n      0x481c6a75\n      eq\n      tag_7\n      jumpi\n    tag_1:\n      0x00\n      dup1\n      revert\n        /* \"Campaign.sol\":2257:2564  function finalizeRequest(uint256 _index) public restricted {... */\n    tag_2:\n      callvalue\n      dup1\n      iszero\n      tag_15\n      jumpi\n      0x00\n      dup1\n      revert\n    tag_15:\n      pop\n      tag_16\n      0x04\n      dup1\n      calldatasize\n      sub\n      dup2\n      add\n      swap1\n      tag_17\n      swap2\n      swap1\n      tag_18\n      jump\t// in\n    tag_17:\n      tag_19\n      jump\t// in\n    tag_16:\n      stop\n        /* \"Campaign.sol\":1029:1070  mapping(address => bool) public approvers */\n    tag_3:\n      callvalue\n      dup1\n      iszero\n      tag_20\n      jumpi\n      0x00\n      dup1\n      revert\n    tag_20:\n      pop\n      tag_21\n      0x04\n      dup1\n      calldatasize\n      sub\n      dup2\n      add\n      swap1\n      tag_22\n      swap2\n      swap1\n      tag_23\n      jump\t// in\n    tag_22:\n      tag_24\n      jump\t// in\n    tag_21:\n      mload(0x40)\n      tag_25\n      swap2\n      swap1\n      tag_26\n      jump\t// in\n    tag_25:\n      mload(0x40)\n      dup1\n      swap2\n      sub\n      swap1\n      return\n        /* \"Campaign.sol\":1077:1105  uint256 public approverCount */\n    tag_4:\n      callvalue\n      dup1\n      iszero\n      tag_27\n      jumpi\n      0x00\n      dup1\n      revert\n    tag_27:\n      pop\n      tag_28\n      tag_29\n      jump\t// in\n    tag_28:\n      mload(0x40)\n      tag_30\n      swap2\n      swap1\n      tag_31\n      jump\t// in\n    tag_30:\n      mload(0x40)\n      dup1\n      swap2\n      sub\n      swap1\n      return\n        /* \"Campaign.sol\":3107:3203  function getRequestsCount() public view returns (uint) {... */\n    tag_5:\n      callvalue\n      dup1\n      iszero\n      tag_32\n      jumpi\n      0x00\n      dup1\n      revert\n    tag_32:\n      pop\n      tag_33\n      tag_34\n      jump\t// in\n    tag_33:\n      mload(0x40)\n      tag_35\n      swap2\n      swap1\n      tag_31\n      jump\t// in\n    tag_35:\n      mload(0x40)\n      dup1\n      swap2\n      sub\n      swap1\n      return\n        /* \"Campaign.sol\":2794:3101  function getSummary()... */\n    tag_6:\n      callvalue\n      dup1\n      iszero\n      tag_36\n      jumpi\n      0x00\n      dup1\n      revert\n    tag_36:\n      pop\n      tag_37\n      tag_38\n      jump\t// in\n    tag_37:\n      mload(0x40)\n      tag_39\n      swap6\n      swap5\n      swap4\n      swap3\n      swap2\n      swap1\n      tag_40\n      jump\t// in\n    tag_39:\n      mload(0x40)\n      dup1\n      swap2\n      sub\n      swap1\n      return\n        /* \"Campaign.sol\":837:859  address public manager */\n    tag_7:\n      callvalue\n      dup1\n      iszero\n      tag_41\n      jumpi\n      0x00\n      dup1\n      revert\n    tag_41:\n      pop\n      tag_42\n      tag_43\n      jump\t// in\n    tag_42:\n      mload(0x40)\n      tag_44\n      swap2\n      swap1\n      tag_45\n      jump\t// in\n    tag_44:\n      mload(0x40)\n      dup1\n      swap2\n      sub\n      swap1\n      return\n        /* \"Campaign.sol\":774:799  Request[] public requests */\n    tag_8:\n      callvalue\n      dup1\n      iszero\n      tag_46\n      jumpi\n      0x00\n      dup1\n      revert\n    tag_46:\n      pop\n      tag_47\n      0x04\n      dup1\n      calldatasize\n      sub\n      dup2\n      add\n      swap1\n      tag_48\n      swap2\n      swap1\n      tag_18\n      jump\t// in\n    tag_48:\n      tag_49\n      jump\t// in\n    tag_47:\n      mload(0x40)\n      tag_50\n      swap6\n      swap5\n      swap4\n      swap3\n      swap2\n      swap1\n      tag_51\n      jump\t// in\n    tag_50:\n      mload(0x40)\n      dup1\n      swap2\n      sub\n      swap1\n      return\n        /* \"Campaign.sol\":2570:2788  function cancelRequest() public payable restricted {... */\n    tag_9:\n      tag_52\n      tag_53\n      jump\t// in\n    tag_52:\n      stop\n        /* \"Campaign.sol\":1476:1914  function createRequest(... */\n    tag_10:\n      tag_54\n      0x04\n      dup1\n      calldatasize\n      sub\n      dup2\n      add\n      swap1\n      tag_55\n      swap2\n      swap1\n      tag_56\n      jump\t// in\n    tag_55:\n      tag_57\n      jump\t// in\n    tag_54:\n      stop\n        /* \"Campaign.sol\":866:900  uint256 public minimumContribution */\n    tag_11:\n      callvalue\n      dup1\n      iszero\n      tag_58\n      jumpi\n      0x00\n      dup1\n      revert\n    tag_58:\n      pop\n      tag_59\n      tag_60\n      jump\t// in\n    tag_59:\n      mload(0x40)\n      tag_61\n      swap2\n      swap1\n      tag_31\n      jump\t// in\n    tag_61:\n      mload(0x40)\n      dup1\n      swap2\n      sub\n      swap1\n      return\n        /* \"Campaign.sol\":1242:1468  function contribute() public payable {... */\n    tag_12:\n      tag_62\n      tag_63\n      jump\t// in\n    tag_62:\n      stop\n        /* \"Campaign.sol\":1920:2251  function approveRequest(uint256 index) public {... */\n    tag_13:\n      callvalue\n      dup1\n      iszero\n      tag_64\n      jumpi\n      0x00\n      dup1\n      revert\n    tag_64:\n      pop\n      tag_65\n      0x04\n      dup1\n      calldatasize\n      sub\n      dup2\n      add\n      swap1\n      tag_66\n      swap2\n      swap1\n      tag_18\n      jump\t// in\n    tag_66:\n      tag_67\n      jump\t// in\n    tag_65:\n      stop\n        /* \"Campaign.sol\":2257:2564  function finalizeRequest(uint256 _index) public restricted {... */\n    tag_19:\n        /* \"Campaign.sol\":993:1000  manager */\n      0x02\n      0x00\n      swap1\n      sload\n      swap1\n      0x0100\n      exp\n      swap1\n      div\n      0xffffffffffffffffffffffffffffffffffffffff\n      and\n        /* \"Campaign.sol\":979:1000  msg.sender == manager */\n      0xffffffffffffffffffffffffffffffffffffffff\n      and\n        /* \"Campaign.sol\":979:989  msg.sender */\n      caller\n        /* \"Campaign.sol\":979:1000  msg.sender == manager */\n      0xffffffffffffffffffffffffffffffffffffffff\n      and\n      eq\n        /* \"Campaign.sol\":971:1001  require(msg.sender == manager) */\n      tag_69\n      jumpi\n      0x00\n      dup1\n      revert\n    tag_69:\n        /* \"Campaign.sol\":2385:2386  2 */\n      0x02\n        /* \"Campaign.sol\":2369:2382  approverCount */\n      sload(0x06)\n        /* \"Campaign.sol\":2369:2386  approverCount / 2 */\n      tag_71\n      swap2\n      swap1\n      tag_72\n      jump\t// in\n    tag_71:\n        /* \"Campaign.sol\":2335:2343  requests */\n      0x00\n        /* \"Campaign.sol\":2344:2350  _index */\n      dup3\n        /* \"Campaign.sol\":2335:2351  requests[_index] */\n      dup2\n      sload\n      dup2\n      lt\n      tag_73\n      jumpi\n      tag_74\n      tag_75\n      jump\t// in\n    tag_74:\n    tag_73:\n      swap1\n      0x00\n      mstore\n      keccak256(0x00, 0x20)\n      swap1\n      0x05\n      mul\n      add\n        /* \"Campaign.sol\":2335:2365  requests[_index].approvalCount */\n      0x03\n      add\n      sload\n        /* \"Campaign.sol\":2335:2387  requests[_index].approvalCount > (approverCount / 2) */\n      gt\n        /* \"Campaign.sol\":2327:2388  require(requests[_index].approvalCount > (approverCount / 2)) */\n      tag_77\n      jumpi\n      0x00\n      dup1\n      revert\n    tag_77:\n        /* \"Campaign.sol\":2408:2416  requests */\n      0x00\n        /* \"Campaign.sol\":2417:2423  _index */\n      dup2\n        /* \"Campaign.sol\":2408:2424  requests[_index] */\n      dup2\n      sload\n      dup2\n      lt\n      tag_78\n      jumpi\n      tag_79\n      tag_75\n      jump\t// in\n    tag_79:\n    tag_78:\n      swap1\n      0x00\n      mstore\n      keccak256(0x00, 0x20)\n      swap1\n      0x05\n      mul\n      add\n        /* \"Campaign.sol\":2408:2433  requests[_index].complete */\n      0x02\n      add\n      0x14\n      swap1\n      sload\n      swap1\n      0x0100\n      exp\n      swap1\n      div\n      0xff\n      and\n        /* \"Campaign.sol\":2407:2433  !requests[_index].complete */\n      iszero\n        /* \"Campaign.sol\":2399:2434  require(!requests[_index].complete) */\n      tag_81\n      jumpi\n      0x00\n      dup1\n      revert\n    tag_81:\n        /* \"Campaign.sol\":2473:2477  true */\n      0x01\n        /* \"Campaign.sol\":2445:2453  requests */\n      0x00\n        /* \"Campaign.sol\":2454:2460  _index */\n      dup3\n        /* \"Campaign.sol\":2445:2461  requests[_index] */\n      dup2\n      sload\n      dup2\n      lt\n      tag_82\n      jumpi\n      tag_83\n      tag_75\n      jump\t// in\n    tag_83:\n    tag_82:\n      swap1\n      0x00\n      mstore\n      keccak256(0x00, 0x20)\n      swap1\n      0x05\n      mul\n      add\n        /* \"Campaign.sol\":2445:2470  requests[_index].complete */\n      0x02\n      add\n      0x14\n        /* \"Campaign.sol\":2445:2477  requests[_index].complete = true */\n      0x0100\n      exp\n      dup2\n      sload\n      dup2\n      0xff\n      mul\n      not\n      and\n      swap1\n      dup4\n      iszero\n      iszero\n      mul\n      or\n      swap1\n      sstore\n      pop\n        /* \"Campaign.sol\":2496:2504  requests */\n      0x00\n        /* \"Campaign.sol\":2505:2511  _index */\n      dup2\n        /* \"Campaign.sol\":2496:2512  requests[_index] */\n      dup2\n      sload\n      dup2\n      lt\n      tag_85\n      jumpi\n      tag_86\n      tag_75\n      jump\t// in\n    tag_86:\n    tag_85:\n      swap1\n      0x00\n      mstore\n      keccak256(0x00, 0x20)\n      swap1\n      0x05\n      mul\n      add\n        /* \"Campaign.sol\":2496:2522  requests[_index].recipient */\n      0x02\n      add\n      0x00\n      swap1\n      sload\n      swap1\n      0x0100\n      exp\n      swap1\n      div\n      0xffffffffffffffffffffffffffffffffffffffff\n      and\n        /* \"Campaign.sol\":2488:2532  payable(requests[_index].recipient).transfer */\n      0xffffffffffffffffffffffffffffffffffffffff\n      and\n        /* \"Campaign.sol\":2488:2556  payable(requests[_index].recipient).transfer(requests[_index].value) */\n      0x08fc\n        /* \"Campaign.sol\":2533:2541  requests */\n      0x00\n        /* \"Campaign.sol\":2542:2548  _index */\n      dup4\n        /* \"Campaign.sol\":2533:2549  requests[_index] */\n      dup2\n      sload\n      dup2\n      lt\n      tag_88\n      jumpi\n      tag_89\n      tag_75\n      jump\t// in\n    tag_89:\n    tag_88:\n      swap1\n      0x00\n      mstore\n      keccak256(0x00, 0x20)\n      swap1\n      0x05\n      mul\n      add\n        /* \"Campaign.sol\":2533:2555  requests[_index].value */\n      0x01\n      add\n      sload\n        /* \"Campaign.sol\":2488:2556  payable(requests[_index].recipient).transfer(requests[_index].value) */\n      swap1\n      dup2\n      iszero\n      mul\n      swap1\n      mload(0x40)\n      0x00\n      mload(0x40)\n      dup1\n      dup4\n      sub\n      dup2\n      dup6\n      dup9\n      dup9\n      call\n      swap4\n      pop\n      pop\n      pop\n      pop\n      iszero\n      dup1\n      iszero\n      tag_92\n      jumpi\n      returndatasize\n      0x00\n      dup1\n      returndatacopy\n      revert(0x00, returndatasize)\n    tag_92:\n      pop\n        /* \"Campaign.sol\":2257:2564  function finalizeRequest(uint256 _index) public restricted {... */\n      pop\n      jump\t// out\n        /* \"Campaign.sol\":1029:1070  mapping(address => bool) public approvers */\n    tag_24:\n      mstore(0x20, 0x05)\n      dup1\n      0x00\n      mstore\n      keccak256(0x00, 0x40)\n      0x00\n      swap2\n      pop\n      sload\n      swap1\n      0x0100\n      exp\n      swap1\n      div\n      0xff\n      and\n      dup2\n      jump\t// out\n        /* \"Campaign.sol\":1077:1105  uint256 public approverCount */\n    tag_29:\n      sload(0x06)\n      dup2\n      jump\t// out\n        /* \"Campaign.sol\":3107:3203  function getRequestsCount() public view returns (uint) {... */\n    tag_34:\n        /* \"Campaign.sol\":3156:3160  uint */\n      0x00\n        /* \"Campaign.sol\":3180:3188  requests */\n      dup1\n        /* \"Campaign.sol\":3180:3195  requests.length */\n      dup1\n      sload\n      swap1\n      pop\n        /* \"Campaign.sol\":3173:3195  return requests.length */\n      swap1\n      pop\n        /* \"Campaign.sol\":3107:3203  function getRequestsCount() public view returns (uint) {... */\n      swap1\n      jump\t// out\n        /* \"Campaign.sol\":2794:3101  function getSummary()... */\n    tag_38:\n        /* \"Campaign.sol\":2864:2871  uint256 */\n      0x00\n        /* \"Campaign.sol\":2873:2880  uint256 */\n      dup1\n        /* \"Campaign.sol\":2882:2889  uint256 */\n      0x00\n        /* \"Campaign.sol\":2891:2898  uint256 */\n      dup1\n        /* \"Campaign.sol\":2900:2907  address */\n      0x00\n        /* \"Campaign.sol\":2947:2966  minimumContribution */\n      sload(0x03)\n        /* \"Campaign.sol\":2981:3002  address(this).balance */\n      selfbalance\n        /* \"Campaign.sol\":3017:3025  requests */\n      0x00\n        /* \"Campaign.sol\":3017:3032  requests.length */\n      dup1\n      sload\n      swap1\n      pop\n        /* \"Campaign.sol\":3047:3060  approverCount */\n      sload(0x06)\n        /* \"Campaign.sol\":3075:3082  manager */\n      0x02\n      0x00\n      swap1\n      sload\n      swap1\n      0x0100\n      exp\n      swap1\n      div\n      0xffffffffffffffffffffffffffffffffffffffff\n      and\n        /* \"Campaign.sol\":2925:3093  return (... */\n      swap5\n      pop\n      swap5\n      pop\n      swap5\n      pop\n      swap5\n      pop\n      swap5\n      pop\n        /* \"Campaign.sol\":2794:3101  function getSummary()... */\n      swap1\n      swap2\n      swap3\n      swap4\n      swap5\n      jump\t// out\n        /* \"Campaign.sol\":837:859  address public manager */\n    tag_43:\n      0x02\n      0x00\n      swap1\n      sload\n      swap1\n      0x0100\n      exp\n      swap1\n      div\n      0xffffffffffffffffffffffffffffffffffffffff\n      and\n      dup2\n      jump\t// out\n        /* \"Campaign.sol\":774:799  Request[] public requests */\n    tag_49:\n      0x00\n      dup2\n      dup2\n      sload\n      dup2\n      lt\n      tag_95\n      jumpi\n      0x00\n      dup1\n      revert\n    tag_95:\n      swap1\n      0x00\n      mstore\n      keccak256(0x00, 0x20)\n      swap1\n      0x05\n      mul\n      add\n      0x00\n      swap2\n      pop\n      swap1\n      pop\n      dup1\n      0x00\n      add\n      dup1\n      sload\n      tag_97\n      swap1\n      tag_98\n      jump\t// in\n    tag_97:\n      dup1\n      0x1f\n      add\n      0x20\n      dup1\n      swap2\n      div\n      mul\n      0x20\n      add\n      mload(0x40)\n      swap1\n      dup2\n      add\n      0x40\n      mstore\n      dup1\n      swap3\n      swap2\n      swap1\n      dup2\n      dup2\n      mstore\n      0x20\n      add\n      dup3\n      dup1\n      sload\n      tag_99\n      swap1\n      tag_98\n      jump\t// in\n    tag_99:\n      dup1\n      iszero\n      tag_100\n      jumpi\n      dup1\n      0x1f\n      lt\n      tag_101\n      jumpi\n      0x0100\n      dup1\n      dup4\n      sload\n      div\n      mul\n      dup4\n      mstore\n      swap2\n      0x20\n      add\n      swap2\n      jump(tag_100)\n    tag_101:\n      dup3\n      add\n      swap2\n      swap1\n      0x00\n      mstore\n      keccak256(0x00, 0x20)\n      swap1\n    tag_102:\n      dup2\n      sload\n      dup2\n      mstore\n      swap1\n      0x01\n      add\n      swap1\n      0x20\n      add\n      dup1\n      dup4\n      gt\n      tag_102\n      jumpi\n      dup3\n      swap1\n      sub\n      0x1f\n      and\n      dup3\n      add\n      swap2\n    tag_100:\n      pop\n      pop\n      pop\n      pop\n      pop\n      swap1\n      dup1\n      0x01\n      add\n      sload\n      swap1\n      dup1\n      0x02\n      add\n      0x00\n      swap1\n      sload\n      swap1\n      0x0100\n      exp\n      swap1\n      div\n      0xffffffffffffffffffffffffffffffffffffffff\n      and\n      swap1\n      dup1\n      0x02\n      add\n      0x14\n      swap1\n      sload\n      swap1\n      0x0100\n      exp\n      swap1\n      div\n      0xff\n      and\n      swap1\n      dup1\n      0x03\n      add\n      sload\n      swap1\n      pop\n      dup6\n      jump\t// out\n        /* \"Campaign.sol\":2570:2788  function cancelRequest() public payable restricted {... */\n    tag_53:\n        /* \"Campaign.sol\":993:1000  manager */\n      0x02\n      0x00\n      swap1\n      sload\n      swap1\n      0x0100\n      exp\n      swap1\n      div\n      0xffffffffffffffffffffffffffffffffffffffff\n      and\n        /* \"Campaign.sol\":979:1000  msg.sender == manager */\n      0xffffffffffffffffffffffffffffffffffffffff\n      and\n        /* \"Campaign.sol\":979:989  msg.sender */\n      caller\n        /* \"Campaign.sol\":979:1000  msg.sender == manager */\n      0xffffffffffffffffffffffffffffffffffffffff\n      and\n      eq\n        /* \"Campaign.sol\":971:1001  require(msg.sender == manager) */\n      tag_104\n      jumpi\n      0x00\n      dup1\n      revert\n    tag_104:\n        /* \"Campaign.sol\":2682:2688  uint i */\n      0x00\n        /* \"Campaign.sol\":2677:2781  for (uint i = 0; i < amount.length; i++) {... */\n    tag_106:\n        /* \"Campaign.sol\":2698:2704  amount */\n      0x01\n        /* \"Campaign.sol\":2698:2711  amount.length */\n      dup1\n      sload\n      swap1\n      pop\n        /* \"Campaign.sol\":2694:2695  i */\n      dup2\n        /* \"Campaign.sol\":2694:2711  i < amount.length */\n      lt\n        /* \"Campaign.sol\":2677:2781  for (uint i = 0; i < amount.length; i++) {... */\n      iszero\n      tag_107\n      jumpi\n        /* \"Campaign.sol\":2741:2745  apps */\n      0x04\n        /* \"Campaign.sol\":2746:2747  i */\n      dup2\n        /* \"Campaign.sol\":2741:2748  apps[i] */\n      dup2\n      sload\n      dup2\n      lt\n      tag_109\n      jumpi\n      tag_110\n      tag_75\n      jump\t// in\n    tag_110:\n    tag_109:\n      swap1\n      0x00\n      mstore\n      keccak256(0x00, 0x20)\n      add\n      0x00\n      swap1\n      sload\n      swap1\n      0x0100\n      exp\n      swap1\n      div\n      0xffffffffffffffffffffffffffffffffffffffff\n      and\n        /* \"Campaign.sol\":2733:2758  payable(apps[i]).transfer */\n      0xffffffffffffffffffffffffffffffffffffffff\n      and\n        /* \"Campaign.sol\":2733:2769  payable(apps[i]).transfer(amount[i]) */\n      0x08fc\n        /* \"Campaign.sol\":2759:2765  amount */\n      0x01\n        /* \"Campaign.sol\":2766:2767  i */\n      dup4\n        /* \"Campaign.sol\":2759:2768  amount[i] */\n      dup2\n      sload\n      dup2\n      lt\n      tag_112\n      jumpi\n      tag_113\n      tag_75\n      jump\t// in\n    tag_113:\n    tag_112:\n      swap1\n      0x00\n      mstore\n      keccak256(0x00, 0x20)\n      add\n      sload\n        /* \"Campaign.sol\":2733:2769  payable(apps[i]).transfer(amount[i]) */\n      swap1\n      dup2\n      iszero\n      mul\n      swap1\n      mload(0x40)\n      0x00\n      mload(0x40)\n      dup1\n      dup4\n      sub\n      dup2\n      dup6\n      dup9\n      dup9\n      call\n      swap4\n      pop\n      pop\n      pop\n      pop\n      iszero\n      dup1\n      iszero\n      tag_116\n      jumpi\n      returndatasize\n      0x00\n      dup1\n      returndatacopy\n      revert(0x00, returndatasize)\n    tag_116:\n      pop\n        /* \"Campaign.sol\":2713:2716  i++ */\n      dup1\n      dup1\n      0x01\n      add\n      swap2\n      pop\n      pop\n        /* \"Campaign.sol\":2677:2781  for (uint i = 0; i < amount.length; i++) {... */\n      jump(tag_106)\n    tag_107:\n      pop\n        /* \"Campaign.sol\":2570:2788  function cancelRequest() public payable restricted {... */\n      jump\t// out\n        /* \"Campaign.sol\":1476:1914  function createRequest(... */\n    tag_57:\n        /* \"Campaign.sol\":993:1000  manager */\n      0x02\n      0x00\n      swap1\n      sload\n      swap1\n      0x0100\n      exp\n      swap1\n      div\n      0xffffffffffffffffffffffffffffffffffffffff\n      and\n        /* \"Campaign.sol\":979:1000  msg.sender == manager */\n      0xffffffffffffffffffffffffffffffffffffffff\n      and\n        /* \"Campaign.sol\":979:989  msg.sender */\n      caller\n        /* \"Campaign.sol\":979:1000  msg.sender == manager */\n      0xffffffffffffffffffffffffffffffffffffffff\n      and\n      eq\n        /* \"Campaign.sol\":971:1001  require(msg.sender == manager) */\n      tag_118\n      jumpi\n      0x00\n      dup1\n      revert\n    tag_118:\n        /* \"Campaign.sol\":1671:1697  Request storage newRequest */\n      0x00\n        /* \"Campaign.sol\":1700:1708  requests */\n      dup1\n        /* \"Campaign.sol\":1700:1715  requests.push() */\n      0x01\n      dup2\n      0x01\n      dup2\n      sload\n      add\n      dup1\n      dup3\n      sstore\n      dup1\n      swap2\n      pop\n      pop\n      sub\n      swap1\n      0x00\n      mstore\n      keccak256(0x00, 0x20)\n      swap1\n      0x05\n      mul\n      add\n        /* \"Campaign.sol\":1671:1715  Request storage newRequest = requests.push() */\n      swap1\n      pop\n        /* \"Campaign.sol\":1753:1757  desc */\n      dup4\n        /* \"Campaign.sol\":1728:1738  newRequest */\n      dup2\n        /* \"Campaign.sol\":1728:1750  newRequest.description */\n      0x00\n      add\n        /* \"Campaign.sol\":1728:1757  newRequest.description = desc */\n      swap1\n      dup2\n      tag_121\n      swap2\n      swap1\n      tag_122\n      jump\t// in\n    tag_121:\n      pop\n        /* \"Campaign.sol\":1787:1790  val */\n      dup3\n        /* \"Campaign.sol\":1768:1778  newRequest */\n      dup2\n        /* \"Campaign.sol\":1768:1784  newRequest.value */\n      0x01\n      add\n        /* \"Campaign.sol\":1768:1790  newRequest.value = val */\n      dup2\n      swap1\n      sstore\n      pop\n        /* \"Campaign.sol\":1824:1829  recep */\n      dup2\n        /* \"Campaign.sol\":1801:1811  newRequest */\n      dup2\n        /* \"Campaign.sol\":1801:1821  newRequest.recipient */\n      0x02\n      add\n      0x00\n        /* \"Campaign.sol\":1801:1829  newRequest.recipient = recep */\n      0x0100\n      exp\n      dup2\n      sload\n      dup2\n      0xffffffffffffffffffffffffffffffffffffffff\n      mul\n      not\n      and\n      swap1\n      dup4\n      0xffffffffffffffffffffffffffffffffffffffff\n      and\n      mul\n      or\n      swap1\n      sstore\n      pop\n        /* \"Campaign.sol\":1862:1867  false */\n      0x00\n        /* \"Campaign.sol\":1840:1850  newRequest */\n      dup2\n        /* \"Campaign.sol\":1840:1859  newRequest.complete */\n      0x02\n      add\n      0x14\n        /* \"Campaign.sol\":1840:1867  newRequest.complete = false */\n      0x0100\n      exp\n      dup2\n      sload\n      dup2\n      0xff\n      mul\n      not\n      and\n      swap1\n      dup4\n      iszero\n      iszero\n      mul\n      or\n      swap1\n      sstore\n      pop\n        /* \"Campaign.sol\":1905:1906  0 */\n      0x00\n        /* \"Campaign.sol\":1878:1888  newRequest */\n      dup2\n        /* \"Campaign.sol\":1878:1902  newRequest.approvalCount */\n      0x03\n      add\n        /* \"Campaign.sol\":1878:1906  newRequest.approvalCount = 0 */\n      dup2\n      swap1\n      sstore\n      pop\n        /* \"Campaign.sol\":1615:1914  {... */\n      pop\n        /* \"Campaign.sol\":1476:1914  function createRequest(... */\n      pop\n      pop\n      pop\n      jump\t// out\n        /* \"Campaign.sol\":866:900  uint256 public minimumContribution */\n    tag_60:\n      sload(0x03)\n      dup2\n      jump\t// out\n        /* \"Campaign.sol\":1242:1468  function contribute() public payable {... */\n    tag_63:\n        /* \"Campaign.sol\":1310:1329  minimumContribution */\n      sload(0x03)\n        /* \"Campaign.sol\":1298:1307  msg.value */\n      callvalue\n        /* \"Campaign.sol\":1298:1329  msg.value > minimumContribution */\n      gt\n        /* \"Campaign.sol\":1290:1330  require(msg.value > minimumContribution) */\n      tag_124\n      jumpi\n      0x00\n      dup1\n      revert\n    tag_124:\n        /* \"Campaign.sol\":1365:1369  true */\n      0x01\n        /* \"Campaign.sol\":1341:1350  approvers */\n      0x05\n        /* \"Campaign.sol\":1341:1362  approvers[msg.sender] */\n      0x00\n        /* \"Campaign.sol\":1351:1361  msg.sender */\n      caller\n        /* \"Campaign.sol\":1341:1362  approvers[msg.sender] */\n      0xffffffffffffffffffffffffffffffffffffffff\n      and\n      0xffffffffffffffffffffffffffffffffffffffff\n      and\n      dup2\n      mstore\n      0x20\n      add\n      swap1\n      dup2\n      mstore\n      0x20\n      add\n      0x00\n      keccak256\n      0x00\n        /* \"Campaign.sol\":1341:1369  approvers[msg.sender] = true */\n      0x0100\n      exp\n      dup2\n      sload\n      dup2\n      0xff\n      mul\n      not\n      and\n      swap1\n      dup4\n      iszero\n      iszero\n      mul\n      or\n      swap1\n      sstore\n      pop\n        /* \"Campaign.sol\":1380:1386  amount */\n      0x01\n        /* \"Campaign.sol\":1392:1401  msg.value */\n      callvalue\n        /* \"Campaign.sol\":1380:1402  amount.push(msg.value) */\n      swap1\n      dup1\n      0x01\n      dup2\n      sload\n      add\n      dup1\n      dup3\n      sstore\n      dup1\n      swap2\n      pop\n      pop\n      0x01\n      swap1\n      sub\n      swap1\n      0x00\n      mstore\n      keccak256(0x00, 0x20)\n      add\n      0x00\n      swap1\n      swap2\n      swap1\n      swap2\n      swap1\n      swap2\n      pop\n      sstore\n        /* \"Campaign.sol\":1413:1426  approverCount */\n      0x06\n      0x00\n        /* \"Campaign.sol\":1413:1428  approverCount++ */\n      dup2\n      sload\n      dup1\n      swap3\n      swap2\n      swap1\n      tag_126\n      swap1\n      tag_127\n      jump\t// in\n    tag_126:\n      swap2\n      swap1\n      pop\n      sstore\n      pop\n        /* \"Campaign.sol\":1439:1443  apps */\n      0x04\n        /* \"Campaign.sol\":1449:1459  msg.sender */\n      caller\n        /* \"Campaign.sol\":1439:1460  apps.push(msg.sender) */\n      swap1\n      dup1\n      0x01\n      dup2\n      sload\n      add\n      dup1\n      dup3\n      sstore\n      dup1\n      swap2\n      pop\n      pop\n      0x01\n      swap1\n      sub\n      swap1\n      0x00\n      mstore\n      keccak256(0x00, 0x20)\n      add\n      0x00\n      swap1\n      swap2\n      swap1\n      swap2\n      swap1\n      swap2\n      0x0100\n      exp\n      dup2\n      sload\n      dup2\n      0xffffffffffffffffffffffffffffffffffffffff\n      mul\n      not\n      and\n      swap1\n      dup4\n      0xffffffffffffffffffffffffffffffffffffffff\n      and\n      mul\n      or\n      swap1\n      sstore\n      pop\n        /* \"Campaign.sol\":1242:1468  function contribute() public payable {... */\n      jump\t// out\n        /* \"Campaign.sol\":1920:2251  function approveRequest(uint256 index) public {... */\n    tag_67:\n        /* \"Campaign.sol\":1985:1994  approvers */\n      0x05\n        /* \"Campaign.sol\":1985:2006  approvers[msg.sender] */\n      0x00\n        /* \"Campaign.sol\":1995:2005  msg.sender */\n      caller\n        /* \"Campaign.sol\":1985:2006  approvers[msg.sender] */\n      0xffffffffffffffffffffffffffffffffffffffff\n      and\n      0xffffffffffffffffffffffffffffffffffffffff\n      and\n      dup2\n      mstore\n      0x20\n      add\n      swap1\n      dup2\n      mstore\n      0x20\n      add\n      0x00\n      keccak256\n      0x00\n      swap1\n      sload\n      swap1\n      0x0100\n      exp\n      swap1\n      div\n      0xff\n      and\n        /* \"Campaign.sol\":1977:2007  require(approvers[msg.sender]) */\n      tag_130\n      jumpi\n      0x00\n      dup1\n      revert\n    tag_130:\n        /* \"Campaign.sol\":2027:2035  requests */\n      0x00\n        /* \"Campaign.sol\":2036:2041  index */\n      dup2\n        /* \"Campaign.sol\":2027:2042  requests[index] */\n      dup2\n      sload\n      dup2\n      lt\n      tag_131\n      jumpi\n      tag_132\n      tag_75\n      jump\t// in\n    tag_132:\n    tag_131:\n      swap1\n      0x00\n      mstore\n      keccak256(0x00, 0x20)\n      swap1\n      0x05\n      mul\n      add\n        /* \"Campaign.sol\":2027:2052  requests[index].approvals */\n      0x04\n      add\n        /* \"Campaign.sol\":2027:2064  requests[index].approvals[msg.sender] */\n      0x00\n        /* \"Campaign.sol\":2053:2063  msg.sender */\n      caller\n        /* \"Campaign.sol\":2027:2064  requests[index].approvals[msg.sender] */\n      0xffffffffffffffffffffffffffffffffffffffff\n      and\n      0xffffffffffffffffffffffffffffffffffffffff\n      and\n      dup2\n      mstore\n      0x20\n      add\n      swap1\n      dup2\n      mstore\n      0x20\n      add\n      0x00\n      keccak256\n      0x00\n      swap1\n      sload\n      swap1\n      0x0100\n      exp\n      swap1\n      div\n      0xff\n      and\n        /* \"Campaign.sol\":2026:2064  !requests[index].approvals[msg.sender] */\n      iszero\n        /* \"Campaign.sol\":2018:2065  require(!requests[index].approvals[msg.sender]) */\n      tag_134\n      jumpi\n      0x00\n      dup1\n      revert\n    tag_134:\n        /* \"Campaign.sol\":2157:2165  requests */\n      0x00\n        /* \"Campaign.sol\":2166:2171  index */\n      dup2\n        /* \"Campaign.sol\":2157:2172  requests[index] */\n      dup2\n      sload\n      dup2\n      lt\n      tag_135\n      jumpi\n      tag_136\n      tag_75\n      jump\t// in\n    tag_136:\n    tag_135:\n      swap1\n      0x00\n      mstore\n      keccak256(0x00, 0x20)\n      swap1\n      0x05\n      mul\n      add\n        /* \"Campaign.sol\":2157:2186  requests[index].approvalCount */\n      0x03\n      add\n      0x00\n        /* \"Campaign.sol\":2157:2188  requests[index].approvalCount++ */\n      dup2\n      sload\n      dup1\n      swap3\n      swap2\n      swap1\n      tag_138\n      swap1\n      tag_127\n      jump\t// in\n    tag_138:\n      swap2\n      swap1\n      pop\n      sstore\n      pop\n        /* \"Campaign.sol\":2239:2243  true */\n      0x01\n        /* \"Campaign.sol\":2199:2207  requests */\n      0x00\n        /* \"Campaign.sol\":2208:2213  index */\n      dup3\n        /* \"Campaign.sol\":2199:2214  requests[index] */\n      dup2\n      sload\n      dup2\n      lt\n      tag_139\n      jumpi\n      tag_140\n      tag_75\n      jump\t// in\n    tag_140:\n    tag_139:\n      swap1\n      0x00\n      mstore\n      keccak256(0x00, 0x20)\n      swap1\n      0x05\n      mul\n      add\n        /* \"Campaign.sol\":2199:2224  requests[index].approvals */\n      0x04\n      add\n        /* \"Campaign.sol\":2199:2236  requests[index].approvals[msg.sender] */\n      0x00\n        /* \"Campaign.sol\":2225:2235  msg.sender */\n      caller\n        /* \"Campaign.sol\":2199:2236  requests[index].approvals[msg.sender] */\n      0xffffffffffffffffffffffffffffffffffffffff\n      and\n      0xffffffffffffffffffffffffffffffffffffffff\n      and\n      dup2\n      mstore\n      0x20\n      add\n      swap1\n      dup2\n      mstore\n      0x20\n      add\n      0x00\n      keccak256\n      0x00\n        /* \"Campaign.sol\":2199:2243  requests[index].approvals[msg.sender] = true */\n      0x0100\n      exp\n      dup2\n      sload\n      dup2\n      0xff\n      mul\n      not\n      and\n      swap1\n      dup4\n      iszero\n      iszero\n      mul\n      or\n      swap1\n      sstore\n      pop\n        /* \"Campaign.sol\":1920:2251  function approveRequest(uint256 index) public {... */\n      pop\n      jump\t// out\n        /* \"#utility.yul\":7:82   */\n    tag_142:\n        /* \"#utility.yul\":40:46   */\n      0x00\n        /* \"#utility.yul\":73:75   */\n      0x40\n        /* \"#utility.yul\":67:76   */\n      mload\n        /* \"#utility.yul\":57:76   */\n      swap1\n      pop\n        /* \"#utility.yul\":7:82   */\n      swap1\n      jump\t// out\n        /* \"#utility.yul\":88:205   */\n    tag_143:\n        /* \"#utility.yul\":197:198   */\n      0x00\n        /* \"#utility.yul\":194:195   */\n      dup1\n        /* \"#utility.yul\":187:199   */\n      revert\n        /* \"#utility.yul\":211:328   */\n    tag_144:\n        /* \"#utility.yul\":320:321   */\n      0x00\n        /* \"#utility.yul\":317:318   */\n      dup1\n        /* \"#utility.yul\":310:322   */\n      revert\n        /* \"#utility.yul\":334:411   */\n    tag_145:\n        /* \"#utility.yul\":371:378   */\n      0x00\n        /* \"#utility.yul\":400:405   */\n      dup2\n        /* \"#utility.yul\":389:405   */\n      swap1\n      pop\n        /* \"#utility.yul\":334:411   */\n      swap2\n      swap1\n      pop\n      jump\t// out\n        /* \"#utility.yul\":417:539   */\n    tag_146:\n        /* \"#utility.yul\":490:514   */\n      tag_197\n        /* \"#utility.yul\":508:513   */\n      dup2\n        /* \"#utility.yul\":490:514   */\n      tag_145\n      jump\t// in\n    tag_197:\n        /* \"#utility.yul\":483:488   */\n      dup2\n        /* \"#utility.yul\":480:515   */\n      eq\n        /* \"#utility.yul\":470:533   */\n      tag_198\n      jumpi\n        /* \"#utility.yul\":529:530   */\n      0x00\n        /* \"#utility.yul\":526:527   */\n      dup1\n        /* \"#utility.yul\":519:531   */\n      revert\n        /* \"#utility.yul\":470:533   */\n    tag_198:\n        /* \"#utility.yul\":417:539   */\n      pop\n      jump\t// out\n        /* \"#utility.yul\":545:684   */\n    tag_147:\n        /* \"#utility.yul\":591:596   */\n      0x00\n        /* \"#utility.yul\":629:635   */\n      dup2\n        /* \"#utility.yul\":616:636   */\n      calldataload\n        /* \"#utility.yul\":607:636   */\n      swap1\n      pop\n        /* \"#utility.yul\":645:678   */\n      tag_200\n        /* \"#utility.yul\":672:677   */\n      dup2\n        /* \"#utility.yul\":645:678   */\n      tag_146\n      jump\t// in\n    tag_200:\n        /* \"#utility.yul\":545:684   */\n      swap3\n      swap2\n      pop\n      pop\n      jump\t// out\n        /* \"#utility.yul\":690:1019   */\n    tag_18:\n        /* \"#utility.yul\":749:755   */\n      0x00\n        /* \"#utility.yul\":798:800   */\n      0x20\n        /* \"#utility.yul\":786:795   */\n      dup3\n        /* \"#utility.yul\":777:784   */\n      dup5\n        /* \"#utility.yul\":773:796   */\n      sub\n        /* \"#utility.yul\":769:801   */\n      slt\n        /* \"#utility.yul\":766:885   */\n      iszero\n      tag_202\n      jumpi\n        /* \"#utility.yul\":804:883   */\n      tag_203\n      tag_143\n      jump\t// in\n    tag_203:\n        /* \"#utility.yul\":766:885   */\n    tag_202:\n        /* \"#utility.yul\":924:925   */\n      0x00\n        /* \"#utility.yul\":949:1002   */\n      tag_204\n        /* \"#utility.yul\":994:1001   */\n      dup5\n        /* \"#utility.yul\":985:991   */\n      dup3\n        /* \"#utility.yul\":974:983   */\n      dup6\n        /* \"#utility.yul\":970:992   */\n      add\n        /* \"#utility.yul\":949:1002   */\n      tag_147\n      jump\t// in\n    tag_204:\n        /* \"#utility.yul\":939:1002   */\n      swap2\n      pop\n        /* \"#utility.yul\":895:1012   */\n      pop\n        /* \"#utility.yul\":690:1019   */\n      swap3\n      swap2\n      pop\n      pop\n      jump\t// out\n        /* \"#utility.yul\":1025:1151   */\n    tag_148:\n        /* \"#utility.yul\":1062:1069   */\n      0x00\n        /* \"#utility.yul\":1102:1144   */\n      0xffffffffffffffffffffffffffffffffffffffff\n        /* \"#utility.yul\":1095:1100   */\n      dup3\n        /* \"#utility.yul\":1091:1145   */\n      and\n        /* \"#utility.yul\":1080:1145   */\n      swap1\n      pop\n        /* \"#utility.yul\":1025:1151   */\n      swap2\n      swap1\n      pop\n      jump\t// out\n        /* \"#utility.yul\":1157:1253   */\n    tag_149:\n        /* \"#utility.yul\":1194:1201   */\n      0x00\n        /* \"#utility.yul\":1223:1247   */\n      tag_207\n        /* \"#utility.yul\":1241:1246   */\n      dup3\n        /* \"#utility.yul\":1223:1247   */\n      tag_148\n      jump\t// in\n    tag_207:\n        /* \"#utility.yul\":1212:1247   */\n      swap1\n      pop\n        /* \"#utility.yul\":1157:1253   */\n      swap2\n      swap1\n      pop\n      jump\t// out\n        /* \"#utility.yul\":1259:1381   */\n    tag_150:\n        /* \"#utility.yul\":1332:1356   */\n      tag_209\n        /* \"#utility.yul\":1350:1355   */\n      dup2\n        /* \"#utility.yul\":1332:1356   */\n      tag_149\n      jump\t// in\n    tag_209:\n        /* \"#utility.yul\":1325:1330   */\n      dup2\n        /* \"#utility.yul\":1322:1357   */\n      eq\n        /* \"#utility.yul\":1312:1375   */\n      tag_210\n      jumpi\n        /* \"#utility.yul\":1371:1372   */\n      0x00\n        /* \"#utility.yul\":1368:1369   */\n      dup1\n        /* \"#utility.yul\":1361:1373   */\n      revert\n        /* \"#utility.yul\":1312:1375   */\n    tag_210:\n        /* \"#utility.yul\":1259:1381   */\n      pop\n      jump\t// out\n        /* \"#utility.yul\":1387:1526   */\n    tag_151:\n        /* \"#utility.yul\":1433:1438   */\n      0x00\n        /* \"#utility.yul\":1471:1477   */\n      dup2\n        /* \"#utility.yul\":1458:1478   */\n      calldataload\n        /* \"#utility.yul\":1449:1478   */\n      swap1\n      pop\n        /* \"#utility.yul\":1487:1520   */\n      tag_212\n        /* \"#utility.yul\":1514:1519   */\n      dup2\n        /* \"#utility.yul\":1487:1520   */\n      tag_150\n      jump\t// in\n    tag_212:\n        /* \"#utility.yul\":1387:1526   */\n      swap3\n      swap2\n      pop\n      pop\n      jump\t// out\n        /* \"#utility.yul\":1532:1861   */\n    tag_23:\n        /* \"#utility.yul\":1591:1597   */\n      0x00\n        /* \"#utility.yul\":1640:1642   */\n      0x20\n        /* \"#utility.yul\":1628:1637   */\n      dup3\n        /* \"#utility.yul\":1619:1626   */\n      dup5\n        /* \"#utility.yul\":1615:1638   */\n      sub\n        /* \"#utility.yul\":1611:1643   */\n      slt\n        /* \"#utility.yul\":1608:1727   */\n      iszero\n      tag_214\n      jumpi\n        /* \"#utility.yul\":1646:1725   */\n      tag_215\n      tag_143\n      jump\t// in\n    tag_215:\n        /* \"#utility.yul\":1608:1727   */\n    tag_214:\n        /* \"#utility.yul\":1766:1767   */\n      0x00\n        /* \"#utility.yul\":1791:1844   */\n      tag_216\n        /* \"#utility.yul\":1836:1843   */\n      dup5\n        /* \"#utility.yul\":1827:1833   */\n      dup3\n        /* \"#utility.yul\":1816:1825   */\n      dup6\n        /* \"#utility.yul\":1812:1834   */\n      add\n        /* \"#utility.yul\":1791:1844   */\n      tag_151\n      jump\t// in\n    tag_216:\n        /* \"#utility.yul\":1781:1844   */\n      swap2\n      pop\n        /* \"#utility.yul\":1737:1854   */\n      pop\n        /* \"#utility.yul\":1532:1861   */\n      swap3\n      swap2\n      pop\n      pop\n      jump\t// out\n        /* \"#utility.yul\":1867:1957   */\n    tag_152:\n        /* \"#utility.yul\":1901:1908   */\n      0x00\n        /* \"#utility.yul\":1944:1949   */\n      dup2\n        /* \"#utility.yul\":1937:1950   */\n      iszero\n        /* \"#utility.yul\":1930:1951   */\n      iszero\n        /* \"#utility.yul\":1919:1951   */\n      swap1\n      pop\n        /* \"#utility.yul\":1867:1957   */\n      swap2\n      swap1\n      pop\n      jump\t// out\n        /* \"#utility.yul\":1963:2072   */\n    tag_153:\n        /* \"#utility.yul\":2044:2065   */\n      tag_219\n        /* \"#utility.yul\":2059:2064   */\n      dup2\n        /* \"#utility.yul\":2044:2065   */\n      tag_152\n      jump\t// in\n    tag_219:\n        /* \"#utility.yul\":2039:2042   */\n      dup3\n        /* \"#utility.yul\":2032:2066   */\n      mstore\n        /* \"#utility.yul\":1963:2072   */\n      pop\n      pop\n      jump\t// out\n        /* \"#utility.yul\":2078:2288   */\n    tag_26:\n        /* \"#utility.yul\":2165:2169   */\n      0x00\n        /* \"#utility.yul\":2203:2205   */\n      0x20\n        /* \"#utility.yul\":2192:2201   */\n      dup3\n        /* \"#utility.yul\":2188:2206   */\n      add\n        /* \"#utility.yul\":2180:2206   */\n      swap1\n      pop\n        /* \"#utility.yul\":2216:2281   */\n      tag_221\n        /* \"#utility.yul\":2278:2279   */\n      0x00\n        /* \"#utility.yul\":2267:2276   */\n      dup4\n        /* \"#utility.yul\":2263:2280   */\n      add\n        /* \"#utility.yul\":2254:2260   */\n      dup5\n        /* \"#utility.yul\":2216:2281   */\n      tag_153\n      jump\t// in\n    tag_221:\n        /* \"#utility.yul\":2078:2288   */\n      swap3\n      swap2\n      pop\n      pop\n      jump\t// out\n        /* \"#utility.yul\":2294:2412   */\n    tag_154:\n        /* \"#utility.yul\":2381:2405   */\n      tag_223\n        /* \"#utility.yul\":2399:2404   */\n      dup2\n        /* \"#utility.yul\":2381:2405   */\n      tag_145\n      jump\t// in\n    tag_223:\n        /* \"#utility.yul\":2376:2379   */\n      dup3\n        /* \"#utility.yul\":2369:2406   */\n      mstore\n        /* \"#utility.yul\":2294:2412   */\n      pop\n      pop\n      jump\t// out\n        /* \"#utility.yul\":2418:2640   */\n    tag_31:\n        /* \"#utility.yul\":2511:2515   */\n      0x00\n        /* \"#utility.yul\":2549:2551   */\n      0x20\n        /* \"#utility.yul\":2538:2547   */\n      dup3\n        /* \"#utility.yul\":2534:2552   */\n      add\n        /* \"#utility.yul\":2526:2552   */\n      swap1\n      pop\n        /* \"#utility.yul\":2562:2633   */\n      tag_225\n        /* \"#utility.yul\":2630:2631   */\n      0x00\n        /* \"#utility.yul\":2619:2628   */\n      dup4\n        /* \"#utility.yul\":2615:2632   */\n      add\n        /* \"#utility.yul\":2606:2612   */\n      dup5\n        /* \"#utility.yul\":2562:2633   */\n      tag_154\n      jump\t// in\n    tag_225:\n        /* \"#utility.yul\":2418:2640   */\n      swap3\n      swap2\n      pop\n      pop\n      jump\t// out\n        /* \"#utility.yul\":2646:2764   */\n    tag_155:\n        /* \"#utility.yul\":2733:2757   */\n      tag_227\n        /* \"#utility.yul\":2751:2756   */\n      dup2\n        /* \"#utility.yul\":2733:2757   */\n      tag_149\n      jump\t// in\n    tag_227:\n        /* \"#utility.yul\":2728:2731   */\n      dup3\n        /* \"#utility.yul\":2721:2758   */\n      mstore\n        /* \"#utility.yul\":2646:2764   */\n      pop\n      pop\n      jump\t// out\n        /* \"#utility.yul\":2770:3434   */\n    tag_40:\n        /* \"#utility.yul\":2975:2979   */\n      0x00\n        /* \"#utility.yul\":3013:3016   */\n      0xa0\n        /* \"#utility.yul\":3002:3011   */\n      dup3\n        /* \"#utility.yul\":2998:3017   */\n      add\n        /* \"#utility.yul\":2990:3017   */\n      swap1\n      pop\n        /* \"#utility.yul\":3027:3098   */\n      tag_229\n        /* \"#utility.yul\":3095:3096   */\n      0x00\n        /* \"#utility.yul\":3084:3093   */\n      dup4\n        /* \"#utility.yul\":3080:3097   */\n      add\n        /* \"#utility.yul\":3071:3077   */\n      dup9\n        /* \"#utility.yul\":3027:3098   */\n      tag_154\n      jump\t// in\n    tag_229:\n        /* \"#utility.yul\":3108:3180   */\n      tag_230\n        /* \"#utility.yul\":3176:3178   */\n      0x20\n        /* \"#utility.yul\":3165:3174   */\n      dup4\n        /* \"#utility.yul\":3161:3179   */\n      add\n        /* \"#utility.yul\":3152:3158   */\n      dup8\n        /* \"#utility.yul\":3108:3180   */\n      tag_154\n      jump\t// in\n    tag_230:\n        /* \"#utility.yul\":3190:3262   */\n      tag_231\n        /* \"#utility.yul\":3258:3260   */\n      0x40\n        /* \"#utility.yul\":3247:3256   */\n      dup4\n        /* \"#utility.yul\":3243:3261   */\n      add\n        /* \"#utility.yul\":3234:3240   */\n      dup7\n        /* \"#utility.yul\":3190:3262   */\n      tag_154\n      jump\t// in\n    tag_231:\n        /* \"#utility.yul\":3272:3344   */\n      tag_232\n        /* \"#utility.yul\":3340:3342   */\n      0x60\n        /* \"#utility.yul\":3329:3338   */\n      dup4\n        /* \"#utility.yul\":3325:3343   */\n      add\n        /* \"#utility.yul\":3316:3322   */\n      dup6\n        /* \"#utility.yul\":3272:3344   */\n      tag_154\n      jump\t// in\n    tag_232:\n        /* \"#utility.yul\":3354:3427   */\n      tag_233\n        /* \"#utility.yul\":3422:3425   */\n      0x80\n        /* \"#utility.yul\":3411:3420   */\n      dup4\n        /* \"#utility.yul\":3407:3426   */\n      add\n        /* \"#utility.yul\":3398:3404   */\n      dup5\n        /* \"#utility.yul\":3354:3427   */\n      tag_155\n      jump\t// in\n    tag_233:\n        /* \"#utility.yul\":2770:3434   */\n      swap7\n      swap6\n      pop\n      pop\n      pop\n      pop\n      pop\n      pop\n      jump\t// out\n        /* \"#utility.yul\":3440:3662   */\n    tag_45:\n        /* \"#utility.yul\":3533:3537   */\n      0x00\n        /* \"#utility.yul\":3571:3573   */\n      0x20\n        /* \"#utility.yul\":3560:3569   */\n      dup3\n        /* \"#utility.yul\":3556:3574   */\n      add\n        /* \"#utility.yul\":3548:3574   */\n      swap1\n      pop\n        /* \"#utility.yul\":3584:3655   */\n      tag_235\n        /* \"#utility.yul\":3652:3653   */\n      0x00\n        /* \"#utility.yul\":3641:3650   */\n      dup4\n        /* \"#utility.yul\":3637:3654   */\n      add\n        /* \"#utility.yul\":3628:3634   */\n      dup5\n        /* \"#utility.yul\":3584:3655   */\n      tag_155\n      jump\t// in\n    tag_235:\n        /* \"#utility.yul\":3440:3662   */\n      swap3\n      swap2\n      pop\n      pop\n      jump\t// out\n        /* \"#utility.yul\":3668:3767   */\n    tag_156:\n        /* \"#utility.yul\":3720:3726   */\n      0x00\n        /* \"#utility.yul\":3754:3759   */\n      dup2\n        /* \"#utility.yul\":3748:3760   */\n      mload\n        /* \"#utility.yul\":3738:3760   */\n      swap1\n      pop\n        /* \"#utility.yul\":3668:3767   */\n      swap2\n      swap1\n      pop\n      jump\t// out\n        /* \"#utility.yul\":3773:3942   */\n    tag_157:\n        /* \"#utility.yul\":3857:3868   */\n      0x00\n        /* \"#utility.yul\":3891:3897   */\n      dup3\n        /* \"#utility.yul\":3886:3889   */\n      dup3\n        /* \"#utility.yul\":3879:3898   */\n      mstore\n        /* \"#utility.yul\":3931:3935   */\n      0x20\n        /* \"#utility.yul\":3926:3929   */\n      dup3\n        /* \"#utility.yul\":3922:3936   */\n      add\n        /* \"#utility.yul\":3907:3936   */\n      swap1\n      pop\n        /* \"#utility.yul\":3773:3942   */\n      swap3\n      swap2\n      pop\n      pop\n      jump\t// out\n        /* \"#utility.yul\":3948:4087   */\n    tag_158:\n        /* \"#utility.yul\":4037:4043   */\n      dup3\n        /* \"#utility.yul\":4032:4035   */\n      dup2\n        /* \"#utility.yul\":4027:4030   */\n      dup4\n        /* \"#utility.yul\":4021:4044   */\n      mcopy\n        /* \"#utility.yul\":4078:4079   */\n      0x00\n        /* \"#utility.yul\":4069:4075   */\n      dup4\n        /* \"#utility.yul\":4064:4067   */\n      dup4\n        /* \"#utility.yul\":4060:4076   */\n      add\n        /* \"#utility.yul\":4053:4080   */\n      mstore\n        /* \"#utility.yul\":3948:4087   */\n      pop\n      pop\n      pop\n      jump\t// out\n        /* \"#utility.yul\":4093:4195   */\n    tag_159:\n        /* \"#utility.yul\":4134:4140   */\n      0x00\n        /* \"#utility.yul\":4185:4187   */\n      0x1f\n        /* \"#utility.yul\":4181:4188   */\n      not\n        /* \"#utility.yul\":4176:4178   */\n      0x1f\n        /* \"#utility.yul\":4169:4174   */\n      dup4\n        /* \"#utility.yul\":4165:4179   */\n      add\n        /* \"#utility.yul\":4161:4189   */\n      and\n        /* \"#utility.yul\":4151:4189   */\n      swap1\n      pop\n        /* \"#utility.yul\":4093:4195   */\n      swap2\n      swap1\n      pop\n      jump\t// out\n        /* \"#utility.yul\":4201:4578   */\n    tag_160:\n        /* \"#utility.yul\":4289:4292   */\n      0x00\n        /* \"#utility.yul\":4317:4356   */\n      tag_241\n        /* \"#utility.yul\":4350:4355   */\n      dup3\n        /* \"#utility.yul\":4317:4356   */\n      tag_156\n      jump\t// in\n    tag_241:\n        /* \"#utility.yul\":4372:4443   */\n      tag_242\n        /* \"#utility.yul\":4436:4442   */\n      dup2\n        /* \"#utility.yul\":4431:4434   */\n      dup6\n        /* \"#utility.yul\":4372:4443   */\n      tag_157\n      jump\t// in\n    tag_242:\n        /* \"#utility.yul\":4365:4443   */\n      swap4\n      pop\n        /* \"#utility.yul\":4452:4517   */\n      tag_243\n        /* \"#utility.yul\":4510:4516   */\n      dup2\n        /* \"#utility.yul\":4505:4508   */\n      dup6\n        /* \"#utility.yul\":4498:4502   */\n      0x20\n        /* \"#utility.yul\":4491:4496   */\n      dup7\n        /* \"#utility.yul\":4487:4503   */\n      add\n        /* \"#utility.yul\":4452:4517   */\n      tag_158\n      jump\t// in\n    tag_243:\n        /* \"#utility.yul\":4542:4571   */\n      tag_244\n        /* \"#utility.yul\":4564:4570   */\n      dup2\n        /* \"#utility.yul\":4542:4571   */\n      tag_159\n      jump\t// in\n    tag_244:\n        /* \"#utility.yul\":4537:4540   */\n      dup5\n        /* \"#utility.yul\":4533:4572   */\n      add\n        /* \"#utility.yul\":4526:4572   */\n      swap2\n      pop\n        /* \"#utility.yul\":4293:4578   */\n      pop\n        /* \"#utility.yul\":4201:4578   */\n      swap3\n      swap2\n      pop\n      pop\n      jump\t// out\n        /* \"#utility.yul\":4584:5327   */\n    tag_51:\n        /* \"#utility.yul\":4803:4807   */\n      0x00\n        /* \"#utility.yul\":4841:4844   */\n      0xa0\n        /* \"#utility.yul\":4830:4839   */\n      dup3\n        /* \"#utility.yul\":4826:4845   */\n      add\n        /* \"#utility.yul\":4818:4845   */\n      swap1\n      pop\n        /* \"#utility.yul\":4891:4900   */\n      dup2\n        /* \"#utility.yul\":4885:4889   */\n      dup2\n        /* \"#utility.yul\":4881:4901   */\n      sub\n        /* \"#utility.yul\":4877:4878   */\n      0x00\n        /* \"#utility.yul\":4866:4875   */\n      dup4\n        /* \"#utility.yul\":4862:4879   */\n      add\n        /* \"#utility.yul\":4855:4902   */\n      mstore\n        /* \"#utility.yul\":4919:4997   */\n      tag_246\n        /* \"#utility.yul\":4992:4996   */\n      dup2\n        /* \"#utility.yul\":4983:4989   */\n      dup9\n        /* \"#utility.yul\":4919:4997   */\n      tag_160\n      jump\t// in\n    tag_246:\n        /* \"#utility.yul\":4911:4997   */\n      swap1\n      pop\n        /* \"#utility.yul\":5007:5079   */\n      tag_247\n        /* \"#utility.yul\":5075:5077   */\n      0x20\n        /* \"#utility.yul\":5064:5073   */\n      dup4\n        /* \"#utility.yul\":5060:5078   */\n      add\n        /* \"#utility.yul\":5051:5057   */\n      dup8\n        /* \"#utility.yul\":5007:5079   */\n      tag_154\n      jump\t// in\n    tag_247:\n        /* \"#utility.yul\":5089:5161   */\n      tag_248\n        /* \"#utility.yul\":5157:5159   */\n      0x40\n        /* \"#utility.yul\":5146:5155   */\n      dup4\n        /* \"#utility.yul\":5142:5160   */\n      add\n        /* \"#utility.yul\":5133:5139   */\n      dup7\n        /* \"#utility.yul\":5089:5161   */\n      tag_155\n      jump\t// in\n    tag_248:\n        /* \"#utility.yul\":5171:5237   */\n      tag_249\n        /* \"#utility.yul\":5233:5235   */\n      0x60\n        /* \"#utility.yul\":5222:5231   */\n      dup4\n        /* \"#utility.yul\":5218:5236   */\n      add\n        /* \"#utility.yul\":5209:5215   */\n      dup6\n        /* \"#utility.yul\":5171:5237   */\n      tag_153\n      jump\t// in\n    tag_249:\n        /* \"#utility.yul\":5247:5320   */\n      tag_250\n        /* \"#utility.yul\":5315:5318   */\n      0x80\n        /* \"#utility.yul\":5304:5313   */\n      dup4\n        /* \"#utility.yul\":5300:5319   */\n      add\n        /* \"#utility.yul\":5291:5297   */\n      dup5\n        /* \"#utility.yul\":5247:5320   */\n      tag_154\n      jump\t// in\n    tag_250:\n        /* \"#utility.yul\":4584:5327   */\n      swap7\n      swap6\n      pop\n      pop\n      pop\n      pop\n      pop\n      pop\n      jump\t// out\n        /* \"#utility.yul\":5333:5450   */\n    tag_161:\n        /* \"#utility.yul\":5442:5443   */\n      0x00\n        /* \"#utility.yul\":5439:5440   */\n      dup1\n        /* \"#utility.yul\":5432:5444   */\n      revert\n        /* \"#utility.yul\":5456:5573   */\n    tag_162:\n        /* \"#utility.yul\":5565:5566   */\n      0x00\n        /* \"#utility.yul\":5562:5563   */\n      dup1\n        /* \"#utility.yul\":5555:5567   */\n      revert\n        /* \"#utility.yul\":5579:5759   */\n    tag_163:\n        /* \"#utility.yul\":5627:5704   */\n      0x4e487b7100000000000000000000000000000000000000000000000000000000\n        /* \"#utility.yul\":5624:5625   */\n      0x00\n        /* \"#utility.yul\":5617:5705   */\n      mstore\n        /* \"#utility.yul\":5724:5728   */\n      0x41\n        /* \"#utility.yul\":5721:5722   */\n      0x04\n        /* \"#utility.yul\":5714:5729   */\n      mstore\n        /* \"#utility.yul\":5748:5752   */\n      0x24\n        /* \"#utility.yul\":5745:5746   */\n      0x00\n        /* \"#utility.yul\":5738:5753   */\n      revert\n        /* \"#utility.yul\":5765:6046   */\n    tag_164:\n        /* \"#utility.yul\":5848:5875   */\n      tag_255\n        /* \"#utility.yul\":5870:5874   */\n      dup3\n        /* \"#utility.yul\":5848:5875   */\n      tag_159\n      jump\t// in\n    tag_255:\n        /* \"#utility.yul\":5840:5846   */\n      dup2\n        /* \"#utility.yul\":5836:5876   */\n      add\n        /* \"#utility.yul\":5978:5984   */\n      dup2\n        /* \"#utility.yul\":5966:5976   */\n      dup2\n        /* \"#utility.yul\":5963:5985   */\n      lt\n        /* \"#utility.yul\":5942:5960   */\n      0xffffffffffffffff\n        /* \"#utility.yul\":5930:5940   */\n      dup3\n        /* \"#utility.yul\":5927:5961   */\n      gt\n        /* \"#utility.yul\":5924:5986   */\n      or\n        /* \"#utility.yul\":5921:6009   */\n      iszero\n      tag_256\n      jumpi\n        /* \"#utility.yul\":5989:6007   */\n      tag_257\n      tag_163\n      jump\t// in\n    tag_257:\n        /* \"#utility.yul\":5921:6009   */\n    tag_256:\n        /* \"#utility.yul\":6029:6039   */\n      dup1\n        /* \"#utility.yul\":6025:6027   */\n      0x40\n        /* \"#utility.yul\":6018:6040   */\n      mstore\n        /* \"#utility.yul\":5808:6046   */\n      pop\n        /* \"#utility.yul\":5765:6046   */\n      pop\n      pop\n      jump\t// out\n        /* \"#utility.yul\":6052:6181   */\n    tag_165:\n        /* \"#utility.yul\":6086:6092   */\n      0x00\n        /* \"#utility.yul\":6113:6133   */\n      tag_259\n      tag_142\n      jump\t// in\n    tag_259:\n        /* \"#utility.yul\":6103:6133   */\n      swap1\n      pop\n        /* \"#utility.yul\":6142:6175   */\n      tag_260\n        /* \"#utility.yul\":6170:6174   */\n      dup3\n        /* \"#utility.yul\":6162:6168   */\n      dup3\n        /* \"#utility.yul\":6142:6175   */\n      tag_164\n      jump\t// in\n    tag_260:\n        /* \"#utility.yul\":6052:6181   */\n      swap2\n      swap1\n      pop\n      jump\t// out\n        /* \"#utility.yul\":6187:6495   */\n    tag_166:\n        /* \"#utility.yul\":6249:6253   */\n      0x00\n        /* \"#utility.yul\":6339:6357   */\n      0xffffffffffffffff\n        /* \"#utility.yul\":6331:6337   */\n      dup3\n        /* \"#utility.yul\":6328:6358   */\n      gt\n        /* \"#utility.yul\":6325:6381   */\n      iszero\n      tag_262\n      jumpi\n        /* \"#utility.yul\":6361:6379   */\n      tag_263\n      tag_163\n      jump\t// in\n    tag_263:\n        /* \"#utility.yul\":6325:6381   */\n    tag_262:\n        /* \"#utility.yul\":6399:6428   */\n      tag_264\n        /* \"#utility.yul\":6421:6427   */\n      dup3\n        /* \"#utility.yul\":6399:6428   */\n      tag_159\n      jump\t// in\n    tag_264:\n        /* \"#utility.yul\":6391:6428   */\n      swap1\n      pop\n        /* \"#utility.yul\":6483:6487   */\n      0x20\n        /* \"#utility.yul\":6477:6481   */\n      dup2\n        /* \"#utility.yul\":6473:6488   */\n      add\n        /* \"#utility.yul\":6465:6488   */\n      swap1\n      pop\n        /* \"#utility.yul\":6187:6495   */\n      swap2\n      swap1\n      pop\n      jump\t// out\n        /* \"#utility.yul\":6501:6649   */\n    tag_167:\n        /* \"#utility.yul\":6599:6605   */\n      dup3\n        /* \"#utility.yul\":6594:6597   */\n      dup2\n        /* \"#utility.yul\":6589:6592   */\n      dup4\n        /* \"#utility.yul\":6576:6606   */\n      calldatacopy\n        /* \"#utility.yul\":6640:6641   */\n      0x00\n        /* \"#utility.yul\":6631:6637   */\n      dup4\n        /* \"#utility.yul\":6626:6629   */\n      dup4\n        /* \"#utility.yul\":6622:6638   */\n      add\n        /* \"#utility.yul\":6615:6642   */\n      mstore\n        /* \"#utility.yul\":6501:6649   */\n      pop\n      pop\n      pop\n      jump\t// out\n        /* \"#utility.yul\":6655:7080   */\n    tag_168:\n        /* \"#utility.yul\":6733:6738   */\n      0x00\n        /* \"#utility.yul\":6758:6824   */\n      tag_267\n        /* \"#utility.yul\":6774:6823   */\n      tag_268\n        /* \"#utility.yul\":6816:6822   */\n      dup5\n        /* \"#utility.yul\":6774:6823   */\n      tag_166\n      jump\t// in\n    tag_268:\n        /* \"#utility.yul\":6758:6824   */\n      tag_165\n      jump\t// in\n    tag_267:\n        /* \"#utility.yul\":6749:6824   */\n      swap1\n      pop\n        /* \"#utility.yul\":6847:6853   */\n      dup3\n        /* \"#utility.yul\":6840:6845   */\n      dup2\n        /* \"#utility.yul\":6833:6854   */\n      mstore\n        /* \"#utility.yul\":6885:6889   */\n      0x20\n        /* \"#utility.yul\":6878:6883   */\n      dup2\n        /* \"#utility.yul\":6874:6890   */\n      add\n        /* \"#utility.yul\":6923:6926   */\n      dup5\n        /* \"#utility.yul\":6914:6920   */\n      dup5\n        /* \"#utility.yul\":6909:6912   */\n      dup5\n        /* \"#utility.yul\":6905:6921   */\n      add\n        /* \"#utility.yul\":6902:6927   */\n      gt\n        /* \"#utility.yul\":6899:7011   */\n      iszero\n      tag_269\n      jumpi\n        /* \"#utility.yul\":6930:7009   */\n      tag_270\n      tag_162\n      jump\t// in\n    tag_270:\n        /* \"#utility.yul\":6899:7011   */\n    tag_269:\n        /* \"#utility.yul\":7020:7074   */\n      tag_271\n        /* \"#utility.yul\":7067:7073   */\n      dup5\n        /* \"#utility.yul\":7062:7065   */\n      dup3\n        /* \"#utility.yul\":7057:7060   */\n      dup6\n        /* \"#utility.yul\":7020:7074   */\n      tag_167\n      jump\t// in\n    tag_271:\n        /* \"#utility.yul\":6739:7080   */\n      pop\n        /* \"#utility.yul\":6655:7080   */\n      swap4\n      swap3\n      pop\n      pop\n      pop\n      jump\t// out\n        /* \"#utility.yul\":7100:7440   */\n    tag_169:\n        /* \"#utility.yul\":7156:7161   */\n      0x00\n        /* \"#utility.yul\":7205:7208   */\n      dup3\n        /* \"#utility.yul\":7198:7202   */\n      0x1f\n        /* \"#utility.yul\":7190:7196   */\n      dup4\n        /* \"#utility.yul\":7186:7203   */\n      add\n        /* \"#utility.yul\":7182:7209   */\n      slt\n        /* \"#utility.yul\":7172:7294   */\n      tag_273\n      jumpi\n        /* \"#utility.yul\":7213:7292   */\n      tag_274\n      tag_161\n      jump\t// in\n    tag_274:\n        /* \"#utility.yul\":7172:7294   */\n    tag_273:\n        /* \"#utility.yul\":7330:7336   */\n      dup2\n        /* \"#utility.yul\":7317:7337   */\n      calldataload\n        /* \"#utility.yul\":7355:7434   */\n      tag_275\n        /* \"#utility.yul\":7430:7433   */\n      dup5\n        /* \"#utility.yul\":7422:7428   */\n      dup3\n        /* \"#utility.yul\":7415:7419   */\n      0x20\n        /* \"#utility.yul\":7407:7413   */\n      dup7\n        /* \"#utility.yul\":7403:7420   */\n      add\n        /* \"#utility.yul\":7355:7434   */\n      tag_168\n      jump\t// in\n    tag_275:\n        /* \"#utility.yul\":7346:7434   */\n      swap2\n      pop\n        /* \"#utility.yul\":7162:7440   */\n      pop\n        /* \"#utility.yul\":7100:7440   */\n      swap3\n      swap2\n      pop\n      pop\n      jump\t// out\n        /* \"#utility.yul\":7446:7550   */\n    tag_170:\n        /* \"#utility.yul\":7491:7498   */\n      0x00\n        /* \"#utility.yul\":7520:7544   */\n      tag_277\n        /* \"#utility.yul\":7538:7543   */\n      dup3\n        /* \"#utility.yul\":7520:7544   */\n      tag_148\n      jump\t// in\n    tag_277:\n        /* \"#utility.yul\":7509:7544   */\n      swap1\n      pop\n        /* \"#utility.yul\":7446:7550   */\n      swap2\n      swap1\n      pop\n      jump\t// out\n        /* \"#utility.yul\":7556:7694   */\n    tag_171:\n        /* \"#utility.yul\":7637:7669   */\n      tag_279\n        /* \"#utility.yul\":7663:7668   */\n      dup2\n        /* \"#utility.yul\":7637:7669   */\n      tag_170\n      jump\t// in\n    tag_279:\n        /* \"#utility.yul\":7630:7635   */\n      dup2\n        /* \"#utility.yul\":7627:7670   */\n      eq\n        /* \"#utility.yul\":7617:7688   */\n      tag_280\n      jumpi\n        /* \"#utility.yul\":7684:7685   */\n      0x00\n        /* \"#utility.yul\":7681:7682   */\n      dup1\n        /* \"#utility.yul\":7674:7686   */\n      revert\n        /* \"#utility.yul\":7617:7688   */\n    tag_280:\n        /* \"#utility.yul\":7556:7694   */\n      pop\n      jump\t// out\n        /* \"#utility.yul\":7700:7855   */\n    tag_172:\n        /* \"#utility.yul\":7754:7759   */\n      0x00\n        /* \"#utility.yul\":7792:7798   */\n      dup2\n        /* \"#utility.yul\":7779:7799   */\n      calldataload\n        /* \"#utility.yul\":7770:7799   */\n      swap1\n      pop\n        /* \"#utility.yul\":7808:7849   */\n      tag_282\n        /* \"#utility.yul\":7843:7848   */\n      dup2\n        /* \"#utility.yul\":7808:7849   */\n      tag_171\n      jump\t// in\n    tag_282:\n        /* \"#utility.yul\":7700:7855   */\n      swap3\n      swap2\n      pop\n      pop\n      jump\t// out\n        /* \"#utility.yul\":7861:8676   */\n    tag_56:\n        /* \"#utility.yul\":7956:7962   */\n      0x00\n        /* \"#utility.yul\":7964:7970   */\n      dup1\n        /* \"#utility.yul\":7972:7978   */\n      0x00\n        /* \"#utility.yul\":8021:8023   */\n      0x60\n        /* \"#utility.yul\":8009:8018   */\n      dup5\n        /* \"#utility.yul\":8000:8007   */\n      dup7\n        /* \"#utility.yul\":7996:8019   */\n      sub\n        /* \"#utility.yul\":7992:8024   */\n      slt\n        /* \"#utility.yul\":7989:8108   */\n      iszero\n      tag_284\n      jumpi\n        /* \"#utility.yul\":8027:8106   */\n      tag_285\n      tag_143\n      jump\t// in\n    tag_285:\n        /* \"#utility.yul\":7989:8108   */\n    tag_284:\n        /* \"#utility.yul\":8175:8176   */\n      0x00\n        /* \"#utility.yul\":8164:8173   */\n      dup5\n        /* \"#utility.yul\":8160:8177   */\n      add\n        /* \"#utility.yul\":8147:8178   */\n      calldataload\n        /* \"#utility.yul\":8205:8223   */\n      0xffffffffffffffff\n        /* \"#utility.yul\":8197:8203   */\n      dup2\n        /* \"#utility.yul\":8194:8224   */\n      gt\n        /* \"#utility.yul\":8191:8308   */\n      iszero\n      tag_286\n      jumpi\n        /* \"#utility.yul\":8227:8306   */\n      tag_287\n      tag_144\n      jump\t// in\n    tag_287:\n        /* \"#utility.yul\":8191:8308   */\n    tag_286:\n        /* \"#utility.yul\":8332:8395   */\n      tag_288\n        /* \"#utility.yul\":8387:8394   */\n      dup7\n        /* \"#utility.yul\":8378:8384   */\n      dup3\n        /* \"#utility.yul\":8367:8376   */\n      dup8\n        /* \"#utility.yul\":8363:8385   */\n      add\n        /* \"#utility.yul\":8332:8395   */\n      tag_169\n      jump\t// in\n    tag_288:\n        /* \"#utility.yul\":8322:8395   */\n      swap4\n      pop\n        /* \"#utility.yul\":8118:8405   */\n      pop\n        /* \"#utility.yul\":8444:8446   */\n      0x20\n        /* \"#utility.yul\":8470:8523   */\n      tag_289\n        /* \"#utility.yul\":8515:8522   */\n      dup7\n        /* \"#utility.yul\":8506:8512   */\n      dup3\n        /* \"#utility.yul\":8495:8504   */\n      dup8\n        /* \"#utility.yul\":8491:8513   */\n      add\n        /* \"#utility.yul\":8470:8523   */\n      tag_147\n      jump\t// in\n    tag_289:\n        /* \"#utility.yul\":8460:8523   */\n      swap3\n      pop\n        /* \"#utility.yul\":8415:8533   */\n      pop\n        /* \"#utility.yul\":8572:8574   */\n      0x40\n        /* \"#utility.yul\":8598:8659   */\n      tag_290\n        /* \"#utility.yul\":8651:8658   */\n      dup7\n        /* \"#utility.yul\":8642:8648   */\n      dup3\n        /* \"#utility.yul\":8631:8640   */\n      dup8\n        /* \"#utility.yul\":8627:8649   */\n      add\n        /* \"#utility.yul\":8598:8659   */\n      tag_172\n      jump\t// in\n    tag_290:\n        /* \"#utility.yul\":8588:8659   */\n      swap2\n      pop\n        /* \"#utility.yul\":8543:8669   */\n      pop\n        /* \"#utility.yul\":7861:8676   */\n      swap3\n      pop\n      swap3\n      pop\n      swap3\n      jump\t// out\n        /* \"#utility.yul\":8682:8862   */\n    tag_173:\n        /* \"#utility.yul\":8730:8807   */\n      0x4e487b7100000000000000000000000000000000000000000000000000000000\n        /* \"#utility.yul\":8727:8728   */\n      0x00\n        /* \"#utility.yul\":8720:8808   */\n      mstore\n        /* \"#utility.yul\":8827:8831   */\n      0x12\n        /* \"#utility.yul\":8824:8825   */\n      0x04\n        /* \"#utility.yul\":8817:8832   */\n      mstore\n        /* \"#utility.yul\":8851:8855   */\n      0x24\n        /* \"#utility.yul\":8848:8849   */\n      0x00\n        /* \"#utility.yul\":8841:8856   */\n      revert\n        /* \"#utility.yul\":8868:9048   */\n    tag_174:\n        /* \"#utility.yul\":8916:8993   */\n      0x4e487b7100000000000000000000000000000000000000000000000000000000\n        /* \"#utility.yul\":8913:8914   */\n      0x00\n        /* \"#utility.yul\":8906:8994   */\n      mstore\n        /* \"#utility.yul\":9013:9017   */\n      0x11\n        /* \"#utility.yul\":9010:9011   */\n      0x04\n        /* \"#utility.yul\":9003:9018   */\n      mstore\n        /* \"#utility.yul\":9037:9041   */\n      0x24\n        /* \"#utility.yul\":9034:9035   */\n      0x00\n        /* \"#utility.yul\":9027:9042   */\n      revert\n        /* \"#utility.yul\":9054:9239   */\n    tag_72:\n        /* \"#utility.yul\":9094:9095   */\n      0x00\n        /* \"#utility.yul\":9111:9131   */\n      tag_294\n        /* \"#utility.yul\":9129:9130   */\n      dup3\n        /* \"#utility.yul\":9111:9131   */\n      tag_145\n      jump\t// in\n    tag_294:\n        /* \"#utility.yul\":9106:9131   */\n      swap2\n      pop\n        /* \"#utility.yul\":9145:9165   */\n      tag_295\n        /* \"#utility.yul\":9163:9164   */\n      dup4\n        /* \"#utility.yul\":9145:9165   */\n      tag_145\n      jump\t// in\n    tag_295:\n        /* \"#utility.yul\":9140:9165   */\n      swap3\n      pop\n        /* \"#utility.yul\":9184:9185   */\n      dup3\n        /* \"#utility.yul\":9174:9209   */\n      tag_296\n      jumpi\n        /* \"#utility.yul\":9189:9207   */\n      tag_297\n      tag_173\n      jump\t// in\n    tag_297:\n        /* \"#utility.yul\":9174:9209   */\n    tag_296:\n        /* \"#utility.yul\":9231:9232   */\n      dup3\n        /* \"#utility.yul\":9228:9229   */\n      dup3\n        /* \"#utility.yul\":9224:9233   */\n      div\n        /* \"#utility.yul\":9219:9233   */\n      swap1\n      pop\n        /* \"#utility.yul\":9054:9239   */\n      swap3\n      swap2\n      pop\n      pop\n      jump\t// out\n        /* \"#utility.yul\":9245:9425   */\n    tag_75:\n        /* \"#utility.yul\":9293:9370   */\n      0x4e487b7100000000000000000000000000000000000000000000000000000000\n        /* \"#utility.yul\":9290:9291   */\n      0x00\n        /* \"#utility.yul\":9283:9371   */\n      mstore\n        /* \"#utility.yul\":9390:9394   */\n      0x32\n        /* \"#utility.yul\":9387:9388   */\n      0x04\n        /* \"#utility.yul\":9380:9395   */\n      mstore\n        /* \"#utility.yul\":9414:9418   */\n      0x24\n        /* \"#utility.yul\":9411:9412   */\n      0x00\n        /* \"#utility.yul\":9404:9419   */\n      revert\n        /* \"#utility.yul\":9431:9611   */\n    tag_175:\n        /* \"#utility.yul\":9479:9556   */\n      0x4e487b7100000000000000000000000000000000000000000000000000000000\n        /* \"#utility.yul\":9476:9477   */\n      0x00\n        /* \"#utility.yul\":9469:9557   */\n      mstore\n        /* \"#utility.yul\":9576:9580   */\n      0x22\n        /* \"#utility.yul\":9573:9574   */\n      0x04\n        /* \"#utility.yul\":9566:9581   */\n      mstore\n        /* \"#utility.yul\":9600:9604   */\n      0x24\n        /* \"#utility.yul\":9597:9598   */\n      0x00\n        /* \"#utility.yul\":9590:9605   */\n      revert\n        /* \"#utility.yul\":9617:9937   */\n    tag_98:\n        /* \"#utility.yul\":9661:9667   */\n      0x00\n        /* \"#utility.yul\":9698:9699   */\n      0x02\n        /* \"#utility.yul\":9692:9696   */\n      dup3\n        /* \"#utility.yul\":9688:9700   */\n      div\n        /* \"#utility.yul\":9678:9700   */\n      swap1\n      pop\n        /* \"#utility.yul\":9745:9746   */\n      0x01\n        /* \"#utility.yul\":9739:9743   */\n      dup3\n        /* \"#utility.yul\":9735:9747   */\n      and\n        /* \"#utility.yul\":9766:9784   */\n      dup1\n        /* \"#utility.yul\":9756:9837   */\n      tag_301\n      jumpi\n        /* \"#utility.yul\":9822:9826   */\n      0x7f\n        /* \"#utility.yul\":9814:9820   */\n      dup3\n        /* \"#utility.yul\":9810:9827   */\n      and\n        /* \"#utility.yul\":9800:9827   */\n      swap2\n      pop\n        /* \"#utility.yul\":9756:9837   */\n    tag_301:\n        /* \"#utility.yul\":9884:9886   */\n      0x20\n        /* \"#utility.yul\":9876:9882   */\n      dup3\n        /* \"#utility.yul\":9873:9887   */\n      lt\n        /* \"#utility.yul\":9853:9871   */\n      dup2\n        /* \"#utility.yul\":9850:9888   */\n      sub\n        /* \"#utility.yul\":9847:9931   */\n      tag_302\n      jumpi\n        /* \"#utility.yul\":9903:9921   */\n      tag_303\n      tag_175\n      jump\t// in\n    tag_303:\n        /* \"#utility.yul\":9847:9931   */\n    tag_302:\n        /* \"#utility.yul\":9668:9937   */\n      pop\n        /* \"#utility.yul\":9617:9937   */\n      swap2\n      swap1\n      pop\n      jump\t// out\n        /* \"#utility.yul\":9943:10084   */\n    tag_176:\n        /* \"#utility.yul\":9992:9996   */\n      0x00\n        /* \"#utility.yul\":10015:10018   */\n      dup2\n        /* \"#utility.yul\":10007:10018   */\n      swap1\n      pop\n        /* \"#utility.yul\":10038:10041   */\n      dup2\n        /* \"#utility.yul\":10035:10036   */\n      0x00\n        /* \"#utility.yul\":10028:10042   */\n      mstore\n        /* \"#utility.yul\":10072:10076   */\n      0x20\n        /* \"#utility.yul\":10069:10070   */\n      0x00\n        /* \"#utility.yul\":10059:10077   */\n      keccak256\n        /* \"#utility.yul\":10051:10077   */\n      swap1\n      pop\n        /* \"#utility.yul\":9943:10084   */\n      swap2\n      swap1\n      pop\n      jump\t// out\n        /* \"#utility.yul\":10090:10183   */\n    tag_177:\n        /* \"#utility.yul\":10127:10133   */\n      0x00\n        /* \"#utility.yul\":10174:10176   */\n      0x20\n        /* \"#utility.yul\":10169:10171   */\n      0x1f\n        /* \"#utility.yul\":10162:10167   */\n      dup4\n        /* \"#utility.yul\":10158:10172   */\n      add\n        /* \"#utility.yul\":10154:10177   */\n      div\n        /* \"#utility.yul\":10144:10177   */\n      swap1\n      pop\n        /* \"#utility.yul\":10090:10183   */\n      swap2\n      swap1\n      pop\n      jump\t// out\n        /* \"#utility.yul\":10189:10296   */\n    tag_178:\n        /* \"#utility.yul\":10233:10241   */\n      0x00\n        /* \"#utility.yul\":10283:10288   */\n      dup3\n        /* \"#utility.yul\":10277:10281   */\n      dup3\n        /* \"#utility.yul\":10273:10289   */\n      shl\n        /* \"#utility.yul\":10252:10289   */\n      swap1\n      pop\n        /* \"#utility.yul\":10189:10296   */\n      swap3\n      swap2\n      pop\n      pop\n      jump\t// out\n        /* \"#utility.yul\":10302:10695   */\n    tag_179:\n        /* \"#utility.yul\":10371:10377   */\n      0x00\n        /* \"#utility.yul\":10421:10422   */\n      0x08\n        /* \"#utility.yul\":10409:10419   */\n      dup4\n        /* \"#utility.yul\":10405:10423   */\n      mul\n        /* \"#utility.yul\":10444:10541   */\n      tag_308\n        /* \"#utility.yul\":10474:10540   */\n      0xffffffffffffffffffffffffffffffffffffffffffffffffffffffffffffffff\n        /* \"#utility.yul\":10463:10472   */\n      dup3\n        /* \"#utility.yul\":10444:10541   */\n      tag_178\n      jump\t// in\n    tag_308:\n        /* \"#utility.yul\":10562:10601   */\n      tag_309\n        /* \"#utility.yul\":10592:10600   */\n      dup7\n        /* \"#utility.yul\":10581:10590   */\n      dup4\n        /* \"#utility.yul\":10562:10601   */\n      tag_178\n      jump\t// in\n    tag_309:\n        /* \"#utility.yul\":10550:10601   */\n      swap6\n      pop\n        /* \"#utility.yul\":10634:10638   */\n      dup1\n        /* \"#utility.yul\":10630:10639   */\n      not\n        /* \"#utility.yul\":10623:10628   */\n      dup5\n        /* \"#utility.yul\":10619:10640   */\n      and\n        /* \"#utility.yul\":10610:10640   */\n      swap4\n      pop\n        /* \"#utility.yul\":10683:10687   */\n      dup1\n        /* \"#utility.yul\":10673:10681   */\n      dup7\n        /* \"#utility.yul\":10669:10688   */\n      and\n        /* \"#utility.yul\":10662:10667   */\n      dup5\n        /* \"#utility.yul\":10659:10689   */\n      or\n        /* \"#utility.yul\":10649:10689   */\n      swap3\n      pop\n        /* \"#utility.yul\":10378:10695   */\n      pop\n      pop\n        /* \"#utility.yul\":10302:10695   */\n      swap4\n      swap3\n      pop\n      pop\n      pop\n      jump\t// out\n        /* \"#utility.yul\":10701:10761   */\n    tag_180:\n        /* \"#utility.yul\":10729:10732   */\n      0x00\n        /* \"#utility.yul\":10750:10755   */\n      dup2\n        /* \"#utility.yul\":10743:10755   */\n      swap1\n      pop\n        /* \"#utility.yul\":10701:10761   */\n      swap2\n      swap1\n      pop\n      jump\t// out\n        /* \"#utility.yul\":10767:10909   */\n    tag_181:\n        /* \"#utility.yul\":10817:10826   */\n      0x00\n        /* \"#utility.yul\":10850:10903   */\n      tag_312\n        /* \"#utility.yul\":10868:10902   */\n      tag_313\n        /* \"#utility.yul\":10877:10901   */\n      tag_314\n        /* \"#utility.yul\":10895:10900   */\n      dup5\n        /* \"#utility.yul\":10877:10901   */\n      tag_145\n      jump\t// in\n    tag_314:\n        /* \"#utility.yul\":10868:10902   */\n      tag_180\n      jump\t// in\n    tag_313:\n        /* \"#utility.yul\":10850:10903   */\n      tag_145\n      jump\t// in\n    tag_312:\n        /* \"#utility.yul\":10837:10903   */\n      swap1\n      pop\n        /* \"#utility.yul\":10767:10909   */\n      swap2\n      swap1\n      pop\n      jump\t// out\n        /* \"#utility.yul\":10915:10990   */\n    tag_182:\n        /* \"#utility.yul\":10958:10961   */\n      0x00\n        /* \"#utility.yul\":10979:10984   */\n      dup2\n        /* \"#utility.yul\":10972:10984   */\n      swap1\n      pop\n        /* \"#utility.yul\":10915:10990   */\n      swap2\n      swap1\n      pop\n      jump\t// out\n        /* \"#utility.yul\":10996:11265   */\n    tag_183:\n        /* \"#utility.yul\":11106:11145   */\n      tag_317\n        /* \"#utility.yul\":11137:11144   */\n      dup4\n        /* \"#utility.yul\":11106:11145   */\n      tag_181\n      jump\t// in\n    tag_317:\n        /* \"#utility.yul\":11167:11258   */\n      tag_318\n        /* \"#utility.yul\":11216:11257   */\n      tag_319\n        /* \"#utility.yul\":11240:11256   */\n      dup3\n        /* \"#utility.yul\":11216:11257   */\n      tag_182\n      jump\t// in\n    tag_319:\n        /* \"#utility.yul\":11208:11214   */\n      dup5\n        /* \"#utility.yul\":11201:11205   */\n      dup5\n        /* \"#utility.yul\":11195:11206   */\n      sload\n        /* \"#utility.yul\":11167:11258   */\n      tag_179\n      jump\t// in\n    tag_318:\n        /* \"#utility.yul\":11161:11165   */\n      dup3\n        /* \"#utility.yul\":11154:11259   */\n      sstore\n        /* \"#utility.yul\":11072:11265   */\n      pop\n        /* \"#utility.yul\":10996:11265   */\n      pop\n      pop\n      pop\n      jump\t// out\n        /* \"#utility.yul\":11271:11344   */\n    tag_184:\n        /* \"#utility.yul\":11316:11319   */\n      0x00\n        /* \"#utility.yul\":11271:11344   */\n      swap1\n      jump\t// out\n        /* \"#utility.yul\":11350:11539   */\n    tag_185:\n        /* \"#utility.yul\":11427:11459   */\n      tag_322\n      tag_184\n      jump\t// in\n    tag_322:\n        /* \"#utility.yul\":11468:11533   */\n      tag_323\n        /* \"#utility.yul\":11526:11532   */\n      dup2\n        /* \"#utility.yul\":11518:11524   */\n      dup5\n        /* \"#utility.yul\":11512:11516   */\n      dup5\n        /* \"#utility.yul\":11468:11533   */\n      tag_183\n      jump\t// in\n    tag_323:\n        /* \"#utility.yul\":11403:11539   */\n      pop\n        /* \"#utility.yul\":11350:11539   */\n      pop\n      pop\n      jump\t// out\n        /* \"#utility.yul\":11545:11731   */\n    tag_186:\n        /* \"#utility.yul\":11605:11725   */\n    tag_325:\n        /* \"#utility.yul\":11622:11625   */\n      dup2\n        /* \"#utility.yul\":11615:11620   */\n      dup2\n        /* \"#utility.yul\":11612:11626   */\n      lt\n        /* \"#utility.yul\":11605:11725   */\n      iszero\n      tag_327\n      jumpi\n        /* \"#utility.yul\":11676:11715   */\n      tag_328\n        /* \"#utility.yul\":11713:11714   */\n      0x00\n        /* \"#utility.yul\":11706:11711   */\n      dup3\n        /* \"#utility.yul\":11676:11715   */\n      tag_185\n      jump\t// in\n    tag_328:\n        /* \"#utility.yul\":11649:11650   */\n      0x01\n        /* \"#utility.yul\":11642:11647   */\n      dup2\n        /* \"#utility.yul\":11638:11651   */\n      add\n        /* \"#utility.yul\":11629:11651   */\n      swap1\n      pop\n        /* \"#utility.yul\":11605:11725   */\n      jump(tag_325)\n    tag_327:\n        /* \"#utility.yul\":11545:11731   */\n      pop\n      pop\n      jump\t// out\n        /* \"#utility.yul\":11737:12280   */\n    tag_187:\n        /* \"#utility.yul\":11838:11840   */\n      0x1f\n        /* \"#utility.yul\":11833:11836   */\n      dup3\n        /* \"#utility.yul\":11830:11841   */\n      gt\n        /* \"#utility.yul\":11827:12273   */\n      iszero\n      tag_330\n      jumpi\n        /* \"#utility.yul\":11872:11910   */\n      tag_331\n        /* \"#utility.yul\":11904:11909   */\n      dup2\n        /* \"#utility.yul\":11872:11910   */\n      tag_176\n      jump\t// in\n    tag_331:\n        /* \"#utility.yul\":11956:11985   */\n      tag_332\n        /* \"#utility.yul\":11974:11984   */\n      dup5\n        /* \"#utility.yul\":11956:11985   */\n      tag_177\n      jump\t// in\n    tag_332:\n        /* \"#utility.yul\":11946:11954   */\n      dup2\n        /* \"#utility.yul\":11942:11986   */\n      add\n        /* \"#utility.yul\":12139:12141   */\n      0x20\n        /* \"#utility.yul\":12127:12137   */\n      dup6\n        /* \"#utility.yul\":12124:12142   */\n      lt\n        /* \"#utility.yul\":12121:12170   */\n      iszero\n      tag_333\n      jumpi\n        /* \"#utility.yul\":12160:12168   */\n      dup2\n        /* \"#utility.yul\":12145:12168   */\n      swap1\n      pop\n        /* \"#utility.yul\":12121:12170   */\n    tag_333:\n        /* \"#utility.yul\":12183:12263   */\n      tag_334\n        /* \"#utility.yul\":12239:12261   */\n      tag_335\n        /* \"#utility.yul\":12257:12260   */\n      dup6\n        /* \"#utility.yul\":12239:12261   */\n      tag_177\n      jump\t// in\n    tag_335:\n        /* \"#utility.yul\":12229:12237   */\n      dup4\n        /* \"#utility.yul\":12225:12262   */\n      add\n        /* \"#utility.yul\":12212:12223   */\n      dup3\n        /* \"#utility.yul\":12183:12263   */\n      tag_186\n      jump\t// in\n    tag_334:\n        /* \"#utility.yul\":11842:12273   */\n      pop\n      pop\n        /* \"#utility.yul\":11827:12273   */\n    tag_330:\n        /* \"#utility.yul\":11737:12280   */\n      pop\n      pop\n      pop\n      jump\t// out\n        /* \"#utility.yul\":12286:12403   */\n    tag_188:\n        /* \"#utility.yul\":12340:12348   */\n      0x00\n        /* \"#utility.yul\":12390:12395   */\n      dup3\n        /* \"#utility.yul\":12384:12388   */\n      dup3\n        /* \"#utility.yul\":12380:12396   */\n      shr\n        /* \"#utility.yul\":12359:12396   */\n      swap1\n      pop\n        /* \"#utility.yul\":12286:12403   */\n      swap3\n      swap2\n      pop\n      pop\n      jump\t// out\n        /* \"#utility.yul\":12409:12578   */\n    tag_189:\n        /* \"#utility.yul\":12453:12459   */\n      0x00\n        /* \"#utility.yul\":12486:12537   */\n      tag_338\n        /* \"#utility.yul\":12534:12535   */\n      0x00\n        /* \"#utility.yul\":12530:12536   */\n      not\n        /* \"#utility.yul\":12522:12527   */\n      dup5\n        /* \"#utility.yul\":12519:12520   */\n      0x08\n        /* \"#utility.yul\":12515:12528   */\n      mul\n        /* \"#utility.yul\":12486:12537   */\n      tag_188\n      jump\t// in\n    tag_338:\n        /* \"#utility.yul\":12482:12538   */\n      not\n        /* \"#utility.yul\":12567:12571   */\n      dup1\n        /* \"#utility.yul\":12561:12565   */\n      dup4\n        /* \"#utility.yul\":12557:12572   */\n      and\n        /* \"#utility.yul\":12547:12572   */\n      swap2\n      pop\n        /* \"#utility.yul\":12460:12578   */\n      pop\n        /* \"#utility.yul\":12409:12578   */\n      swap3\n      swap2\n      pop\n      pop\n      jump\t// out\n        /* \"#utility.yul\":12583:12878   */\n    tag_190:\n        /* \"#utility.yul\":12659:12663   */\n      0x00\n        /* \"#utility.yul\":12805:12834   */\n      tag_340\n        /* \"#utility.yul\":12830:12833   */\n      dup4\n        /* \"#utility.yul\":12824:12828   */\n      dup4\n        /* \"#utility.yul\":12805:12834   */\n      tag_189\n      jump\t// in\n    tag_340:\n        /* \"#utility.yul\":12797:12834   */\n      swap2\n      pop\n        /* \"#utility.yul\":12867:12870   */\n      dup3\n        /* \"#utility.yul\":12864:12865   */\n      0x02\n        /* \"#utility.yul\":12860:12871   */\n      mul\n        /* \"#utility.yul\":12854:12858   */\n      dup3\n        /* \"#utility.yul\":12851:12872   */\n      or\n        /* \"#utility.yul\":12843:12872   */\n      swap1\n      pop\n        /* \"#utility.yul\":12583:12878   */\n      swap3\n      swap2\n      pop\n      pop\n      jump\t// out\n        /* \"#utility.yul\":12883:14278   */\n    tag_122:\n        /* \"#utility.yul\":13000:13037   */\n      tag_342\n        /* \"#utility.yul\":13033:13036   */\n      dup3\n        /* \"#utility.yul\":13000:13037   */\n      tag_156\n      jump\t// in\n    tag_342:\n        /* \"#utility.yul\":13102:13120   */\n      0xffffffffffffffff\n        /* \"#utility.yul\":13094:13100   */\n      dup2\n        /* \"#utility.yul\":13091:13121   */\n      gt\n        /* \"#utility.yul\":13088:13144   */\n      iszero\n      tag_343\n      jumpi\n        /* \"#utility.yul\":13124:13142   */\n      tag_344\n      tag_163\n      jump\t// in\n    tag_344:\n        /* \"#utility.yul\":13088:13144   */\n    tag_343:\n        /* \"#utility.yul\":13168:13206   */\n      tag_345\n        /* \"#utility.yul\":13200:13204   */\n      dup3\n        /* \"#utility.yul\":13194:13205   */\n      sload\n        /* \"#utility.yul\":13168:13206   */\n      tag_98\n      jump\t// in\n    tag_345:\n        /* \"#utility.yul\":13253:13320   */\n      tag_346\n        /* \"#utility.yul\":13313:13319   */\n      dup3\n        /* \"#utility.yul\":13305:13311   */\n      dup3\n        /* \"#utility.yul\":13299:13303   */\n      dup6\n        /* \"#utility.yul\":13253:13320   */\n      tag_187\n      jump\t// in\n    tag_346:\n        /* \"#utility.yul\":13347:13348   */\n      0x00\n        /* \"#utility.yul\":13371:13375   */\n      0x20\n        /* \"#utility.yul\":13358:13375   */\n      swap1\n      pop\n        /* \"#utility.yul\":13403:13405   */\n      0x1f\n        /* \"#utility.yul\":13395:13401   */\n      dup4\n        /* \"#utility.yul\":13392:13406   */\n      gt\n        /* \"#utility.yul\":13420:13421   */\n      0x01\n        /* \"#utility.yul\":13415:14033   */\n      dup2\n      eq\n      tag_348\n      jumpi\n        /* \"#utility.yul\":14077:14078   */\n      0x00\n        /* \"#utility.yul\":14094:14100   */\n      dup5\n        /* \"#utility.yul\":14091:14168   */\n      iszero\n      tag_349\n      jumpi\n        /* \"#utility.yul\":14143:14152   */\n      dup3\n        /* \"#utility.yul\":14138:14141   */\n      dup8\n        /* \"#utility.yul\":14134:14153   */\n      add\n        /* \"#utility.yul\":14128:14154   */\n      mload\n        /* \"#utility.yul\":14119:14154   */\n      swap1\n      pop\n        /* \"#utility.yul\":14091:14168   */\n    tag_349:\n        /* \"#utility.yul\":14194:14261   */\n      tag_350\n        /* \"#utility.yul\":14254:14260   */\n      dup6\n        /* \"#utility.yul\":14247:14252   */\n      dup3\n        /* \"#utility.yul\":14194:14261   */\n      tag_190\n      jump\t// in\n    tag_350:\n        /* \"#utility.yul\":14188:14192   */\n      dup7\n        /* \"#utility.yul\":14181:14262   */\n      sstore\n        /* \"#utility.yul\":14050:14272   */\n      pop\n        /* \"#utility.yul\":13385:14272   */\n      jump(tag_347)\n        /* \"#utility.yul\":13415:14033   */\n    tag_348:\n        /* \"#utility.yul\":13467:13471   */\n      0x1f\n        /* \"#utility.yul\":13463:13472   */\n      not\n        /* \"#utility.yul\":13455:13461   */\n      dup5\n        /* \"#utility.yul\":13451:13473   */\n      and\n        /* \"#utility.yul\":13501:13538   */\n      tag_351\n        /* \"#utility.yul\":13533:13537   */\n      dup7\n        /* \"#utility.yul\":13501:13538   */\n      tag_176\n      jump\t// in\n    tag_351:\n        /* \"#utility.yul\":13560:13561   */\n      0x00\n        /* \"#utility.yul\":13574:13782   */\n    tag_352:\n        /* \"#utility.yul\":13588:13595   */\n      dup3\n        /* \"#utility.yul\":13585:13586   */\n      dup2\n        /* \"#utility.yul\":13582:13596   */\n      lt\n        /* \"#utility.yul\":13574:13782   */\n      iszero\n      tag_354\n      jumpi\n        /* \"#utility.yul\":13667:13676   */\n      dup5\n        /* \"#utility.yul\":13662:13665   */\n      dup10\n        /* \"#utility.yul\":13658:13677   */\n      add\n        /* \"#utility.yul\":13652:13678   */\n      mload\n        /* \"#utility.yul\":13644:13650   */\n      dup3\n        /* \"#utility.yul\":13637:13679   */\n      sstore\n        /* \"#utility.yul\":13718:13719   */\n      0x01\n        /* \"#utility.yul\":13710:13716   */\n      dup3\n        /* \"#utility.yul\":13706:13720   */\n      add\n        /* \"#utility.yul\":13696:13720   */\n      swap2\n      pop\n        /* \"#utility.yul\":13765:13767   */\n      0x20\n        /* \"#utility.yul\":13754:13763   */\n      dup6\n        /* \"#utility.yul\":13750:13768   */\n      add\n        /* \"#utility.yul\":13737:13768   */\n      swap5\n      pop\n        /* \"#utility.yul\":13611:13615   */\n      0x20\n        /* \"#utility.yul\":13608:13609   */\n      dup2\n        /* \"#utility.yul\":13604:13616   */\n      add\n        /* \"#utility.yul\":13599:13616   */\n      swap1\n      pop\n        /* \"#utility.yul\":13574:13782   */\n      jump(tag_352)\n    tag_354:\n        /* \"#utility.yul\":13810:13816   */\n      dup7\n        /* \"#utility.yul\":13801:13808   */\n      dup4\n        /* \"#utility.yul\":13798:13817   */\n      lt\n        /* \"#utility.yul\":13795:13974   */\n      iszero\n      tag_355\n      jumpi\n        /* \"#utility.yul\":13868:13877   */\n      dup5\n        /* \"#utility.yul\":13863:13866   */\n      dup10\n        /* \"#utility.yul\":13859:13878   */\n      add\n        /* \"#utility.yul\":13853:13879   */\n      mload\n        /* \"#utility.yul\":13911:13959   */\n      tag_356\n        /* \"#utility.yul\":13953:13957   */\n      0x1f\n        /* \"#utility.yul\":13945:13951   */\n      dup10\n        /* \"#utility.yul\":13941:13958   */\n      and\n        /* \"#utility.yul\":13930:13939   */\n      dup3\n        /* \"#utility.yul\":13911:13959   */\n      tag_189\n      jump\t// in\n    tag_356:\n        /* \"#utility.yul\":13903:13909   */\n      dup4\n        /* \"#utility.yul\":13896:13960   */\n      sstore\n        /* \"#utility.yul\":13818:13974   */\n      pop\n        /* \"#utility.yul\":13795:13974   */\n    tag_355:\n        /* \"#utility.yul\":14020:14021   */\n      0x01\n        /* \"#utility.yul\":14016:14017   */\n      0x02\n        /* \"#utility.yul\":14008:14014   */\n      dup9\n        /* \"#utility.yul\":14004:14018   */\n      mul\n        /* \"#utility.yul\":14000:14022   */\n      add\n        /* \"#utility.yul\":13994:13998   */\n      dup9\n        /* \"#utility.yul\":13987:14023   */\n      sstore\n        /* \"#utility.yul\":13422:14033   */\n      pop\n      pop\n      pop\n        /* \"#utility.yul\":13385:14272   */\n    tag_347:\n      pop\n        /* \"#utility.yul\":12975:14278   */\n      pop\n      pop\n      pop\n        /* \"#utility.yul\":12883:14278   */\n      pop\n      pop\n      jump\t// out\n        /* \"#utility.yul\":14284:14517   */\n    tag_127:\n        /* \"#utility.yul\":14323:14326   */\n      0x00\n        /* \"#utility.yul\":14346:14370   */\n      tag_358\n        /* \"#utility.yul\":14364:14369   */\n      dup3\n        /* \"#utility.yul\":14346:14370   */\n      tag_145\n      jump\t// in\n    tag_358:\n        /* \"#utility.yul\":14337:14370   */\n      swap2\n      pop\n        /* \"#utility.yul\":14392:14458   */\n      0xffffffffffffffffffffffffffffffffffffffffffffffffffffffffffffffff\n        /* \"#utility.yul\":14385:14390   */\n      dup3\n        /* \"#utility.yul\":14382:14459   */\n      sub\n        /* \"#utility.yul\":14379:14482   */\n      tag_359\n      jumpi\n        /* \"#utility.yul\":14462:14480   */\n      tag_360\n      tag_174\n      jump\t// in\n    tag_360:\n        /* \"#utility.yul\":14379:14482   */\n    tag_359:\n        /* \"#utility.yul\":14509:14510   */\n      0x01\n        /* \"#utility.yul\":14502:14507   */\n      dup3\n        /* \"#utility.yul\":14498:14511   */\n      add\n        /* \"#utility.yul\":14491:14511   */\n      swap1\n      pop\n        /* \"#utility.yul\":14284:14517   */\n      swap2\n      swap1\n      pop\n      jump\t// out\n\n    auxdata: 0xa2646970667358221220107b4c59a60a1df0dec2ddabf06d99c8bb88401a00e5c46238d53419a2afe84764736f6c63430008190033\n}\n",
    "bytecode": {
      "linkReferences": {},
      "object": "608060405234801561000f575f80fd5b506040516113fd3803806113fd83398181016040528101906100319190610110565b8060025f6101000a81548173ffffffffffffffffffffffffffffffffffffffff021916908373ffffffffffffffffffffffffffffffffffffffff16021790555081600381905550505061014e565b5f80fd5b5f819050919050565b61009581610083565b811461009f575f80fd5b50565b5f815190506100b08161008c565b92915050565b5f73ffffffffffffffffffffffffffffffffffffffff82169050919050565b5f6100df826100b6565b9050919050565b6100ef816100d5565b81146100f9575f80fd5b50565b5f8151905061010a816100e6565b92915050565b5f80604083850312156101265761012561007f565b5b5f610133858286016100a2565b9250506020610144858286016100fc565b9150509250929050565b6112a28061015b5f395ff3fe6080604052600436106100a6575f3560e01c806381d12c581161006357806381d12c58146101ba578063851b16f5146101fa5780638a9cfd5514610204578063937e09b114610220578063d7bb99ba1461024a578063d7d1bbdb14610254576100a6565b806303441006146100aa5780630a144391146100d2578063128e9be61461010e5780633410452a146101385780634051ddac14610162578063481c6a7514610190575b5f80fd5b3480156100b5575f80fd5b506100d060048036038101906100cb9190610a86565b61027c565b005b3480156100dd575f80fd5b506100f860048036038101906100f39190610b0b565b61042d565b6040516101059190610b50565b60405180910390f35b348015610119575f80fd5b5061012261044a565b60405161012f9190610b78565b60405180910390f35b348015610143575f80fd5b5061014c610450565b6040516101599190610b78565b60405180910390f35b34801561016d575f80fd5b5061017661045b565b604051610187959493929190610ba0565b60405180910390f35b34801561019b575f80fd5b506101a461049f565b6040516101b19190610bf1565b60405180910390f35b3480156101c5575f80fd5b506101e060048036038101906101db9190610a86565b6104c4565b6040516101f1959493929190610c7a565b60405180910390f35b6102026105b6565b005b61021e60048036038101906102199190610e39565b6106c8565b005b34801561022b575f80fd5b506102346107c7565b6040516102419190610b78565b60405180910390f35b6102526107cd565b005b34801561025f575f80fd5b5061027a60048036038101906102759190610a86565b6108ce565b005b60025f9054906101000a900473ffffffffffffffffffffffffffffffffffffffff1673ffffffffffffffffffffffffffffffffffffffff163373ffffffffffffffffffffffffffffffffffffffff16146102d4575f80fd5b60026006546102e39190610eff565b5f82815481106102f6576102f5610f2f565b5b905f5260205f209060050201600301541161030f575f80fd5b5f818154811061032257610321610f2f565b5b905f5260205f20906005020160020160149054906101000a900460ff1615610348575f80fd5b60015f828154811061035d5761035c610f2f565b5b905f5260205f20906005020160020160146101000a81548160ff0219169083151502179055505f818154811061039657610395610f2f565b5b905f5260205f2090600502016002015f9054906101000a900473ffffffffffffffffffffffffffffffffffffffff1673ffffffffffffffffffffffffffffffffffffffff166108fc5f83815481106103f1576103f0610f2f565b5b905f5260205f2090600502016001015490811502906040515f60405180830381858888f19350505050158015610429573d5f803e3d5ffd5b5050565b6005602052805f5260405f205f915054906101000a900460ff1681565b60065481565b5f8080549050905090565b5f805f805f600354475f8054905060065460025f9054906101000a900473ffffffffffffffffffffffffffffffffffffffff16945094509450945094509091929394565b60025f9054906101000a900473ffffffffffffffffffffffffffffffffffffffff1681565b5f81815481106104d2575f80fd5b905f5260205f2090600502015f91509050805f0180546104f190610f89565b80601f016020809104026020016040519081016040528092919081815260200182805461051d90610f89565b80156105685780601f1061053f57610100808354040283529160200191610568565b820191905f5260205f20905b81548152906001019060200180831161054b57829003601f168201915b505050505090806001015490806002015f9054906101000a900473ffffffffffffffffffffffffffffffffffffffff16908060020160149054906101000a900460ff16908060030154905085565b60025f9054906101000a900473ffffffffffffffffffffffffffffffffffffffff1673ffffffffffffffffffffffffffffffffffffffff163373ffffffffffffffffffffffffffffffffffffffff161461060e575f80fd5b5f5b6001805490508110156106c5576004818154811061063157610630610f2f565b5b905f5260205f20015f9054906101000a900473ffffffffffffffffffffffffffffffffffffffff1673ffffffffffffffffffffffffffffffffffffffff166108fc6001838154811061068657610685610f2f565b5b905f5260205f20015490811502906040515f60405180830381858888f193505050501580156106b7573d5f803e3d5ffd5b508080600101915050610610565b50565b60025f9054906101000a900473ffffffffffffffffffffffffffffffffffffffff1673ffffffffffffffffffffffffffffffffffffffff163373ffffffffffffffffffffffffffffffffffffffff1614610720575f80fd5b5f8060018160018154018082558091505003905f5260205f209060050201905083815f0190816107509190611156565b5082816001018190555081816002015f6101000a81548173ffffffffffffffffffffffffffffffffffffffff021916908373ffffffffffffffffffffffffffffffffffffffff1602179055505f8160020160146101000a81548160ff0219169083151502179055505f816003018190555050505050565b60035481565b60035434116107da575f80fd5b600160055f3373ffffffffffffffffffffffffffffffffffffffff1673ffffffffffffffffffffffffffffffffffffffff1681526020019081526020015f205f6101000a81548160ff021916908315150217905550600134908060018154018082558091505060019003905f5260205f20015f909190919091505560065f81548092919061086790611225565b9190505550600433908060018154018082558091505060019003905f5260205f20015f9091909190916101000a81548173ffffffffffffffffffffffffffffffffffffffff021916908373ffffffffffffffffffffffffffffffffffffffff160217905550565b60055f3373ffffffffffffffffffffffffffffffffffffffff1673ffffffffffffffffffffffffffffffffffffffff1681526020019081526020015f205f9054906101000a900460ff16610920575f80fd5b5f818154811061093357610932610f2f565b5b905f5260205f2090600502016004015f3373ffffffffffffffffffffffffffffffffffffffff1673ffffffffffffffffffffffffffffffffffffffff1681526020019081526020015f205f9054906101000a900460ff1615610993575f80fd5b5f81815481106109a6576109a5610f2f565b5b905f5260205f2090600502016003015f8154809291906109c590611225565b919050555060015f82815481106109df576109de610f2f565b5b905f5260205f2090600502016004015f3373ffffffffffffffffffffffffffffffffffffffff1673ffffffffffffffffffffffffffffffffffffffff1681526020019081526020015f205f6101000a81548160ff02191690831515021790555050565b5f604051905090565b5f80fd5b5f80fd5b5f819050919050565b610a6581610a53565b8114610a6f575f80fd5b50565b5f81359050610a8081610a5c565b92915050565b5f60208284031215610a9b57610a9a610a4b565b5b5f610aa884828501610a72565b91505092915050565b5f73ffffffffffffffffffffffffffffffffffffffff82169050919050565b5f610ada82610ab1565b9050919050565b610aea81610ad0565b8114610af4575f80fd5b50565b5f81359050610b0581610ae1565b92915050565b5f60208284031215610b2057610b1f610a4b565b5b5f610b2d84828501610af7565b91505092915050565b5f8115159050919050565b610b4a81610b36565b82525050565b5f602082019050610b635f830184610b41565b92915050565b610b7281610a53565b82525050565b5f602082019050610b8b5f830184610b69565b92915050565b610b9a81610ad0565b82525050565b5f60a082019050610bb35f830188610b69565b610bc06020830187610b69565b610bcd6040830186610b69565b610bda6060830185610b69565b610be76080830184610b91565b9695505050505050565b5f602082019050610c045f830184610b91565b92915050565b5f81519050919050565b5f82825260208201905092915050565b8281835e5f83830152505050565b5f601f19601f8301169050919050565b5f610c4c82610c0a565b610c568185610c14565b9350610c66818560208601610c24565b610c6f81610c32565b840191505092915050565b5f60a0820190508181035f830152610c928188610c42565b9050610ca16020830187610b69565b610cae6040830186610b91565b610cbb6060830185610b41565b610cc86080830184610b69565b9695505050505050565b5f80fd5b5f80fd5b7f4e487b71000000000000000000000000000000000000000000000000000000005f52604160045260245ffd5b610d1082610c32565b810181811067ffffffffffffffff82111715610d2f57610d2e610cda565b5b80604052505050565b5f610d41610a42565b9050610d4d8282610d07565b919050565b5f67ffffffffffffffff821115610d6c57610d6b610cda565b5b610d7582610c32565b9050602081019050919050565b828183375f83830152505050565b5f610da2610d9d84610d52565b610d38565b905082815260208101848484011115610dbe57610dbd610cd6565b5b610dc9848285610d82565b509392505050565b5f82601f830112610de557610de4610cd2565b5b8135610df5848260208601610d90565b91505092915050565b5f610e0882610ab1565b9050919050565b610e1881610dfe565b8114610e22575f80fd5b50565b5f81359050610e3381610e0f565b92915050565b5f805f60608486031215610e5057610e4f610a4b565b5b5f84013567ffffffffffffffff811115610e6d57610e6c610a4f565b5b610e7986828701610dd1565b9350506020610e8a86828701610a72565b9250506040610e9b86828701610e25565b9150509250925092565b7f4e487b71000000000000000000000000000000000000000000000000000000005f52601260045260245ffd5b7f4e487b71000000000000000000000000000000000000000000000000000000005f52601160045260245ffd5b5f610f0982610a53565b9150610f1483610a53565b925082610f2457610f23610ea5565b5b828204905092915050565b7f4e487b71000000000000000000000000000000000000000000000000000000005f52603260045260245ffd5b7f4e487b71000000000000000000000000000000000000000000000000000000005f52602260045260245ffd5b5f6002820490506001821680610fa057607f821691505b602082108103610fb357610fb2610f5c565b5b50919050565b5f819050815f5260205f209050919050565b5f6020601f8301049050919050565b5f82821b905092915050565b5f600883026110157fffffffffffffffffffffffffffffffffffffffffffffffffffffffffffffffff82610fda565b61101f8683610fda565b95508019841693508086168417925050509392505050565b5f819050919050565b5f61105a61105561105084610a53565b611037565b610a53565b9050919050565b5f819050919050565b61107383611040565b61108761107f82611061565b848454610fe6565b825550505050565b5f90565b61109b61108f565b6110a681848461106a565b505050565b5b818110156110c9576110be5f82611093565b6001810190506110ac565b5050565b601f82111561110e576110df81610fb9565b6110e884610fcb565b810160208510156110f7578190505b61110b61110385610fcb565b8301826110ab565b50505b505050565b5f82821c905092915050565b5f61112e5f1984600802611113565b1980831691505092915050565b5f611146838361111f565b9150826002028217905092915050565b61115f82610c0a565b67ffffffffffffffff81111561117857611177610cda565b5b6111828254610f89565b61118d8282856110cd565b5f60209050601f8311600181146111be575f84156111ac578287015190505b6111b6858261113b565b86555061121d565b601f1984166111cc86610fb9565b5f5b828110156111f3578489015182556001820191506020850194506020810190506111ce565b86831015611210578489015161120c601f89168261111f565b8355505b6001600288020188555050505b505050505050565b5f61122f82610a53565b91507fffffffffffffffffffffffffffffffffffffffffffffffffffffffffffffffff820361126157611260610ed2565b5b60018201905091905056fea2646970667358221220107b4c59a60a1df0dec2ddabf06d99c8bb88401a00e5c46238d53419a2afe84764736f6c63430008190033",
      "opcodes": "PUSH1 0x80 PUSH1 0x40 MSTORE CALLVALUE DUP1 ISZERO PUSH2 0xF JUMPI PUSH0 DUP1 REVERT JUMPDEST POP PUSH1 0x40 MLOAD PUSH2 0x13FD CODESIZE SUB DUP1 PUSH2 0x13FD DUP4 CODECOPY DUP2 DUP2 ADD PUSH1 0x40 MSTORE DUP2 ADD SWAP1 PUSH2 0x31 SWAP2 SWAP1 PUSH2 0x110 JUMP JUMPDEST DUP1 PUSH1 0x2 PUSH0 PUSH2 0x100 EXP DUP2 SLOAD DUP2 PUSH20 0xFFFFFFFFFFFFFFFFFFFFFFFFFFFFFFFFFFFFFFFF MUL NOT AND SWAP1 DUP4 PUSH20 0xFFFFFFFFFFFFFFFFFFFFFFFFFFFFFFFFFFFFFFFF AND MUL OR SWAP1 SSTORE POP DUP2 PUSH1 0x3 DUP2 SWAP1 SSTORE POP POP POP PUSH2 0x14E JUMP JUMPDEST PUSH0 DUP1 REVERT JUMPDEST PUSH0 DUP2 SWAP1 POP SWAP2 SWAP1 POP JUMP JUMPDEST PUSH2 0x95 DUP2 PUSH2 0x83 JUMP JUMPDEST DUP2 EQ PUSH2 0x9F JUMPI PUSH0 DUP1 REVERT JUMPDEST POP JUMP JUMPDEST PUSH0 DUP2 MLOAD SWAP1 POP PUSH2 0xB0 DUP2 PUSH2 0x8C JUMP JUMPDEST SWAP3 SWAP2 POP POP JUMP JUMPDEST PUSH0 PUSH20 0xFFFFFFFFFFFFFFFFFFFFFFFFFFFFFFFFFFFFFFFF DUP3 AND SWAP1 POP SWAP2 SWAP1 POP JUMP JUMPDEST PUSH0 PUSH2 0xDF DUP3 PUSH2 0xB6 JUMP JUMPDEST SWAP1 POP SWAP2 SWAP1 POP JUMP JUMPDEST PUSH2 0xEF DUP2 PUSH2 0xD5 JUMP JUMPDEST DUP2 EQ PUSH2 0xF9 JUMPI PUSH0 DUP1 REVERT JUMPDEST POP JUMP JUMPDEST PUSH0 DUP2 MLOAD SWAP1 POP PUSH2 0x10A DUP2 PUSH2 0xE6 JUMP JUMPDEST SWAP3 SWAP2 POP POP JUMP JUMPDEST PUSH0 DUP1 PUSH1 0x40 DUP4 DUP6 SUB SLT ISZERO PUSH2 0x126 JUMPI PUSH2 0x125 PUSH2 0x7F JUMP JUMPDEST JUMPDEST PUSH0 PUSH2 0x133 DUP6 DUP3 DUP7 ADD PUSH2 0xA2 JUMP JUMPDEST SWAP3 POP POP PUSH1 0x20 PUSH2 0x144 DUP6 DUP3 DUP7 ADD PUSH2 0xFC JUMP JUMPDEST SWAP2 POP POP SWAP3 POP SWAP3 SWAP1 POP JUMP JUMPDEST PUSH2 0x12A2 DUP1 PUSH2 0x15B PUSH0 CODECOPY PUSH0 RETURN INVALID PUSH1 0x80 PUSH1 0x40 MSTORE PUSH1 0x4 CALLDATASIZE LT PUSH2 0xA6 JUMPI PUSH0 CALLDATALOAD PUSH1 0xE0 SHR DUP1 PUSH4 0x81D12C58 GT PUSH2 0x63 JUMPI DUP1 PUSH4 0x81D12C58 EQ PUSH2 0x1BA JUMPI DUP1 PUSH4 0x851B16F5 EQ PUSH2 0x1FA JUMPI DUP1 PUSH4 0x8A9CFD55 EQ PUSH2 0x204 JUMPI DUP1 PUSH4 0x937E09B1 EQ PUSH2 0x220 JUMPI DUP1 PUSH4 0xD7BB99BA EQ PUSH2 0x24A JUMPI DUP1 PUSH4 0xD7D1BBDB EQ PUSH2 0x254 JUMPI PUSH2 0xA6 JUMP JUMPDEST DUP1 PUSH4 0x3441006 EQ PUSH2 0xAA JUMPI DUP1 PUSH4 0xA144391 EQ PUSH2 0xD2 JUMPI DUP1 PUSH4 0x128E9BE6 EQ PUSH2 0x10E JUMPI DUP1 PUSH4 0x3410452A EQ PUSH2 0x138 JUMPI DUP1 PUSH4 0x4051DDAC EQ PUSH2 0x162 JUMPI DUP1 PUSH4 0x481C6A75 EQ PUSH2 0x190 JUMPI JUMPDEST PUSH0 DUP1 REVERT JUMPDEST CALLVALUE DUP1 ISZERO PUSH2 0xB5 JUMPI PUSH0 DUP1 REVERT JUMPDEST POP PUSH2 0xD0 PUSH1 0x4 DUP1 CALLDATASIZE SUB DUP2 ADD SWAP1 PUSH2 0xCB SWAP2 SWAP1 PUSH2 0xA86 JUMP JUMPDEST PUSH2 0x27C JUMP JUMPDEST STOP JUMPDEST CALLVALUE DUP1 ISZERO PUSH2 0xDD JUMPI PUSH0 DUP1 REVERT JUMPDEST POP PUSH2 0xF8 PUSH1 0x4 DUP1 CALLDATASIZE SUB DUP2 ADD SWAP1 PUSH2 0xF3 SWAP2 SWAP1 PUSH2 0xB0B JUMP JUMPDEST PUSH2 0x42D JUMP JUMPDEST PUSH1 0x40 MLOAD PUSH2 0x105 SWAP2 SWAP1 PUSH2 0xB50 JUMP JUMPDEST PUSH1 0x40 MLOAD DUP1 SWAP2 SUB SWAP1 RETURN JUMPDEST CALLVALUE DUP1 ISZERO PUSH2 0x119 JUMPI PUSH0 DUP1 REVERT JUMPDEST POP PUSH2 0x122 PUSH2 0x44A JUMP JUMPDEST PUSH1 0x40 MLOAD PUSH2 0x12F SWAP2 SWAP1 PUSH2 0xB78 JUMP JUMPDEST PUSH1 0x40 MLOAD DUP1 SWAP2 SUB SWAP1 RETURN JUMPDEST CALLVALUE DUP1 ISZERO PUSH2 0x143 JUMPI PUSH0 DUP1 REVERT JUMPDEST POP PUSH2 0x14C PUSH2 0x450 JUMP JUMPDEST PUSH1 0x40 MLOAD PUSH2 0x159 SWAP2 SWAP1 PUSH2 0xB78 JUMP JUMPDEST PUSH1 0x40 MLOAD DUP1 SWAP2 SUB SWAP1 RETURN JUMPDEST CALLVALUE DUP1 ISZERO PUSH2 0x16D JUMPI PUSH0 DUP1 REVERT JUMPDEST POP PUSH2 0x176 PUSH2 0x45B JUMP JUMPDEST PUSH1 0x40 MLOAD PUSH2 0x187 SWAP6 SWAP5 SWAP4 SWAP3 SWAP2 SWAP1 PUSH2 0xBA0 JUMP JUMPDEST PUSH1 0x40 MLOAD DUP1 SWAP2 SUB SWAP1 RETURN JUMPDEST CALLVALUE DUP1 ISZERO PUSH2 0x19B JUMPI PUSH0 DUP1 REVERT JUMPDEST POP PUSH2 0x1A4 PUSH2 0x49F JUMP JUMPDEST PUSH1 0x40 MLOAD PUSH2 0x1B1 SWAP2 SWAP1 PUSH2 0xBF1 JUMP JUMPDEST PUSH1 0x40 MLOAD DUP1 SWAP2 SUB SWAP1 RETURN JUMPDEST CALLVALUE DUP1 ISZERO PUSH2 0x1C5 JUMPI PUSH0 DUP1 REVERT JUMPDEST POP PUSH2 0x1E0 PUSH1 0x4 DUP1 CALLDATASIZE SUB DUP2 ADD SWAP1 PUSH2 0x1DB SWAP2 SWAP1 PUSH2 0xA86 JUMP JUMPDEST PUSH2 0x4C4 JUMP JUMPDEST PUSH1 0x40 MLOAD PUSH2 0x1F1 SWAP6 SWAP5 SWAP4 SWAP3 SWAP2 SWAP1 PUSH2 0xC7A JUMP JUMPDEST PUSH1 0x40 MLOAD DUP1 SWAP2 SUB SWAP1 RETURN JUMPDEST PUSH2 0x202 PUSH2 0x5B6 JUMP JUMPDEST STOP JUMPDEST PUSH2 0x21E PUSH1 0x4 DUP1 CALLDATASIZE SUB DUP2 ADD SWAP1 PUSH2 0x219 SWAP2 SWAP1 PUSH2 0xE39 JUMP JUMPDEST PUSH2 0x6C8 JUMP JUMPDEST STOP JUMPDEST CALLVALUE DUP1 ISZERO PUSH2 0x22B JUMPI PUSH0 DUP1 REVERT JUMPDEST POP PUSH2 0x234 PUSH2 0x7C7 JUMP JUMPDEST PUSH1 0x40 MLOAD PUSH2 0x241 SWAP2 SWAP1 PUSH2 0xB78 JUMP JUMPDEST PUSH1 0x40 MLOAD DUP1 SWAP2 SUB SWAP1 RETURN JUMPDEST PUSH2 0x252 PUSH2 0x7CD JUMP JUMPDEST STOP JUMPDEST CALLVALUE DUP1 ISZERO PUSH2 0x25F JUMPI PUSH0 DUP1 REVERT JUMPDEST POP PUSH2 0x27A PUSH1 0x4 DUP1 CALLDATASIZE SUB DUP2 ADD SWAP1 PUSH2 0x275 SWAP2 SWAP1 PUSH2 0xA86 JUMP JUMPDEST PUSH2 0x8CE JUMP JUMPDEST STOP JUMPDEST PUSH1 0x2 PUSH0 SWAP1 SLOAD SWAP1 PUSH2 0x100 EXP SWAP1 DIV PUSH20 0xFFFFFFFFFFFFFFFFFFFFFFFFFFFFFFFFFFFFFFFF AND PUSH20 0xFFFFFFFFFFFFFFFFFFFFFFFFFFFFFFFFFFFFFFFF AND CALLER PUSH20 0xFFFFFFFFFFFFFFFFFFFFFFFFFFFFFFFFFFFFFFFF AND EQ PUSH2 0x2D4 JUMPI PUSH0 DUP1 REVERT JUMPDEST PUSH1 0x2 PUSH1 0x6 SLOAD PUSH2 0x2E3 SWAP2 SWAP1 PUSH2 0xEFF JUMP JUMPDEST PUSH0 DUP3 DUP2 SLOAD DUP2 LT PUSH2 0x2F6 JUMPI PUSH2 0x2F5 PUSH2 0xF2F JUMP JUMPDEST JUMPDEST SWAP1 PUSH0 MSTORE PUSH1 0x20 PUSH0 KECCAK256 SWAP1 PUSH1 0x5 MUL ADD PUSH1 0x3 ADD SLOAD GT PUSH2 0x30F JUMPI PUSH0 DUP1 REVERT JUMPDEST PUSH0 DUP2 DUP2 SLOAD DUP2 LT PUSH2 0x322 JUMPI PUSH2 0x321 PUSH2 0xF2F JUMP JUMPDEST JUMPDEST SWAP1 PUSH0 MSTORE PUSH1 0x20 PUSH0 KECCAK256 SWAP1 PUSH1 0x5 MUL ADD PUSH1 0x2 ADD PUSH1 0x14 SWAP1 SLOAD SWAP1 PUSH2 0x100 EXP SWAP1 DIV PUSH1 0xFF AND ISZERO PUSH2 0x348 JUMPI PUSH0 DUP1 REVERT JUMPDEST PUSH1 0x1 PUSH0 DUP3 DUP2 SLOAD DUP2 LT PUSH2 0x35D JUMPI PUSH2 0x35C PUSH2 0xF2F JUMP JUMPDEST JUMPDEST SWAP1 PUSH0 MSTORE PUSH1 0x20 PUSH0 KECCAK256 SWAP1 PUSH1 0x5 MUL ADD PUSH1 0x2 ADD PUSH1 0x14 PUSH2 0x100 EXP DUP2 SLOAD DUP2 PUSH1 0xFF MUL NOT AND SWAP1 DUP4 ISZERO ISZERO MUL OR SWAP1 SSTORE POP PUSH0 DUP2 DUP2 SLOAD DUP2 LT PUSH2 0x396 JUMPI PUSH2 0x395 PUSH2 0xF2F JUMP JUMPDEST JUMPDEST SWAP1 PUSH0 MSTORE PUSH1 0x20 PUSH0 KECCAK256 SWAP1 PUSH1 0x5 MUL ADD PUSH1 0x2 ADD PUSH0 SWAP1 SLOAD SWAP1 PUSH2 0x100 EXP SWAP1 DIV PUSH20 0xFFFFFFFFFFFFFFFFFFFFFFFFFFFFFFFFFFFFFFFF AND PUSH20 0xFFFFFFFFFFFFFFFFFFFFFFFFFFFFFFFFFFFFFFFF AND PUSH2 0x8FC PUSH0 DUP4 DUP2 SLOAD DUP2 LT PUSH2 0x3F1 JUMPI PUSH2 0x3F0 PUSH2 0xF2F JUMP JUMPDEST JUMPDEST SWAP1 PUSH0 MSTORE PUSH1 0x20 PUSH0 KECCAK256 SWAP1 PUSH1 0x5 MUL ADD PUSH1 0x1 ADD SLOAD SWAP1 DUP2 ISZERO MUL SWAP1 PUSH1 0x40 MLOAD PUSH0 PUSH1 0x40 MLOAD DUP1 DUP4 SUB DUP2 DUP6 DUP9 DUP9 CALL SWAP4 POP POP POP POP ISZERO DUP1 ISZERO PUSH2 0x429 JUMPI RETURNDATASIZE PUSH0 DUP1 RETURNDATACOPY RETURNDATASIZE PUSH0 REVERT JUMPDEST POP POP JUMP JUMPDEST PUSH1 0x5 PUSH1 0x20 MSTORE DUP1 PUSH0 MSTORE PUSH1 0x40 PUSH0 KECCAK256 PUSH0 SWAP2 POP SLOAD SWAP1 PUSH2 0x100 EXP SWAP1 DIV PUSH1 0xFF AND DUP2 JUMP JUMPDEST PUSH1 0x6 SLOAD DUP2 JUMP JUMPDEST PUSH0 DUP1 DUP1 SLOAD SWAP1 POP SWAP1 POP SWAP1 JUMP JUMPDEST PUSH0 DUP1 PUSH0 DUP1 PUSH0 PUSH1 0x3 SLOAD SELFBALANCE PUSH0 DUP1 SLOAD SWAP1 POP PUSH1 0x6 SLOAD PUSH1 0x2 PUSH0 SWAP1 SLOAD SWAP1 PUSH2 0x100 EXP SWAP1 DIV PUSH20 0xFFFFFFFFFFFFFFFFFFFFFFFFFFFFFFFFFFFFFFFF AND SWAP5 POP SWAP5 POP SWAP5 POP SWAP5 POP SWAP5 POP SWAP1 SWAP2 SWAP3 SWAP4 SWAP5 JUMP JUMPDEST PUSH1 0x2 PUSH0 SWAP1 SLOAD SWAP1 PUSH2 0x100 EXP SWAP1 DIV PUSH20 0xFFFFFFFFFFFFFFFFFFFFFFFFFFFFFFFFFFFFFFFF AND DUP2 JUMP JUMPDEST PUSH0 DUP2 DUP2 SLOAD DUP2 LT PUSH2 0x4D2 JUMPI PUSH0 DUP1 REVERT JUMPDEST SWAP1 PUSH0 MSTORE PUSH1 0x20 PUSH0 KECCAK256 SWAP1 PUSH1 0x5 MUL ADD PUSH0 SWAP2 POP SWAP1 POP DUP1 PUSH0 ADD DUP1 SLOAD PUSH2 0x4F1 SWAP1 PUSH2 0xF89 JUMP JUMPDEST DUP1 PUSH1 0x1F ADD PUSH1 0x20 DUP1 SWAP2 DIV MUL PUSH1 0x20 ADD PUSH1 0x40 MLOAD SWAP1 DUP2 ADD PUSH1 0x40 MSTORE DUP1 SWAP3 SWAP2 SWAP1 DUP2 DUP2 MSTORE PUSH1 0x20 ADD DUP3 DUP1 SLOAD PUSH2 0x51D SWAP1 PUSH2 0xF89 JUMP JUMPDEST DUP1 ISZERO PUSH2 0x568 JUMPI DUP1 PUSH1 0x1F LT PUSH2 0x53F JUMPI PUSH2 0x100 DUP1 DUP4 SLOAD DIV MUL DUP4 MSTORE SWAP2 PUSH1 0x20 ADD SWAP2 PUSH2 0x568 JUMP JUMPDEST DUP3 ADD SWAP2 SWAP1 PUSH0 MSTORE PUSH1 0x20 PUSH0 KECCAK256 SWAP1 JUMPDEST DUP2 SLOAD DUP2 MSTORE SWAP1 PUSH1 0x1 ADD SWAP1 PUSH1 0x20 ADD DUP1 DUP4 GT PUSH2 0x54B JUMPI DUP3 SWAP1 SUB PUSH1 0x1F AND DUP3 ADD SWAP2 JUMPDEST POP POP POP POP POP SWAP1 DUP1 PUSH1 0x1 ADD SLOAD SWAP1 DUP1 PUSH1 0x2 ADD PUSH0 SWAP1 SLOAD SWAP1 PUSH2 0x100 EXP SWAP1 DIV PUSH20 0xFFFFFFFFFFFFFFFFFFFFFFFFFFFFFFFFFFFFFFFF AND SWAP1 DUP1 PUSH1 0x2 ADD PUSH1 0x14 SWAP1 SLOAD SWAP1 PUSH2 0x100 EXP SWAP1 DIV PUSH1 0xFF AND SWAP1 DUP1 PUSH1 0x3 ADD SLOAD SWAP1 POP DUP6 JUMP JUMPDEST PUSH1 0x2 PUSH0 SWAP1 SLOAD SWAP1 PUSH2 0x100 EXP SWAP1 DIV PUSH20 0xFFFFFFFFFFFFFFFFFFFFFFFFFFFFFFFFFFFFFFFF AND PUSH20 0xFFFFFFFFFFFFFFFFFFFFFFFFFFFFFFFFFFFFFFFF AND CALLER PUSH20 0xFFFFFFFFFFFFFFFFFFFFFFFFFFFFFFFFFFFFFFFF AND EQ PUSH2 0x60E JUMPI PUSH0 DUP1 REVERT JUMPDEST PUSH0 JUMPDEST PUSH1 0x1 DUP1 SLOAD SWAP1 POP DUP2 LT ISZERO PUSH2 0x6C5 JUMPI PUSH1 0x4 DUP2 DUP2 SLOAD DUP2 LT PUSH2 0x631 JUMPI PUSH2 0x630 PUSH2 0xF2F JUMP JUMPDEST JUMPDEST SWAP1 PUSH0 MSTORE PUSH1 0x20 PUSH0 KECCAK256 ADD PUSH0 SWAP1 SLOAD SWAP1 PUSH2 0x100 EXP SWAP1 DIV PUSH20 0xFFFFFFFFFFFFFFFFFFFFFFFFFFFFFFFFFFFFFFFF AND PUSH20 0xFFFFFFFFFFFFFFFFFFFFFFFFFFFFFFFFFFFFFFFF AND PUSH2 0x8FC PUSH1 0x1 DUP4 DUP2 SLOAD DUP2 LT PUSH2 0x686 JUMPI PUSH2 0x685 PUSH2 0xF2F JUMP JUMPDEST JUMPDEST SWAP1 PUSH0 MSTORE PUSH1 0x20 PUSH0 KECCAK256 ADD SLOAD SWAP1 DUP2 ISZERO MUL SWAP1 PUSH1 0x40 MLOAD PUSH0 PUSH1 0x40 MLOAD DUP1 DUP4 SUB DUP2 DUP6 DUP9 DUP9 CALL SWAP4 POP POP POP POP ISZERO DUP1 ISZERO PUSH2 0x6B7 JUMPI RETURNDATASIZE PUSH0 DUP1 RETURNDATACOPY RETURNDATASIZE PUSH0 REVERT JUMPDEST POP DUP1 DUP1 PUSH1 0x1 ADD SWAP2 POP POP PUSH2 0x610 JUMP JUMPDEST POP JUMP JUMPDEST PUSH1 0x2 PUSH0 SWAP1 SLOAD SWAP1 PUSH2 0x100 EXP SWAP1 DIV PUSH20 0xFFFFFFFFFFFFFFFFFFFFFFFFFFFFFFFFFFFFFFFF AND PUSH20 0xFFFFFFFFFFFFFFFFFFFFFFFFFFFFFFFFFFFFFFFF AND CALLER PUSH20 0xFFFFFFFFFFFFFFFFFFFFFFFFFFFFFFFFFFFFFFFF AND EQ PUSH2 0x720 JUMPI PUSH0 DUP1 REVERT JUMPDEST PUSH0 DUP1 PUSH1 0x1 DUP2 PUSH1 0x1 DUP2 SLOAD ADD DUP1 DUP3 SSTORE DUP1 SWAP2 POP POP SUB SWAP1 PUSH0 MSTORE PUSH1 0x20 PUSH0 KECCAK256 SWAP1 PUSH1 0x5 MUL ADD SWAP1 POP DUP4 DUP2 PUSH0 ADD SWAP1 DUP2 PUSH2 0x750 SWAP2 SWAP1 PUSH2 0x1156 JUMP JUMPDEST POP DUP3 DUP2 PUSH1 0x1 ADD DUP2 SWAP1 SSTORE POP DUP2 DUP2 PUSH1 0x2 ADD PUSH0 PUSH2 0x100 EXP DUP2 SLOAD DUP2 PUSH20 0xFFFFFFFFFFFFFFFFFFFFFFFFFFFFFFFFFFFFFFFF MUL NOT AND SWAP1 DUP4 PUSH20 0xFFFFFFFFFFFFFFFFFFFFFFFFFFFFFFFFFFFFFFFF AND MUL OR SWAP1 SSTORE POP PUSH0 DUP2 PUSH1 0x2 ADD PUSH1 0x14 PUSH2 0x100 EXP DUP2 SLOAD DUP2 PUSH1 0xFF MUL NOT AND SWAP1 DUP4 ISZERO ISZERO MUL OR SWAP1 SSTORE POP PUSH0 DUP2 PUSH1 0x3 ADD DUP2 SWAP1 SSTORE POP POP POP POP POP JUMP JUMPDEST PUSH1 0x3 SLOAD DUP2 JUMP JUMPDEST PUSH1 0x3 SLOAD CALLVALUE GT PUSH2 0x7DA JUMPI PUSH0 DUP1 REVERT JUMPDEST PUSH1 0x1 PUSH1 0x5 PUSH0 CALLER PUSH20 0xFFFFFFFFFFFFFFFFFFFFFFFFFFFFFFFFFFFFFFFF AND PUSH20 0xFFFFFFFFFFFFFFFFFFFFFFFFFFFFFFFFFFFFFFFF AND DUP2 MSTORE PUSH1 0x20 ADD SWAP1 DUP2 MSTORE PUSH1 0x20 ADD PUSH0 KECCAK256 PUSH0 PUSH2 0x100 EXP DUP2 SLOAD DUP2 PUSH1 0xFF MUL NOT AND SWAP1 DUP4 ISZERO ISZERO MUL OR SWAP1 SSTORE POP PUSH1 0x1 CALLVALUE SWAP1 DUP1 PUSH1 0x1 DUP2 SLOAD ADD DUP1 DUP3 SSTORE DUP1 SWAP2 POP POP PUSH1 0x1 SWAP1 SUB SWAP1 PUSH0 MSTORE PUSH1 0x20 PUSH0 KECCAK256 ADD PUSH0 SWAP1 SWAP2 SWAP1 SWAP2 SWAP1 SWAP2 POP SSTORE PUSH1 0x6 PUSH0 DUP2 SLOAD DUP1 SWAP3 SWAP2 SWAP1 PUSH2 0x867 SWAP1 PUSH2 0x1225 JUMP JUMPDEST SWAP2 SWAP1 POP SSTORE POP PUSH1 0x4 CALLER SWAP1 DUP1 PUSH1 0x1 DUP2 SLOAD ADD DUP1 DUP3 SSTORE DUP1 SWAP2 POP POP PUSH1 0x1 SWAP1 SUB SWAP1 PUSH0 MSTORE PUSH1 0x20 PUSH0 KECCAK256 ADD PUSH0 SWAP1 SWAP2 SWAP1 SWAP2 SWAP1 SWAP2 PUSH2 0x100 EXP DUP2 SLOAD DUP2 PUSH20 0xFFFFFFFFFFFFFFFFFFFFFFFFFFFFFFFFFFFFFFFF MUL NOT AND SWAP1 DUP4 PUSH20 0xFFFFFFFFFFFFFFFFFFFFFFFFFFFFFFFFFFFFFFFF AND MUL OR SWAP1 SSTORE POP JUMP JUMPDEST PUSH1 0x5 PUSH0 CALLER PUSH20 0xFFFFFFFFFFFFFFFFFFFFFFFFFFFFFFFFFFFFFFFF AND PUSH20 0xFFFFFFFFFFFFFFFFFFFFFFFFFFFFFFFFFFFFFFFF AND DUP2 MSTORE PUSH1 0x20 ADD SWAP1 DUP2 MSTORE PUSH1 0x20 ADD PUSH0 KECCAK256 PUSH0 SWAP1 SLOAD SWAP1 PUSH2 0x100 EXP SWAP1 DIV PUSH1 0xFF AND PUSH2 0x920 JUMPI PUSH0 DUP1 REVERT JUMPDEST PUSH0 DUP2 DUP2 SLOAD DUP2 LT PUSH2 0x933 JUMPI PUSH2 0x932 PUSH2 0xF2F JUMP JUMPDEST JUMPDEST SWAP1 PUSH0 MSTORE PUSH1 0x20 PUSH0 KECCAK256 SWAP1 PUSH1 0x5 MUL ADD PUSH1 0x4 ADD PUSH0 CALLER PUSH20 0xFFFFFFFFFFFFFFFFFFFFFFFFFFFFFFFFFFFFFFFF AND PUSH20 0xFFFFFFFFFFFFFFFFFFFFFFFFFFFFFFFFFFFFFFFF AND DUP2 MSTORE PUSH1 0x20 ADD SWAP1 DUP2 MSTORE PUSH1 0x20 ADD PUSH0 KECCAK256 PUSH0 SWAP1 SLOAD SWAP1 PUSH2 0x100 EXP SWAP1 DIV PUSH1 0xFF AND ISZERO PUSH2 0x993 JUMPI PUSH0 DUP1 REVERT JUMPDEST PUSH0 DUP2 DUP2 SLOAD DUP2 LT PUSH2 0x9A6 JUMPI PUSH2 0x9A5 PUSH2 0xF2F JUMP JUMPDEST JUMPDEST SWAP1 PUSH0 MSTORE PUSH1 0x20 PUSH0 KECCAK256 SWAP1 PUSH1 0x5 MUL ADD PUSH1 0x3 ADD PUSH0 DUP2 SLOAD DUP1 SWAP3 SWAP2 SWAP1 PUSH2 0x9C5 SWAP1 PUSH2 0x1225 JUMP JUMPDEST SWAP2 SWAP1 POP SSTORE POP PUSH1 0x1 PUSH0 DUP3 DUP2 SLOAD DUP2 LT PUSH2 0x9DF JUMPI PUSH2 0x9DE PUSH2 0xF2F JUMP JUMPDEST JUMPDEST SWAP1 PUSH0 MSTORE PUSH1 0x20 PUSH0 KECCAK256 SWAP1 PUSH1 0x5 MUL ADD PUSH1 0x4 ADD PUSH0 CALLER PUSH20 0xFFFFFFFFFFFFFFFFFFFFFFFFFFFFFFFFFFFFFFFF AND PUSH20 0xFFFFFFFFFFFFFFFFFFFFFFFFFFFFFFFFFFFFFFFF AND DUP2 MSTORE PUSH1 0x20 ADD SWAP1 DUP2 MSTORE PUSH1 0x20 ADD PUSH0 KECCAK256 PUSH0 PUSH2 0x100 EXP DUP2 SLOAD DUP2 PUSH1 0xFF MUL NOT AND SWAP1 DUP4 ISZERO ISZERO MUL OR SWAP1 SSTORE POP POP JUMP JUMPDEST PUSH0 PUSH1 0x40 MLOAD SWAP1 POP SWAP1 JUMP JUMPDEST PUSH0 DUP1 REVERT JUMPDEST PUSH0 DUP1 REVERT JUMPDEST PUSH0 DUP2 SWAP1 POP SWAP2 SWAP1 POP JUMP JUMPDEST PUSH2 0xA65 DUP2 PUSH2 0xA53 JUMP JUMPDEST DUP2 EQ PUSH2 0xA6F JUMPI PUSH0 DUP1 REVERT JUMPDEST POP JUMP JUMPDEST PUSH0 DUP2 CALLDATALOAD SWAP1 POP PUSH2 0xA80 DUP2 PUSH2 0xA5C JUMP JUMPDEST SWAP3 SWAP2 POP POP JUMP JUMPDEST PUSH0 PUSH1 0x20 DUP3 DUP5 SUB SLT ISZERO PUSH2 0xA9B JUMPI PUSH2 0xA9A PUSH2 0xA4B JUMP JUMPDEST JUMPDEST PUSH0 PUSH2 0xAA8 DUP5 DUP3 DUP6 ADD PUSH2 0xA72 JUMP JUMPDEST SWAP2 POP POP SWAP3 SWAP2 POP POP JUMP JUMPDEST PUSH0 PUSH20 0xFFFFFFFFFFFFFFFFFFFFFFFFFFFFFFFFFFFFFFFF DUP3 AND SWAP1 POP SWAP2 SWAP1 POP JUMP JUMPDEST PUSH0 PUSH2 0xADA DUP3 PUSH2 0xAB1 JUMP JUMPDEST SWAP1 POP SWAP2 SWAP1 POP JUMP JUMPDEST PUSH2 0xAEA DUP2 PUSH2 0xAD0 JUMP JUMPDEST DUP2 EQ PUSH2 0xAF4 JUMPI PUSH0 DUP1 REVERT JUMPDEST POP JUMP JUMPDEST PUSH0 DUP2 CALLDATALOAD SWAP1 POP PUSH2 0xB05 DUP2 PUSH2 0xAE1 JUMP JUMPDEST SWAP3 SWAP2 POP POP JUMP JUMPDEST PUSH0 PUSH1 0x20 DUP3 DUP5 SUB SLT ISZERO PUSH2 0xB20 JUMPI PUSH2 0xB1F PUSH2 0xA4B JUMP JUMPDEST JUMPDEST PUSH0 PUSH2 0xB2D DUP5 DUP3 DUP6 ADD PUSH2 0xAF7 JUMP JUMPDEST SWAP2 POP POP SWAP3 SWAP2 POP POP JUMP JUMPDEST PUSH0 DUP2 ISZERO ISZERO SWAP1 POP SWAP2 SWAP1 POP JUMP JUMPDEST PUSH2 0xB4A DUP2 PUSH2 0xB36 JUMP JUMPDEST DUP3 MSTORE POP POP JUMP JUMPDEST PUSH0 PUSH1 0x20 DUP3 ADD SWAP1 POP PUSH2 0xB63 PUSH0 DUP4 ADD DUP5 PUSH2 0xB41 JUMP JUMPDEST SWAP3 SWAP2 POP POP JUMP JUMPDEST PUSH2 0xB72 DUP2 PUSH2 0xA53 JUMP JUMPDEST DUP3 MSTORE POP POP JUMP JUMPDEST PUSH0 PUSH1 0x20 DUP3 ADD SWAP1 POP PUSH2 0xB8B PUSH0 DUP4 ADD DUP5 PUSH2 0xB69 JUMP JUMPDEST SWAP3 SWAP2 POP POP JUMP JUMPDEST PUSH2 0xB9A DUP2 PUSH2 0xAD0 JUMP JUMPDEST DUP3 MSTORE POP POP JUMP JUMPDEST PUSH0 PUSH1 0xA0 DUP3 ADD SWAP1 POP PUSH2 0xBB3 PUSH0 DUP4 ADD DUP9 PUSH2 0xB69 JUMP JUMPDEST PUSH2 0xBC0 PUSH1 0x20 DUP4 ADD DUP8 PUSH2 0xB69 JUMP JUMPDEST PUSH2 0xBCD PUSH1 0x40 DUP4 ADD DUP7 PUSH2 0xB69 JUMP JUMPDEST PUSH2 0xBDA PUSH1 0x60 DUP4 ADD DUP6 PUSH2 0xB69 JUMP JUMPDEST PUSH2 0xBE7 PUSH1 0x80 DUP4 ADD DUP5 PUSH2 0xB91 JUMP JUMPDEST SWAP7 SWAP6 POP POP POP POP POP POP JUMP JUMPDEST PUSH0 PUSH1 0x20 DUP3 ADD SWAP1 POP PUSH2 0xC04 PUSH0 DUP4 ADD DUP5 PUSH2 0xB91 JUMP JUMPDEST SWAP3 SWAP2 POP POP JUMP JUMPDEST PUSH0 DUP2 MLOAD SWAP1 POP SWAP2 SWAP1 POP JUMP JUMPDEST PUSH0 DUP3 DUP3 MSTORE PUSH1 0x20 DUP3 ADD SWAP1 POP SWAP3 SWAP2 POP POP JUMP JUMPDEST DUP3 DUP2 DUP4 MCOPY PUSH0 DUP4 DUP4 ADD MSTORE POP POP POP JUMP JUMPDEST PUSH0 PUSH1 0x1F NOT PUSH1 0x1F DUP4 ADD AND SWAP1 POP SWAP2 SWAP1 POP JUMP JUMPDEST PUSH0 PUSH2 0xC4C DUP3 PUSH2 0xC0A JUMP JUMPDEST PUSH2 0xC56 DUP2 DUP6 PUSH2 0xC14 JUMP JUMPDEST SWAP4 POP PUSH2 0xC66 DUP2 DUP6 PUSH1 0x20 DUP7 ADD PUSH2 0xC24 JUMP JUMPDEST PUSH2 0xC6F DUP2 PUSH2 0xC32 JUMP JUMPDEST DUP5 ADD SWAP2 POP POP SWAP3 SWAP2 POP POP JUMP JUMPDEST PUSH0 PUSH1 0xA0 DUP3 ADD SWAP1 POP DUP2 DUP2 SUB PUSH0 DUP4 ADD MSTORE PUSH2 0xC92 DUP2 DUP9 PUSH2 0xC42 JUMP JUMPDEST SWAP1 POP PUSH2 0xCA1 PUSH1 0x20 DUP4 ADD DUP8 PUSH2 0xB69 JUMP JUMPDEST PUSH2 0xCAE PUSH1 0x40 DUP4 ADD DUP7 PUSH2 0xB91 JUMP JUMPDEST PUSH2 0xCBB PUSH1 0x60 DUP4 ADD DUP6 PUSH2 0xB41 JUMP JUMPDEST PUSH2 0xCC8 PUSH1 0x80 DUP4 ADD DUP5 PUSH2 0xB69 JUMP JUMPDEST SWAP7 SWAP6 POP POP POP POP POP POP JUMP JUMPDEST PUSH0 DUP1 REVERT JUMPDEST PUSH0 DUP1 REVERT JUMPDEST PUSH32 0x4E487B7100000000000000000000000000000000000000000000000000000000 PUSH0 MSTORE PUSH1 0x41 PUSH1 0x4 MSTORE PUSH1 0x24 PUSH0 REVERT JUMPDEST PUSH2 0xD10 DUP3 PUSH2 0xC32 JUMP JUMPDEST DUP2 ADD DUP2 DUP2 LT PUSH8 0xFFFFFFFFFFFFFFFF DUP3 GT OR ISZERO PUSH2 0xD2F JUMPI PUSH2 0xD2E PUSH2 0xCDA JUMP JUMPDEST JUMPDEST DUP1 PUSH1 0x40 MSTORE POP POP POP JUMP JUMPDEST PUSH0 PUSH2 0xD41 PUSH2 0xA42 JUMP JUMPDEST SWAP1 POP PUSH2 0xD4D DUP3 DUP3 PUSH2 0xD07 JUMP JUMPDEST SWAP2 SWAP1 POP JUMP JUMPDEST PUSH0 PUSH8 0xFFFFFFFFFFFFFFFF DUP3 GT ISZERO PUSH2 0xD6C JUMPI PUSH2 0xD6B PUSH2 0xCDA JUMP JUMPDEST JUMPDEST PUSH2 0xD75 DUP3 PUSH2 0xC32 JUMP JUMPDEST SWAP1 POP PUSH1 0x20 DUP2 ADD SWAP1 POP SWAP2 SWAP1 POP JUMP JUMPDEST DUP3 DUP2 DUP4 CALLDATACOPY PUSH0 DUP4 DUP4 ADD MSTORE POP POP POP JUMP JUMPDEST PUSH0 PUSH2 0xDA2 PUSH2 0xD9D DUP5 PUSH2 0xD52 JUMP JUMPDEST PUSH2 0xD38 JUMP JUMPDEST SWAP1 POP DUP3 DUP2 MSTORE PUSH1 0x20 DUP2 ADD DUP5 DUP5 DUP5 ADD GT ISZERO PUSH2 0xDBE JUMPI PUSH2 0xDBD PUSH2 0xCD6 JUMP JUMPDEST JUMPDEST PUSH2 0xDC9 DUP5 DUP3 DUP6 PUSH2 0xD82 JUMP JUMPDEST POP SWAP4 SWAP3 POP POP POP JUMP JUMPDEST PUSH0 DUP3 PUSH1 0x1F DUP4 ADD SLT PUSH2 0xDE5 JUMPI PUSH2 0xDE4 PUSH2 0xCD2 JUMP JUMPDEST JUMPDEST DUP2 CALLDATALOAD PUSH2 0xDF5 DUP5 DUP3 PUSH1 0x20 DUP7 ADD PUSH2 0xD90 JUMP JUMPDEST SWAP2 POP POP SWAP3 SWAP2 POP POP JUMP JUMPDEST PUSH0 PUSH2 0xE08 DUP3 PUSH2 0xAB1 JUMP JUMPDEST SWAP1 POP SWAP2 SWAP1 POP JUMP JUMPDEST PUSH2 0xE18 DUP2 PUSH2 0xDFE JUMP JUMPDEST DUP2 EQ PUSH2 0xE22 JUMPI PUSH0 DUP1 REVERT JUMPDEST POP JUMP JUMPDEST PUSH0 DUP2 CALLDATALOAD SWAP1 POP PUSH2 0xE33 DUP2 PUSH2 0xE0F JUMP JUMPDEST SWAP3 SWAP2 POP POP JUMP JUMPDEST PUSH0 DUP1 PUSH0 PUSH1 0x60 DUP5 DUP7 SUB SLT ISZERO PUSH2 0xE50 JUMPI PUSH2 0xE4F PUSH2 0xA4B JUMP JUMPDEST JUMPDEST PUSH0 DUP5 ADD CALLDATALOAD PUSH8 0xFFFFFFFFFFFFFFFF DUP2 GT ISZERO PUSH2 0xE6D JUMPI PUSH2 0xE6C PUSH2 0xA4F JUMP JUMPDEST JUMPDEST PUSH2 0xE79 DUP7 DUP3 DUP8 ADD PUSH2 0xDD1 JUMP JUMPDEST SWAP4 POP POP PUSH1 0x20 PUSH2 0xE8A DUP7 DUP3 DUP8 ADD PUSH2 0xA72 JUMP JUMPDEST SWAP3 POP POP PUSH1 0x40 PUSH2 0xE9B DUP7 DUP3 DUP8 ADD PUSH2 0xE25 JUMP JUMPDEST SWAP2 POP POP SWAP3 POP SWAP3 POP SWAP3 JUMP JUMPDEST PUSH32 0x4E487B7100000000000000000000000000000000000000000000000000000000 PUSH0 MSTORE PUSH1 0x12 PUSH1 0x4 MSTORE PUSH1 0x24 PUSH0 REVERT JUMPDEST PUSH32 0x4E487B7100000000000000000000000000000000000000000000000000000000 PUSH0 MSTORE PUSH1 0x11 PUSH1 0x4 MSTORE PUSH1 0x24 PUSH0 REVERT JUMPDEST PUSH0 PUSH2 0xF09 DUP3 PUSH2 0xA53 JUMP JUMPDEST SWAP2 POP PUSH2 0xF14 DUP4 PUSH2 0xA53 JUMP JUMPDEST SWAP3 POP DUP3 PUSH2 0xF24 JUMPI PUSH2 0xF23 PUSH2 0xEA5 JUMP JUMPDEST JUMPDEST DUP3 DUP3 DIV SWAP1 POP SWAP3 SWAP2 POP POP JUMP JUMPDEST PUSH32 0x4E487B7100000000000000000000000000000000000000000000000000000000 PUSH0 MSTORE PUSH1 0x32 PUSH1 0x4 MSTORE PUSH1 0x24 PUSH0 REVERT JUMPDEST PUSH32 0x4E487B7100000000000000000000000000000000000000000000000000000000 PUSH0 MSTORE PUSH1 0x22 PUSH1 0x4 MSTORE PUSH1 0x24 PUSH0 REVERT JUMPDEST PUSH0 PUSH1 0x2 DUP3 DIV SWAP1 POP PUSH1 0x1 DUP3 AND DUP1 PUSH2 0xFA0 JUMPI PUSH1 0x7F DUP3 AND SWAP2 POP JUMPDEST PUSH1 0x20 DUP3 LT DUP2 SUB PUSH2 0xFB3 JUMPI PUSH2 0xFB2 PUSH2 0xF5C JUMP JUMPDEST JUMPDEST POP SWAP2 SWAP1 POP JUMP JUMPDEST PUSH0 DUP2 SWAP1 POP DUP2 PUSH0 MSTORE PUSH1 0x20 PUSH0 KECCAK256 SWAP1 POP SWAP2 SWAP1 POP JUMP JUMPDEST PUSH0 PUSH1 0x20 PUSH1 0x1F DUP4 ADD DIV SWAP1 POP SWAP2 SWAP1 POP JUMP JUMPDEST PUSH0 DUP3 DUP3 SHL SWAP1 POP SWAP3 SWAP2 POP POP JUMP JUMPDEST PUSH0 PUSH1 0x8 DUP4 MUL PUSH2 0x1015 PUSH32 0xFFFFFFFFFFFFFFFFFFFFFFFFFFFFFFFFFFFFFFFFFFFFFFFFFFFFFFFFFFFFFFFF DUP3 PUSH2 0xFDA JUMP JUMPDEST PUSH2 0x101F DUP7 DUP4 PUSH2 0xFDA JUMP JUMPDEST SWAP6 POP DUP1 NOT DUP5 AND SWAP4 POP DUP1 DUP7 AND DUP5 OR SWAP3 POP POP POP SWAP4 SWAP3 POP POP POP JUMP JUMPDEST PUSH0 DUP2 SWAP1 POP SWAP2 SWAP1 POP JUMP JUMPDEST PUSH0 PUSH2 0x105A PUSH2 0x1055 PUSH2 0x1050 DUP5 PUSH2 0xA53 JUMP JUMPDEST PUSH2 0x1037 JUMP JUMPDEST PUSH2 0xA53 JUMP JUMPDEST SWAP1 POP SWAP2 SWAP1 POP JUMP JUMPDEST PUSH0 DUP2 SWAP1 POP SWAP2 SWAP1 POP JUMP JUMPDEST PUSH2 0x1073 DUP4 PUSH2 0x1040 JUMP JUMPDEST PUSH2 0x1087 PUSH2 0x107F DUP3 PUSH2 0x1061 JUMP JUMPDEST DUP5 DUP5 SLOAD PUSH2 0xFE6 JUMP JUMPDEST DUP3 SSTORE POP POP POP POP JUMP JUMPDEST PUSH0 SWAP1 JUMP JUMPDEST PUSH2 0x109B PUSH2 0x108F JUMP JUMPDEST PUSH2 0x10A6 DUP2 DUP5 DUP5 PUSH2 0x106A JUMP JUMPDEST POP POP POP JUMP JUMPDEST JUMPDEST DUP2 DUP2 LT ISZERO PUSH2 0x10C9 JUMPI PUSH2 0x10BE PUSH0 DUP3 PUSH2 0x1093 JUMP JUMPDEST PUSH1 0x1 DUP2 ADD SWAP1 POP PUSH2 0x10AC JUMP JUMPDEST POP POP JUMP JUMPDEST PUSH1 0x1F DUP3 GT ISZERO PUSH2 0x110E JUMPI PUSH2 0x10DF DUP2 PUSH2 0xFB9 JUMP JUMPDEST PUSH2 0x10E8 DUP5 PUSH2 0xFCB JUMP JUMPDEST DUP2 ADD PUSH1 0x20 DUP6 LT ISZERO PUSH2 0x10F7 JUMPI DUP2 SWAP1 POP JUMPDEST PUSH2 0x110B PUSH2 0x1103 DUP6 PUSH2 0xFCB JUMP JUMPDEST DUP4 ADD DUP3 PUSH2 0x10AB JUMP JUMPDEST POP POP JUMPDEST POP POP POP JUMP JUMPDEST PUSH0 DUP3 DUP3 SHR SWAP1 POP SWAP3 SWAP2 POP POP JUMP JUMPDEST PUSH0 PUSH2 0x112E PUSH0 NOT DUP5 PUSH1 0x8 MUL PUSH2 0x1113 JUMP JUMPDEST NOT DUP1 DUP4 AND SWAP2 POP POP SWAP3 SWAP2 POP POP JUMP JUMPDEST PUSH0 PUSH2 0x1146 DUP4 DUP4 PUSH2 0x111F JUMP JUMPDEST SWAP2 POP DUP3 PUSH1 0x2 MUL DUP3 OR SWAP1 POP SWAP3 SWAP2 POP POP JUMP JUMPDEST PUSH2 0x115F DUP3 PUSH2 0xC0A JUMP JUMPDEST PUSH8 0xFFFFFFFFFFFFFFFF DUP2 GT ISZERO PUSH2 0x1178 JUMPI PUSH2 0x1177 PUSH2 0xCDA JUMP JUMPDEST JUMPDEST PUSH2 0x1182 DUP3 SLOAD PUSH2 0xF89 JUMP JUMPDEST PUSH2 0x118D DUP3 DUP3 DUP6 PUSH2 0x10CD JUMP JUMPDEST PUSH0 PUSH1 0x20 SWAP1 POP PUSH1 0x1F DUP4 GT PUSH1 0x1 DUP2 EQ PUSH2 0x11BE JUMPI PUSH0 DUP5 ISZERO PUSH2 0x11AC JUMPI DUP3 DUP8 ADD MLOAD SWAP1 POP JUMPDEST PUSH2 0x11B6 DUP6 DUP3 PUSH2 0x113B JUMP JUMPDEST DUP7 SSTORE POP PUSH2 0x121D JUMP JUMPDEST PUSH1 0x1F NOT DUP5 AND PUSH2 0x11CC DUP7 PUSH2 0xFB9 JUMP JUMPDEST PUSH0 JUMPDEST DUP3 DUP2 LT ISZERO PUSH2 0x11F3 JUMPI DUP5 DUP10 ADD MLOAD DUP3 SSTORE PUSH1 0x1 DUP3 ADD SWAP2 POP PUSH1 0x20 DUP6 ADD SWAP5 POP PUSH1 0x20 DUP2 ADD SWAP1 POP PUSH2 0x11CE JUMP JUMPDEST DUP7 DUP4 LT ISZERO PUSH2 0x1210 JUMPI DUP5 DUP10 ADD MLOAD PUSH2 0x120C PUSH1 0x1F DUP10 AND DUP3 PUSH2 0x111F JUMP JUMPDEST DUP4 SSTORE POP JUMPDEST PUSH1 0x1 PUSH1 0x2 DUP9 MUL ADD DUP9 SSTORE POP POP POP JUMPDEST POP POP POP POP POP POP JUMP JUMPDEST PUSH0 PUSH2 0x122F DUP3 PUSH2 0xA53 JUMP JUMPDEST SWAP2 POP PUSH32 0xFFFFFFFFFFFFFFFFFFFFFFFFFFFFFFFFFFFFFFFFFFFFFFFFFFFFFFFFFFFFFFFF DUP3 SUB PUSH2 0x1261 JUMPI PUSH2 0x1260 PUSH2 0xED2 JUMP JUMPDEST JUMPDEST PUSH1 0x1 DUP3 ADD SWAP1 POP SWAP2 SWAP1 POP JUMP INVALID LOG2 PUSH5 0x6970667358 0x22 SLT KECCAK256 LT PUSH28 0x4C59A60A1DF0DEC2DDABF06D99C8BB88401A00E5C46238D53419A2AF 0xE8 SELFBALANCE PUSH5 0x736F6C6343 STOP ADDMOD NOT STOP CALLER "
    },
    "gasEstimates": {
      "creation": {
        "codeDepositCost": "954000",
        "executionCost": "infinite",
        "totalCost": "infinite"
      },
      "external": {
        "approveRequest(uint256)": "infinite",
        "approverCount()": "2470",
        "approvers(address)": "2856",
        "cancelRequest()": "infinite",
        "contribute()": "146030",
        "createRequest(string,uint256,address)": "infinite",
        "finalizeRequest(uint256)": "infinite",
        "getRequestsCount()": "2507",
        "getSummary()": "infinite",
        "manager()": "2619",
        "minimumContribution()": "2491",
        "requests(uint256)": "infinite"
      }
    },
    "methodIdentifiers": {
      "approveRequest(uint256)": "d7d1bbdb",
      "approverCount()": "128e9be6",
      "approvers(address)": "0a144391",
      "cancelRequest()": "851b16f5",
      "contribute()": "d7bb99ba",
      "createRequest(string,uint256,address)": "8a9cfd55",
      "finalizeRequest(uint256)": "03441006",
      "getRequestsCount()": "3410452a",
      "getSummary()": "4051ddac",
      "manager()": "481c6a75",
      "minimumContribution()": "937e09b1",
      "requests(uint256)": "81d12c58"
    }
  },
  "storageLayout": {
    "storage": [
      {
        "astId": 61,
        "contract": "Campaign.sol:Campaign",
        "label": "requests",
        "offset": 0,
        "slot": "0",
        "type": "t_array(t_struct(Request)57_storage)dyn_storage"
      },
      {
        "astId": 64,
        "contract": "Campaign.sol:Campaign",
        "label": "amount",
        "offset": 0,
        "slot": "1",
        "type": "t_array(t_uint256)dyn_storage"
      },
      {
        "astId": 66,
        "contract": "Campaign.sol:Campaign",
        "label": "manager",
        "offset": 0,
        "slot": "2",
        "type": "t_address"
      },
      {
        "astId": 68,
        "contract": "Campaign.sol:Campaign",
        "label": "minimumContribution",
        "offset": 0,
        "slot": "3",
        "type": "t_uint256"
      },
      {
        "astId": 71,
        "contract": "Campaign.sol:Campaign",
        "label": "apps",
        "offset": 0,
        "slot": "4",
        "type": "t_array(t_address)dyn_storage"
      },
      {
        "astId": 86,
        "contract": "Campaign.sol:Campaign",
        "label": "approvers",
        "offset": 0,
        "slot": "5",
        "type": "t_mapping(t_address,t_bool)"
      },
      {
        "astId": 88,
        "contract": "Campaign.sol:Campaign",
        "label": "approverCount",
        "offset": 0,
        "slot": "6",
        "type": "t_uint256"
      }
    ],
    "types": {
      "t_address": {
        "encoding": "inplace",
        "label": "address",
        "numberOfBytes": "20"
      },
      "t_array(t_address)dyn_storage": {
        "base": "t_address",
        "encoding": "dynamic_array",
        "label": "address[]",
        "numberOfBytes": "32"
      },
      "t_array(t_struct(Request)57_storage)dyn_storage": {
        "base": "t_struct(Request)57_storage",
        "encoding": "dynamic_array",
        "label": "struct Campaign.Request[]",
        "numberOfBytes": "32"
      },
      "t_array(t_uint256)dyn_storage": {
        "base": "t_uint256",
        "encoding": "dynamic_array",
        "label": "uint256[]",
        "numberOfBytes": "32"
      },
      "t_bool": {
        "encoding": "inplace",
        "label": "bool",
        "numberOfBytes": "1"
      },
      "t_mapping(t_address,t_bool)": {
        "encoding": "mapping",
        "key": "t_address",
        "label": "mapping(address => bool)",
        "numberOfBytes": "32",
        "value": "t_bool"
      },
      "t_string_storage": {
        "encoding": "bytes",
        "label": "string",
        "numberOfBytes": "32"
      },
      "t_struct(Request)57_storage": {
        "encoding": "inplace",
        "label": "struct Campaign.Request",
        "members": [
          {
            "astId": 44,
            "contract": "Campaign.sol:Campaign",
            "label": "description",
            "offset": 0,
            "slot": "0",
            "type": "t_string_storage"
          },
          {
            "astId": 46,
            "contract": "Campaign.sol:Campaign",
            "label": "value",
            "offset": 0,
            "slot": "1",
            "type": "t_uint256"
          },
          {
            "astId": 48,
            "contract": "Campaign.sol:Campaign",
            "label": "recipient",
            "offset": 0,
            "slot": "2",
            "type": "t_address"
          },
          {
            "astId": 50,
            "contract": "Campaign.sol:Campaign",
            "label": "complete",
            "offset": 20,
            "slot": "2",
            "type": "t_bool"
          },
          {
            "astId": 52,
            "contract": "Campaign.sol:Campaign",
            "label": "approvalCount",
            "offset": 0,
            "slot": "3",
            "type": "t_uint256"
          },
          {
            "astId": 56,
            "contract": "Campaign.sol:Campaign",
            "label": "approvals",
            "offset": 0,
            "slot": "4",
            "type": "t_mapping(t_address,t_bool)"
          }
        ],
        "numberOfBytes": "160"
      },
      "t_uint256": {
        "encoding": "inplace",
        "label": "uint256",
        "numberOfBytes": "32"
      }
    }
  },
  "userdoc": {
    "kind": "user",
    "methods": {},
    "version": 1
  }
}