{
  "abi": [
    {
      "inputs": [
        {
          "internalType": "string",
          "name": "_name",
          "type": "string"
        },
        {
          "internalType": "address",
          "name": "_walletAddress",
          "type": "address"
        },
        {
          "internalType": "enum Role",
          "name": "_role",
          "type": "uint8"
        }
      ],
      "name": "addUser",
      "outputs": [],
      "stateMutability": "nonpayable",
      "type": "function"
    },
    {
      "inputs": [
        {
          "internalType": "uint256",
          "name": "minimum",
          "type": "uint256"
        }
      ],
      "name": "createCampaign",
      "outputs": [],
      "stateMutability": "nonpayable",
      "type": "function"
    },
    {
      "inputs": [
        {
          "internalType": "uint256",
          "name": "",
          "type": "uint256"
        }
      ],
      "name": "deployedCampaigns",
      "outputs": [
        {
          "internalType": "address payable",
          "name": "",
          "type": "address"
        }
      ],
      "stateMutability": "view",
      "type": "function"
    },
    {
      "inputs": [],
      "name": "getDeployedCampaigns",
      "outputs": [
        {
          "internalType": "address payable[]",
          "name": "",
          "type": "address[]"
        }
      ],
      "stateMutability": "view",
      "type": "function"
    },
    {
      "inputs": [
        {
          "internalType": "address",
          "name": "",
          "type": "address"
        }
      ],
      "name": "users",
      "outputs": [
        {
          "internalType": "address",
          "name": "walletAddress",
          "type": "address"
        },
        {
          "internalType": "enum Role",
          "name": "role",
          "type": "uint8"
        },
        {
          "internalType": "string",
          "name": "name",
          "type": "string"
        }
      ],
      "stateMutability": "view",
      "type": "function"
    }
  ],
  "devdoc": {
    "kind": "dev",
    "methods": {},
    "version": 1
  },
  "evm": {
    "assembly": "    /* \"Campaign.sol\":3474:5282  contract CampaignFactory {... */\n  mstore(0x40, 0x80)\n  callvalue\n  dup1\n  iszero\n  tag_1\n  jumpi\n  0x00\n  dup1\n  revert\ntag_1:\n  pop\n  dataSize(sub_0)\n  dup1\n  dataOffset(sub_0)\n  0x00\n  codecopy\n  0x00\n  return\nstop\n\nsub_0: assembly {\n        /* \"Campaign.sol\":3474:5282  contract CampaignFactory {... */\n      mstore(0x40, 0x80)\n      callvalue\n      dup1\n      iszero\n      tag_1\n      jumpi\n      0x00\n      dup1\n      revert\n    tag_1:\n      pop\n      jumpi(tag_2, lt(calldatasize, 0x04))\n      shr(0xe0, calldataload(0x00))\n      dup1\n      0x339d50a5\n      eq\n      tag_3\n      jumpi\n      dup1\n      0x4acb9d4f\n      eq\n      tag_4\n      jumpi\n      dup1\n      0x9b9e4aa9\n      eq\n      tag_5\n      jumpi\n      dup1\n      0xa3303a75\n      eq\n      tag_6\n      jumpi\n      dup1\n      0xa87430ba\n      eq\n      tag_7\n      jumpi\n    tag_2:\n      0x00\n      dup1\n      revert\n        /* \"Campaign.sol\":3544:3586  address payable[] public deployedCampaigns */\n    tag_3:\n      tag_8\n      0x04\n      dup1\n      calldatasize\n      sub\n      dup2\n      add\n      swap1\n      tag_9\n      swap2\n      swap1\n      tag_10\n      jump\t// in\n    tag_9:\n      tag_11\n      jump\t// in\n    tag_8:\n      mload(0x40)\n      tag_12\n      swap2\n      swap1\n      tag_13\n      jump\t// in\n    tag_12:\n      mload(0x40)\n      dup1\n      swap2\n      sub\n      swap1\n      return\n        /* \"Campaign.sol\":4599:4753  function getDeployedCampaigns()... */\n    tag_4:\n      tag_14\n      tag_15\n      jump\t// in\n    tag_14:\n      mload(0x40)\n      tag_16\n      swap2\n      swap1\n      tag_17\n      jump\t// in\n    tag_16:\n      mload(0x40)\n      dup1\n      swap2\n      sub\n      swap1\n      return\n        /* \"Campaign.sol\":3771:4272  function addUser(... */\n    tag_5:\n      tag_18\n      0x04\n      dup1\n      calldatasize\n      sub\n      dup2\n      add\n      swap1\n      tag_19\n      swap2\n      swap1\n      tag_20\n      jump\t// in\n    tag_19:\n      tag_21\n      jump\t// in\n    tag_18:\n      stop\n        /* \"Campaign.sol\":4342:4548  function createCampaign(uint minimum) public onlyRole(Role.Manager) {... */\n    tag_6:\n      tag_22\n      0x04\n      dup1\n      calldatasize\n      sub\n      dup2\n      add\n      swap1\n      tag_23\n      swap2\n      swap1\n      tag_10\n      jump\t// in\n    tag_23:\n      tag_24\n      jump\t// in\n    tag_22:\n      stop\n        /* \"Campaign.sol\":3636:3673  mapping(address => User) public users */\n    tag_7:\n      tag_25\n      0x04\n      dup1\n      calldatasize\n      sub\n      dup2\n      add\n      swap1\n      tag_26\n      swap2\n      swap1\n      tag_27\n      jump\t// in\n    tag_26:\n      tag_28\n      jump\t// in\n    tag_25:\n      mload(0x40)\n      tag_29\n      swap4\n      swap3\n      swap2\n      swap1\n      tag_30\n      jump\t// in\n    tag_29:\n      mload(0x40)\n      dup1\n      swap2\n      sub\n      swap1\n      return\n        /* \"Campaign.sol\":3544:3586  address payable[] public deployedCampaigns */\n    tag_11:\n      0x00\n      dup2\n      dup2\n      sload\n      dup2\n      lt\n      tag_31\n      jumpi\n      0x00\n      dup1\n      revert\n    tag_31:\n      swap1\n      0x00\n      mstore\n      keccak256(0x00, 0x20)\n      add\n      0x00\n      swap2\n      pop\n      sload\n      swap1\n      0x0100\n      exp\n      swap1\n      div\n      0xffffffffffffffffffffffffffffffffffffffff\n      and\n      dup2\n      jump\t// out\n        /* \"Campaign.sol\":4599:4753  function getDeployedCampaigns()... */\n    tag_15:\n        /* \"Campaign.sol\":4679:4703  address payable[] memory */\n      0x60\n        /* \"Campaign.sol\":4728:4745  deployedCampaigns */\n      0x00\n        /* \"Campaign.sol\":4721:4745  return deployedCampaigns */\n      dup1\n      sload\n      dup1\n      0x20\n      mul\n      0x20\n      add\n      mload(0x40)\n      swap1\n      dup2\n      add\n      0x40\n      mstore\n      dup1\n      swap3\n      swap2\n      swap1\n      dup2\n      dup2\n      mstore\n      0x20\n      add\n      dup3\n      dup1\n      sload\n      dup1\n      iszero\n      tag_34\n      jumpi\n      0x20\n      mul\n      dup3\n      add\n      swap2\n      swap1\n      0x00\n      mstore\n      keccak256(0x00, 0x20)\n      swap1\n    tag_35:\n      dup2\n      0x00\n      swap1\n      sload\n      swap1\n      0x0100\n      exp\n      swap1\n      div\n      0xffffffffffffffffffffffffffffffffffffffff\n      and\n      0xffffffffffffffffffffffffffffffffffffffff\n      and\n      dup2\n      mstore\n      0x20\n      add\n      swap1\n      0x01\n      add\n      swap1\n      dup1\n      dup4\n      gt\n      tag_35\n      jumpi\n    tag_34:\n      pop\n      pop\n      pop\n      pop\n      pop\n      swap1\n      pop\n        /* \"Campaign.sol\":4599:4753  function getDeployedCampaigns()... */\n      swap1\n      jump\t// out\n        /* \"Campaign.sol\":3771:4272  function addUser(... */\n    tag_21:\n        /* \"Campaign.sol\":3966:3967  0 */\n      0x00\n        /* \"Campaign.sol\":3919:3968  users[_walletAddress].walletAddress == address(0) */\n      0xffffffffffffffffffffffffffffffffffffffff\n      and\n        /* \"Campaign.sol\":3919:3924  users */\n      0x01\n        /* \"Campaign.sol\":3919:3940  users[_walletAddress] */\n      0x00\n        /* \"Campaign.sol\":3925:3939  _walletAddress */\n      dup5\n        /* \"Campaign.sol\":3919:3940  users[_walletAddress] */\n      0xffffffffffffffffffffffffffffffffffffffff\n      and\n      0xffffffffffffffffffffffffffffffffffffffff\n      and\n      dup2\n      mstore\n      0x20\n      add\n      swap1\n      dup2\n      mstore\n      0x20\n      add\n      0x00\n      keccak256\n        /* \"Campaign.sol\":3919:3954  users[_walletAddress].walletAddress */\n      0x00\n      add\n      0x00\n      swap1\n      sload\n      swap1\n      0x0100\n      exp\n      swap1\n      div\n      0xffffffffffffffffffffffffffffffffffffffff\n      and\n        /* \"Campaign.sol\":3919:3968  users[_walletAddress].walletAddress == address(0) */\n      0xffffffffffffffffffffffffffffffffffffffff\n      and\n      eq\n        /* \"Campaign.sol\":3897:4015  require(... */\n      tag_37\n      jumpi\n      mload(0x40)\n      0x08c379a000000000000000000000000000000000000000000000000000000000\n      dup2\n      mstore\n      0x04\n      add\n      tag_38\n      swap1\n      tag_39\n      jump\t// in\n    tag_38:\n      mload(0x40)\n      dup1\n      swap2\n      sub\n      swap1\n      revert\n    tag_37:\n        /* \"Campaign.sol\":4057:4069  Role.Manager */\n      0x00\n        /* \"Campaign.sol\":4048:4069  _role == Role.Manager */\n      0x02\n      dup2\n      gt\n      iszero\n      tag_40\n      jumpi\n      tag_41\n      tag_42\n      jump\t// in\n    tag_41:\n    tag_40:\n        /* \"Campaign.sol\":4048:4053  _role */\n      dup2\n        /* \"Campaign.sol\":4048:4069  _role == Role.Manager */\n      0x02\n      dup2\n      gt\n      iszero\n      tag_43\n      jumpi\n      tag_44\n      tag_42\n      jump\t// in\n    tag_44:\n    tag_43:\n      eq\n        /* \"Campaign.sol\":4048:4112  _role == Role.Manager ||... */\n      dup1\n      tag_45\n      jumpi\n      pop\n        /* \"Campaign.sol\":4099:4112  Role.Approver */\n      0x01\n        /* \"Campaign.sol\":4090:4112  _role == Role.Approver */\n      0x02\n      dup2\n      gt\n      iszero\n      tag_46\n      jumpi\n      tag_47\n      tag_42\n      jump\t// in\n    tag_47:\n    tag_46:\n        /* \"Campaign.sol\":4090:4095  _role */\n      dup2\n        /* \"Campaign.sol\":4090:4112  _role == Role.Approver */\n      0x02\n      dup2\n      gt\n      iszero\n      tag_48\n      jumpi\n      tag_49\n      tag_42\n      jump\t// in\n    tag_49:\n    tag_48:\n      eq\n        /* \"Campaign.sol\":4048:4112  _role == Role.Manager ||... */\n    tag_45:\n        /* \"Campaign.sol\":4048:4153  _role == Role.Manager ||... */\n      dup1\n      tag_50\n      jumpi\n      pop\n        /* \"Campaign.sol\":4142:4153  Role.Vendor */\n      0x02\n        /* \"Campaign.sol\":4133:4153  _role == Role.Vendor */\n      dup1\n      dup2\n      gt\n      iszero\n      tag_51\n      jumpi\n      tag_52\n      tag_42\n      jump\t// in\n    tag_52:\n    tag_51:\n        /* \"Campaign.sol\":4133:4138  _role */\n      dup2\n        /* \"Campaign.sol\":4133:4153  _role == Role.Vendor */\n      0x02\n      dup2\n      gt\n      iszero\n      tag_53\n      jumpi\n      tag_54\n      tag_42\n      jump\t// in\n    tag_54:\n    tag_53:\n      eq\n        /* \"Campaign.sol\":4048:4153  _role == Role.Manager ||... */\n    tag_50:\n        /* \"Campaign.sol\":4026:4193  require(... */\n      tag_55\n      jumpi\n      mload(0x40)\n      0x08c379a000000000000000000000000000000000000000000000000000000000\n      dup2\n      mstore\n      0x04\n      add\n      tag_56\n      swap1\n      tag_57\n      jump\t// in\n    tag_56:\n      mload(0x40)\n      dup1\n      swap2\n      sub\n      swap1\n      revert\n    tag_55:\n        /* \"Campaign.sol\":4230:4264  User(_walletAddress, _role, _name) */\n      mload(0x40)\n      dup1\n      0x60\n      add\n      0x40\n      mstore\n      dup1\n        /* \"Campaign.sol\":4235:4249  _walletAddress */\n      dup4\n        /* \"Campaign.sol\":4230:4264  User(_walletAddress, _role, _name) */\n      0xffffffffffffffffffffffffffffffffffffffff\n      and\n      dup2\n      mstore\n      0x20\n      add\n        /* \"Campaign.sol\":4251:4256  _role */\n      dup3\n        /* \"Campaign.sol\":4230:4264  User(_walletAddress, _role, _name) */\n      0x02\n      dup2\n      gt\n      iszero\n      tag_58\n      jumpi\n      tag_59\n      tag_42\n      jump\t// in\n    tag_59:\n    tag_58:\n      dup2\n      mstore\n      0x20\n      add\n        /* \"Campaign.sol\":4258:4263  _name */\n      dup5\n        /* \"Campaign.sol\":4230:4264  User(_walletAddress, _role, _name) */\n      dup2\n      mstore\n      pop\n        /* \"Campaign.sol\":4206:4211  users */\n      0x01\n        /* \"Campaign.sol\":4206:4227  users[_walletAddress] */\n      0x00\n        /* \"Campaign.sol\":4212:4226  _walletAddress */\n      dup5\n        /* \"Campaign.sol\":4206:4227  users[_walletAddress] */\n      0xffffffffffffffffffffffffffffffffffffffff\n      and\n      0xffffffffffffffffffffffffffffffffffffffff\n      and\n      dup2\n      mstore\n      0x20\n      add\n      swap1\n      dup2\n      mstore\n      0x20\n      add\n      0x00\n      keccak256\n        /* \"Campaign.sol\":4206:4264  users[_walletAddress] = User(_walletAddress, _role, _name) */\n      0x00\n      dup3\n      add\n      mload\n      dup2\n      0x00\n      add\n      exp(0x0100, 0x00)\n      dup2\n      sload\n      dup2\n      0xffffffffffffffffffffffffffffffffffffffff\n      mul\n      not\n      and\n      swap1\n      dup4\n      0xffffffffffffffffffffffffffffffffffffffff\n      and\n      mul\n      or\n      swap1\n      sstore\n      pop\n      0x20\n      dup3\n      add\n      mload\n      dup2\n      0x00\n      add\n      exp(0x0100, 0x14)\n      dup2\n      sload\n      dup2\n      0xff\n      mul\n      not\n      and\n      swap1\n      dup4\n      0x02\n      dup2\n      gt\n      iszero\n      tag_60\n      jumpi\n      tag_61\n      tag_42\n      jump\t// in\n    tag_61:\n    tag_60:\n      mul\n      or\n      swap1\n      sstore\n      pop\n      0x40\n      dup3\n      add\n      mload\n      dup2\n      0x01\n      add\n      swap1\n      dup2\n      tag_62\n      swap2\n      swap1\n      tag_63\n      jump\t// in\n    tag_62:\n      pop\n      swap1\n      pop\n      pop\n        /* \"Campaign.sol\":3771:4272  function addUser(... */\n      pop\n      pop\n      pop\n      jump\t// out\n        /* \"Campaign.sol\":4342:4548  function createCampaign(uint minimum) public onlyRole(Role.Manager) {... */\n    tag_24:\n        /* \"Campaign.sol\":4396:4408  Role.Manager */\n      0x00\n        /* \"Campaign.sol\":5151:5156  _role */\n      dup1\n        /* \"Campaign.sol\":5125:5156  users[msg.sender].role == _role */\n      0x02\n      dup2\n      gt\n      iszero\n      tag_65\n      jumpi\n      tag_66\n      tag_42\n      jump\t// in\n    tag_66:\n    tag_65:\n        /* \"Campaign.sol\":5125:5130  users */\n      0x01\n        /* \"Campaign.sol\":5125:5142  users[msg.sender] */\n      0x00\n        /* \"Campaign.sol\":5131:5141  msg.sender */\n      caller\n        /* \"Campaign.sol\":5125:5142  users[msg.sender] */\n      0xffffffffffffffffffffffffffffffffffffffff\n      and\n      0xffffffffffffffffffffffffffffffffffffffff\n      and\n      dup2\n      mstore\n      0x20\n      add\n      swap1\n      dup2\n      mstore\n      0x20\n      add\n      0x00\n      keccak256\n        /* \"Campaign.sol\":5125:5147  users[msg.sender].role */\n      0x00\n      add\n      0x14\n      swap1\n      sload\n      swap1\n      0x0100\n      exp\n      swap1\n      div\n      0xff\n      and\n        /* \"Campaign.sol\":5125:5156  users[msg.sender].role == _role */\n      0x02\n      dup2\n      gt\n      iszero\n      tag_67\n      jumpi\n      tag_68\n      tag_42\n      jump\t// in\n    tag_68:\n    tag_67:\n      eq\n        /* \"Campaign.sol\":5117:5180  require(users[msg.sender].role == _role, \"Unauthorized action\") */\n      tag_69\n      jumpi\n      mload(0x40)\n      0x08c379a000000000000000000000000000000000000000000000000000000000\n      dup2\n      mstore\n      0x04\n      add\n      tag_70\n      swap1\n      tag_71\n      jump\t// in\n    tag_70:\n      mload(0x40)\n      dup1\n      swap2\n      sub\n      swap1\n      revert\n    tag_69:\n        /* \"Campaign.sol\":4421:4440  address newCampaign */\n      0x00\n        /* \"Campaign.sol\":4464:4471  minimum */\n      dup3\n        /* \"Campaign.sol\":4473:4483  msg.sender */\n      caller\n        /* \"Campaign.sol\":4451:4484  new Campaign(minimum, msg.sender) */\n      mload(0x40)\n      tag_73\n      swap1\n      tag_74\n      jump\t// in\n    tag_73:\n      tag_75\n      swap3\n      swap2\n      swap1\n      tag_76\n      jump\t// in\n    tag_75:\n      mload(0x40)\n      dup1\n      swap2\n      sub\n      swap1\n      0x00\n      create\n      dup1\n      iszero\n      dup1\n      iszero\n      tag_77\n      jumpi\n      returndatasize\n      0x00\n      dup1\n      returndatacopy\n      revert(0x00, returndatasize)\n    tag_77:\n      pop\n        /* \"Campaign.sol\":4421:4485  address newCampaign = address(new Campaign(minimum, msg.sender)) */\n      swap1\n      pop\n        /* \"Campaign.sol\":4496:4513  deployedCampaigns */\n      0x00\n        /* \"Campaign.sol\":4527:4538  newCampaign */\n      dup2\n        /* \"Campaign.sol\":4496:4540  deployedCampaigns.push(payable(newCampaign)) */\n      swap1\n      dup1\n      0x01\n      dup2\n      sload\n      add\n      dup1\n      dup3\n      sstore\n      dup1\n      swap2\n      pop\n      pop\n      0x01\n      swap1\n      sub\n      swap1\n      0x00\n      mstore\n      keccak256(0x00, 0x20)\n      add\n      0x00\n      swap1\n      swap2\n      swap1\n      swap2\n      swap1\n      swap2\n      0x0100\n      exp\n      dup2\n      sload\n      dup2\n      0xffffffffffffffffffffffffffffffffffffffff\n      mul\n      not\n      and\n      swap1\n      dup4\n      0xffffffffffffffffffffffffffffffffffffffff\n      and\n      mul\n      or\n      swap1\n      sstore\n      pop\n        /* \"Campaign.sol\":4410:4548  {... */\n      pop\n        /* \"Campaign.sol\":4342:4548  function createCampaign(uint minimum) public onlyRole(Role.Manager) {... */\n      pop\n      pop\n      jump\t// out\n        /* \"Campaign.sol\":3636:3673  mapping(address => User) public users */\n    tag_28:\n      mstore(0x20, 0x01)\n      dup1\n      0x00\n      mstore\n      keccak256(0x00, 0x40)\n      0x00\n      swap2\n      pop\n      swap1\n      pop\n      dup1\n      0x00\n      add\n      0x00\n      swap1\n      sload\n      swap1\n      0x0100\n      exp\n      swap1\n      div\n      0xffffffffffffffffffffffffffffffffffffffff\n      and\n      swap1\n      dup1\n      0x00\n      add\n      0x14\n      swap1\n      sload\n      swap1\n      0x0100\n      exp\n      swap1\n      div\n      0xff\n      and\n      swap1\n      dup1\n      0x01\n      add\n      dup1\n      sload\n      tag_79\n      swap1\n      tag_80\n      jump\t// in\n    tag_79:\n      dup1\n      0x1f\n      add\n      0x20\n      dup1\n      swap2\n      div\n      mul\n      0x20\n      add\n      mload(0x40)\n      swap1\n      dup2\n      add\n      0x40\n      mstore\n      dup1\n      swap3\n      swap2\n      swap1\n      dup2\n      dup2\n      mstore\n      0x20\n      add\n      dup3\n      dup1\n      sload\n      tag_81\n      swap1\n      tag_80\n      jump\t// in\n    tag_81:\n      dup1\n      iszero\n      tag_82\n      jumpi\n      dup1\n      0x1f\n      lt\n      tag_83\n      jumpi\n      0x0100\n      dup1\n      dup4\n      sload\n      div\n      mul\n      dup4\n      mstore\n      swap2\n      0x20\n      add\n      swap2\n      jump(tag_82)\n    tag_83:\n      dup3\n      add\n      swap2\n      swap1\n      0x00\n      mstore\n      keccak256(0x00, 0x20)\n      swap1\n    tag_84:\n      dup2\n      sload\n      dup2\n      mstore\n      swap1\n      0x01\n      add\n      swap1\n      0x20\n      add\n      dup1\n      dup4\n      gt\n      tag_84\n      jumpi\n      dup3\n      swap1\n      sub\n      0x1f\n      and\n      dup3\n      add\n      swap2\n    tag_82:\n      pop\n      pop\n      pop\n      pop\n      pop\n      swap1\n      pop\n      dup4\n      jump\t// out\n    tag_74:\n      dataSize(sub_0)\n      dup1\n      dataOffset(sub_0)\n      dup4\n      codecopy\n      add\n      swap1\n      jump\t// out\n        /* \"#utility.yul\":7:82   */\n    tag_85:\n        /* \"#utility.yul\":40:46   */\n      0x00\n        /* \"#utility.yul\":73:75   */\n      0x40\n        /* \"#utility.yul\":67:76   */\n      mload\n        /* \"#utility.yul\":57:76   */\n      swap1\n      pop\n        /* \"#utility.yul\":7:82   */\n      swap1\n      jump\t// out\n        /* \"#utility.yul\":88:205   */\n    tag_86:\n        /* \"#utility.yul\":197:198   */\n      0x00\n        /* \"#utility.yul\":194:195   */\n      dup1\n        /* \"#utility.yul\":187:199   */\n      revert\n        /* \"#utility.yul\":211:328   */\n    tag_87:\n        /* \"#utility.yul\":320:321   */\n      0x00\n        /* \"#utility.yul\":317:318   */\n      dup1\n        /* \"#utility.yul\":310:322   */\n      revert\n        /* \"#utility.yul\":334:411   */\n    tag_88:\n        /* \"#utility.yul\":371:378   */\n      0x00\n        /* \"#utility.yul\":400:405   */\n      dup2\n        /* \"#utility.yul\":389:405   */\n      swap1\n      pop\n        /* \"#utility.yul\":334:411   */\n      swap2\n      swap1\n      pop\n      jump\t// out\n        /* \"#utility.yul\":417:539   */\n    tag_89:\n        /* \"#utility.yul\":490:514   */\n      tag_154\n        /* \"#utility.yul\":508:513   */\n      dup2\n        /* \"#utility.yul\":490:514   */\n      tag_88\n      jump\t// in\n    tag_154:\n        /* \"#utility.yul\":483:488   */\n      dup2\n        /* \"#utility.yul\":480:515   */\n      eq\n        /* \"#utility.yul\":470:533   */\n      tag_155\n      jumpi\n        /* \"#utility.yul\":529:530   */\n      0x00\n        /* \"#utility.yul\":526:527   */\n      dup1\n        /* \"#utility.yul\":519:531   */\n      revert\n        /* \"#utility.yul\":470:533   */\n    tag_155:\n        /* \"#utility.yul\":417:539   */\n      pop\n      jump\t// out\n        /* \"#utility.yul\":545:684   */\n    tag_90:\n        /* \"#utility.yul\":591:596   */\n      0x00\n        /* \"#utility.yul\":629:635   */\n      dup2\n        /* \"#utility.yul\":616:636   */\n      calldataload\n        /* \"#utility.yul\":607:636   */\n      swap1\n      pop\n        /* \"#utility.yul\":645:678   */\n      tag_157\n        /* \"#utility.yul\":672:677   */\n      dup2\n        /* \"#utility.yul\":645:678   */\n      tag_89\n      jump\t// in\n    tag_157:\n        /* \"#utility.yul\":545:684   */\n      swap3\n      swap2\n      pop\n      pop\n      jump\t// out\n        /* \"#utility.yul\":690:1019   */\n    tag_10:\n        /* \"#utility.yul\":749:755   */\n      0x00\n        /* \"#utility.yul\":798:800   */\n      0x20\n        /* \"#utility.yul\":786:795   */\n      dup3\n        /* \"#utility.yul\":777:784   */\n      dup5\n        /* \"#utility.yul\":773:796   */\n      sub\n        /* \"#utility.yul\":769:801   */\n      slt\n        /* \"#utility.yul\":766:885   */\n      iszero\n      tag_159\n      jumpi\n        /* \"#utility.yul\":804:883   */\n      tag_160\n      tag_86\n      jump\t// in\n    tag_160:\n        /* \"#utility.yul\":766:885   */\n    tag_159:\n        /* \"#utility.yul\":924:925   */\n      0x00\n        /* \"#utility.yul\":949:1002   */\n      tag_161\n        /* \"#utility.yul\":994:1001   */\n      dup5\n        /* \"#utility.yul\":985:991   */\n      dup3\n        /* \"#utility.yul\":974:983   */\n      dup6\n        /* \"#utility.yul\":970:992   */\n      add\n        /* \"#utility.yul\":949:1002   */\n      tag_90\n      jump\t// in\n    tag_161:\n        /* \"#utility.yul\":939:1002   */\n      swap2\n      pop\n        /* \"#utility.yul\":895:1012   */\n      pop\n        /* \"#utility.yul\":690:1019   */\n      swap3\n      swap2\n      pop\n      pop\n      jump\t// out\n        /* \"#utility.yul\":1025:1151   */\n    tag_91:\n        /* \"#utility.yul\":1062:1069   */\n      0x00\n        /* \"#utility.yul\":1102:1144   */\n      0xffffffffffffffffffffffffffffffffffffffff\n        /* \"#utility.yul\":1095:1100   */\n      dup3\n        /* \"#utility.yul\":1091:1145   */\n      and\n        /* \"#utility.yul\":1080:1145   */\n      swap1\n      pop\n        /* \"#utility.yul\":1025:1151   */\n      swap2\n      swap1\n      pop\n      jump\t// out\n        /* \"#utility.yul\":1157:1261   */\n    tag_92:\n        /* \"#utility.yul\":1202:1209   */\n      0x00\n        /* \"#utility.yul\":1231:1255   */\n      tag_164\n        /* \"#utility.yul\":1249:1254   */\n      dup3\n        /* \"#utility.yul\":1231:1255   */\n      tag_91\n      jump\t// in\n    tag_164:\n        /* \"#utility.yul\":1220:1255   */\n      swap1\n      pop\n        /* \"#utility.yul\":1157:1261   */\n      swap2\n      swap1\n      pop\n      jump\t// out\n        /* \"#utility.yul\":1267:1409   */\n    tag_93:\n        /* \"#utility.yul\":1370:1402   */\n      tag_166\n        /* \"#utility.yul\":1396:1401   */\n      dup2\n        /* \"#utility.yul\":1370:1402   */\n      tag_92\n      jump\t// in\n    tag_166:\n        /* \"#utility.yul\":1365:1368   */\n      dup3\n        /* \"#utility.yul\":1358:1403   */\n      mstore\n        /* \"#utility.yul\":1267:1409   */\n      pop\n      pop\n      jump\t// out\n        /* \"#utility.yul\":1415:1669   */\n    tag_13:\n        /* \"#utility.yul\":1524:1528   */\n      0x00\n        /* \"#utility.yul\":1562:1564   */\n      0x20\n        /* \"#utility.yul\":1551:1560   */\n      dup3\n        /* \"#utility.yul\":1547:1565   */\n      add\n        /* \"#utility.yul\":1539:1565   */\n      swap1\n      pop\n        /* \"#utility.yul\":1575:1662   */\n      tag_168\n        /* \"#utility.yul\":1659:1660   */\n      0x00\n        /* \"#utility.yul\":1648:1657   */\n      dup4\n        /* \"#utility.yul\":1644:1661   */\n      add\n        /* \"#utility.yul\":1635:1641   */\n      dup5\n        /* \"#utility.yul\":1575:1662   */\n      tag_93\n      jump\t// in\n    tag_168:\n        /* \"#utility.yul\":1415:1669   */\n      swap3\n      swap2\n      pop\n      pop\n      jump\t// out\n        /* \"#utility.yul\":1675:1797   */\n    tag_94:\n        /* \"#utility.yul\":1750:1756   */\n      0x00\n        /* \"#utility.yul\":1784:1789   */\n      dup2\n        /* \"#utility.yul\":1778:1790   */\n      mload\n        /* \"#utility.yul\":1768:1790   */\n      swap1\n      pop\n        /* \"#utility.yul\":1675:1797   */\n      swap2\n      swap1\n      pop\n      jump\t// out\n        /* \"#utility.yul\":1803:1995   */\n    tag_95:\n        /* \"#utility.yul\":1910:1921   */\n      0x00\n        /* \"#utility.yul\":1944:1950   */\n      dup3\n        /* \"#utility.yul\":1939:1942   */\n      dup3\n        /* \"#utility.yul\":1932:1951   */\n      mstore\n        /* \"#utility.yul\":1984:1988   */\n      0x20\n        /* \"#utility.yul\":1979:1982   */\n      dup3\n        /* \"#utility.yul\":1975:1989   */\n      add\n        /* \"#utility.yul\":1960:1989   */\n      swap1\n      pop\n        /* \"#utility.yul\":1803:1995   */\n      swap3\n      swap2\n      pop\n      pop\n      jump\t// out\n        /* \"#utility.yul\":2001:2141   */\n    tag_96:\n        /* \"#utility.yul\":2076:2080   */\n      0x00\n        /* \"#utility.yul\":2099:2102   */\n      dup2\n        /* \"#utility.yul\":2091:2102   */\n      swap1\n      pop\n        /* \"#utility.yul\":2129:2133   */\n      0x20\n        /* \"#utility.yul\":2124:2127   */\n      dup3\n        /* \"#utility.yul\":2120:2134   */\n      add\n        /* \"#utility.yul\":2112:2134   */\n      swap1\n      pop\n        /* \"#utility.yul\":2001:2141   */\n      swap2\n      swap1\n      pop\n      jump\t// out\n        /* \"#utility.yul\":2147:2279   */\n    tag_97:\n        /* \"#utility.yul\":2240:2272   */\n      tag_173\n        /* \"#utility.yul\":2266:2271   */\n      dup2\n        /* \"#utility.yul\":2240:2272   */\n      tag_92\n      jump\t// in\n    tag_173:\n        /* \"#utility.yul\":2235:2238   */\n      dup3\n        /* \"#utility.yul\":2228:2273   */\n      mstore\n        /* \"#utility.yul\":2147:2279   */\n      pop\n      pop\n      jump\t// out\n        /* \"#utility.yul\":2285:2496   */\n    tag_98:\n        /* \"#utility.yul\":2370:2380   */\n      0x00\n        /* \"#utility.yul\":2391:2453   */\n      tag_175\n        /* \"#utility.yul\":2449:2452   */\n      dup4\n        /* \"#utility.yul\":2441:2447   */\n      dup4\n        /* \"#utility.yul\":2391:2453   */\n      tag_97\n      jump\t// in\n    tag_175:\n        /* \"#utility.yul\":2485:2489   */\n      0x20\n        /* \"#utility.yul\":2480:2483   */\n      dup4\n        /* \"#utility.yul\":2476:2490   */\n      add\n        /* \"#utility.yul\":2462:2490   */\n      swap1\n      pop\n        /* \"#utility.yul\":2285:2496   */\n      swap3\n      swap2\n      pop\n      pop\n      jump\t// out\n        /* \"#utility.yul\":2502:2623   */\n    tag_99:\n        /* \"#utility.yul\":2580:2584   */\n      0x00\n        /* \"#utility.yul\":2612:2616   */\n      0x20\n        /* \"#utility.yul\":2607:2610   */\n      dup3\n        /* \"#utility.yul\":2603:2617   */\n      add\n        /* \"#utility.yul\":2595:2617   */\n      swap1\n      pop\n        /* \"#utility.yul\":2502:2623   */\n      swap2\n      swap1\n      pop\n      jump\t// out\n        /* \"#utility.yul\":2675:3471   */\n    tag_100:\n        /* \"#utility.yul\":2810:2813   */\n      0x00\n        /* \"#utility.yul\":2839:2901   */\n      tag_178\n        /* \"#utility.yul\":2895:2900   */\n      dup3\n        /* \"#utility.yul\":2839:2901   */\n      tag_94\n      jump\t// in\n    tag_178:\n        /* \"#utility.yul\":2917:3011   */\n      tag_179\n        /* \"#utility.yul\":3004:3010   */\n      dup2\n        /* \"#utility.yul\":2999:3002   */\n      dup6\n        /* \"#utility.yul\":2917:3011   */\n      tag_95\n      jump\t// in\n    tag_179:\n        /* \"#utility.yul\":2910:3011   */\n      swap4\n      pop\n        /* \"#utility.yul\":3035:3099   */\n      tag_180\n        /* \"#utility.yul\":3093:3098   */\n      dup4\n        /* \"#utility.yul\":3035:3099   */\n      tag_96\n      jump\t// in\n    tag_180:\n        /* \"#utility.yul\":3122:3129   */\n      dup1\n        /* \"#utility.yul\":3153:3154   */\n      0x00\n        /* \"#utility.yul\":3138:3446   */\n    tag_181:\n        /* \"#utility.yul\":3163:3169   */\n      dup4\n        /* \"#utility.yul\":3160:3161   */\n      dup2\n        /* \"#utility.yul\":3157:3170   */\n      lt\n        /* \"#utility.yul\":3138:3446   */\n      iszero\n      tag_183\n      jumpi\n        /* \"#utility.yul\":3239:3245   */\n      dup2\n        /* \"#utility.yul\":3233:3246   */\n      mload\n        /* \"#utility.yul\":3266:3345   */\n      tag_184\n        /* \"#utility.yul\":3341:3344   */\n      dup9\n        /* \"#utility.yul\":3326:3339   */\n      dup3\n        /* \"#utility.yul\":3266:3345   */\n      tag_98\n      jump\t// in\n    tag_184:\n        /* \"#utility.yul\":3259:3345   */\n      swap8\n      pop\n        /* \"#utility.yul\":3368:3436   */\n      tag_185\n        /* \"#utility.yul\":3429:3435   */\n      dup4\n        /* \"#utility.yul\":3368:3436   */\n      tag_99\n      jump\t// in\n    tag_185:\n        /* \"#utility.yul\":3358:3436   */\n      swap3\n      pop\n        /* \"#utility.yul\":3198:3446   */\n      pop\n        /* \"#utility.yul\":3185:3186   */\n      0x01\n        /* \"#utility.yul\":3182:3183   */\n      dup2\n        /* \"#utility.yul\":3178:3187   */\n      add\n        /* \"#utility.yul\":3173:3187   */\n      swap1\n      pop\n        /* \"#utility.yul\":3138:3446   */\n      jump(tag_181)\n    tag_183:\n        /* \"#utility.yul\":3142:3156   */\n      pop\n        /* \"#utility.yul\":3462:3465   */\n      dup6\n        /* \"#utility.yul\":3455:3465   */\n      swap4\n      pop\n        /* \"#utility.yul\":2815:3471   */\n      pop\n      pop\n      pop\n        /* \"#utility.yul\":2675:3471   */\n      swap3\n      swap2\n      pop\n      pop\n      jump\t// out\n        /* \"#utility.yul\":3477:3882   */\n    tag_17:\n        /* \"#utility.yul\":3636:3640   */\n      0x00\n        /* \"#utility.yul\":3674:3676   */\n      0x20\n        /* \"#utility.yul\":3663:3672   */\n      dup3\n        /* \"#utility.yul\":3659:3677   */\n      add\n        /* \"#utility.yul\":3651:3677   */\n      swap1\n      pop\n        /* \"#utility.yul\":3723:3732   */\n      dup2\n        /* \"#utility.yul\":3717:3721   */\n      dup2\n        /* \"#utility.yul\":3713:3733   */\n      sub\n        /* \"#utility.yul\":3709:3710   */\n      0x00\n        /* \"#utility.yul\":3698:3707   */\n      dup4\n        /* \"#utility.yul\":3694:3711   */\n      add\n        /* \"#utility.yul\":3687:3734   */\n      mstore\n        /* \"#utility.yul\":3751:3875   */\n      tag_187\n        /* \"#utility.yul\":3870:3874   */\n      dup2\n        /* \"#utility.yul\":3861:3867   */\n      dup5\n        /* \"#utility.yul\":3751:3875   */\n      tag_100\n      jump\t// in\n    tag_187:\n        /* \"#utility.yul\":3743:3875   */\n      swap1\n      pop\n        /* \"#utility.yul\":3477:3882   */\n      swap3\n      swap2\n      pop\n      pop\n      jump\t// out\n        /* \"#utility.yul\":3888:4005   */\n    tag_101:\n        /* \"#utility.yul\":3997:3998   */\n      0x00\n        /* \"#utility.yul\":3994:3995   */\n      dup1\n        /* \"#utility.yul\":3987:3999   */\n      revert\n        /* \"#utility.yul\":4011:4128   */\n    tag_102:\n        /* \"#utility.yul\":4120:4121   */\n      0x00\n        /* \"#utility.yul\":4117:4118   */\n      dup1\n        /* \"#utility.yul\":4110:4122   */\n      revert\n        /* \"#utility.yul\":4134:4236   */\n    tag_103:\n        /* \"#utility.yul\":4175:4181   */\n      0x00\n        /* \"#utility.yul\":4226:4228   */\n      0x1f\n        /* \"#utility.yul\":4222:4229   */\n      not\n        /* \"#utility.yul\":4217:4219   */\n      0x1f\n        /* \"#utility.yul\":4210:4215   */\n      dup4\n        /* \"#utility.yul\":4206:4220   */\n      add\n        /* \"#utility.yul\":4202:4230   */\n      and\n        /* \"#utility.yul\":4192:4230   */\n      swap1\n      pop\n        /* \"#utility.yul\":4134:4236   */\n      swap2\n      swap1\n      pop\n      jump\t// out\n        /* \"#utility.yul\":4242:4422   */\n    tag_104:\n        /* \"#utility.yul\":4290:4367   */\n      0x4e487b7100000000000000000000000000000000000000000000000000000000\n        /* \"#utility.yul\":4287:4288   */\n      0x00\n        /* \"#utility.yul\":4280:4368   */\n      mstore\n        /* \"#utility.yul\":4387:4391   */\n      0x41\n        /* \"#utility.yul\":4384:4385   */\n      0x04\n        /* \"#utility.yul\":4377:4392   */\n      mstore\n        /* \"#utility.yul\":4411:4415   */\n      0x24\n        /* \"#utility.yul\":4408:4409   */\n      0x00\n        /* \"#utility.yul\":4401:4416   */\n      revert\n        /* \"#utility.yul\":4428:4709   */\n    tag_105:\n        /* \"#utility.yul\":4511:4538   */\n      tag_193\n        /* \"#utility.yul\":4533:4537   */\n      dup3\n        /* \"#utility.yul\":4511:4538   */\n      tag_103\n      jump\t// in\n    tag_193:\n        /* \"#utility.yul\":4503:4509   */\n      dup2\n        /* \"#utility.yul\":4499:4539   */\n      add\n        /* \"#utility.yul\":4641:4647   */\n      dup2\n        /* \"#utility.yul\":4629:4639   */\n      dup2\n        /* \"#utility.yul\":4626:4648   */\n      lt\n        /* \"#utility.yul\":4605:4623   */\n      0xffffffffffffffff\n        /* \"#utility.yul\":4593:4603   */\n      dup3\n        /* \"#utility.yul\":4590:4624   */\n      gt\n        /* \"#utility.yul\":4587:4649   */\n      or\n        /* \"#utility.yul\":4584:4672   */\n      iszero\n      tag_194\n      jumpi\n        /* \"#utility.yul\":4652:4670   */\n      tag_195\n      tag_104\n      jump\t// in\n    tag_195:\n        /* \"#utility.yul\":4584:4672   */\n    tag_194:\n        /* \"#utility.yul\":4692:4702   */\n      dup1\n        /* \"#utility.yul\":4688:4690   */\n      0x40\n        /* \"#utility.yul\":4681:4703   */\n      mstore\n        /* \"#utility.yul\":4471:4709   */\n      pop\n        /* \"#utility.yul\":4428:4709   */\n      pop\n      pop\n      jump\t// out\n        /* \"#utility.yul\":4715:4844   */\n    tag_106:\n        /* \"#utility.yul\":4749:4755   */\n      0x00\n        /* \"#utility.yul\":4776:4796   */\n      tag_197\n      tag_85\n      jump\t// in\n    tag_197:\n        /* \"#utility.yul\":4766:4796   */\n      swap1\n      pop\n        /* \"#utility.yul\":4805:4838   */\n      tag_198\n        /* \"#utility.yul\":4833:4837   */\n      dup3\n        /* \"#utility.yul\":4825:4831   */\n      dup3\n        /* \"#utility.yul\":4805:4838   */\n      tag_105\n      jump\t// in\n    tag_198:\n        /* \"#utility.yul\":4715:4844   */\n      swap2\n      swap1\n      pop\n      jump\t// out\n        /* \"#utility.yul\":4850:5158   */\n    tag_107:\n        /* \"#utility.yul\":4912:4916   */\n      0x00\n        /* \"#utility.yul\":5002:5020   */\n      0xffffffffffffffff\n        /* \"#utility.yul\":4994:5000   */\n      dup3\n        /* \"#utility.yul\":4991:5021   */\n      gt\n        /* \"#utility.yul\":4988:5044   */\n      iszero\n      tag_200\n      jumpi\n        /* \"#utility.yul\":5024:5042   */\n      tag_201\n      tag_104\n      jump\t// in\n    tag_201:\n        /* \"#utility.yul\":4988:5044   */\n    tag_200:\n        /* \"#utility.yul\":5062:5091   */\n      tag_202\n        /* \"#utility.yul\":5084:5090   */\n      dup3\n        /* \"#utility.yul\":5062:5091   */\n      tag_103\n      jump\t// in\n    tag_202:\n        /* \"#utility.yul\":5054:5091   */\n      swap1\n      pop\n        /* \"#utility.yul\":5146:5150   */\n      0x20\n        /* \"#utility.yul\":5140:5144   */\n      dup2\n        /* \"#utility.yul\":5136:5151   */\n      add\n        /* \"#utility.yul\":5128:5151   */\n      swap1\n      pop\n        /* \"#utility.yul\":4850:5158   */\n      swap2\n      swap1\n      pop\n      jump\t// out\n        /* \"#utility.yul\":5164:5312   */\n    tag_108:\n        /* \"#utility.yul\":5262:5268   */\n      dup3\n        /* \"#utility.yul\":5257:5260   */\n      dup2\n        /* \"#utility.yul\":5252:5255   */\n      dup4\n        /* \"#utility.yul\":5239:5269   */\n      calldatacopy\n        /* \"#utility.yul\":5303:5304   */\n      0x00\n        /* \"#utility.yul\":5294:5300   */\n      dup4\n        /* \"#utility.yul\":5289:5292   */\n      dup4\n        /* \"#utility.yul\":5285:5301   */\n      add\n        /* \"#utility.yul\":5278:5305   */\n      mstore\n        /* \"#utility.yul\":5164:5312   */\n      pop\n      pop\n      pop\n      jump\t// out\n        /* \"#utility.yul\":5318:5743   */\n    tag_109:\n        /* \"#utility.yul\":5396:5401   */\n      0x00\n        /* \"#utility.yul\":5421:5487   */\n      tag_205\n        /* \"#utility.yul\":5437:5486   */\n      tag_206\n        /* \"#utility.yul\":5479:5485   */\n      dup5\n        /* \"#utility.yul\":5437:5486   */\n      tag_107\n      jump\t// in\n    tag_206:\n        /* \"#utility.yul\":5421:5487   */\n      tag_106\n      jump\t// in\n    tag_205:\n        /* \"#utility.yul\":5412:5487   */\n      swap1\n      pop\n        /* \"#utility.yul\":5510:5516   */\n      dup3\n        /* \"#utility.yul\":5503:5508   */\n      dup2\n        /* \"#utility.yul\":5496:5517   */\n      mstore\n        /* \"#utility.yul\":5548:5552   */\n      0x20\n        /* \"#utility.yul\":5541:5546   */\n      dup2\n        /* \"#utility.yul\":5537:5553   */\n      add\n        /* \"#utility.yul\":5586:5589   */\n      dup5\n        /* \"#utility.yul\":5577:5583   */\n      dup5\n        /* \"#utility.yul\":5572:5575   */\n      dup5\n        /* \"#utility.yul\":5568:5584   */\n      add\n        /* \"#utility.yul\":5565:5590   */\n      gt\n        /* \"#utility.yul\":5562:5674   */\n      iszero\n      tag_207\n      jumpi\n        /* \"#utility.yul\":5593:5672   */\n      tag_208\n      tag_102\n      jump\t// in\n    tag_208:\n        /* \"#utility.yul\":5562:5674   */\n    tag_207:\n        /* \"#utility.yul\":5683:5737   */\n      tag_209\n        /* \"#utility.yul\":5730:5736   */\n      dup5\n        /* \"#utility.yul\":5725:5728   */\n      dup3\n        /* \"#utility.yul\":5720:5723   */\n      dup6\n        /* \"#utility.yul\":5683:5737   */\n      tag_108\n      jump\t// in\n    tag_209:\n        /* \"#utility.yul\":5402:5743   */\n      pop\n        /* \"#utility.yul\":5318:5743   */\n      swap4\n      swap3\n      pop\n      pop\n      pop\n      jump\t// out\n        /* \"#utility.yul\":5763:6103   */\n    tag_110:\n        /* \"#utility.yul\":5819:5824   */\n      0x00\n        /* \"#utility.yul\":5868:5871   */\n      dup3\n        /* \"#utility.yul\":5861:5865   */\n      0x1f\n        /* \"#utility.yul\":5853:5859   */\n      dup4\n        /* \"#utility.yul\":5849:5866   */\n      add\n        /* \"#utility.yul\":5845:5872   */\n      slt\n        /* \"#utility.yul\":5835:5957   */\n      tag_211\n      jumpi\n        /* \"#utility.yul\":5876:5955   */\n      tag_212\n      tag_101\n      jump\t// in\n    tag_212:\n        /* \"#utility.yul\":5835:5957   */\n    tag_211:\n        /* \"#utility.yul\":5993:5999   */\n      dup2\n        /* \"#utility.yul\":5980:6000   */\n      calldataload\n        /* \"#utility.yul\":6018:6097   */\n      tag_213\n        /* \"#utility.yul\":6093:6096   */\n      dup5\n        /* \"#utility.yul\":6085:6091   */\n      dup3\n        /* \"#utility.yul\":6078:6082   */\n      0x20\n        /* \"#utility.yul\":6070:6076   */\n      dup7\n        /* \"#utility.yul\":6066:6083   */\n      add\n        /* \"#utility.yul\":6018:6097   */\n      tag_109\n      jump\t// in\n    tag_213:\n        /* \"#utility.yul\":6009:6097   */\n      swap2\n      pop\n        /* \"#utility.yul\":5825:6103   */\n      pop\n        /* \"#utility.yul\":5763:6103   */\n      swap3\n      swap2\n      pop\n      pop\n      jump\t// out\n        /* \"#utility.yul\":6109:6205   */\n    tag_111:\n        /* \"#utility.yul\":6146:6153   */\n      0x00\n        /* \"#utility.yul\":6175:6199   */\n      tag_215\n        /* \"#utility.yul\":6193:6198   */\n      dup3\n        /* \"#utility.yul\":6175:6199   */\n      tag_91\n      jump\t// in\n    tag_215:\n        /* \"#utility.yul\":6164:6199   */\n      swap1\n      pop\n        /* \"#utility.yul\":6109:6205   */\n      swap2\n      swap1\n      pop\n      jump\t// out\n        /* \"#utility.yul\":6211:6333   */\n    tag_112:\n        /* \"#utility.yul\":6284:6308   */\n      tag_217\n        /* \"#utility.yul\":6302:6307   */\n      dup2\n        /* \"#utility.yul\":6284:6308   */\n      tag_111\n      jump\t// in\n    tag_217:\n        /* \"#utility.yul\":6277:6282   */\n      dup2\n        /* \"#utility.yul\":6274:6309   */\n      eq\n        /* \"#utility.yul\":6264:6327   */\n      tag_218\n      jumpi\n        /* \"#utility.yul\":6323:6324   */\n      0x00\n        /* \"#utility.yul\":6320:6321   */\n      dup1\n        /* \"#utility.yul\":6313:6325   */\n      revert\n        /* \"#utility.yul\":6264:6327   */\n    tag_218:\n        /* \"#utility.yul\":6211:6333   */\n      pop\n      jump\t// out\n        /* \"#utility.yul\":6339:6478   */\n    tag_113:\n        /* \"#utility.yul\":6385:6390   */\n      0x00\n        /* \"#utility.yul\":6423:6429   */\n      dup2\n        /* \"#utility.yul\":6410:6430   */\n      calldataload\n        /* \"#utility.yul\":6401:6430   */\n      swap1\n      pop\n        /* \"#utility.yul\":6439:6472   */\n      tag_220\n        /* \"#utility.yul\":6466:6471   */\n      dup2\n        /* \"#utility.yul\":6439:6472   */\n      tag_112\n      jump\t// in\n    tag_220:\n        /* \"#utility.yul\":6339:6478   */\n      swap3\n      swap2\n      pop\n      pop\n      jump\t// out\n        /* \"#utility.yul\":6484:6589   */\n    tag_114:\n        /* \"#utility.yul\":6563:6564   */\n      0x03\n        /* \"#utility.yul\":6556:6561   */\n      dup2\n        /* \"#utility.yul\":6553:6565   */\n      lt\n        /* \"#utility.yul\":6543:6583   */\n      tag_222\n      jumpi\n        /* \"#utility.yul\":6579:6580   */\n      0x00\n        /* \"#utility.yul\":6576:6577   */\n      dup1\n        /* \"#utility.yul\":6569:6581   */\n      revert\n        /* \"#utility.yul\":6543:6583   */\n    tag_222:\n        /* \"#utility.yul\":6484:6589   */\n      pop\n      jump\t// out\n        /* \"#utility.yul\":6595:6746   */\n    tag_115:\n        /* \"#utility.yul\":6647:6652   */\n      0x00\n        /* \"#utility.yul\":6685:6691   */\n      dup2\n        /* \"#utility.yul\":6672:6692   */\n      calldataload\n        /* \"#utility.yul\":6663:6692   */\n      swap1\n      pop\n        /* \"#utility.yul\":6701:6740   */\n      tag_224\n        /* \"#utility.yul\":6734:6739   */\n      dup2\n        /* \"#utility.yul\":6701:6740   */\n      tag_114\n      jump\t// in\n    tag_224:\n        /* \"#utility.yul\":6595:6746   */\n      swap3\n      swap2\n      pop\n      pop\n      jump\t// out\n        /* \"#utility.yul\":6752:7563   */\n    tag_20:\n        /* \"#utility.yul\":6845:6851   */\n      0x00\n        /* \"#utility.yul\":6853:6859   */\n      dup1\n        /* \"#utility.yul\":6861:6867   */\n      0x00\n        /* \"#utility.yul\":6910:6912   */\n      0x60\n        /* \"#utility.yul\":6898:6907   */\n      dup5\n        /* \"#utility.yul\":6889:6896   */\n      dup7\n        /* \"#utility.yul\":6885:6908   */\n      sub\n        /* \"#utility.yul\":6881:6913   */\n      slt\n        /* \"#utility.yul\":6878:6997   */\n      iszero\n      tag_226\n      jumpi\n        /* \"#utility.yul\":6916:6995   */\n      tag_227\n      tag_86\n      jump\t// in\n    tag_227:\n        /* \"#utility.yul\":6878:6997   */\n    tag_226:\n        /* \"#utility.yul\":7064:7065   */\n      0x00\n        /* \"#utility.yul\":7053:7062   */\n      dup5\n        /* \"#utility.yul\":7049:7066   */\n      add\n        /* \"#utility.yul\":7036:7067   */\n      calldataload\n        /* \"#utility.yul\":7094:7112   */\n      0xffffffffffffffff\n        /* \"#utility.yul\":7086:7092   */\n      dup2\n        /* \"#utility.yul\":7083:7113   */\n      gt\n        /* \"#utility.yul\":7080:7197   */\n      iszero\n      tag_228\n      jumpi\n        /* \"#utility.yul\":7116:7195   */\n      tag_229\n      tag_87\n      jump\t// in\n    tag_229:\n        /* \"#utility.yul\":7080:7197   */\n    tag_228:\n        /* \"#utility.yul\":7221:7284   */\n      tag_230\n        /* \"#utility.yul\":7276:7283   */\n      dup7\n        /* \"#utility.yul\":7267:7273   */\n      dup3\n        /* \"#utility.yul\":7256:7265   */\n      dup8\n        /* \"#utility.yul\":7252:7274   */\n      add\n        /* \"#utility.yul\":7221:7284   */\n      tag_110\n      jump\t// in\n    tag_230:\n        /* \"#utility.yul\":7211:7284   */\n      swap4\n      pop\n        /* \"#utility.yul\":7007:7294   */\n      pop\n        /* \"#utility.yul\":7333:7335   */\n      0x20\n        /* \"#utility.yul\":7359:7412   */\n      tag_231\n        /* \"#utility.yul\":7404:7411   */\n      dup7\n        /* \"#utility.yul\":7395:7401   */\n      dup3\n        /* \"#utility.yul\":7384:7393   */\n      dup8\n        /* \"#utility.yul\":7380:7402   */\n      add\n        /* \"#utility.yul\":7359:7412   */\n      tag_113\n      jump\t// in\n    tag_231:\n        /* \"#utility.yul\":7349:7412   */\n      swap3\n      pop\n        /* \"#utility.yul\":7304:7422   */\n      pop\n        /* \"#utility.yul\":7461:7463   */\n      0x40\n        /* \"#utility.yul\":7487:7546   */\n      tag_232\n        /* \"#utility.yul\":7538:7545   */\n      dup7\n        /* \"#utility.yul\":7529:7535   */\n      dup3\n        /* \"#utility.yul\":7518:7527   */\n      dup8\n        /* \"#utility.yul\":7514:7536   */\n      add\n        /* \"#utility.yul\":7487:7546   */\n      tag_115\n      jump\t// in\n    tag_232:\n        /* \"#utility.yul\":7477:7546   */\n      swap2\n      pop\n        /* \"#utility.yul\":7432:7556   */\n      pop\n        /* \"#utility.yul\":6752:7563   */\n      swap3\n      pop\n      swap3\n      pop\n      swap3\n      jump\t// out\n        /* \"#utility.yul\":7569:7898   */\n    tag_27:\n        /* \"#utility.yul\":7628:7634   */\n      0x00\n        /* \"#utility.yul\":7677:7679   */\n      0x20\n        /* \"#utility.yul\":7665:7674   */\n      dup3\n        /* \"#utility.yul\":7656:7663   */\n      dup5\n        /* \"#utility.yul\":7652:7675   */\n      sub\n        /* \"#utility.yul\":7648:7680   */\n      slt\n        /* \"#utility.yul\":7645:7764   */\n      iszero\n      tag_234\n      jumpi\n        /* \"#utility.yul\":7683:7762   */\n      tag_235\n      tag_86\n      jump\t// in\n    tag_235:\n        /* \"#utility.yul\":7645:7764   */\n    tag_234:\n        /* \"#utility.yul\":7803:7804   */\n      0x00\n        /* \"#utility.yul\":7828:7881   */\n      tag_236\n        /* \"#utility.yul\":7873:7880   */\n      dup5\n        /* \"#utility.yul\":7864:7870   */\n      dup3\n        /* \"#utility.yul\":7853:7862   */\n      dup6\n        /* \"#utility.yul\":7849:7871   */\n      add\n        /* \"#utility.yul\":7828:7881   */\n      tag_113\n      jump\t// in\n    tag_236:\n        /* \"#utility.yul\":7818:7881   */\n      swap2\n      pop\n        /* \"#utility.yul\":7774:7891   */\n      pop\n        /* \"#utility.yul\":7569:7898   */\n      swap3\n      swap2\n      pop\n      pop\n      jump\t// out\n        /* \"#utility.yul\":7904:8022   */\n    tag_116:\n        /* \"#utility.yul\":7991:8015   */\n      tag_238\n        /* \"#utility.yul\":8009:8014   */\n      dup2\n        /* \"#utility.yul\":7991:8015   */\n      tag_111\n      jump\t// in\n    tag_238:\n        /* \"#utility.yul\":7986:7989   */\n      dup3\n        /* \"#utility.yul\":7979:8016   */\n      mstore\n        /* \"#utility.yul\":7904:8022   */\n      pop\n      pop\n      jump\t// out\n        /* \"#utility.yul\":8028:8208   */\n    tag_42:\n        /* \"#utility.yul\":8076:8153   */\n      0x4e487b7100000000000000000000000000000000000000000000000000000000\n        /* \"#utility.yul\":8073:8074   */\n      0x00\n        /* \"#utility.yul\":8066:8154   */\n      mstore\n        /* \"#utility.yul\":8173:8177   */\n      0x21\n        /* \"#utility.yul\":8170:8171   */\n      0x04\n        /* \"#utility.yul\":8163:8178   */\n      mstore\n        /* \"#utility.yul\":8197:8201   */\n      0x24\n        /* \"#utility.yul\":8194:8195   */\n      0x00\n        /* \"#utility.yul\":8187:8202   */\n      revert\n        /* \"#utility.yul\":8214:8325   */\n    tag_117:\n        /* \"#utility.yul\":8293:8294   */\n      0x03\n        /* \"#utility.yul\":8286:8291   */\n      dup2\n        /* \"#utility.yul\":8283:8295   */\n      lt\n        /* \"#utility.yul\":8273:8319   */\n      tag_241\n      jumpi\n        /* \"#utility.yul\":8299:8317   */\n      tag_242\n      tag_42\n      jump\t// in\n    tag_242:\n        /* \"#utility.yul\":8273:8319   */\n    tag_241:\n        /* \"#utility.yul\":8214:8325   */\n      pop\n      jump\t// out\n        /* \"#utility.yul\":8331:8454   */\n    tag_118:\n        /* \"#utility.yul\":8374:8381   */\n      0x00\n        /* \"#utility.yul\":8403:8408   */\n      dup2\n        /* \"#utility.yul\":8392:8408   */\n      swap1\n      pop\n        /* \"#utility.yul\":8409:8448   */\n      tag_244\n        /* \"#utility.yul\":8442:8447   */\n      dup3\n        /* \"#utility.yul\":8409:8448   */\n      tag_117\n      jump\t// in\n    tag_244:\n        /* \"#utility.yul\":8331:8454   */\n      swap2\n      swap1\n      pop\n      jump\t// out\n        /* \"#utility.yul\":8460:8583   */\n    tag_119:\n        /* \"#utility.yul\":8514:8523   */\n      0x00\n        /* \"#utility.yul\":8547:8577   */\n      tag_246\n        /* \"#utility.yul\":8571:8576   */\n      dup3\n        /* \"#utility.yul\":8547:8577   */\n      tag_118\n      jump\t// in\n    tag_246:\n        /* \"#utility.yul\":8534:8577   */\n      swap1\n      pop\n        /* \"#utility.yul\":8460:8583   */\n      swap2\n      swap1\n      pop\n      jump\t// out\n        /* \"#utility.yul\":8589:8728   */\n    tag_120:\n        /* \"#utility.yul\":8680:8721   */\n      tag_248\n        /* \"#utility.yul\":8715:8720   */\n      dup2\n        /* \"#utility.yul\":8680:8721   */\n      tag_119\n      jump\t// in\n    tag_248:\n        /* \"#utility.yul\":8675:8678   */\n      dup3\n        /* \"#utility.yul\":8668:8722   */\n      mstore\n        /* \"#utility.yul\":8589:8728   */\n      pop\n      pop\n      jump\t// out\n        /* \"#utility.yul\":8734:8833   */\n    tag_121:\n        /* \"#utility.yul\":8786:8792   */\n      0x00\n        /* \"#utility.yul\":8820:8825   */\n      dup2\n        /* \"#utility.yul\":8814:8826   */\n      mload\n        /* \"#utility.yul\":8804:8826   */\n      swap1\n      pop\n        /* \"#utility.yul\":8734:8833   */\n      swap2\n      swap1\n      pop\n      jump\t// out\n        /* \"#utility.yul\":8839:9008   */\n    tag_122:\n        /* \"#utility.yul\":8923:8934   */\n      0x00\n        /* \"#utility.yul\":8957:8963   */\n      dup3\n        /* \"#utility.yul\":8952:8955   */\n      dup3\n        /* \"#utility.yul\":8945:8964   */\n      mstore\n        /* \"#utility.yul\":8997:9001   */\n      0x20\n        /* \"#utility.yul\":8992:8995   */\n      dup3\n        /* \"#utility.yul\":8988:9002   */\n      add\n        /* \"#utility.yul\":8973:9002   */\n      swap1\n      pop\n        /* \"#utility.yul\":8839:9008   */\n      swap3\n      swap2\n      pop\n      pop\n      jump\t// out\n        /* \"#utility.yul\":9014:9153   */\n    tag_123:\n        /* \"#utility.yul\":9103:9109   */\n      dup3\n        /* \"#utility.yul\":9098:9101   */\n      dup2\n        /* \"#utility.yul\":9093:9096   */\n      dup4\n        /* \"#utility.yul\":9087:9110   */\n      mcopy\n        /* \"#utility.yul\":9144:9145   */\n      0x00\n        /* \"#utility.yul\":9135:9141   */\n      dup4\n        /* \"#utility.yul\":9130:9133   */\n      dup4\n        /* \"#utility.yul\":9126:9142   */\n      add\n        /* \"#utility.yul\":9119:9146   */\n      mstore\n        /* \"#utility.yul\":9014:9153   */\n      pop\n      pop\n      pop\n      jump\t// out\n        /* \"#utility.yul\":9159:9536   */\n    tag_124:\n        /* \"#utility.yul\":9247:9250   */\n      0x00\n        /* \"#utility.yul\":9275:9314   */\n      tag_253\n        /* \"#utility.yul\":9308:9313   */\n      dup3\n        /* \"#utility.yul\":9275:9314   */\n      tag_121\n      jump\t// in\n    tag_253:\n        /* \"#utility.yul\":9330:9401   */\n      tag_254\n        /* \"#utility.yul\":9394:9400   */\n      dup2\n        /* \"#utility.yul\":9389:9392   */\n      dup6\n        /* \"#utility.yul\":9330:9401   */\n      tag_122\n      jump\t// in\n    tag_254:\n        /* \"#utility.yul\":9323:9401   */\n      swap4\n      pop\n        /* \"#utility.yul\":9410:9475   */\n      tag_255\n        /* \"#utility.yul\":9468:9474   */\n      dup2\n        /* \"#utility.yul\":9463:9466   */\n      dup6\n        /* \"#utility.yul\":9456:9460   */\n      0x20\n        /* \"#utility.yul\":9449:9454   */\n      dup7\n        /* \"#utility.yul\":9445:9461   */\n      add\n        /* \"#utility.yul\":9410:9475   */\n      tag_123\n      jump\t// in\n    tag_255:\n        /* \"#utility.yul\":9500:9529   */\n      tag_256\n        /* \"#utility.yul\":9522:9528   */\n      dup2\n        /* \"#utility.yul\":9500:9529   */\n      tag_103\n      jump\t// in\n    tag_256:\n        /* \"#utility.yul\":9495:9498   */\n      dup5\n        /* \"#utility.yul\":9491:9530   */\n      add\n        /* \"#utility.yul\":9484:9530   */\n      swap2\n      pop\n        /* \"#utility.yul\":9251:9536   */\n      pop\n        /* \"#utility.yul\":9159:9536   */\n      swap3\n      swap2\n      pop\n      pop\n      jump\t// out\n        /* \"#utility.yul\":9542:10083   */\n    tag_30:\n        /* \"#utility.yul\":9715:9719   */\n      0x00\n        /* \"#utility.yul\":9753:9755   */\n      0x60\n        /* \"#utility.yul\":9742:9751   */\n      dup3\n        /* \"#utility.yul\":9738:9756   */\n      add\n        /* \"#utility.yul\":9730:9756   */\n      swap1\n      pop\n        /* \"#utility.yul\":9766:9837   */\n      tag_258\n        /* \"#utility.yul\":9834:9835   */\n      0x00\n        /* \"#utility.yul\":9823:9832   */\n      dup4\n        /* \"#utility.yul\":9819:9836   */\n      add\n        /* \"#utility.yul\":9810:9816   */\n      dup7\n        /* \"#utility.yul\":9766:9837   */\n      tag_116\n      jump\t// in\n    tag_258:\n        /* \"#utility.yul\":9847:9923   */\n      tag_259\n        /* \"#utility.yul\":9919:9921   */\n      0x20\n        /* \"#utility.yul\":9908:9917   */\n      dup4\n        /* \"#utility.yul\":9904:9922   */\n      add\n        /* \"#utility.yul\":9895:9901   */\n      dup6\n        /* \"#utility.yul\":9847:9923   */\n      tag_120\n      jump\t// in\n    tag_259:\n        /* \"#utility.yul\":9970:9979   */\n      dup2\n        /* \"#utility.yul\":9964:9968   */\n      dup2\n        /* \"#utility.yul\":9960:9980   */\n      sub\n        /* \"#utility.yul\":9955:9957   */\n      0x40\n        /* \"#utility.yul\":9944:9953   */\n      dup4\n        /* \"#utility.yul\":9940:9958   */\n      add\n        /* \"#utility.yul\":9933:9981   */\n      mstore\n        /* \"#utility.yul\":9998:10076   */\n      tag_260\n        /* \"#utility.yul\":10071:10075   */\n      dup2\n        /* \"#utility.yul\":10062:10068   */\n      dup5\n        /* \"#utility.yul\":9998:10076   */\n      tag_124\n      jump\t// in\n    tag_260:\n        /* \"#utility.yul\":9990:10076   */\n      swap1\n      pop\n        /* \"#utility.yul\":9542:10083   */\n      swap5\n      swap4\n      pop\n      pop\n      pop\n      pop\n      jump\t// out\n        /* \"#utility.yul\":10089:10258   */\n    tag_125:\n        /* \"#utility.yul\":10229:10250   */\n      0x5573657220616c72656164792065786973747300000000000000000000000000\n        /* \"#utility.yul\":10225:10226   */\n      0x00\n        /* \"#utility.yul\":10217:10223   */\n      dup3\n        /* \"#utility.yul\":10213:10227   */\n      add\n        /* \"#utility.yul\":10206:10251   */\n      mstore\n        /* \"#utility.yul\":10089:10258   */\n      pop\n      jump\t// out\n        /* \"#utility.yul\":10264:10630   */\n    tag_126:\n        /* \"#utility.yul\":10406:10409   */\n      0x00\n        /* \"#utility.yul\":10427:10494   */\n      tag_263\n        /* \"#utility.yul\":10491:10493   */\n      0x13\n        /* \"#utility.yul\":10486:10489   */\n      dup4\n        /* \"#utility.yul\":10427:10494   */\n      tag_122\n      jump\t// in\n    tag_263:\n        /* \"#utility.yul\":10420:10494   */\n      swap2\n      pop\n        /* \"#utility.yul\":10503:10596   */\n      tag_264\n        /* \"#utility.yul\":10592:10595   */\n      dup3\n        /* \"#utility.yul\":10503:10596   */\n      tag_125\n      jump\t// in\n    tag_264:\n        /* \"#utility.yul\":10621:10623   */\n      0x20\n        /* \"#utility.yul\":10616:10619   */\n      dup3\n        /* \"#utility.yul\":10612:10624   */\n      add\n        /* \"#utility.yul\":10605:10624   */\n      swap1\n      pop\n        /* \"#utility.yul\":10264:10630   */\n      swap2\n      swap1\n      pop\n      jump\t// out\n        /* \"#utility.yul\":10636:11055   */\n    tag_39:\n        /* \"#utility.yul\":10802:10806   */\n      0x00\n        /* \"#utility.yul\":10840:10842   */\n      0x20\n        /* \"#utility.yul\":10829:10838   */\n      dup3\n        /* \"#utility.yul\":10825:10843   */\n      add\n        /* \"#utility.yul\":10817:10843   */\n      swap1\n      pop\n        /* \"#utility.yul\":10889:10898   */\n      dup2\n        /* \"#utility.yul\":10883:10887   */\n      dup2\n        /* \"#utility.yul\":10879:10899   */\n      sub\n        /* \"#utility.yul\":10875:10876   */\n      0x00\n        /* \"#utility.yul\":10864:10873   */\n      dup4\n        /* \"#utility.yul\":10860:10877   */\n      add\n        /* \"#utility.yul\":10853:10900   */\n      mstore\n        /* \"#utility.yul\":10917:11048   */\n      tag_266\n        /* \"#utility.yul\":11043:11047   */\n      dup2\n        /* \"#utility.yul\":10917:11048   */\n      tag_126\n      jump\t// in\n    tag_266:\n        /* \"#utility.yul\":10909:11048   */\n      swap1\n      pop\n        /* \"#utility.yul\":10636:11055   */\n      swap2\n      swap1\n      pop\n      jump\t// out\n        /* \"#utility.yul\":11061:11223   */\n    tag_127:\n        /* \"#utility.yul\":11201:11215   */\n      0x496e76616c696420726f6c650000000000000000000000000000000000000000\n        /* \"#utility.yul\":11197:11198   */\n      0x00\n        /* \"#utility.yul\":11189:11195   */\n      dup3\n        /* \"#utility.yul\":11185:11199   */\n      add\n        /* \"#utility.yul\":11178:11216   */\n      mstore\n        /* \"#utility.yul\":11061:11223   */\n      pop\n      jump\t// out\n        /* \"#utility.yul\":11229:11595   */\n    tag_128:\n        /* \"#utility.yul\":11371:11374   */\n      0x00\n        /* \"#utility.yul\":11392:11459   */\n      tag_269\n        /* \"#utility.yul\":11456:11458   */\n      0x0c\n        /* \"#utility.yul\":11451:11454   */\n      dup4\n        /* \"#utility.yul\":11392:11459   */\n      tag_122\n      jump\t// in\n    tag_269:\n        /* \"#utility.yul\":11385:11459   */\n      swap2\n      pop\n        /* \"#utility.yul\":11468:11561   */\n      tag_270\n        /* \"#utility.yul\":11557:11560   */\n      dup3\n        /* \"#utility.yul\":11468:11561   */\n      tag_127\n      jump\t// in\n    tag_270:\n        /* \"#utility.yul\":11586:11588   */\n      0x20\n        /* \"#utility.yul\":11581:11584   */\n      dup3\n        /* \"#utility.yul\":11577:11589   */\n      add\n        /* \"#utility.yul\":11570:11589   */\n      swap1\n      pop\n        /* \"#utility.yul\":11229:11595   */\n      swap2\n      swap1\n      pop\n      jump\t// out\n        /* \"#utility.yul\":11601:12020   */\n    tag_57:\n        /* \"#utility.yul\":11767:11771   */\n      0x00\n        /* \"#utility.yul\":11805:11807   */\n      0x20\n        /* \"#utility.yul\":11794:11803   */\n      dup3\n        /* \"#utility.yul\":11790:11808   */\n      add\n        /* \"#utility.yul\":11782:11808   */\n      swap1\n      pop\n        /* \"#utility.yul\":11854:11863   */\n      dup2\n        /* \"#utility.yul\":11848:11852   */\n      dup2\n        /* \"#utility.yul\":11844:11864   */\n      sub\n        /* \"#utility.yul\":11840:11841   */\n      0x00\n        /* \"#utility.yul\":11829:11838   */\n      dup4\n        /* \"#utility.yul\":11825:11842   */\n      add\n        /* \"#utility.yul\":11818:11865   */\n      mstore\n        /* \"#utility.yul\":11882:12013   */\n      tag_272\n        /* \"#utility.yul\":12008:12012   */\n      dup2\n        /* \"#utility.yul\":11882:12013   */\n      tag_128\n      jump\t// in\n    tag_272:\n        /* \"#utility.yul\":11874:12013   */\n      swap1\n      pop\n        /* \"#utility.yul\":11601:12020   */\n      swap2\n      swap1\n      pop\n      jump\t// out\n        /* \"#utility.yul\":12026:12206   */\n    tag_129:\n        /* \"#utility.yul\":12074:12151   */\n      0x4e487b7100000000000000000000000000000000000000000000000000000000\n        /* \"#utility.yul\":12071:12072   */\n      0x00\n        /* \"#utility.yul\":12064:12152   */\n      mstore\n        /* \"#utility.yul\":12171:12175   */\n      0x22\n        /* \"#utility.yul\":12168:12169   */\n      0x04\n        /* \"#utility.yul\":12161:12176   */\n      mstore\n        /* \"#utility.yul\":12195:12199   */\n      0x24\n        /* \"#utility.yul\":12192:12193   */\n      0x00\n        /* \"#utility.yul\":12185:12200   */\n      revert\n        /* \"#utility.yul\":12212:12532   */\n    tag_80:\n        /* \"#utility.yul\":12256:12262   */\n      0x00\n        /* \"#utility.yul\":12293:12294   */\n      0x02\n        /* \"#utility.yul\":12287:12291   */\n      dup3\n        /* \"#utility.yul\":12283:12295   */\n      div\n        /* \"#utility.yul\":12273:12295   */\n      swap1\n      pop\n        /* \"#utility.yul\":12340:12341   */\n      0x01\n        /* \"#utility.yul\":12334:12338   */\n      dup3\n        /* \"#utility.yul\":12330:12342   */\n      and\n        /* \"#utility.yul\":12361:12379   */\n      dup1\n        /* \"#utility.yul\":12351:12432   */\n      tag_275\n      jumpi\n        /* \"#utility.yul\":12417:12421   */\n      0x7f\n        /* \"#utility.yul\":12409:12415   */\n      dup3\n        /* \"#utility.yul\":12405:12422   */\n      and\n        /* \"#utility.yul\":12395:12422   */\n      swap2\n      pop\n        /* \"#utility.yul\":12351:12432   */\n    tag_275:\n        /* \"#utility.yul\":12479:12481   */\n      0x20\n        /* \"#utility.yul\":12471:12477   */\n      dup3\n        /* \"#utility.yul\":12468:12482   */\n      lt\n        /* \"#utility.yul\":12448:12466   */\n      dup2\n        /* \"#utility.yul\":12445:12483   */\n      sub\n        /* \"#utility.yul\":12442:12526   */\n      tag_276\n      jumpi\n        /* \"#utility.yul\":12498:12516   */\n      tag_277\n      tag_129\n      jump\t// in\n    tag_277:\n        /* \"#utility.yul\":12442:12526   */\n    tag_276:\n        /* \"#utility.yul\":12263:12532   */\n      pop\n        /* \"#utility.yul\":12212:12532   */\n      swap2\n      swap1\n      pop\n      jump\t// out\n        /* \"#utility.yul\":12538:12679   */\n    tag_130:\n        /* \"#utility.yul\":12587:12591   */\n      0x00\n        /* \"#utility.yul\":12610:12613   */\n      dup2\n        /* \"#utility.yul\":12602:12613   */\n      swap1\n      pop\n        /* \"#utility.yul\":12633:12636   */\n      dup2\n        /* \"#utility.yul\":12630:12631   */\n      0x00\n        /* \"#utility.yul\":12623:12637   */\n      mstore\n        /* \"#utility.yul\":12667:12671   */\n      0x20\n        /* \"#utility.yul\":12664:12665   */\n      0x00\n        /* \"#utility.yul\":12654:12672   */\n      keccak256\n        /* \"#utility.yul\":12646:12672   */\n      swap1\n      pop\n        /* \"#utility.yul\":12538:12679   */\n      swap2\n      swap1\n      pop\n      jump\t// out\n        /* \"#utility.yul\":12685:12778   */\n    tag_131:\n        /* \"#utility.yul\":12722:12728   */\n      0x00\n        /* \"#utility.yul\":12769:12771   */\n      0x20\n        /* \"#utility.yul\":12764:12766   */\n      0x1f\n        /* \"#utility.yul\":12757:12762   */\n      dup4\n        /* \"#utility.yul\":12753:12767   */\n      add\n        /* \"#utility.yul\":12749:12772   */\n      div\n        /* \"#utility.yul\":12739:12772   */\n      swap1\n      pop\n        /* \"#utility.yul\":12685:12778   */\n      swap2\n      swap1\n      pop\n      jump\t// out\n        /* \"#utility.yul\":12784:12891   */\n    tag_132:\n        /* \"#utility.yul\":12828:12836   */\n      0x00\n        /* \"#utility.yul\":12878:12883   */\n      dup3\n        /* \"#utility.yul\":12872:12876   */\n      dup3\n        /* \"#utility.yul\":12868:12884   */\n      shl\n        /* \"#utility.yul\":12847:12884   */\n      swap1\n      pop\n        /* \"#utility.yul\":12784:12891   */\n      swap3\n      swap2\n      pop\n      pop\n      jump\t// out\n        /* \"#utility.yul\":12897:13290   */\n    tag_133:\n        /* \"#utility.yul\":12966:12972   */\n      0x00\n        /* \"#utility.yul\":13016:13017   */\n      0x08\n        /* \"#utility.yul\":13004:13014   */\n      dup4\n        /* \"#utility.yul\":13000:13018   */\n      mul\n        /* \"#utility.yul\":13039:13136   */\n      tag_282\n        /* \"#utility.yul\":13069:13135   */\n      0xffffffffffffffffffffffffffffffffffffffffffffffffffffffffffffffff\n        /* \"#utility.yul\":13058:13067   */\n      dup3\n        /* \"#utility.yul\":13039:13136   */\n      tag_132\n      jump\t// in\n    tag_282:\n        /* \"#utility.yul\":13157:13196   */\n      tag_283\n        /* \"#utility.yul\":13187:13195   */\n      dup7\n        /* \"#utility.yul\":13176:13185   */\n      dup4\n        /* \"#utility.yul\":13157:13196   */\n      tag_132\n      jump\t// in\n    tag_283:\n        /* \"#utility.yul\":13145:13196   */\n      swap6\n      pop\n        /* \"#utility.yul\":13229:13233   */\n      dup1\n        /* \"#utility.yul\":13225:13234   */\n      not\n        /* \"#utility.yul\":13218:13223   */\n      dup5\n        /* \"#utility.yul\":13214:13235   */\n      and\n        /* \"#utility.yul\":13205:13235   */\n      swap4\n      pop\n        /* \"#utility.yul\":13278:13282   */\n      dup1\n        /* \"#utility.yul\":13268:13276   */\n      dup7\n        /* \"#utility.yul\":13264:13283   */\n      and\n        /* \"#utility.yul\":13257:13262   */\n      dup5\n        /* \"#utility.yul\":13254:13284   */\n      or\n        /* \"#utility.yul\":13244:13284   */\n      swap3\n      pop\n        /* \"#utility.yul\":12973:13290   */\n      pop\n      pop\n        /* \"#utility.yul\":12897:13290   */\n      swap4\n      swap3\n      pop\n      pop\n      pop\n      jump\t// out\n        /* \"#utility.yul\":13296:13356   */\n    tag_134:\n        /* \"#utility.yul\":13324:13327   */\n      0x00\n        /* \"#utility.yul\":13345:13350   */\n      dup2\n        /* \"#utility.yul\":13338:13350   */\n      swap1\n      pop\n        /* \"#utility.yul\":13296:13356   */\n      swap2\n      swap1\n      pop\n      jump\t// out\n        /* \"#utility.yul\":13362:13504   */\n    tag_135:\n        /* \"#utility.yul\":13412:13421   */\n      0x00\n        /* \"#utility.yul\":13445:13498   */\n      tag_286\n        /* \"#utility.yul\":13463:13497   */\n      tag_287\n        /* \"#utility.yul\":13472:13496   */\n      tag_288\n        /* \"#utility.yul\":13490:13495   */\n      dup5\n        /* \"#utility.yul\":13472:13496   */\n      tag_88\n      jump\t// in\n    tag_288:\n        /* \"#utility.yul\":13463:13497   */\n      tag_134\n      jump\t// in\n    tag_287:\n        /* \"#utility.yul\":13445:13498   */\n      tag_88\n      jump\t// in\n    tag_286:\n        /* \"#utility.yul\":13432:13498   */\n      swap1\n      pop\n        /* \"#utility.yul\":13362:13504   */\n      swap2\n      swap1\n      pop\n      jump\t// out\n        /* \"#utility.yul\":13510:13585   */\n    tag_136:\n        /* \"#utility.yul\":13553:13556   */\n      0x00\n        /* \"#utility.yul\":13574:13579   */\n      dup2\n        /* \"#utility.yul\":13567:13579   */\n      swap1\n      pop\n        /* \"#utility.yul\":13510:13585   */\n      swap2\n      swap1\n      pop\n      jump\t// out\n        /* \"#utility.yul\":13591:13860   */\n    tag_137:\n        /* \"#utility.yul\":13701:13740   */\n      tag_291\n        /* \"#utility.yul\":13732:13739   */\n      dup4\n        /* \"#utility.yul\":13701:13740   */\n      tag_135\n      jump\t// in\n    tag_291:\n        /* \"#utility.yul\":13762:13853   */\n      tag_292\n        /* \"#utility.yul\":13811:13852   */\n      tag_293\n        /* \"#utility.yul\":13835:13851   */\n      dup3\n        /* \"#utility.yul\":13811:13852   */\n      tag_136\n      jump\t// in\n    tag_293:\n        /* \"#utility.yul\":13803:13809   */\n      dup5\n        /* \"#utility.yul\":13796:13800   */\n      dup5\n        /* \"#utility.yul\":13790:13801   */\n      sload\n        /* \"#utility.yul\":13762:13853   */\n      tag_133\n      jump\t// in\n    tag_292:\n        /* \"#utility.yul\":13756:13760   */\n      dup3\n        /* \"#utility.yul\":13749:13854   */\n      sstore\n        /* \"#utility.yul\":13667:13860   */\n      pop\n        /* \"#utility.yul\":13591:13860   */\n      pop\n      pop\n      pop\n      jump\t// out\n        /* \"#utility.yul\":13866:13939   */\n    tag_138:\n        /* \"#utility.yul\":13911:13914   */\n      0x00\n        /* \"#utility.yul\":13866:13939   */\n      swap1\n      jump\t// out\n        /* \"#utility.yul\":13945:14134   */\n    tag_139:\n        /* \"#utility.yul\":14022:14054   */\n      tag_296\n      tag_138\n      jump\t// in\n    tag_296:\n        /* \"#utility.yul\":14063:14128   */\n      tag_297\n        /* \"#utility.yul\":14121:14127   */\n      dup2\n        /* \"#utility.yul\":14113:14119   */\n      dup5\n        /* \"#utility.yul\":14107:14111   */\n      dup5\n        /* \"#utility.yul\":14063:14128   */\n      tag_137\n      jump\t// in\n    tag_297:\n        /* \"#utility.yul\":13998:14134   */\n      pop\n        /* \"#utility.yul\":13945:14134   */\n      pop\n      pop\n      jump\t// out\n        /* \"#utility.yul\":14140:14326   */\n    tag_140:\n        /* \"#utility.yul\":14200:14320   */\n    tag_299:\n        /* \"#utility.yul\":14217:14220   */\n      dup2\n        /* \"#utility.yul\":14210:14215   */\n      dup2\n        /* \"#utility.yul\":14207:14221   */\n      lt\n        /* \"#utility.yul\":14200:14320   */\n      iszero\n      tag_301\n      jumpi\n        /* \"#utility.yul\":14271:14310   */\n      tag_302\n        /* \"#utility.yul\":14308:14309   */\n      0x00\n        /* \"#utility.yul\":14301:14306   */\n      dup3\n        /* \"#utility.yul\":14271:14310   */\n      tag_139\n      jump\t// in\n    tag_302:\n        /* \"#utility.yul\":14244:14245   */\n      0x01\n        /* \"#utility.yul\":14237:14242   */\n      dup2\n        /* \"#utility.yul\":14233:14246   */\n      add\n        /* \"#utility.yul\":14224:14246   */\n      swap1\n      pop\n        /* \"#utility.yul\":14200:14320   */\n      jump(tag_299)\n    tag_301:\n        /* \"#utility.yul\":14140:14326   */\n      pop\n      pop\n      jump\t// out\n        /* \"#utility.yul\":14332:14875   */\n    tag_141:\n        /* \"#utility.yul\":14433:14435   */\n      0x1f\n        /* \"#utility.yul\":14428:14431   */\n      dup3\n        /* \"#utility.yul\":14425:14436   */\n      gt\n        /* \"#utility.yul\":14422:14868   */\n      iszero\n      tag_304\n      jumpi\n        /* \"#utility.yul\":14467:14505   */\n      tag_305\n        /* \"#utility.yul\":14499:14504   */\n      dup2\n        /* \"#utility.yul\":14467:14505   */\n      tag_130\n      jump\t// in\n    tag_305:\n        /* \"#utility.yul\":14551:14580   */\n      tag_306\n        /* \"#utility.yul\":14569:14579   */\n      dup5\n        /* \"#utility.yul\":14551:14580   */\n      tag_131\n      jump\t// in\n    tag_306:\n        /* \"#utility.yul\":14541:14549   */\n      dup2\n        /* \"#utility.yul\":14537:14581   */\n      add\n        /* \"#utility.yul\":14734:14736   */\n      0x20\n        /* \"#utility.yul\":14722:14732   */\n      dup6\n        /* \"#utility.yul\":14719:14737   */\n      lt\n        /* \"#utility.yul\":14716:14765   */\n      iszero\n      tag_307\n      jumpi\n        /* \"#utility.yul\":14755:14763   */\n      dup2\n        /* \"#utility.yul\":14740:14763   */\n      swap1\n      pop\n        /* \"#utility.yul\":14716:14765   */\n    tag_307:\n        /* \"#utility.yul\":14778:14858   */\n      tag_308\n        /* \"#utility.yul\":14834:14856   */\n      tag_309\n        /* \"#utility.yul\":14852:14855   */\n      dup6\n        /* \"#utility.yul\":14834:14856   */\n      tag_131\n      jump\t// in\n    tag_309:\n        /* \"#utility.yul\":14824:14832   */\n      dup4\n        /* \"#utility.yul\":14820:14857   */\n      add\n        /* \"#utility.yul\":14807:14818   */\n      dup3\n        /* \"#utility.yul\":14778:14858   */\n      tag_140\n      jump\t// in\n    tag_308:\n        /* \"#utility.yul\":14437:14868   */\n      pop\n      pop\n        /* \"#utility.yul\":14422:14868   */\n    tag_304:\n        /* \"#utility.yul\":14332:14875   */\n      pop\n      pop\n      pop\n      jump\t// out\n        /* \"#utility.yul\":14881:14998   */\n    tag_142:\n        /* \"#utility.yul\":14935:14943   */\n      0x00\n        /* \"#utility.yul\":14985:14990   */\n      dup3\n        /* \"#utility.yul\":14979:14983   */\n      dup3\n        /* \"#utility.yul\":14975:14991   */\n      shr\n        /* \"#utility.yul\":14954:14991   */\n      swap1\n      pop\n        /* \"#utility.yul\":14881:14998   */\n      swap3\n      swap2\n      pop\n      pop\n      jump\t// out\n        /* \"#utility.yul\":15004:15173   */\n    tag_143:\n        /* \"#utility.yul\":15048:15054   */\n      0x00\n        /* \"#utility.yul\":15081:15132   */\n      tag_312\n        /* \"#utility.yul\":15129:15130   */\n      0x00\n        /* \"#utility.yul\":15125:15131   */\n      not\n        /* \"#utility.yul\":15117:15122   */\n      dup5\n        /* \"#utility.yul\":15114:15115   */\n      0x08\n        /* \"#utility.yul\":15110:15123   */\n      mul\n        /* \"#utility.yul\":15081:15132   */\n      tag_142\n      jump\t// in\n    tag_312:\n        /* \"#utility.yul\":15077:15133   */\n      not\n        /* \"#utility.yul\":15162:15166   */\n      dup1\n        /* \"#utility.yul\":15156:15160   */\n      dup4\n        /* \"#utility.yul\":15152:15167   */\n      and\n        /* \"#utility.yul\":15142:15167   */\n      swap2\n      pop\n        /* \"#utility.yul\":15055:15173   */\n      pop\n        /* \"#utility.yul\":15004:15173   */\n      swap3\n      swap2\n      pop\n      pop\n      jump\t// out\n        /* \"#utility.yul\":15178:15473   */\n    tag_144:\n        /* \"#utility.yul\":15254:15258   */\n      0x00\n        /* \"#utility.yul\":15400:15429   */\n      tag_314\n        /* \"#utility.yul\":15425:15428   */\n      dup4\n        /* \"#utility.yul\":15419:15423   */\n      dup4\n        /* \"#utility.yul\":15400:15429   */\n      tag_143\n      jump\t// in\n    tag_314:\n        /* \"#utility.yul\":15392:15429   */\n      swap2\n      pop\n        /* \"#utility.yul\":15462:15465   */\n      dup3\n        /* \"#utility.yul\":15459:15460   */\n      0x02\n        /* \"#utility.yul\":15455:15466   */\n      mul\n        /* \"#utility.yul\":15449:15453   */\n      dup3\n        /* \"#utility.yul\":15446:15467   */\n      or\n        /* \"#utility.yul\":15438:15467   */\n      swap1\n      pop\n        /* \"#utility.yul\":15178:15473   */\n      swap3\n      swap2\n      pop\n      pop\n      jump\t// out\n        /* \"#utility.yul\":15478:16873   */\n    tag_63:\n        /* \"#utility.yul\":15595:15632   */\n      tag_316\n        /* \"#utility.yul\":15628:15631   */\n      dup3\n        /* \"#utility.yul\":15595:15632   */\n      tag_121\n      jump\t// in\n    tag_316:\n        /* \"#utility.yul\":15697:15715   */\n      0xffffffffffffffff\n        /* \"#utility.yul\":15689:15695   */\n      dup2\n        /* \"#utility.yul\":15686:15716   */\n      gt\n        /* \"#utility.yul\":15683:15739   */\n      iszero\n      tag_317\n      jumpi\n        /* \"#utility.yul\":15719:15737   */\n      tag_318\n      tag_104\n      jump\t// in\n    tag_318:\n        /* \"#utility.yul\":15683:15739   */\n    tag_317:\n        /* \"#utility.yul\":15763:15801   */\n      tag_319\n        /* \"#utility.yul\":15795:15799   */\n      dup3\n        /* \"#utility.yul\":15789:15800   */\n      sload\n        /* \"#utility.yul\":15763:15801   */\n      tag_80\n      jump\t// in\n    tag_319:\n        /* \"#utility.yul\":15848:15915   */\n      tag_320\n        /* \"#utility.yul\":15908:15914   */\n      dup3\n        /* \"#utility.yul\":15900:15906   */\n      dup3\n        /* \"#utility.yul\":15894:15898   */\n      dup6\n        /* \"#utility.yul\":15848:15915   */\n      tag_141\n      jump\t// in\n    tag_320:\n        /* \"#utility.yul\":15942:15943   */\n      0x00\n        /* \"#utility.yul\":15966:15970   */\n      0x20\n        /* \"#utility.yul\":15953:15970   */\n      swap1\n      pop\n        /* \"#utility.yul\":15998:16000   */\n      0x1f\n        /* \"#utility.yul\":15990:15996   */\n      dup4\n        /* \"#utility.yul\":15987:16001   */\n      gt\n        /* \"#utility.yul\":16015:16016   */\n      0x01\n        /* \"#utility.yul\":16010:16628   */\n      dup2\n      eq\n      tag_322\n      jumpi\n        /* \"#utility.yul\":16672:16673   */\n      0x00\n        /* \"#utility.yul\":16689:16695   */\n      dup5\n        /* \"#utility.yul\":16686:16763   */\n      iszero\n      tag_323\n      jumpi\n        /* \"#utility.yul\":16738:16747   */\n      dup3\n        /* \"#utility.yul\":16733:16736   */\n      dup8\n        /* \"#utility.yul\":16729:16748   */\n      add\n        /* \"#utility.yul\":16723:16749   */\n      mload\n        /* \"#utility.yul\":16714:16749   */\n      swap1\n      pop\n        /* \"#utility.yul\":16686:16763   */\n    tag_323:\n        /* \"#utility.yul\":16789:16856   */\n      tag_324\n        /* \"#utility.yul\":16849:16855   */\n      dup6\n        /* \"#utility.yul\":16842:16847   */\n      dup3\n        /* \"#utility.yul\":16789:16856   */\n      tag_144\n      jump\t// in\n    tag_324:\n        /* \"#utility.yul\":16783:16787   */\n      dup7\n        /* \"#utility.yul\":16776:16857   */\n      sstore\n        /* \"#utility.yul\":16645:16867   */\n      pop\n        /* \"#utility.yul\":15980:16867   */\n      jump(tag_321)\n        /* \"#utility.yul\":16010:16628   */\n    tag_322:\n        /* \"#utility.yul\":16062:16066   */\n      0x1f\n        /* \"#utility.yul\":16058:16067   */\n      not\n        /* \"#utility.yul\":16050:16056   */\n      dup5\n        /* \"#utility.yul\":16046:16068   */\n      and\n        /* \"#utility.yul\":16096:16133   */\n      tag_325\n        /* \"#utility.yul\":16128:16132   */\n      dup7\n        /* \"#utility.yul\":16096:16133   */\n      tag_130\n      jump\t// in\n    tag_325:\n        /* \"#utility.yul\":16155:16156   */\n      0x00\n        /* \"#utility.yul\":16169:16377   */\n    tag_326:\n        /* \"#utility.yul\":16183:16190   */\n      dup3\n        /* \"#utility.yul\":16180:16181   */\n      dup2\n        /* \"#utility.yul\":16177:16191   */\n      lt\n        /* \"#utility.yul\":16169:16377   */\n      iszero\n      tag_328\n      jumpi\n        /* \"#utility.yul\":16262:16271   */\n      dup5\n        /* \"#utility.yul\":16257:16260   */\n      dup10\n        /* \"#utility.yul\":16253:16272   */\n      add\n        /* \"#utility.yul\":16247:16273   */\n      mload\n        /* \"#utility.yul\":16239:16245   */\n      dup3\n        /* \"#utility.yul\":16232:16274   */\n      sstore\n        /* \"#utility.yul\":16313:16314   */\n      0x01\n        /* \"#utility.yul\":16305:16311   */\n      dup3\n        /* \"#utility.yul\":16301:16315   */\n      add\n        /* \"#utility.yul\":16291:16315   */\n      swap2\n      pop\n        /* \"#utility.yul\":16360:16362   */\n      0x20\n        /* \"#utility.yul\":16349:16358   */\n      dup6\n        /* \"#utility.yul\":16345:16363   */\n      add\n        /* \"#utility.yul\":16332:16363   */\n      swap5\n      pop\n        /* \"#utility.yul\":16206:16210   */\n      0x20\n        /* \"#utility.yul\":16203:16204   */\n      dup2\n        /* \"#utility.yul\":16199:16211   */\n      add\n        /* \"#utility.yul\":16194:16211   */\n      swap1\n      pop\n        /* \"#utility.yul\":16169:16377   */\n      jump(tag_326)\n    tag_328:\n        /* \"#utility.yul\":16405:16411   */\n      dup7\n        /* \"#utility.yul\":16396:16403   */\n      dup4\n        /* \"#utility.yul\":16393:16412   */\n      lt\n        /* \"#utility.yul\":16390:16569   */\n      iszero\n      tag_329\n      jumpi\n        /* \"#utility.yul\":16463:16472   */\n      dup5\n        /* \"#utility.yul\":16458:16461   */\n      dup10\n        /* \"#utility.yul\":16454:16473   */\n      add\n        /* \"#utility.yul\":16448:16474   */\n      mload\n        /* \"#utility.yul\":16506:16554   */\n      tag_330\n        /* \"#utility.yul\":16548:16552   */\n      0x1f\n        /* \"#utility.yul\":16540:16546   */\n      dup10\n        /* \"#utility.yul\":16536:16553   */\n      and\n        /* \"#utility.yul\":16525:16534   */\n      dup3\n        /* \"#utility.yul\":16506:16554   */\n      tag_143\n      jump\t// in\n    tag_330:\n        /* \"#utility.yul\":16498:16504   */\n      dup4\n        /* \"#utility.yul\":16491:16555   */\n      sstore\n        /* \"#utility.yul\":16413:16569   */\n      pop\n        /* \"#utility.yul\":16390:16569   */\n    tag_329:\n        /* \"#utility.yul\":16615:16616   */\n      0x01\n        /* \"#utility.yul\":16611:16612   */\n      0x02\n        /* \"#utility.yul\":16603:16609   */\n      dup9\n        /* \"#utility.yul\":16599:16613   */\n      mul\n        /* \"#utility.yul\":16595:16617   */\n      add\n        /* \"#utility.yul\":16589:16593   */\n      dup9\n        /* \"#utility.yul\":16582:16618   */\n      sstore\n        /* \"#utility.yul\":16017:16628   */\n      pop\n      pop\n      pop\n        /* \"#utility.yul\":15980:16867   */\n    tag_321:\n      pop\n        /* \"#utility.yul\":15570:16873   */\n      pop\n      pop\n      pop\n        /* \"#utility.yul\":15478:16873   */\n      pop\n      pop\n      jump\t// out\n        /* \"#utility.yul\":16879:17048   */\n    tag_145:\n        /* \"#utility.yul\":17019:17040   */\n      0x556e617574686f72697a656420616374696f6e00000000000000000000000000\n        /* \"#utility.yul\":17015:17016   */\n      0x00\n        /* \"#utility.yul\":17007:17013   */\n      dup3\n        /* \"#utility.yul\":17003:17017   */\n      add\n        /* \"#utility.yul\":16996:17041   */\n      mstore\n        /* \"#utility.yul\":16879:17048   */\n      pop\n      jump\t// out\n        /* \"#utility.yul\":17054:17420   */\n    tag_146:\n        /* \"#utility.yul\":17196:17199   */\n      0x00\n        /* \"#utility.yul\":17217:17284   */\n      tag_333\n        /* \"#utility.yul\":17281:17283   */\n      0x13\n        /* \"#utility.yul\":17276:17279   */\n      dup4\n        /* \"#utility.yul\":17217:17284   */\n      tag_122\n      jump\t// in\n    tag_333:\n        /* \"#utility.yul\":17210:17284   */\n      swap2\n      pop\n        /* \"#utility.yul\":17293:17386   */\n      tag_334\n        /* \"#utility.yul\":17382:17385   */\n      dup3\n        /* \"#utility.yul\":17293:17386   */\n      tag_145\n      jump\t// in\n    tag_334:\n        /* \"#utility.yul\":17411:17413   */\n      0x20\n        /* \"#utility.yul\":17406:17409   */\n      dup3\n        /* \"#utility.yul\":17402:17414   */\n      add\n        /* \"#utility.yul\":17395:17414   */\n      swap1\n      pop\n        /* \"#utility.yul\":17054:17420   */\n      swap2\n      swap1\n      pop\n      jump\t// out\n        /* \"#utility.yul\":17426:17845   */\n    tag_71:\n        /* \"#utility.yul\":17592:17596   */\n      0x00\n        /* \"#utility.yul\":17630:17632   */\n      0x20\n        /* \"#utility.yul\":17619:17628   */\n      dup3\n        /* \"#utility.yul\":17615:17633   */\n      add\n        /* \"#utility.yul\":17607:17633   */\n      swap1\n      pop\n        /* \"#utility.yul\":17679:17688   */\n      dup2\n        /* \"#utility.yul\":17673:17677   */\n      dup2\n        /* \"#utility.yul\":17669:17689   */\n      sub\n        /* \"#utility.yul\":17665:17666   */\n      0x00\n        /* \"#utility.yul\":17654:17663   */\n      dup4\n        /* \"#utility.yul\":17650:17667   */\n      add\n        /* \"#utility.yul\":17643:17690   */\n      mstore\n        /* \"#utility.yul\":17707:17838   */\n      tag_336\n        /* \"#utility.yul\":17833:17837   */\n      dup2\n        /* \"#utility.yul\":17707:17838   */\n      tag_146\n      jump\t// in\n    tag_336:\n        /* \"#utility.yul\":17699:17838   */\n      swap1\n      pop\n        /* \"#utility.yul\":17426:17845   */\n      swap2\n      swap1\n      pop\n      jump\t// out\n        /* \"#utility.yul\":17851:17969   */\n    tag_147:\n        /* \"#utility.yul\":17938:17962   */\n      tag_338\n        /* \"#utility.yul\":17956:17961   */\n      dup2\n        /* \"#utility.yul\":17938:17962   */\n      tag_88\n      jump\t// in\n    tag_338:\n        /* \"#utility.yul\":17933:17936   */\n      dup3\n        /* \"#utility.yul\":17926:17963   */\n      mstore\n        /* \"#utility.yul\":17851:17969   */\n      pop\n      pop\n      jump\t// out\n        /* \"#utility.yul\":17975:18307   */\n    tag_76:\n        /* \"#utility.yul\":18096:18100   */\n      0x00\n        /* \"#utility.yul\":18134:18136   */\n      0x40\n        /* \"#utility.yul\":18123:18132   */\n      dup3\n        /* \"#utility.yul\":18119:18137   */\n      add\n        /* \"#utility.yul\":18111:18137   */\n      swap1\n      pop\n        /* \"#utility.yul\":18147:18218   */\n      tag_340\n        /* \"#utility.yul\":18215:18216   */\n      0x00\n        /* \"#utility.yul\":18204:18213   */\n      dup4\n        /* \"#utility.yul\":18200:18217   */\n      add\n        /* \"#utility.yul\":18191:18197   */\n      dup6\n        /* \"#utility.yul\":18147:18218   */\n      tag_147\n      jump\t// in\n    tag_340:\n        /* \"#utility.yul\":18228:18300   */\n      tag_341\n        /* \"#utility.yul\":18296:18298   */\n      0x20\n        /* \"#utility.yul\":18285:18294   */\n      dup4\n        /* \"#utility.yul\":18281:18299   */\n      add\n        /* \"#utility.yul\":18272:18278   */\n      dup5\n        /* \"#utility.yul\":18228:18300   */\n      tag_116\n      jump\t// in\n    tag_341:\n        /* \"#utility.yul\":17975:18307   */\n      swap4\n      swap3\n      pop\n      pop\n      pop\n      jump\t// out\n    stop\n\n    sub_0: assembly {\n            /* \"Campaign.sol\":5286:7509  contract Campaign {... */\n          mstore(0x40, 0x80)\n            /* \"Campaign.sol\":5791:5910  constructor(uint minimum, address creator) {... */\n          callvalue\n          dup1\n          iszero\n          tag_1\n          jumpi\n          0x00\n          dup1\n          revert\n        tag_1:\n          pop\n          mload(0x40)\n          sub(codesize, bytecodeSize)\n          dup1\n          bytecodeSize\n          dup4\n          codecopy\n          dup2\n          dup2\n          add\n          0x40\n          mstore\n          dup2\n          add\n          swap1\n          tag_2\n          swap2\n          swap1\n          tag_3\n          jump\t// in\n        tag_2:\n            /* \"Campaign.sol\":5855:5862  creator */\n          dup1\n            /* \"Campaign.sol\":5845:5852  manager */\n          0x01\n          0x00\n            /* \"Campaign.sol\":5845:5862  manager = creator */\n          0x0100\n          exp\n          dup2\n          sload\n          dup2\n          0xffffffffffffffffffffffffffffffffffffffff\n          mul\n          not\n          and\n          swap1\n          dup4\n          0xffffffffffffffffffffffffffffffffffffffff\n          and\n          mul\n          or\n          swap1\n          sstore\n          pop\n            /* \"Campaign.sol\":5895:5902  minimum */\n          dup2\n            /* \"Campaign.sol\":5873:5892  minimumContribution */\n          0x02\n            /* \"Campaign.sol\":5873:5902  minimumContribution = minimum */\n          dup2\n          swap1\n          sstore\n          pop\n            /* \"Campaign.sol\":5791:5910  constructor(uint minimum, address creator) {... */\n          pop\n          pop\n            /* \"Campaign.sol\":5286:7509  contract Campaign {... */\n          jump(tag_6)\n            /* \"#utility.yul\":88:205   */\n        tag_8:\n            /* \"#utility.yul\":197:198   */\n          0x00\n            /* \"#utility.yul\":194:195   */\n          dup1\n            /* \"#utility.yul\":187:199   */\n          revert\n            /* \"#utility.yul\":334:411   */\n        tag_10:\n            /* \"#utility.yul\":371:378   */\n          0x00\n            /* \"#utility.yul\":400:405   */\n          dup2\n            /* \"#utility.yul\":389:405   */\n          swap1\n          pop\n            /* \"#utility.yul\":334:411   */\n          swap2\n          swap1\n          pop\n          jump\t// out\n            /* \"#utility.yul\":417:539   */\n        tag_11:\n            /* \"#utility.yul\":490:514   */\n          tag_23\n            /* \"#utility.yul\":508:513   */\n          dup2\n            /* \"#utility.yul\":490:514   */\n          tag_10\n          jump\t// in\n        tag_23:\n            /* \"#utility.yul\":483:488   */\n          dup2\n            /* \"#utility.yul\":480:515   */\n          eq\n            /* \"#utility.yul\":470:533   */\n          tag_24\n          jumpi\n            /* \"#utility.yul\":529:530   */\n          0x00\n            /* \"#utility.yul\":526:527   */\n          dup1\n            /* \"#utility.yul\":519:531   */\n          revert\n            /* \"#utility.yul\":470:533   */\n        tag_24:\n            /* \"#utility.yul\":417:539   */\n          pop\n          jump\t// out\n            /* \"#utility.yul\":545:688   */\n        tag_12:\n            /* \"#utility.yul\":602:607   */\n          0x00\n            /* \"#utility.yul\":633:639   */\n          dup2\n            /* \"#utility.yul\":627:640   */\n          mload\n            /* \"#utility.yul\":618:640   */\n          swap1\n          pop\n            /* \"#utility.yul\":649:682   */\n          tag_26\n            /* \"#utility.yul\":676:681   */\n          dup2\n            /* \"#utility.yul\":649:682   */\n          tag_11\n          jump\t// in\n        tag_26:\n            /* \"#utility.yul\":545:688   */\n          swap3\n          swap2\n          pop\n          pop\n          jump\t// out\n            /* \"#utility.yul\":694:820   */\n        tag_13:\n            /* \"#utility.yul\":731:738   */\n          0x00\n            /* \"#utility.yul\":771:813   */\n          0xffffffffffffffffffffffffffffffffffffffff\n            /* \"#utility.yul\":764:769   */\n          dup3\n            /* \"#utility.yul\":760:814   */\n          and\n            /* \"#utility.yul\":749:814   */\n          swap1\n          pop\n            /* \"#utility.yul\":694:820   */\n          swap2\n          swap1\n          pop\n          jump\t// out\n            /* \"#utility.yul\":826:922   */\n        tag_14:\n            /* \"#utility.yul\":863:870   */\n          0x00\n            /* \"#utility.yul\":892:916   */\n          tag_29\n            /* \"#utility.yul\":910:915   */\n          dup3\n            /* \"#utility.yul\":892:916   */\n          tag_13\n          jump\t// in\n        tag_29:\n            /* \"#utility.yul\":881:916   */\n          swap1\n          pop\n            /* \"#utility.yul\":826:922   */\n          swap2\n          swap1\n          pop\n          jump\t// out\n            /* \"#utility.yul\":928:1050   */\n        tag_15:\n            /* \"#utility.yul\":1001:1025   */\n          tag_31\n            /* \"#utility.yul\":1019:1024   */\n          dup2\n            /* \"#utility.yul\":1001:1025   */\n          tag_14\n          jump\t// in\n        tag_31:\n            /* \"#utility.yul\":994:999   */\n          dup2\n            /* \"#utility.yul\":991:1026   */\n          eq\n            /* \"#utility.yul\":981:1044   */\n          tag_32\n          jumpi\n            /* \"#utility.yul\":1040:1041   */\n          0x00\n            /* \"#utility.yul\":1037:1038   */\n          dup1\n            /* \"#utility.yul\":1030:1042   */\n          revert\n            /* \"#utility.yul\":981:1044   */\n        tag_32:\n            /* \"#utility.yul\":928:1050   */\n          pop\n          jump\t// out\n            /* \"#utility.yul\":1056:1199   */\n        tag_16:\n            /* \"#utility.yul\":1113:1118   */\n          0x00\n            /* \"#utility.yul\":1144:1150   */\n          dup2\n            /* \"#utility.yul\":1138:1151   */\n          mload\n            /* \"#utility.yul\":1129:1151   */\n          swap1\n          pop\n            /* \"#utility.yul\":1160:1193   */\n          tag_34\n            /* \"#utility.yul\":1187:1192   */\n          dup2\n            /* \"#utility.yul\":1160:1193   */\n          tag_15\n          jump\t// in\n        tag_34:\n            /* \"#utility.yul\":1056:1199   */\n          swap3\n          swap2\n          pop\n          pop\n          jump\t// out\n            /* \"#utility.yul\":1205:1712   */\n        tag_3:\n            /* \"#utility.yul\":1284:1290   */\n          0x00\n            /* \"#utility.yul\":1292:1298   */\n          dup1\n            /* \"#utility.yul\":1341:1343   */\n          0x40\n            /* \"#utility.yul\":1329:1338   */\n          dup4\n            /* \"#utility.yul\":1320:1327   */\n          dup6\n            /* \"#utility.yul\":1316:1339   */\n          sub\n            /* \"#utility.yul\":1312:1344   */\n          slt\n            /* \"#utility.yul\":1309:1428   */\n          iszero\n          tag_36\n          jumpi\n            /* \"#utility.yul\":1347:1426   */\n          tag_37\n          tag_8\n          jump\t// in\n        tag_37:\n            /* \"#utility.yul\":1309:1428   */\n        tag_36:\n            /* \"#utility.yul\":1467:1468   */\n          0x00\n            /* \"#utility.yul\":1492:1556   */\n          tag_38\n            /* \"#utility.yul\":1548:1555   */\n          dup6\n            /* \"#utility.yul\":1539:1545   */\n          dup3\n            /* \"#utility.yul\":1528:1537   */\n          dup7\n            /* \"#utility.yul\":1524:1546   */\n          add\n            /* \"#utility.yul\":1492:1556   */\n          tag_12\n          jump\t// in\n        tag_38:\n            /* \"#utility.yul\":1482:1556   */\n          swap3\n          pop\n            /* \"#utility.yul\":1438:1566   */\n          pop\n            /* \"#utility.yul\":1605:1607   */\n          0x20\n            /* \"#utility.yul\":1631:1695   */\n          tag_39\n            /* \"#utility.yul\":1687:1694   */\n          dup6\n            /* \"#utility.yul\":1678:1684   */\n          dup3\n            /* \"#utility.yul\":1667:1676   */\n          dup7\n            /* \"#utility.yul\":1663:1685   */\n          add\n            /* \"#utility.yul\":1631:1695   */\n          tag_16\n          jump\t// in\n        tag_39:\n            /* \"#utility.yul\":1621:1695   */\n          swap2\n          pop\n            /* \"#utility.yul\":1576:1705   */\n          pop\n            /* \"#utility.yul\":1205:1712   */\n          swap3\n          pop\n          swap3\n          swap1\n          pop\n          jump\t// out\n            /* \"Campaign.sol\":5286:7509  contract Campaign {... */\n        tag_6:\n          dataSize(sub_0)\n          dup1\n          dataOffset(sub_0)\n          0x00\n          codecopy\n          0x00\n          return\n        stop\n\n        sub_0: assembly {\n                /* \"Campaign.sol\":5286:7509  contract Campaign {... */\n              mstore(0x40, 0x80)\n              jumpi(tag_1, lt(calldatasize, 0x04))\n              shr(0xe0, calldataload(0x00))\n              dup1\n              0x81d12c58\n              gt\n              tag_13\n              jumpi\n              dup1\n              0x81d12c58\n              eq\n              tag_7\n              jumpi\n              dup1\n              0x82fde093\n              eq\n              tag_8\n              jumpi\n              dup1\n              0x8a9cfd55\n              eq\n              tag_9\n              jumpi\n              dup1\n              0x937e09b1\n              eq\n              tag_10\n              jumpi\n              dup1\n              0xd7bb99ba\n              eq\n              tag_11\n              jumpi\n              dup1\n              0xd7d1bbdb\n              eq\n              tag_12\n              jumpi\n              jump(tag_1)\n            tag_13:\n              dup1\n              0x03441006\n              eq\n              tag_2\n              jumpi\n              dup1\n              0x0a144391\n              eq\n              tag_3\n              jumpi\n              dup1\n              0x3410452a\n              eq\n              tag_4\n              jumpi\n              dup1\n              0x4051ddac\n              eq\n              tag_5\n              jumpi\n              dup1\n              0x481c6a75\n              eq\n              tag_6\n              jumpi\n            tag_1:\n              0x00\n              dup1\n              revert\n                /* \"Campaign.sol\":6783:7098  function finalizeRequest(uint index) public restricted {... */\n            tag_2:\n              callvalue\n              dup1\n              iszero\n              tag_14\n              jumpi\n              0x00\n              dup1\n              revert\n            tag_14:\n              pop\n              tag_15\n              0x04\n              dup1\n              calldatasize\n              sub\n              dup2\n              add\n              swap1\n              tag_16\n              swap2\n              swap1\n              tag_17\n              jump\t// in\n            tag_16:\n              tag_18\n              jump\t// in\n            tag_15:\n              stop\n                /* \"Campaign.sol\":5617:5658  mapping(address => bool) public approvers */\n            tag_3:\n              callvalue\n              dup1\n              iszero\n              tag_19\n              jumpi\n              0x00\n              dup1\n              revert\n            tag_19:\n              pop\n              tag_20\n              0x04\n              dup1\n              calldatasize\n              sub\n              dup2\n              add\n              swap1\n              tag_21\n              swap2\n              swap1\n              tag_22\n              jump\t// in\n            tag_21:\n              tag_23\n              jump\t// in\n            tag_20:\n              mload(0x40)\n              tag_24\n              swap2\n              swap1\n              tag_25\n              jump\t// in\n            tag_24:\n              mload(0x40)\n              dup1\n              swap2\n              sub\n              swap1\n              return\n                /* \"Campaign.sol\":7410:7506  function getRequestsCount() public view returns (uint) {... */\n            tag_4:\n              callvalue\n              dup1\n              iszero\n              tag_26\n              jumpi\n              0x00\n              dup1\n              revert\n            tag_26:\n              pop\n              tag_27\n              tag_28\n              jump\t// in\n            tag_27:\n              mload(0x40)\n              tag_29\n              swap2\n              swap1\n              tag_30\n              jump\t// in\n            tag_29:\n              mload(0x40)\n              dup1\n              swap2\n              sub\n              swap1\n              return\n                /* \"Campaign.sol\":7106:7402  function getSummary()... */\n            tag_5:\n              callvalue\n              dup1\n              iszero\n              tag_31\n              jumpi\n              0x00\n              dup1\n              revert\n            tag_31:\n              pop\n              tag_32\n              tag_33\n              jump\t// in\n            tag_32:\n              mload(0x40)\n              tag_34\n              swap6\n              swap5\n              swap4\n              swap3\n              swap2\n              swap1\n              tag_35\n              jump\t// in\n            tag_34:\n              mload(0x40)\n              dup1\n              swap2\n              sub\n              swap1\n              return\n                /* \"Campaign.sol\":5550:5572  address public manager */\n            tag_6:\n              callvalue\n              dup1\n              iszero\n              tag_36\n              jumpi\n              0x00\n              dup1\n              revert\n            tag_36:\n              pop\n              tag_37\n              tag_38\n              jump\t// in\n            tag_37:\n              mload(0x40)\n              tag_39\n              swap2\n              swap1\n              tag_40\n              jump\t// in\n            tag_39:\n              mload(0x40)\n              dup1\n              swap2\n              sub\n              swap1\n              return\n                /* \"Campaign.sol\":5518:5543  Request[] public requests */\n            tag_7:\n              callvalue\n              dup1\n              iszero\n              tag_41\n              jumpi\n              0x00\n              dup1\n              revert\n            tag_41:\n              pop\n              tag_42\n              0x04\n              dup1\n              calldatasize\n              sub\n              dup2\n              add\n              swap1\n              tag_43\n              swap2\n              swap1\n              tag_17\n              jump\t// in\n            tag_43:\n              tag_44\n              jump\t// in\n            tag_42:\n              mload(0x40)\n              tag_45\n              swap6\n              swap5\n              swap4\n              swap3\n              swap2\n              swap1\n              tag_46\n              jump\t// in\n            tag_45:\n              mload(0x40)\n              dup1\n              swap2\n              sub\n              swap1\n              return\n                /* \"Campaign.sol\":5665:5691  uint public approversCount */\n            tag_8:\n              callvalue\n              dup1\n              iszero\n              tag_47\n              jumpi\n              0x00\n              dup1\n              revert\n            tag_47:\n              pop\n              tag_48\n              tag_49\n              jump\t// in\n            tag_48:\n              mload(0x40)\n              tag_50\n              swap2\n              swap1\n              tag_30\n              jump\t// in\n            tag_50:\n              mload(0x40)\n              dup1\n              swap2\n              sub\n              swap1\n              return\n                /* \"Campaign.sol\":6090:6488  function createRequest(... */\n            tag_9:\n              callvalue\n              dup1\n              iszero\n              tag_51\n              jumpi\n              0x00\n              dup1\n              revert\n            tag_51:\n              pop\n              tag_52\n              0x04\n              dup1\n              calldatasize\n              sub\n              dup2\n              add\n              swap1\n              tag_53\n              swap2\n              swap1\n              tag_54\n              jump\t// in\n            tag_53:\n              tag_55\n              jump\t// in\n            tag_52:\n              stop\n                /* \"Campaign.sol\":5579:5610  uint public minimumContribution */\n            tag_10:\n              callvalue\n              dup1\n              iszero\n              tag_56\n              jumpi\n              0x00\n              dup1\n              revert\n            tag_56:\n              pop\n              tag_57\n              tag_58\n              jump\t// in\n            tag_57:\n              mload(0x40)\n              tag_59\n              swap2\n              swap1\n              tag_30\n              jump\t// in\n            tag_59:\n              mload(0x40)\n              dup1\n              swap2\n              sub\n              swap1\n              return\n                /* \"Campaign.sol\":5918:6082  function contribute() public payable {... */\n            tag_11:\n              tag_60\n              tag_61\n              jump\t// in\n            tag_60:\n              stop\n                /* \"Campaign.sol\":6496:6775  function approveRequest(uint index) public {... */\n            tag_12:\n              callvalue\n              dup1\n              iszero\n              tag_62\n              jumpi\n              0x00\n              dup1\n              revert\n            tag_62:\n              pop\n              tag_63\n              0x04\n              dup1\n              calldatasize\n              sub\n              dup2\n              add\n              swap1\n              tag_64\n              swap2\n              swap1\n              tag_17\n              jump\t// in\n            tag_64:\n              tag_65\n              jump\t// in\n            tag_63:\n              stop\n                /* \"Campaign.sol\":6783:7098  function finalizeRequest(uint index) public restricted {... */\n            tag_18:\n                /* \"Campaign.sol\":5755:5762  manager */\n              0x01\n              0x00\n              swap1\n              sload\n              swap1\n              0x0100\n              exp\n              swap1\n              div\n              0xffffffffffffffffffffffffffffffffffffffff\n              and\n                /* \"Campaign.sol\":5741:5762  msg.sender == manager */\n              0xffffffffffffffffffffffffffffffffffffffff\n              and\n                /* \"Campaign.sol\":5741:5751  msg.sender */\n              caller\n                /* \"Campaign.sol\":5741:5762  msg.sender == manager */\n              0xffffffffffffffffffffffffffffffffffffffff\n              and\n              eq\n                /* \"Campaign.sol\":5733:5763  require(msg.sender == manager) */\n              tag_67\n              jumpi\n              0x00\n              dup1\n              revert\n            tag_67:\n                /* \"Campaign.sol\":6849:6872  Request storage request */\n              0x00\n                /* \"Campaign.sol\":6875:6883  requests */\n              dup1\n                /* \"Campaign.sol\":6884:6889  index */\n              dup3\n                /* \"Campaign.sol\":6875:6890  requests[index] */\n              dup2\n              sload\n              dup2\n              lt\n              tag_69\n              jumpi\n              tag_70\n              tag_71\n              jump\t// in\n            tag_70:\n            tag_69:\n              swap1\n              0x00\n              mstore\n              keccak256(0x00, 0x20)\n              swap1\n              0x05\n              mul\n              add\n                /* \"Campaign.sol\":6849:6890  Request storage request = requests[index] */\n              swap1\n              pop\n                /* \"Campaign.sol\":6953:6954  2 */\n              0x02\n                /* \"Campaign.sol\":6936:6950  approversCount */\n              sload(0x04)\n                /* \"Campaign.sol\":6936:6954  approversCount / 2 */\n              tag_73\n              swap2\n              swap1\n              tag_74\n              jump\t// in\n            tag_73:\n                /* \"Campaign.sol\":6911:6918  request */\n              dup2\n                /* \"Campaign.sol\":6911:6932  request.approvalCount */\n              0x03\n              add\n              sload\n                /* \"Campaign.sol\":6911:6955  request.approvalCount > (approversCount / 2) */\n              gt\n                /* \"Campaign.sol\":6903:6956  require(request.approvalCount > (approversCount / 2)) */\n              tag_75\n              jumpi\n              0x00\n              dup1\n              revert\n            tag_75:\n                /* \"Campaign.sol\":6976:6983  request */\n              dup1\n                /* \"Campaign.sol\":6976:6992  request.complete */\n              0x02\n              add\n              0x14\n              swap1\n              sload\n              swap1\n              0x0100\n              exp\n              swap1\n              div\n              0xff\n              and\n                /* \"Campaign.sol\":6975:6992  !request.complete */\n              iszero\n                /* \"Campaign.sol\":6967:6993  require(!request.complete) */\n              tag_76\n              jumpi\n              0x00\n              dup1\n              revert\n            tag_76:\n                /* \"Campaign.sol\":7014:7021  request */\n              dup1\n                /* \"Campaign.sol\":7014:7031  request.recipient */\n              0x02\n              add\n              0x00\n              swap1\n              sload\n              swap1\n              0x0100\n              exp\n              swap1\n              div\n              0xffffffffffffffffffffffffffffffffffffffff\n              and\n                /* \"Campaign.sol\":7006:7041  payable(request.recipient).transfer */\n              0xffffffffffffffffffffffffffffffffffffffff\n              and\n                /* \"Campaign.sol\":7006:7056  payable(request.recipient).transfer(request.value) */\n              0x08fc\n                /* \"Campaign.sol\":7042:7049  request */\n              dup3\n                /* \"Campaign.sol\":7042:7055  request.value */\n              0x01\n              add\n              sload\n                /* \"Campaign.sol\":7006:7056  payable(request.recipient).transfer(request.value) */\n              swap1\n              dup2\n              iszero\n              mul\n              swap1\n              mload(0x40)\n              0x00\n              mload(0x40)\n              dup1\n              dup4\n              sub\n              dup2\n              dup6\n              dup9\n              dup9\n              call\n              swap4\n              pop\n              pop\n              pop\n              pop\n              iszero\n              dup1\n              iszero\n              tag_78\n              jumpi\n              returndatasize\n              0x00\n              dup1\n              returndatacopy\n              revert(0x00, returndatasize)\n            tag_78:\n              pop\n                /* \"Campaign.sol\":7086:7090  true */\n              0x01\n                /* \"Campaign.sol\":7067:7074  request */\n              dup2\n                /* \"Campaign.sol\":7067:7083  request.complete */\n              0x02\n              add\n              0x14\n                /* \"Campaign.sol\":7067:7090  request.complete = true */\n              0x0100\n              exp\n              dup2\n              sload\n              dup2\n              0xff\n              mul\n              not\n              and\n              swap1\n              dup4\n              iszero\n              iszero\n              mul\n              or\n              swap1\n              sstore\n              pop\n                /* \"Campaign.sol\":6838:7098  {... */\n              pop\n                /* \"Campaign.sol\":6783:7098  function finalizeRequest(uint index) public restricted {... */\n              pop\n              jump\t// out\n                /* \"Campaign.sol\":5617:5658  mapping(address => bool) public approvers */\n            tag_23:\n              mstore(0x20, 0x03)\n              dup1\n              0x00\n              mstore\n              keccak256(0x00, 0x40)\n              0x00\n              swap2\n              pop\n              sload\n              swap1\n              0x0100\n              exp\n              swap1\n              div\n              0xff\n              and\n              dup2\n              jump\t// out\n                /* \"Campaign.sol\":7410:7506  function getRequestsCount() public view returns (uint) {... */\n            tag_28:\n                /* \"Campaign.sol\":7459:7463  uint */\n              0x00\n                /* \"Campaign.sol\":7483:7491  requests */\n              dup1\n                /* \"Campaign.sol\":7483:7498  requests.length */\n              dup1\n              sload\n              swap1\n              pop\n                /* \"Campaign.sol\":7476:7498  return requests.length */\n              swap1\n              pop\n                /* \"Campaign.sol\":7410:7506  function getRequestsCount() public view returns (uint) {... */\n              swap1\n              jump\t// out\n                /* \"Campaign.sol\":7106:7402  function getSummary()... */\n            tag_33:\n                /* \"Campaign.sol\":7176:7180  uint */\n              0x00\n                /* \"Campaign.sol\":7182:7186  uint */\n              dup1\n                /* \"Campaign.sol\":7188:7192  uint */\n              0x00\n                /* \"Campaign.sol\":7194:7198  uint */\n              dup1\n                /* \"Campaign.sol\":7200:7207  address */\n              0x00\n                /* \"Campaign.sol\":7247:7266  minimumContribution */\n              sload(0x02)\n                /* \"Campaign.sol\":7281:7302  address(this).balance */\n              selfbalance\n                /* \"Campaign.sol\":7317:7325  requests */\n              0x00\n                /* \"Campaign.sol\":7317:7332  requests.length */\n              dup1\n              sload\n              swap1\n              pop\n                /* \"Campaign.sol\":7347:7361  approversCount */\n              sload(0x04)\n                /* \"Campaign.sol\":7376:7383  manager */\n              0x01\n              0x00\n              swap1\n              sload\n              swap1\n              0x0100\n              exp\n              swap1\n              div\n              0xffffffffffffffffffffffffffffffffffffffff\n              and\n                /* \"Campaign.sol\":7225:7394  return (... */\n              swap5\n              pop\n              swap5\n              pop\n              swap5\n              pop\n              swap5\n              pop\n              swap5\n              pop\n                /* \"Campaign.sol\":7106:7402  function getSummary()... */\n              swap1\n              swap2\n              swap3\n              swap4\n              swap5\n              jump\t// out\n                /* \"Campaign.sol\":5550:5572  address public manager */\n            tag_38:\n              0x01\n              0x00\n              swap1\n              sload\n              swap1\n              0x0100\n              exp\n              swap1\n              div\n              0xffffffffffffffffffffffffffffffffffffffff\n              and\n              dup2\n              jump\t// out\n                /* \"Campaign.sol\":5518:5543  Request[] public requests */\n            tag_44:\n              0x00\n              dup2\n              dup2\n              sload\n              dup2\n              lt\n              tag_81\n              jumpi\n              0x00\n              dup1\n              revert\n            tag_81:\n              swap1\n              0x00\n              mstore\n              keccak256(0x00, 0x20)\n              swap1\n              0x05\n              mul\n              add\n              0x00\n              swap2\n              pop\n              swap1\n              pop\n              dup1\n              0x00\n              add\n              dup1\n              sload\n              tag_83\n              swap1\n              tag_84\n              jump\t// in\n            tag_83:\n              dup1\n              0x1f\n              add\n              0x20\n              dup1\n              swap2\n              div\n              mul\n              0x20\n              add\n              mload(0x40)\n              swap1\n              dup2\n              add\n              0x40\n              mstore\n              dup1\n              swap3\n              swap2\n              swap1\n              dup2\n              dup2\n              mstore\n              0x20\n              add\n              dup3\n              dup1\n              sload\n              tag_85\n              swap1\n              tag_84\n              jump\t// in\n            tag_85:\n              dup1\n              iszero\n              tag_86\n              jumpi\n              dup1\n              0x1f\n              lt\n              tag_87\n              jumpi\n              0x0100\n              dup1\n              dup4\n              sload\n              div\n              mul\n              dup4\n              mstore\n              swap2\n              0x20\n              add\n              swap2\n              jump(tag_86)\n            tag_87:\n              dup3\n              add\n              swap2\n              swap1\n              0x00\n              mstore\n              keccak256(0x00, 0x20)\n              swap1\n            tag_88:\n              dup2\n              sload\n              dup2\n              mstore\n              swap1\n              0x01\n              add\n              swap1\n              0x20\n              add\n              dup1\n              dup4\n              gt\n              tag_88\n              jumpi\n              dup3\n              swap1\n              sub\n              0x1f\n              and\n              dup3\n              add\n              swap2\n            tag_86:\n              pop\n              pop\n              pop\n              pop\n              pop\n              swap1\n              dup1\n              0x01\n              add\n              sload\n              swap1\n              dup1\n              0x02\n              add\n              0x00\n              swap1\n              sload\n              swap1\n              0x0100\n              exp\n              swap1\n              div\n              0xffffffffffffffffffffffffffffffffffffffff\n              and\n              swap1\n              dup1\n              0x02\n              add\n              0x14\n              swap1\n              sload\n              swap1\n              0x0100\n              exp\n              swap1\n              div\n              0xff\n              and\n              swap1\n              dup1\n              0x03\n              add\n              sload\n              swap1\n              pop\n              dup6\n              jump\t// out\n                /* \"Campaign.sol\":5665:5691  uint public approversCount */\n            tag_49:\n              sload(0x04)\n              dup2\n              jump\t// out\n                /* \"Campaign.sol\":6090:6488  function createRequest(... */\n            tag_55:\n                /* \"Campaign.sol\":5755:5762  manager */\n              0x01\n              0x00\n              swap1\n              sload\n              swap1\n              0x0100\n              exp\n              swap1\n              div\n              0xffffffffffffffffffffffffffffffffffffffff\n              and\n                /* \"Campaign.sol\":5741:5762  msg.sender == manager */\n              0xffffffffffffffffffffffffffffffffffffffff\n              and\n                /* \"Campaign.sol\":5741:5751  msg.sender */\n              caller\n                /* \"Campaign.sol\":5741:5762  msg.sender == manager */\n              0xffffffffffffffffffffffffffffffffffffffff\n              and\n              eq\n                /* \"Campaign.sol\":5733:5763  require(msg.sender == manager) */\n              tag_90\n              jumpi\n              0x00\n              dup1\n              revert\n            tag_90:\n                /* \"Campaign.sol\":6234:6260  Request storage newRequest */\n              0x00\n                /* \"Campaign.sol\":6263:6271  requests */\n              dup1\n                /* \"Campaign.sol\":6263:6278  requests.push() */\n              0x01\n              dup2\n              0x01\n              dup2\n              sload\n              add\n              dup1\n              dup3\n              sstore\n              dup1\n              swap2\n              pop\n              pop\n              sub\n              swap1\n              0x00\n              mstore\n              keccak256(0x00, 0x20)\n              swap1\n              0x05\n              mul\n              add\n                /* \"Campaign.sol\":6234:6278  Request storage newRequest = requests.push() */\n              swap1\n              pop\n                /* \"Campaign.sol\":6314:6325  description */\n              dup4\n                /* \"Campaign.sol\":6289:6299  newRequest */\n              dup2\n                /* \"Campaign.sol\":6289:6311  newRequest.description */\n              0x00\n              add\n                /* \"Campaign.sol\":6289:6325  newRequest.description = description */\n              swap1\n              dup2\n              tag_93\n              swap2\n              swap1\n              tag_94\n              jump\t// in\n            tag_93:\n              pop\n                /* \"Campaign.sol\":6355:6360  value */\n              dup3\n                /* \"Campaign.sol\":6336:6346  newRequest */\n              dup2\n                /* \"Campaign.sol\":6336:6352  newRequest.value */\n              0x01\n              add\n                /* \"Campaign.sol\":6336:6360  newRequest.value = value */\n              dup2\n              swap1\n              sstore\n              pop\n                /* \"Campaign.sol\":6394:6403  recipient */\n              dup2\n                /* \"Campaign.sol\":6371:6381  newRequest */\n              dup2\n                /* \"Campaign.sol\":6371:6391  newRequest.recipient */\n              0x02\n              add\n              0x00\n                /* \"Campaign.sol\":6371:6403  newRequest.recipient = recipient */\n              0x0100\n              exp\n              dup2\n              sload\n              dup2\n              0xffffffffffffffffffffffffffffffffffffffff\n              mul\n              not\n              and\n              swap1\n              dup4\n              0xffffffffffffffffffffffffffffffffffffffff\n              and\n              mul\n              or\n              swap1\n              sstore\n              pop\n                /* \"Campaign.sol\":6436:6441  false */\n              0x00\n                /* \"Campaign.sol\":6414:6424  newRequest */\n              dup2\n                /* \"Campaign.sol\":6414:6433  newRequest.complete */\n              0x02\n              add\n              0x14\n                /* \"Campaign.sol\":6414:6441  newRequest.complete = false */\n              0x0100\n              exp\n              dup2\n              sload\n              dup2\n              0xff\n              mul\n              not\n              and\n              swap1\n              dup4\n              iszero\n              iszero\n              mul\n              or\n              swap1\n              sstore\n              pop\n                /* \"Campaign.sol\":6479:6480  0 */\n              0x00\n                /* \"Campaign.sol\":6452:6462  newRequest */\n              dup2\n                /* \"Campaign.sol\":6452:6476  newRequest.approvalCount */\n              0x03\n              add\n                /* \"Campaign.sol\":6452:6480  newRequest.approvalCount = 0 */\n              dup2\n              swap1\n              sstore\n              pop\n                /* \"Campaign.sol\":6223:6488  {... */\n              pop\n                /* \"Campaign.sol\":6090:6488  function createRequest(... */\n              pop\n              pop\n              pop\n              jump\t// out\n                /* \"Campaign.sol\":5579:5610  uint public minimumContribution */\n            tag_58:\n              sload(0x02)\n              dup2\n              jump\t// out\n                /* \"Campaign.sol\":5918:6082  function contribute() public payable {... */\n            tag_61:\n                /* \"Campaign.sol\":5986:6005  minimumContribution */\n              sload(0x02)\n                /* \"Campaign.sol\":5974:5983  msg.value */\n              callvalue\n                /* \"Campaign.sol\":5974:6005  msg.value > minimumContribution */\n              gt\n                /* \"Campaign.sol\":5966:6006  require(msg.value > minimumContribution) */\n              tag_96\n              jumpi\n              0x00\n              dup1\n              revert\n            tag_96:\n                /* \"Campaign.sol\":6043:6047  true */\n              0x01\n                /* \"Campaign.sol\":6019:6028  approvers */\n              0x03\n                /* \"Campaign.sol\":6019:6040  approvers[msg.sender] */\n              0x00\n                /* \"Campaign.sol\":6029:6039  msg.sender */\n              caller\n                /* \"Campaign.sol\":6019:6040  approvers[msg.sender] */\n              0xffffffffffffffffffffffffffffffffffffffff\n              and\n              0xffffffffffffffffffffffffffffffffffffffff\n              and\n              dup2\n              mstore\n              0x20\n              add\n              swap1\n              dup2\n              mstore\n              0x20\n              add\n              0x00\n              keccak256\n              0x00\n                /* \"Campaign.sol\":6019:6047  approvers[msg.sender] = true */\n              0x0100\n              exp\n              dup2\n              sload\n              dup2\n              0xff\n              mul\n              not\n              and\n              swap1\n              dup4\n              iszero\n              iszero\n              mul\n              or\n              swap1\n              sstore\n              pop\n                /* \"Campaign.sol\":6058:6072  approversCount */\n              0x04\n              0x00\n                /* \"Campaign.sol\":6058:6074  approversCount++ */\n              dup2\n              sload\n              dup1\n              swap3\n              swap2\n              swap1\n              tag_97\n              swap1\n              tag_98\n              jump\t// in\n            tag_97:\n              swap2\n              swap1\n              pop\n              sstore\n              pop\n                /* \"Campaign.sol\":5918:6082  function contribute() public payable {... */\n              jump\t// out\n                /* \"Campaign.sol\":6496:6775  function approveRequest(uint index) public {... */\n            tag_65:\n                /* \"Campaign.sol\":6550:6573  Request storage request */\n              0x00\n                /* \"Campaign.sol\":6576:6584  requests */\n              dup1\n                /* \"Campaign.sol\":6585:6590  index */\n              dup3\n                /* \"Campaign.sol\":6576:6591  requests[index] */\n              dup2\n              sload\n              dup2\n              lt\n              tag_100\n              jumpi\n              tag_101\n              tag_71\n              jump\t// in\n            tag_101:\n            tag_100:\n              swap1\n              0x00\n              mstore\n              keccak256(0x00, 0x20)\n              swap1\n              0x05\n              mul\n              add\n                /* \"Campaign.sol\":6550:6591  Request storage request = requests[index] */\n              swap1\n              pop\n                /* \"Campaign.sol\":6612:6621  approvers */\n              0x03\n                /* \"Campaign.sol\":6612:6633  approvers[msg.sender] */\n              0x00\n                /* \"Campaign.sol\":6622:6632  msg.sender */\n              caller\n                /* \"Campaign.sol\":6612:6633  approvers[msg.sender] */\n              0xffffffffffffffffffffffffffffffffffffffff\n              and\n              0xffffffffffffffffffffffffffffffffffffffff\n              and\n              dup2\n              mstore\n              0x20\n              add\n              swap1\n              dup2\n              mstore\n              0x20\n              add\n              0x00\n              keccak256\n              0x00\n              swap1\n              sload\n              swap1\n              0x0100\n              exp\n              swap1\n              div\n              0xff\n              and\n                /* \"Campaign.sol\":6604:6634  require(approvers[msg.sender]) */\n              tag_103\n              jumpi\n              0x00\n              dup1\n              revert\n            tag_103:\n                /* \"Campaign.sol\":6654:6661  request */\n              dup1\n                /* \"Campaign.sol\":6654:6671  request.approvals */\n              0x04\n              add\n                /* \"Campaign.sol\":6654:6683  request.approvals[msg.sender] */\n              0x00\n                /* \"Campaign.sol\":6672:6682  msg.sender */\n              caller\n                /* \"Campaign.sol\":6654:6683  request.approvals[msg.sender] */\n              0xffffffffffffffffffffffffffffffffffffffff\n              and\n              0xffffffffffffffffffffffffffffffffffffffff\n              and\n              dup2\n              mstore\n              0x20\n              add\n              swap1\n              dup2\n              mstore\n              0x20\n              add\n              0x00\n              keccak256\n              0x00\n              swap1\n              sload\n              swap1\n              0x0100\n              exp\n              swap1\n              div\n              0xff\n              and\n                /* \"Campaign.sol\":6653:6683  !request.approvals[msg.sender] */\n              iszero\n                /* \"Campaign.sol\":6645:6684  require(!request.approvals[msg.sender]) */\n              tag_104\n              jumpi\n              0x00\n              dup1\n              revert\n            tag_104:\n                /* \"Campaign.sol\":6729:6733  true */\n              0x01\n                /* \"Campaign.sol\":6697:6704  request */\n              dup2\n                /* \"Campaign.sol\":6697:6714  request.approvals */\n              0x04\n              add\n                /* \"Campaign.sol\":6697:6726  request.approvals[msg.sender] */\n              0x00\n                /* \"Campaign.sol\":6715:6725  msg.sender */\n              caller\n                /* \"Campaign.sol\":6697:6726  request.approvals[msg.sender] */\n              0xffffffffffffffffffffffffffffffffffffffff\n              and\n              0xffffffffffffffffffffffffffffffffffffffff\n              and\n              dup2\n              mstore\n              0x20\n              add\n              swap1\n              dup2\n              mstore\n              0x20\n              add\n              0x00\n              keccak256\n              0x00\n                /* \"Campaign.sol\":6697:6733  request.approvals[msg.sender] = true */\n              0x0100\n              exp\n              dup2\n              sload\n              dup2\n              0xff\n              mul\n              not\n              and\n              swap1\n              dup4\n              iszero\n              iszero\n              mul\n              or\n              swap1\n              sstore\n              pop\n                /* \"Campaign.sol\":6744:6751  request */\n              dup1\n                /* \"Campaign.sol\":6744:6765  request.approvalCount */\n              0x03\n              add\n              0x00\n                /* \"Campaign.sol\":6744:6767  request.approvalCount++ */\n              dup2\n              sload\n              dup1\n              swap3\n              swap2\n              swap1\n              tag_105\n              swap1\n              tag_98\n              jump\t// in\n            tag_105:\n              swap2\n              swap1\n              pop\n              sstore\n              pop\n                /* \"Campaign.sol\":6539:6775  {... */\n              pop\n                /* \"Campaign.sol\":6496:6775  function approveRequest(uint index) public {... */\n              pop\n              jump\t// out\n                /* \"#utility.yul\":7:82   */\n            tag_106:\n                /* \"#utility.yul\":40:46   */\n              0x00\n                /* \"#utility.yul\":73:75   */\n              0x40\n                /* \"#utility.yul\":67:76   */\n              mload\n                /* \"#utility.yul\":57:76   */\n              swap1\n              pop\n                /* \"#utility.yul\":7:82   */\n              swap1\n              jump\t// out\n                /* \"#utility.yul\":88:205   */\n            tag_107:\n                /* \"#utility.yul\":197:198   */\n              0x00\n                /* \"#utility.yul\":194:195   */\n              dup1\n                /* \"#utility.yul\":187:199   */\n              revert\n                /* \"#utility.yul\":211:328   */\n            tag_108:\n                /* \"#utility.yul\":320:321   */\n              0x00\n                /* \"#utility.yul\":317:318   */\n              dup1\n                /* \"#utility.yul\":310:322   */\n              revert\n                /* \"#utility.yul\":334:411   */\n            tag_109:\n                /* \"#utility.yul\":371:378   */\n              0x00\n                /* \"#utility.yul\":400:405   */\n              dup2\n                /* \"#utility.yul\":389:405   */\n              swap1\n              pop\n                /* \"#utility.yul\":334:411   */\n              swap2\n              swap1\n              pop\n              jump\t// out\n                /* \"#utility.yul\":417:539   */\n            tag_110:\n                /* \"#utility.yul\":490:514   */\n              tag_158\n                /* \"#utility.yul\":508:513   */\n              dup2\n                /* \"#utility.yul\":490:514   */\n              tag_109\n              jump\t// in\n            tag_158:\n                /* \"#utility.yul\":483:488   */\n              dup2\n                /* \"#utility.yul\":480:515   */\n              eq\n                /* \"#utility.yul\":470:533   */\n              tag_159\n              jumpi\n                /* \"#utility.yul\":529:530   */\n              0x00\n                /* \"#utility.yul\":526:527   */\n              dup1\n                /* \"#utility.yul\":519:531   */\n              revert\n                /* \"#utility.yul\":470:533   */\n            tag_159:\n                /* \"#utility.yul\":417:539   */\n              pop\n              jump\t// out\n                /* \"#utility.yul\":545:684   */\n            tag_111:\n                /* \"#utility.yul\":591:596   */\n              0x00\n                /* \"#utility.yul\":629:635   */\n              dup2\n                /* \"#utility.yul\":616:636   */\n              calldataload\n                /* \"#utility.yul\":607:636   */\n              swap1\n              pop\n                /* \"#utility.yul\":645:678   */\n              tag_161\n                /* \"#utility.yul\":672:677   */\n              dup2\n                /* \"#utility.yul\":645:678   */\n              tag_110\n              jump\t// in\n            tag_161:\n                /* \"#utility.yul\":545:684   */\n              swap3\n              swap2\n              pop\n              pop\n              jump\t// out\n                /* \"#utility.yul\":690:1019   */\n            tag_17:\n                /* \"#utility.yul\":749:755   */\n              0x00\n                /* \"#utility.yul\":798:800   */\n              0x20\n                /* \"#utility.yul\":786:795   */\n              dup3\n                /* \"#utility.yul\":777:784   */\n              dup5\n                /* \"#utility.yul\":773:796   */\n              sub\n                /* \"#utility.yul\":769:801   */\n              slt\n                /* \"#utility.yul\":766:885   */\n              iszero\n              tag_163\n              jumpi\n                /* \"#utility.yul\":804:883   */\n              tag_164\n              tag_107\n              jump\t// in\n            tag_164:\n                /* \"#utility.yul\":766:885   */\n            tag_163:\n                /* \"#utility.yul\":924:925   */\n              0x00\n                /* \"#utility.yul\":949:1002   */\n              tag_165\n                /* \"#utility.yul\":994:1001   */\n              dup5\n                /* \"#utility.yul\":985:991   */\n              dup3\n                /* \"#utility.yul\":974:983   */\n              dup6\n                /* \"#utility.yul\":970:992   */\n              add\n                /* \"#utility.yul\":949:1002   */\n              tag_111\n              jump\t// in\n            tag_165:\n                /* \"#utility.yul\":939:1002   */\n              swap2\n              pop\n                /* \"#utility.yul\":895:1012   */\n              pop\n                /* \"#utility.yul\":690:1019   */\n              swap3\n              swap2\n              pop\n              pop\n              jump\t// out\n                /* \"#utility.yul\":1025:1151   */\n            tag_112:\n                /* \"#utility.yul\":1062:1069   */\n              0x00\n                /* \"#utility.yul\":1102:1144   */\n              0xffffffffffffffffffffffffffffffffffffffff\n                /* \"#utility.yul\":1095:1100   */\n              dup3\n                /* \"#utility.yul\":1091:1145   */\n              and\n                /* \"#utility.yul\":1080:1145   */\n              swap1\n              pop\n                /* \"#utility.yul\":1025:1151   */\n              swap2\n              swap1\n              pop\n              jump\t// out\n                /* \"#utility.yul\":1157:1253   */\n            tag_113:\n                /* \"#utility.yul\":1194:1201   */\n              0x00\n                /* \"#utility.yul\":1223:1247   */\n              tag_168\n                /* \"#utility.yul\":1241:1246   */\n              dup3\n                /* \"#utility.yul\":1223:1247   */\n              tag_112\n              jump\t// in\n            tag_168:\n                /* \"#utility.yul\":1212:1247   */\n              swap1\n              pop\n                /* \"#utility.yul\":1157:1253   */\n              swap2\n              swap1\n              pop\n              jump\t// out\n                /* \"#utility.yul\":1259:1381   */\n            tag_114:\n                /* \"#utility.yul\":1332:1356   */\n              tag_170\n                /* \"#utility.yul\":1350:1355   */\n              dup2\n                /* \"#utility.yul\":1332:1356   */\n              tag_113\n              jump\t// in\n            tag_170:\n                /* \"#utility.yul\":1325:1330   */\n              dup2\n                /* \"#utility.yul\":1322:1357   */\n              eq\n                /* \"#utility.yul\":1312:1375   */\n              tag_171\n              jumpi\n                /* \"#utility.yul\":1371:1372   */\n              0x00\n                /* \"#utility.yul\":1368:1369   */\n              dup1\n                /* \"#utility.yul\":1361:1373   */\n              revert\n                /* \"#utility.yul\":1312:1375   */\n            tag_171:\n                /* \"#utility.yul\":1259:1381   */\n              pop\n              jump\t// out\n                /* \"#utility.yul\":1387:1526   */\n            tag_115:\n                /* \"#utility.yul\":1433:1438   */\n              0x00\n                /* \"#utility.yul\":1471:1477   */\n              dup2\n                /* \"#utility.yul\":1458:1478   */\n              calldataload\n                /* \"#utility.yul\":1449:1478   */\n              swap1\n              pop\n                /* \"#utility.yul\":1487:1520   */\n              tag_173\n                /* \"#utility.yul\":1514:1519   */\n              dup2\n                /* \"#utility.yul\":1487:1520   */\n              tag_114\n              jump\t// in\n            tag_173:\n                /* \"#utility.yul\":1387:1526   */\n              swap3\n              swap2\n              pop\n              pop\n              jump\t// out\n                /* \"#utility.yul\":1532:1861   */\n            tag_22:\n                /* \"#utility.yul\":1591:1597   */\n              0x00\n                /* \"#utility.yul\":1640:1642   */\n              0x20\n                /* \"#utility.yul\":1628:1637   */\n              dup3\n                /* \"#utility.yul\":1619:1626   */\n              dup5\n                /* \"#utility.yul\":1615:1638   */\n              sub\n                /* \"#utility.yul\":1611:1643   */\n              slt\n                /* \"#utility.yul\":1608:1727   */\n              iszero\n              tag_175\n              jumpi\n                /* \"#utility.yul\":1646:1725   */\n              tag_176\n              tag_107\n              jump\t// in\n            tag_176:\n                /* \"#utility.yul\":1608:1727   */\n            tag_175:\n                /* \"#utility.yul\":1766:1767   */\n              0x00\n                /* \"#utility.yul\":1791:1844   */\n              tag_177\n                /* \"#utility.yul\":1836:1843   */\n              dup5\n                /* \"#utility.yul\":1827:1833   */\n              dup3\n                /* \"#utility.yul\":1816:1825   */\n              dup6\n                /* \"#utility.yul\":1812:1834   */\n              add\n                /* \"#utility.yul\":1791:1844   */\n              tag_115\n              jump\t// in\n            tag_177:\n                /* \"#utility.yul\":1781:1844   */\n              swap2\n              pop\n                /* \"#utility.yul\":1737:1854   */\n              pop\n                /* \"#utility.yul\":1532:1861   */\n              swap3\n              swap2\n              pop\n              pop\n              jump\t// out\n                /* \"#utility.yul\":1867:1957   */\n            tag_116:\n                /* \"#utility.yul\":1901:1908   */\n              0x00\n                /* \"#utility.yul\":1944:1949   */\n              dup2\n                /* \"#utility.yul\":1937:1950   */\n              iszero\n                /* \"#utility.yul\":1930:1951   */\n              iszero\n                /* \"#utility.yul\":1919:1951   */\n              swap1\n              pop\n                /* \"#utility.yul\":1867:1957   */\n              swap2\n              swap1\n              pop\n              jump\t// out\n                /* \"#utility.yul\":1963:2072   */\n            tag_117:\n                /* \"#utility.yul\":2044:2065   */\n              tag_180\n                /* \"#utility.yul\":2059:2064   */\n              dup2\n                /* \"#utility.yul\":2044:2065   */\n              tag_116\n              jump\t// in\n            tag_180:\n                /* \"#utility.yul\":2039:2042   */\n              dup3\n                /* \"#utility.yul\":2032:2066   */\n              mstore\n                /* \"#utility.yul\":1963:2072   */\n              pop\n              pop\n              jump\t// out\n                /* \"#utility.yul\":2078:2288   */\n            tag_25:\n                /* \"#utility.yul\":2165:2169   */\n              0x00\n                /* \"#utility.yul\":2203:2205   */\n              0x20\n                /* \"#utility.yul\":2192:2201   */\n              dup3\n                /* \"#utility.yul\":2188:2206   */\n              add\n                /* \"#utility.yul\":2180:2206   */\n              swap1\n              pop\n                /* \"#utility.yul\":2216:2281   */\n              tag_182\n                /* \"#utility.yul\":2278:2279   */\n              0x00\n                /* \"#utility.yul\":2267:2276   */\n              dup4\n                /* \"#utility.yul\":2263:2280   */\n              add\n                /* \"#utility.yul\":2254:2260   */\n              dup5\n                /* \"#utility.yul\":2216:2281   */\n              tag_117\n              jump\t// in\n            tag_182:\n                /* \"#utility.yul\":2078:2288   */\n              swap3\n              swap2\n              pop\n              pop\n              jump\t// out\n                /* \"#utility.yul\":2294:2412   */\n            tag_118:\n                /* \"#utility.yul\":2381:2405   */\n              tag_184\n                /* \"#utility.yul\":2399:2404   */\n              dup2\n                /* \"#utility.yul\":2381:2405   */\n              tag_109\n              jump\t// in\n            tag_184:\n                /* \"#utility.yul\":2376:2379   */\n              dup3\n                /* \"#utility.yul\":2369:2406   */\n              mstore\n                /* \"#utility.yul\":2294:2412   */\n              pop\n              pop\n              jump\t// out\n                /* \"#utility.yul\":2418:2640   */\n            tag_30:\n                /* \"#utility.yul\":2511:2515   */\n              0x00\n                /* \"#utility.yul\":2549:2551   */\n              0x20\n                /* \"#utility.yul\":2538:2547   */\n              dup3\n                /* \"#utility.yul\":2534:2552   */\n              add\n                /* \"#utility.yul\":2526:2552   */\n              swap1\n              pop\n                /* \"#utility.yul\":2562:2633   */\n              tag_186\n                /* \"#utility.yul\":2630:2631   */\n              0x00\n                /* \"#utility.yul\":2619:2628   */\n              dup4\n                /* \"#utility.yul\":2615:2632   */\n              add\n                /* \"#utility.yul\":2606:2612   */\n              dup5\n                /* \"#utility.yul\":2562:2633   */\n              tag_118\n              jump\t// in\n            tag_186:\n                /* \"#utility.yul\":2418:2640   */\n              swap3\n              swap2\n              pop\n              pop\n              jump\t// out\n                /* \"#utility.yul\":2646:2764   */\n            tag_119:\n                /* \"#utility.yul\":2733:2757   */\n              tag_188\n                /* \"#utility.yul\":2751:2756   */\n              dup2\n                /* \"#utility.yul\":2733:2757   */\n              tag_113\n              jump\t// in\n            tag_188:\n                /* \"#utility.yul\":2728:2731   */\n              dup3\n                /* \"#utility.yul\":2721:2758   */\n              mstore\n                /* \"#utility.yul\":2646:2764   */\n              pop\n              pop\n              jump\t// out\n                /* \"#utility.yul\":2770:3434   */\n            tag_35:\n                /* \"#utility.yul\":2975:2979   */\n              0x00\n                /* \"#utility.yul\":3013:3016   */\n              0xa0\n                /* \"#utility.yul\":3002:3011   */\n              dup3\n                /* \"#utility.yul\":2998:3017   */\n              add\n                /* \"#utility.yul\":2990:3017   */\n              swap1\n              pop\n                /* \"#utility.yul\":3027:3098   */\n              tag_190\n                /* \"#utility.yul\":3095:3096   */\n              0x00\n                /* \"#utility.yul\":3084:3093   */\n              dup4\n                /* \"#utility.yul\":3080:3097   */\n              add\n                /* \"#utility.yul\":3071:3077   */\n              dup9\n                /* \"#utility.yul\":3027:3098   */\n              tag_118\n              jump\t// in\n            tag_190:\n                /* \"#utility.yul\":3108:3180   */\n              tag_191\n                /* \"#utility.yul\":3176:3178   */\n              0x20\n                /* \"#utility.yul\":3165:3174   */\n              dup4\n                /* \"#utility.yul\":3161:3179   */\n              add\n                /* \"#utility.yul\":3152:3158   */\n              dup8\n                /* \"#utility.yul\":3108:3180   */\n              tag_118\n              jump\t// in\n            tag_191:\n                /* \"#utility.yul\":3190:3262   */\n              tag_192\n                /* \"#utility.yul\":3258:3260   */\n              0x40\n                /* \"#utility.yul\":3247:3256   */\n              dup4\n                /* \"#utility.yul\":3243:3261   */\n              add\n                /* \"#utility.yul\":3234:3240   */\n              dup7\n                /* \"#utility.yul\":3190:3262   */\n              tag_118\n              jump\t// in\n            tag_192:\n                /* \"#utility.yul\":3272:3344   */\n              tag_193\n                /* \"#utility.yul\":3340:3342   */\n              0x60\n                /* \"#utility.yul\":3329:3338   */\n              dup4\n                /* \"#utility.yul\":3325:3343   */\n              add\n                /* \"#utility.yul\":3316:3322   */\n              dup6\n                /* \"#utility.yul\":3272:3344   */\n              tag_118\n              jump\t// in\n            tag_193:\n                /* \"#utility.yul\":3354:3427   */\n              tag_194\n                /* \"#utility.yul\":3422:3425   */\n              0x80\n                /* \"#utility.yul\":3411:3420   */\n              dup4\n                /* \"#utility.yul\":3407:3426   */\n              add\n                /* \"#utility.yul\":3398:3404   */\n              dup5\n                /* \"#utility.yul\":3354:3427   */\n              tag_119\n              jump\t// in\n            tag_194:\n                /* \"#utility.yul\":2770:3434   */\n              swap7\n              swap6\n              pop\n              pop\n              pop\n              pop\n              pop\n              pop\n              jump\t// out\n                /* \"#utility.yul\":3440:3662   */\n            tag_40:\n                /* \"#utility.yul\":3533:3537   */\n              0x00\n                /* \"#utility.yul\":3571:3573   */\n              0x20\n                /* \"#utility.yul\":3560:3569   */\n              dup3\n                /* \"#utility.yul\":3556:3574   */\n              add\n                /* \"#utility.yul\":3548:3574   */\n              swap1\n              pop\n                /* \"#utility.yul\":3584:3655   */\n              tag_196\n                /* \"#utility.yul\":3652:3653   */\n              0x00\n                /* \"#utility.yul\":3641:3650   */\n              dup4\n                /* \"#utility.yul\":3637:3654   */\n              add\n                /* \"#utility.yul\":3628:3634   */\n              dup5\n                /* \"#utility.yul\":3584:3655   */\n              tag_119\n              jump\t// in\n            tag_196:\n                /* \"#utility.yul\":3440:3662   */\n              swap3\n              swap2\n              pop\n              pop\n              jump\t// out\n                /* \"#utility.yul\":3668:3767   */\n            tag_120:\n                /* \"#utility.yul\":3720:3726   */\n              0x00\n                /* \"#utility.yul\":3754:3759   */\n              dup2\n                /* \"#utility.yul\":3748:3760   */\n              mload\n                /* \"#utility.yul\":3738:3760   */\n              swap1\n              pop\n                /* \"#utility.yul\":3668:3767   */\n              swap2\n              swap1\n              pop\n              jump\t// out\n                /* \"#utility.yul\":3773:3942   */\n            tag_121:\n                /* \"#utility.yul\":3857:3868   */\n              0x00\n                /* \"#utility.yul\":3891:3897   */\n              dup3\n                /* \"#utility.yul\":3886:3889   */\n              dup3\n                /* \"#utility.yul\":3879:3898   */\n              mstore\n                /* \"#utility.yul\":3931:3935   */\n              0x20\n                /* \"#utility.yul\":3926:3929   */\n              dup3\n                /* \"#utility.yul\":3922:3936   */\n              add\n                /* \"#utility.yul\":3907:3936   */\n              swap1\n              pop\n                /* \"#utility.yul\":3773:3942   */\n              swap3\n              swap2\n              pop\n              pop\n              jump\t// out\n                /* \"#utility.yul\":3948:4087   */\n            tag_122:\n                /* \"#utility.yul\":4037:4043   */\n              dup3\n                /* \"#utility.yul\":4032:4035   */\n              dup2\n                /* \"#utility.yul\":4027:4030   */\n              dup4\n                /* \"#utility.yul\":4021:4044   */\n              mcopy\n                /* \"#utility.yul\":4078:4079   */\n              0x00\n                /* \"#utility.yul\":4069:4075   */\n              dup4\n                /* \"#utility.yul\":4064:4067   */\n              dup4\n                /* \"#utility.yul\":4060:4076   */\n              add\n                /* \"#utility.yul\":4053:4080   */\n              mstore\n                /* \"#utility.yul\":3948:4087   */\n              pop\n              pop\n              pop\n              jump\t// out\n                /* \"#utility.yul\":4093:4195   */\n            tag_123:\n                /* \"#utility.yul\":4134:4140   */\n              0x00\n                /* \"#utility.yul\":4185:4187   */\n              0x1f\n                /* \"#utility.yul\":4181:4188   */\n              not\n                /* \"#utility.yul\":4176:4178   */\n              0x1f\n                /* \"#utility.yul\":4169:4174   */\n              dup4\n                /* \"#utility.yul\":4165:4179   */\n              add\n                /* \"#utility.yul\":4161:4189   */\n              and\n                /* \"#utility.yul\":4151:4189   */\n              swap1\n              pop\n                /* \"#utility.yul\":4093:4195   */\n              swap2\n              swap1\n              pop\n              jump\t// out\n                /* \"#utility.yul\":4201:4578   */\n            tag_124:\n                /* \"#utility.yul\":4289:4292   */\n              0x00\n                /* \"#utility.yul\":4317:4356   */\n              tag_202\n                /* \"#utility.yul\":4350:4355   */\n              dup3\n                /* \"#utility.yul\":4317:4356   */\n              tag_120\n              jump\t// in\n            tag_202:\n                /* \"#utility.yul\":4372:4443   */\n              tag_203\n                /* \"#utility.yul\":4436:4442   */\n              dup2\n                /* \"#utility.yul\":4431:4434   */\n              dup6\n                /* \"#utility.yul\":4372:4443   */\n              tag_121\n              jump\t// in\n            tag_203:\n                /* \"#utility.yul\":4365:4443   */\n              swap4\n              pop\n                /* \"#utility.yul\":4452:4517   */\n              tag_204\n                /* \"#utility.yul\":4510:4516   */\n              dup2\n                /* \"#utility.yul\":4505:4508   */\n              dup6\n                /* \"#utility.yul\":4498:4502   */\n              0x20\n                /* \"#utility.yul\":4491:4496   */\n              dup7\n                /* \"#utility.yul\":4487:4503   */\n              add\n                /* \"#utility.yul\":4452:4517   */\n              tag_122\n              jump\t// in\n            tag_204:\n                /* \"#utility.yul\":4542:4571   */\n              tag_205\n                /* \"#utility.yul\":4564:4570   */\n              dup2\n                /* \"#utility.yul\":4542:4571   */\n              tag_123\n              jump\t// in\n            tag_205:\n                /* \"#utility.yul\":4537:4540   */\n              dup5\n                /* \"#utility.yul\":4533:4572   */\n              add\n                /* \"#utility.yul\":4526:4572   */\n              swap2\n              pop\n                /* \"#utility.yul\":4293:4578   */\n              pop\n                /* \"#utility.yul\":4201:4578   */\n              swap3\n              swap2\n              pop\n              pop\n              jump\t// out\n                /* \"#utility.yul\":4584:5327   */\n            tag_46:\n                /* \"#utility.yul\":4803:4807   */\n              0x00\n                /* \"#utility.yul\":4841:4844   */\n              0xa0\n                /* \"#utility.yul\":4830:4839   */\n              dup3\n                /* \"#utility.yul\":4826:4845   */\n              add\n                /* \"#utility.yul\":4818:4845   */\n              swap1\n              pop\n                /* \"#utility.yul\":4891:4900   */\n              dup2\n                /* \"#utility.yul\":4885:4889   */\n              dup2\n                /* \"#utility.yul\":4881:4901   */\n              sub\n                /* \"#utility.yul\":4877:4878   */\n              0x00\n                /* \"#utility.yul\":4866:4875   */\n              dup4\n                /* \"#utility.yul\":4862:4879   */\n              add\n                /* \"#utility.yul\":4855:4902   */\n              mstore\n                /* \"#utility.yul\":4919:4997   */\n              tag_207\n                /* \"#utility.yul\":4992:4996   */\n              dup2\n                /* \"#utility.yul\":4983:4989   */\n              dup9\n                /* \"#utility.yul\":4919:4997   */\n              tag_124\n              jump\t// in\n            tag_207:\n                /* \"#utility.yul\":4911:4997   */\n              swap1\n              pop\n                /* \"#utility.yul\":5007:5079   */\n              tag_208\n                /* \"#utility.yul\":5075:5077   */\n              0x20\n                /* \"#utility.yul\":5064:5073   */\n              dup4\n                /* \"#utility.yul\":5060:5078   */\n              add\n                /* \"#utility.yul\":5051:5057   */\n              dup8\n                /* \"#utility.yul\":5007:5079   */\n              tag_118\n              jump\t// in\n            tag_208:\n                /* \"#utility.yul\":5089:5161   */\n              tag_209\n                /* \"#utility.yul\":5157:5159   */\n              0x40\n                /* \"#utility.yul\":5146:5155   */\n              dup4\n                /* \"#utility.yul\":5142:5160   */\n              add\n                /* \"#utility.yul\":5133:5139   */\n              dup7\n                /* \"#utility.yul\":5089:5161   */\n              tag_119\n              jump\t// in\n            tag_209:\n                /* \"#utility.yul\":5171:5237   */\n              tag_210\n                /* \"#utility.yul\":5233:5235   */\n              0x60\n                /* \"#utility.yul\":5222:5231   */\n              dup4\n                /* \"#utility.yul\":5218:5236   */\n              add\n                /* \"#utility.yul\":5209:5215   */\n              dup6\n                /* \"#utility.yul\":5171:5237   */\n              tag_117\n              jump\t// in\n            tag_210:\n                /* \"#utility.yul\":5247:5320   */\n              tag_211\n                /* \"#utility.yul\":5315:5318   */\n              0x80\n                /* \"#utility.yul\":5304:5313   */\n              dup4\n                /* \"#utility.yul\":5300:5319   */\n              add\n                /* \"#utility.yul\":5291:5297   */\n              dup5\n                /* \"#utility.yul\":5247:5320   */\n              tag_118\n              jump\t// in\n            tag_211:\n                /* \"#utility.yul\":4584:5327   */\n              swap7\n              swap6\n              pop\n              pop\n              pop\n              pop\n              pop\n              pop\n              jump\t// out\n                /* \"#utility.yul\":5333:5450   */\n            tag_125:\n                /* \"#utility.yul\":5442:5443   */\n              0x00\n                /* \"#utility.yul\":5439:5440   */\n              dup1\n                /* \"#utility.yul\":5432:5444   */\n              revert\n                /* \"#utility.yul\":5456:5573   */\n            tag_126:\n                /* \"#utility.yul\":5565:5566   */\n              0x00\n                /* \"#utility.yul\":5562:5563   */\n              dup1\n                /* \"#utility.yul\":5555:5567   */\n              revert\n                /* \"#utility.yul\":5579:5759   */\n            tag_127:\n                /* \"#utility.yul\":5627:5704   */\n              0x4e487b7100000000000000000000000000000000000000000000000000000000\n                /* \"#utility.yul\":5624:5625   */\n              0x00\n                /* \"#utility.yul\":5617:5705   */\n              mstore\n                /* \"#utility.yul\":5724:5728   */\n              0x41\n                /* \"#utility.yul\":5721:5722   */\n              0x04\n                /* \"#utility.yul\":5714:5729   */\n              mstore\n                /* \"#utility.yul\":5748:5752   */\n              0x24\n                /* \"#utility.yul\":5745:5746   */\n              0x00\n                /* \"#utility.yul\":5738:5753   */\n              revert\n                /* \"#utility.yul\":5765:6046   */\n            tag_128:\n                /* \"#utility.yul\":5848:5875   */\n              tag_216\n                /* \"#utility.yul\":5870:5874   */\n              dup3\n                /* \"#utility.yul\":5848:5875   */\n              tag_123\n              jump\t// in\n            tag_216:\n                /* \"#utility.yul\":5840:5846   */\n              dup2\n                /* \"#utility.yul\":5836:5876   */\n              add\n                /* \"#utility.yul\":5978:5984   */\n              dup2\n                /* \"#utility.yul\":5966:5976   */\n              dup2\n                /* \"#utility.yul\":5963:5985   */\n              lt\n                /* \"#utility.yul\":5942:5960   */\n              0xffffffffffffffff\n                /* \"#utility.yul\":5930:5940   */\n              dup3\n                /* \"#utility.yul\":5927:5961   */\n              gt\n                /* \"#utility.yul\":5924:5986   */\n              or\n                /* \"#utility.yul\":5921:6009   */\n              iszero\n              tag_217\n              jumpi\n                /* \"#utility.yul\":5989:6007   */\n              tag_218\n              tag_127\n              jump\t// in\n            tag_218:\n                /* \"#utility.yul\":5921:6009   */\n            tag_217:\n                /* \"#utility.yul\":6029:6039   */\n              dup1\n                /* \"#utility.yul\":6025:6027   */\n              0x40\n                /* \"#utility.yul\":6018:6040   */\n              mstore\n                /* \"#utility.yul\":5808:6046   */\n              pop\n                /* \"#utility.yul\":5765:6046   */\n              pop\n              pop\n              jump\t// out\n                /* \"#utility.yul\":6052:6181   */\n            tag_129:\n                /* \"#utility.yul\":6086:6092   */\n              0x00\n                /* \"#utility.yul\":6113:6133   */\n              tag_220\n              tag_106\n              jump\t// in\n            tag_220:\n                /* \"#utility.yul\":6103:6133   */\n              swap1\n              pop\n                /* \"#utility.yul\":6142:6175   */\n              tag_221\n                /* \"#utility.yul\":6170:6174   */\n              dup3\n                /* \"#utility.yul\":6162:6168   */\n              dup3\n                /* \"#utility.yul\":6142:6175   */\n              tag_128\n              jump\t// in\n            tag_221:\n                /* \"#utility.yul\":6052:6181   */\n              swap2\n              swap1\n              pop\n              jump\t// out\n                /* \"#utility.yul\":6187:6495   */\n            tag_130:\n                /* \"#utility.yul\":6249:6253   */\n              0x00\n                /* \"#utility.yul\":6339:6357   */\n              0xffffffffffffffff\n                /* \"#utility.yul\":6331:6337   */\n              dup3\n                /* \"#utility.yul\":6328:6358   */\n              gt\n                /* \"#utility.yul\":6325:6381   */\n              iszero\n              tag_223\n              jumpi\n                /* \"#utility.yul\":6361:6379   */\n              tag_224\n              tag_127\n              jump\t// in\n            tag_224:\n                /* \"#utility.yul\":6325:6381   */\n            tag_223:\n                /* \"#utility.yul\":6399:6428   */\n              tag_225\n                /* \"#utility.yul\":6421:6427   */\n              dup3\n                /* \"#utility.yul\":6399:6428   */\n              tag_123\n              jump\t// in\n            tag_225:\n                /* \"#utility.yul\":6391:6428   */\n              swap1\n              pop\n                /* \"#utility.yul\":6483:6487   */\n              0x20\n                /* \"#utility.yul\":6477:6481   */\n              dup2\n                /* \"#utility.yul\":6473:6488   */\n              add\n                /* \"#utility.yul\":6465:6488   */\n              swap1\n              pop\n                /* \"#utility.yul\":6187:6495   */\n              swap2\n              swap1\n              pop\n              jump\t// out\n                /* \"#utility.yul\":6501:6649   */\n            tag_131:\n                /* \"#utility.yul\":6599:6605   */\n              dup3\n                /* \"#utility.yul\":6594:6597   */\n              dup2\n                /* \"#utility.yul\":6589:6592   */\n              dup4\n                /* \"#utility.yul\":6576:6606   */\n              calldatacopy\n                /* \"#utility.yul\":6640:6641   */\n              0x00\n                /* \"#utility.yul\":6631:6637   */\n              dup4\n                /* \"#utility.yul\":6626:6629   */\n              dup4\n                /* \"#utility.yul\":6622:6638   */\n              add\n                /* \"#utility.yul\":6615:6642   */\n              mstore\n                /* \"#utility.yul\":6501:6649   */\n              pop\n              pop\n              pop\n              jump\t// out\n                /* \"#utility.yul\":6655:7080   */\n            tag_132:\n                /* \"#utility.yul\":6733:6738   */\n              0x00\n                /* \"#utility.yul\":6758:6824   */\n              tag_228\n                /* \"#utility.yul\":6774:6823   */\n              tag_229\n                /* \"#utility.yul\":6816:6822   */\n              dup5\n                /* \"#utility.yul\":6774:6823   */\n              tag_130\n              jump\t// in\n            tag_229:\n                /* \"#utility.yul\":6758:6824   */\n              tag_129\n              jump\t// in\n            tag_228:\n                /* \"#utility.yul\":6749:6824   */\n              swap1\n              pop\n                /* \"#utility.yul\":6847:6853   */\n              dup3\n                /* \"#utility.yul\":6840:6845   */\n              dup2\n                /* \"#utility.yul\":6833:6854   */\n              mstore\n                /* \"#utility.yul\":6885:6889   */\n              0x20\n                /* \"#utility.yul\":6878:6883   */\n              dup2\n                /* \"#utility.yul\":6874:6890   */\n              add\n                /* \"#utility.yul\":6923:6926   */\n              dup5\n                /* \"#utility.yul\":6914:6920   */\n              dup5\n                /* \"#utility.yul\":6909:6912   */\n              dup5\n                /* \"#utility.yul\":6905:6921   */\n              add\n                /* \"#utility.yul\":6902:6927   */\n              gt\n                /* \"#utility.yul\":6899:7011   */\n              iszero\n              tag_230\n              jumpi\n                /* \"#utility.yul\":6930:7009   */\n              tag_231\n              tag_126\n              jump\t// in\n            tag_231:\n                /* \"#utility.yul\":6899:7011   */\n            tag_230:\n                /* \"#utility.yul\":7020:7074   */\n              tag_232\n                /* \"#utility.yul\":7067:7073   */\n              dup5\n                /* \"#utility.yul\":7062:7065   */\n              dup3\n                /* \"#utility.yul\":7057:7060   */\n              dup6\n                /* \"#utility.yul\":7020:7074   */\n              tag_131\n              jump\t// in\n            tag_232:\n                /* \"#utility.yul\":6739:7080   */\n              pop\n                /* \"#utility.yul\":6655:7080   */\n              swap4\n              swap3\n              pop\n              pop\n              pop\n              jump\t// out\n                /* \"#utility.yul\":7100:7440   */\n            tag_133:\n                /* \"#utility.yul\":7156:7161   */\n              0x00\n                /* \"#utility.yul\":7205:7208   */\n              dup3\n                /* \"#utility.yul\":7198:7202   */\n              0x1f\n                /* \"#utility.yul\":7190:7196   */\n              dup4\n                /* \"#utility.yul\":7186:7203   */\n              add\n                /* \"#utility.yul\":7182:7209   */\n              slt\n                /* \"#utility.yul\":7172:7294   */\n              tag_234\n              jumpi\n                /* \"#utility.yul\":7213:7292   */\n              tag_235\n              tag_125\n              jump\t// in\n            tag_235:\n                /* \"#utility.yul\":7172:7294   */\n            tag_234:\n                /* \"#utility.yul\":7330:7336   */\n              dup2\n                /* \"#utility.yul\":7317:7337   */\n              calldataload\n                /* \"#utility.yul\":7355:7434   */\n              tag_236\n                /* \"#utility.yul\":7430:7433   */\n              dup5\n                /* \"#utility.yul\":7422:7428   */\n              dup3\n                /* \"#utility.yul\":7415:7419   */\n              0x20\n                /* \"#utility.yul\":7407:7413   */\n              dup7\n                /* \"#utility.yul\":7403:7420   */\n              add\n                /* \"#utility.yul\":7355:7434   */\n              tag_132\n              jump\t// in\n            tag_236:\n                /* \"#utility.yul\":7346:7434   */\n              swap2\n              pop\n                /* \"#utility.yul\":7162:7440   */\n              pop\n                /* \"#utility.yul\":7100:7440   */\n              swap3\n              swap2\n              pop\n              pop\n              jump\t// out\n                /* \"#utility.yul\":7446:8245   */\n            tag_54:\n                /* \"#utility.yul\":7533:7539   */\n              0x00\n                /* \"#utility.yul\":7541:7547   */\n              dup1\n                /* \"#utility.yul\":7549:7555   */\n              0x00\n                /* \"#utility.yul\":7598:7600   */\n              0x60\n                /* \"#utility.yul\":7586:7595   */\n              dup5\n                /* \"#utility.yul\":7577:7584   */\n              dup7\n                /* \"#utility.yul\":7573:7596   */\n              sub\n                /* \"#utility.yul\":7569:7601   */\n              slt\n                /* \"#utility.yul\":7566:7685   */\n              iszero\n              tag_238\n              jumpi\n                /* \"#utility.yul\":7604:7683   */\n              tag_239\n              tag_107\n              jump\t// in\n            tag_239:\n                /* \"#utility.yul\":7566:7685   */\n            tag_238:\n                /* \"#utility.yul\":7752:7753   */\n              0x00\n                /* \"#utility.yul\":7741:7750   */\n              dup5\n                /* \"#utility.yul\":7737:7754   */\n              add\n                /* \"#utility.yul\":7724:7755   */\n              calldataload\n                /* \"#utility.yul\":7782:7800   */\n              0xffffffffffffffff\n                /* \"#utility.yul\":7774:7780   */\n              dup2\n                /* \"#utility.yul\":7771:7801   */\n              gt\n                /* \"#utility.yul\":7768:7885   */\n              iszero\n              tag_240\n              jumpi\n                /* \"#utility.yul\":7804:7883   */\n              tag_241\n              tag_108\n              jump\t// in\n            tag_241:\n                /* \"#utility.yul\":7768:7885   */\n            tag_240:\n                /* \"#utility.yul\":7909:7972   */\n              tag_242\n                /* \"#utility.yul\":7964:7971   */\n              dup7\n                /* \"#utility.yul\":7955:7961   */\n              dup3\n                /* \"#utility.yul\":7944:7953   */\n              dup8\n                /* \"#utility.yul\":7940:7962   */\n              add\n                /* \"#utility.yul\":7909:7972   */\n              tag_133\n              jump\t// in\n            tag_242:\n                /* \"#utility.yul\":7899:7972   */\n              swap4\n              pop\n                /* \"#utility.yul\":7695:7982   */\n              pop\n                /* \"#utility.yul\":8021:8023   */\n              0x20\n                /* \"#utility.yul\":8047:8100   */\n              tag_243\n                /* \"#utility.yul\":8092:8099   */\n              dup7\n                /* \"#utility.yul\":8083:8089   */\n              dup3\n                /* \"#utility.yul\":8072:8081   */\n              dup8\n                /* \"#utility.yul\":8068:8090   */\n              add\n                /* \"#utility.yul\":8047:8100   */\n              tag_111\n              jump\t// in\n            tag_243:\n                /* \"#utility.yul\":8037:8100   */\n              swap3\n              pop\n                /* \"#utility.yul\":7992:8110   */\n              pop\n                /* \"#utility.yul\":8149:8151   */\n              0x40\n                /* \"#utility.yul\":8175:8228   */\n              tag_244\n                /* \"#utility.yul\":8220:8227   */\n              dup7\n                /* \"#utility.yul\":8211:8217   */\n              dup3\n                /* \"#utility.yul\":8200:8209   */\n              dup8\n                /* \"#utility.yul\":8196:8218   */\n              add\n                /* \"#utility.yul\":8175:8228   */\n              tag_115\n              jump\t// in\n            tag_244:\n                /* \"#utility.yul\":8165:8228   */\n              swap2\n              pop\n                /* \"#utility.yul\":8120:8238   */\n              pop\n                /* \"#utility.yul\":7446:8245   */\n              swap3\n              pop\n              swap3\n              pop\n              swap3\n              jump\t// out\n                /* \"#utility.yul\":8251:8431   */\n            tag_71:\n                /* \"#utility.yul\":8299:8376   */\n              0x4e487b7100000000000000000000000000000000000000000000000000000000\n                /* \"#utility.yul\":8296:8297   */\n              0x00\n                /* \"#utility.yul\":8289:8377   */\n              mstore\n                /* \"#utility.yul\":8396:8400   */\n              0x32\n                /* \"#utility.yul\":8393:8394   */\n              0x04\n                /* \"#utility.yul\":8386:8401   */\n              mstore\n                /* \"#utility.yul\":8420:8424   */\n              0x24\n                /* \"#utility.yul\":8417:8418   */\n              0x00\n                /* \"#utility.yul\":8410:8425   */\n              revert\n                /* \"#utility.yul\":8437:8617   */\n            tag_134:\n                /* \"#utility.yul\":8485:8562   */\n              0x4e487b7100000000000000000000000000000000000000000000000000000000\n                /* \"#utility.yul\":8482:8483   */\n              0x00\n                /* \"#utility.yul\":8475:8563   */\n              mstore\n                /* \"#utility.yul\":8582:8586   */\n              0x12\n                /* \"#utility.yul\":8579:8580   */\n              0x04\n                /* \"#utility.yul\":8572:8587   */\n              mstore\n                /* \"#utility.yul\":8606:8610   */\n              0x24\n                /* \"#utility.yul\":8603:8604   */\n              0x00\n                /* \"#utility.yul\":8596:8611   */\n              revert\n                /* \"#utility.yul\":8623:8803   */\n            tag_135:\n                /* \"#utility.yul\":8671:8748   */\n              0x4e487b7100000000000000000000000000000000000000000000000000000000\n                /* \"#utility.yul\":8668:8669   */\n              0x00\n                /* \"#utility.yul\":8661:8749   */\n              mstore\n                /* \"#utility.yul\":8768:8772   */\n              0x11\n                /* \"#utility.yul\":8765:8766   */\n              0x04\n                /* \"#utility.yul\":8758:8773   */\n              mstore\n                /* \"#utility.yul\":8792:8796   */\n              0x24\n                /* \"#utility.yul\":8789:8790   */\n              0x00\n                /* \"#utility.yul\":8782:8797   */\n              revert\n                /* \"#utility.yul\":8809:8994   */\n            tag_74:\n                /* \"#utility.yul\":8849:8850   */\n              0x00\n                /* \"#utility.yul\":8866:8886   */\n              tag_249\n                /* \"#utility.yul\":8884:8885   */\n              dup3\n                /* \"#utility.yul\":8866:8886   */\n              tag_109\n              jump\t// in\n            tag_249:\n                /* \"#utility.yul\":8861:8886   */\n              swap2\n              pop\n                /* \"#utility.yul\":8900:8920   */\n              tag_250\n                /* \"#utility.yul\":8918:8919   */\n              dup4\n                /* \"#utility.yul\":8900:8920   */\n              tag_109\n              jump\t// in\n            tag_250:\n                /* \"#utility.yul\":8895:8920   */\n              swap3\n              pop\n                /* \"#utility.yul\":8939:8940   */\n              dup3\n                /* \"#utility.yul\":8929:8964   */\n              tag_251\n              jumpi\n                /* \"#utility.yul\":8944:8962   */\n              tag_252\n              tag_134\n              jump\t// in\n            tag_252:\n                /* \"#utility.yul\":8929:8964   */\n            tag_251:\n                /* \"#utility.yul\":8986:8987   */\n              dup3\n                /* \"#utility.yul\":8983:8984   */\n              dup3\n                /* \"#utility.yul\":8979:8988   */\n              div\n                /* \"#utility.yul\":8974:8988   */\n              swap1\n              pop\n                /* \"#utility.yul\":8809:8994   */\n              swap3\n              swap2\n              pop\n              pop\n              jump\t// out\n                /* \"#utility.yul\":9000:9180   */\n            tag_136:\n                /* \"#utility.yul\":9048:9125   */\n              0x4e487b7100000000000000000000000000000000000000000000000000000000\n                /* \"#utility.yul\":9045:9046   */\n              0x00\n                /* \"#utility.yul\":9038:9126   */\n              mstore\n                /* \"#utility.yul\":9145:9149   */\n              0x22\n                /* \"#utility.yul\":9142:9143   */\n              0x04\n                /* \"#utility.yul\":9135:9150   */\n              mstore\n                /* \"#utility.yul\":9169:9173   */\n              0x24\n                /* \"#utility.yul\":9166:9167   */\n              0x00\n                /* \"#utility.yul\":9159:9174   */\n              revert\n                /* \"#utility.yul\":9186:9506   */\n            tag_84:\n                /* \"#utility.yul\":9230:9236   */\n              0x00\n                /* \"#utility.yul\":9267:9268   */\n              0x02\n                /* \"#utility.yul\":9261:9265   */\n              dup3\n                /* \"#utility.yul\":9257:9269   */\n              div\n                /* \"#utility.yul\":9247:9269   */\n              swap1\n              pop\n                /* \"#utility.yul\":9314:9315   */\n              0x01\n                /* \"#utility.yul\":9308:9312   */\n              dup3\n                /* \"#utility.yul\":9304:9316   */\n              and\n                /* \"#utility.yul\":9335:9353   */\n              dup1\n                /* \"#utility.yul\":9325:9406   */\n              tag_255\n              jumpi\n                /* \"#utility.yul\":9391:9395   */\n              0x7f\n                /* \"#utility.yul\":9383:9389   */\n              dup3\n                /* \"#utility.yul\":9379:9396   */\n              and\n                /* \"#utility.yul\":9369:9396   */\n              swap2\n              pop\n                /* \"#utility.yul\":9325:9406   */\n            tag_255:\n                /* \"#utility.yul\":9453:9455   */\n              0x20\n                /* \"#utility.yul\":9445:9451   */\n              dup3\n                /* \"#utility.yul\":9442:9456   */\n              lt\n                /* \"#utility.yul\":9422:9440   */\n              dup2\n                /* \"#utility.yul\":9419:9457   */\n              sub\n                /* \"#utility.yul\":9416:9500   */\n              tag_256\n              jumpi\n                /* \"#utility.yul\":9472:9490   */\n              tag_257\n              tag_136\n              jump\t// in\n            tag_257:\n                /* \"#utility.yul\":9416:9500   */\n            tag_256:\n                /* \"#utility.yul\":9237:9506   */\n              pop\n                /* \"#utility.yul\":9186:9506   */\n              swap2\n              swap1\n              pop\n              jump\t// out\n                /* \"#utility.yul\":9512:9653   */\n            tag_137:\n                /* \"#utility.yul\":9561:9565   */\n              0x00\n                /* \"#utility.yul\":9584:9587   */\n              dup2\n                /* \"#utility.yul\":9576:9587   */\n              swap1\n              pop\n                /* \"#utility.yul\":9607:9610   */\n              dup2\n                /* \"#utility.yul\":9604:9605   */\n              0x00\n                /* \"#utility.yul\":9597:9611   */\n              mstore\n                /* \"#utility.yul\":9641:9645   */\n              0x20\n                /* \"#utility.yul\":9638:9639   */\n              0x00\n                /* \"#utility.yul\":9628:9646   */\n              keccak256\n                /* \"#utility.yul\":9620:9646   */\n              swap1\n              pop\n                /* \"#utility.yul\":9512:9653   */\n              swap2\n              swap1\n              pop\n              jump\t// out\n                /* \"#utility.yul\":9659:9752   */\n            tag_138:\n                /* \"#utility.yul\":9696:9702   */\n              0x00\n                /* \"#utility.yul\":9743:9745   */\n              0x20\n                /* \"#utility.yul\":9738:9740   */\n              0x1f\n                /* \"#utility.yul\":9731:9736   */\n              dup4\n                /* \"#utility.yul\":9727:9741   */\n              add\n                /* \"#utility.yul\":9723:9746   */\n              div\n                /* \"#utility.yul\":9713:9746   */\n              swap1\n              pop\n                /* \"#utility.yul\":9659:9752   */\n              swap2\n              swap1\n              pop\n              jump\t// out\n                /* \"#utility.yul\":9758:9865   */\n            tag_139:\n                /* \"#utility.yul\":9802:9810   */\n              0x00\n                /* \"#utility.yul\":9852:9857   */\n              dup3\n                /* \"#utility.yul\":9846:9850   */\n              dup3\n                /* \"#utility.yul\":9842:9858   */\n              shl\n                /* \"#utility.yul\":9821:9858   */\n              swap1\n              pop\n                /* \"#utility.yul\":9758:9865   */\n              swap3\n              swap2\n              pop\n              pop\n              jump\t// out\n                /* \"#utility.yul\":9871:10264   */\n            tag_140:\n                /* \"#utility.yul\":9940:9946   */\n              0x00\n                /* \"#utility.yul\":9990:9991   */\n              0x08\n                /* \"#utility.yul\":9978:9988   */\n              dup4\n                /* \"#utility.yul\":9974:9992   */\n              mul\n                /* \"#utility.yul\":10013:10110   */\n              tag_262\n                /* \"#utility.yul\":10043:10109   */\n              0xffffffffffffffffffffffffffffffffffffffffffffffffffffffffffffffff\n                /* \"#utility.yul\":10032:10041   */\n              dup3\n                /* \"#utility.yul\":10013:10110   */\n              tag_139\n              jump\t// in\n            tag_262:\n                /* \"#utility.yul\":10131:10170   */\n              tag_263\n                /* \"#utility.yul\":10161:10169   */\n              dup7\n                /* \"#utility.yul\":10150:10159   */\n              dup4\n                /* \"#utility.yul\":10131:10170   */\n              tag_139\n              jump\t// in\n            tag_263:\n                /* \"#utility.yul\":10119:10170   */\n              swap6\n              pop\n                /* \"#utility.yul\":10203:10207   */\n              dup1\n                /* \"#utility.yul\":10199:10208   */\n              not\n                /* \"#utility.yul\":10192:10197   */\n              dup5\n                /* \"#utility.yul\":10188:10209   */\n              and\n                /* \"#utility.yul\":10179:10209   */\n              swap4\n              pop\n                /* \"#utility.yul\":10252:10256   */\n              dup1\n                /* \"#utility.yul\":10242:10250   */\n              dup7\n                /* \"#utility.yul\":10238:10257   */\n              and\n                /* \"#utility.yul\":10231:10236   */\n              dup5\n                /* \"#utility.yul\":10228:10258   */\n              or\n                /* \"#utility.yul\":10218:10258   */\n              swap3\n              pop\n                /* \"#utility.yul\":9947:10264   */\n              pop\n              pop\n                /* \"#utility.yul\":9871:10264   */\n              swap4\n              swap3\n              pop\n              pop\n              pop\n              jump\t// out\n                /* \"#utility.yul\":10270:10330   */\n            tag_141:\n                /* \"#utility.yul\":10298:10301   */\n              0x00\n                /* \"#utility.yul\":10319:10324   */\n              dup2\n                /* \"#utility.yul\":10312:10324   */\n              swap1\n              pop\n                /* \"#utility.yul\":10270:10330   */\n              swap2\n              swap1\n              pop\n              jump\t// out\n                /* \"#utility.yul\":10336:10478   */\n            tag_142:\n                /* \"#utility.yul\":10386:10395   */\n              0x00\n                /* \"#utility.yul\":10419:10472   */\n              tag_266\n                /* \"#utility.yul\":10437:10471   */\n              tag_267\n                /* \"#utility.yul\":10446:10470   */\n              tag_268\n                /* \"#utility.yul\":10464:10469   */\n              dup5\n                /* \"#utility.yul\":10446:10470   */\n              tag_109\n              jump\t// in\n            tag_268:\n                /* \"#utility.yul\":10437:10471   */\n              tag_141\n              jump\t// in\n            tag_267:\n                /* \"#utility.yul\":10419:10472   */\n              tag_109\n              jump\t// in\n            tag_266:\n                /* \"#utility.yul\":10406:10472   */\n              swap1\n              pop\n                /* \"#utility.yul\":10336:10478   */\n              swap2\n              swap1\n              pop\n              jump\t// out\n                /* \"#utility.yul\":10484:10559   */\n            tag_143:\n                /* \"#utility.yul\":10527:10530   */\n              0x00\n                /* \"#utility.yul\":10548:10553   */\n              dup2\n                /* \"#utility.yul\":10541:10553   */\n              swap1\n              pop\n                /* \"#utility.yul\":10484:10559   */\n              swap2\n              swap1\n              pop\n              jump\t// out\n                /* \"#utility.yul\":10565:10834   */\n            tag_144:\n                /* \"#utility.yul\":10675:10714   */\n              tag_271\n                /* \"#utility.yul\":10706:10713   */\n              dup4\n                /* \"#utility.yul\":10675:10714   */\n              tag_142\n              jump\t// in\n            tag_271:\n                /* \"#utility.yul\":10736:10827   */\n              tag_272\n                /* \"#utility.yul\":10785:10826   */\n              tag_273\n                /* \"#utility.yul\":10809:10825   */\n              dup3\n                /* \"#utility.yul\":10785:10826   */\n              tag_143\n              jump\t// in\n            tag_273:\n                /* \"#utility.yul\":10777:10783   */\n              dup5\n                /* \"#utility.yul\":10770:10774   */\n              dup5\n                /* \"#utility.yul\":10764:10775   */\n              sload\n                /* \"#utility.yul\":10736:10827   */\n              tag_140\n              jump\t// in\n            tag_272:\n                /* \"#utility.yul\":10730:10734   */\n              dup3\n                /* \"#utility.yul\":10723:10828   */\n              sstore\n                /* \"#utility.yul\":10641:10834   */\n              pop\n                /* \"#utility.yul\":10565:10834   */\n              pop\n              pop\n              pop\n              jump\t// out\n                /* \"#utility.yul\":10840:10913   */\n            tag_145:\n                /* \"#utility.yul\":10885:10888   */\n              0x00\n                /* \"#utility.yul\":10840:10913   */\n              swap1\n              jump\t// out\n                /* \"#utility.yul\":10919:11108   */\n            tag_146:\n                /* \"#utility.yul\":10996:11028   */\n              tag_276\n              tag_145\n              jump\t// in\n            tag_276:\n                /* \"#utility.yul\":11037:11102   */\n              tag_277\n                /* \"#utility.yul\":11095:11101   */\n              dup2\n                /* \"#utility.yul\":11087:11093   */\n              dup5\n                /* \"#utility.yul\":11081:11085   */\n              dup5\n                /* \"#utility.yul\":11037:11102   */\n              tag_144\n              jump\t// in\n            tag_277:\n                /* \"#utility.yul\":10972:11108   */\n              pop\n                /* \"#utility.yul\":10919:11108   */\n              pop\n              pop\n              jump\t// out\n                /* \"#utility.yul\":11114:11300   */\n            tag_147:\n                /* \"#utility.yul\":11174:11294   */\n            tag_279:\n                /* \"#utility.yul\":11191:11194   */\n              dup2\n                /* \"#utility.yul\":11184:11189   */\n              dup2\n                /* \"#utility.yul\":11181:11195   */\n              lt\n                /* \"#utility.yul\":11174:11294   */\n              iszero\n              tag_281\n              jumpi\n                /* \"#utility.yul\":11245:11284   */\n              tag_282\n                /* \"#utility.yul\":11282:11283   */\n              0x00\n                /* \"#utility.yul\":11275:11280   */\n              dup3\n                /* \"#utility.yul\":11245:11284   */\n              tag_146\n              jump\t// in\n            tag_282:\n                /* \"#utility.yul\":11218:11219   */\n              0x01\n                /* \"#utility.yul\":11211:11216   */\n              dup2\n                /* \"#utility.yul\":11207:11220   */\n              add\n                /* \"#utility.yul\":11198:11220   */\n              swap1\n              pop\n                /* \"#utility.yul\":11174:11294   */\n              jump(tag_279)\n            tag_281:\n                /* \"#utility.yul\":11114:11300   */\n              pop\n              pop\n              jump\t// out\n                /* \"#utility.yul\":11306:11849   */\n            tag_148:\n                /* \"#utility.yul\":11407:11409   */\n              0x1f\n                /* \"#utility.yul\":11402:11405   */\n              dup3\n                /* \"#utility.yul\":11399:11410   */\n              gt\n                /* \"#utility.yul\":11396:11842   */\n              iszero\n              tag_284\n              jumpi\n                /* \"#utility.yul\":11441:11479   */\n              tag_285\n                /* \"#utility.yul\":11473:11478   */\n              dup2\n                /* \"#utility.yul\":11441:11479   */\n              tag_137\n              jump\t// in\n            tag_285:\n                /* \"#utility.yul\":11525:11554   */\n              tag_286\n                /* \"#utility.yul\":11543:11553   */\n              dup5\n                /* \"#utility.yul\":11525:11554   */\n              tag_138\n              jump\t// in\n            tag_286:\n                /* \"#utility.yul\":11515:11523   */\n              dup2\n                /* \"#utility.yul\":11511:11555   */\n              add\n                /* \"#utility.yul\":11708:11710   */\n              0x20\n                /* \"#utility.yul\":11696:11706   */\n              dup6\n                /* \"#utility.yul\":11693:11711   */\n              lt\n                /* \"#utility.yul\":11690:11739   */\n              iszero\n              tag_287\n              jumpi\n                /* \"#utility.yul\":11729:11737   */\n              dup2\n                /* \"#utility.yul\":11714:11737   */\n              swap1\n              pop\n                /* \"#utility.yul\":11690:11739   */\n            tag_287:\n                /* \"#utility.yul\":11752:11832   */\n              tag_288\n                /* \"#utility.yul\":11808:11830   */\n              tag_289\n                /* \"#utility.yul\":11826:11829   */\n              dup6\n                /* \"#utility.yul\":11808:11830   */\n              tag_138\n              jump\t// in\n            tag_289:\n                /* \"#utility.yul\":11798:11806   */\n              dup4\n                /* \"#utility.yul\":11794:11831   */\n              add\n                /* \"#utility.yul\":11781:11792   */\n              dup3\n                /* \"#utility.yul\":11752:11832   */\n              tag_147\n              jump\t// in\n            tag_288:\n                /* \"#utility.yul\":11411:11842   */\n              pop\n              pop\n                /* \"#utility.yul\":11396:11842   */\n            tag_284:\n                /* \"#utility.yul\":11306:11849   */\n              pop\n              pop\n              pop\n              jump\t// out\n                /* \"#utility.yul\":11855:11972   */\n            tag_149:\n                /* \"#utility.yul\":11909:11917   */\n              0x00\n                /* \"#utility.yul\":11959:11964   */\n              dup3\n                /* \"#utility.yul\":11953:11957   */\n              dup3\n                /* \"#utility.yul\":11949:11965   */\n              shr\n                /* \"#utility.yul\":11928:11965   */\n              swap1\n              pop\n                /* \"#utility.yul\":11855:11972   */\n              swap3\n              swap2\n              pop\n              pop\n              jump\t// out\n                /* \"#utility.yul\":11978:12147   */\n            tag_150:\n                /* \"#utility.yul\":12022:12028   */\n              0x00\n                /* \"#utility.yul\":12055:12106   */\n              tag_292\n                /* \"#utility.yul\":12103:12104   */\n              0x00\n                /* \"#utility.yul\":12099:12105   */\n              not\n                /* \"#utility.yul\":12091:12096   */\n              dup5\n                /* \"#utility.yul\":12088:12089   */\n              0x08\n                /* \"#utility.yul\":12084:12097   */\n              mul\n                /* \"#utility.yul\":12055:12106   */\n              tag_149\n              jump\t// in\n            tag_292:\n                /* \"#utility.yul\":12051:12107   */\n              not\n                /* \"#utility.yul\":12136:12140   */\n              dup1\n                /* \"#utility.yul\":12130:12134   */\n              dup4\n                /* \"#utility.yul\":12126:12141   */\n              and\n                /* \"#utility.yul\":12116:12141   */\n              swap2\n              pop\n                /* \"#utility.yul\":12029:12147   */\n              pop\n                /* \"#utility.yul\":11978:12147   */\n              swap3\n              swap2\n              pop\n              pop\n              jump\t// out\n                /* \"#utility.yul\":12152:12447   */\n            tag_151:\n                /* \"#utility.yul\":12228:12232   */\n              0x00\n                /* \"#utility.yul\":12374:12403   */\n              tag_294\n                /* \"#utility.yul\":12399:12402   */\n              dup4\n                /* \"#utility.yul\":12393:12397   */\n              dup4\n                /* \"#utility.yul\":12374:12403   */\n              tag_150\n              jump\t// in\n            tag_294:\n                /* \"#utility.yul\":12366:12403   */\n              swap2\n              pop\n                /* \"#utility.yul\":12436:12439   */\n              dup3\n                /* \"#utility.yul\":12433:12434   */\n              0x02\n                /* \"#utility.yul\":12429:12440   */\n              mul\n                /* \"#utility.yul\":12423:12427   */\n              dup3\n                /* \"#utility.yul\":12420:12441   */\n              or\n                /* \"#utility.yul\":12412:12441   */\n              swap1\n              pop\n                /* \"#utility.yul\":12152:12447   */\n              swap3\n              swap2\n              pop\n              pop\n              jump\t// out\n                /* \"#utility.yul\":12452:13847   */\n            tag_94:\n                /* \"#utility.yul\":12569:12606   */\n              tag_296\n                /* \"#utility.yul\":12602:12605   */\n              dup3\n                /* \"#utility.yul\":12569:12606   */\n              tag_120\n              jump\t// in\n            tag_296:\n                /* \"#utility.yul\":12671:12689   */\n              0xffffffffffffffff\n                /* \"#utility.yul\":12663:12669   */\n              dup2\n                /* \"#utility.yul\":12660:12690   */\n              gt\n                /* \"#utility.yul\":12657:12713   */\n              iszero\n              tag_297\n              jumpi\n                /* \"#utility.yul\":12693:12711   */\n              tag_298\n              tag_127\n              jump\t// in\n            tag_298:\n                /* \"#utility.yul\":12657:12713   */\n            tag_297:\n                /* \"#utility.yul\":12737:12775   */\n              tag_299\n                /* \"#utility.yul\":12769:12773   */\n              dup3\n                /* \"#utility.yul\":12763:12774   */\n              sload\n                /* \"#utility.yul\":12737:12775   */\n              tag_84\n              jump\t// in\n            tag_299:\n                /* \"#utility.yul\":12822:12889   */\n              tag_300\n                /* \"#utility.yul\":12882:12888   */\n              dup3\n                /* \"#utility.yul\":12874:12880   */\n              dup3\n                /* \"#utility.yul\":12868:12872   */\n              dup6\n                /* \"#utility.yul\":12822:12889   */\n              tag_148\n              jump\t// in\n            tag_300:\n                /* \"#utility.yul\":12916:12917   */\n              0x00\n                /* \"#utility.yul\":12940:12944   */\n              0x20\n                /* \"#utility.yul\":12927:12944   */\n              swap1\n              pop\n                /* \"#utility.yul\":12972:12974   */\n              0x1f\n                /* \"#utility.yul\":12964:12970   */\n              dup4\n                /* \"#utility.yul\":12961:12975   */\n              gt\n                /* \"#utility.yul\":12989:12990   */\n              0x01\n                /* \"#utility.yul\":12984:13602   */\n              dup2\n              eq\n              tag_302\n              jumpi\n                /* \"#utility.yul\":13646:13647   */\n              0x00\n                /* \"#utility.yul\":13663:13669   */\n              dup5\n                /* \"#utility.yul\":13660:13737   */\n              iszero\n              tag_303\n              jumpi\n                /* \"#utility.yul\":13712:13721   */\n              dup3\n                /* \"#utility.yul\":13707:13710   */\n              dup8\n                /* \"#utility.yul\":13703:13722   */\n              add\n                /* \"#utility.yul\":13697:13723   */\n              mload\n                /* \"#utility.yul\":13688:13723   */\n              swap1\n              pop\n                /* \"#utility.yul\":13660:13737   */\n            tag_303:\n                /* \"#utility.yul\":13763:13830   */\n              tag_304\n                /* \"#utility.yul\":13823:13829   */\n              dup6\n                /* \"#utility.yul\":13816:13821   */\n              dup3\n                /* \"#utility.yul\":13763:13830   */\n              tag_151\n              jump\t// in\n            tag_304:\n                /* \"#utility.yul\":13757:13761   */\n              dup7\n                /* \"#utility.yul\":13750:13831   */\n              sstore\n                /* \"#utility.yul\":13619:13841   */\n              pop\n                /* \"#utility.yul\":12954:13841   */\n              jump(tag_301)\n                /* \"#utility.yul\":12984:13602   */\n            tag_302:\n                /* \"#utility.yul\":13036:13040   */\n              0x1f\n                /* \"#utility.yul\":13032:13041   */\n              not\n                /* \"#utility.yul\":13024:13030   */\n              dup5\n                /* \"#utility.yul\":13020:13042   */\n              and\n                /* \"#utility.yul\":13070:13107   */\n              tag_305\n                /* \"#utility.yul\":13102:13106   */\n              dup7\n                /* \"#utility.yul\":13070:13107   */\n              tag_137\n              jump\t// in\n            tag_305:\n                /* \"#utility.yul\":13129:13130   */\n              0x00\n                /* \"#utility.yul\":13143:13351   */\n            tag_306:\n                /* \"#utility.yul\":13157:13164   */\n              dup3\n                /* \"#utility.yul\":13154:13155   */\n              dup2\n                /* \"#utility.yul\":13151:13165   */\n              lt\n                /* \"#utility.yul\":13143:13351   */\n              iszero\n              tag_308\n              jumpi\n                /* \"#utility.yul\":13236:13245   */\n              dup5\n                /* \"#utility.yul\":13231:13234   */\n              dup10\n                /* \"#utility.yul\":13227:13246   */\n              add\n                /* \"#utility.yul\":13221:13247   */\n              mload\n                /* \"#utility.yul\":13213:13219   */\n              dup3\n                /* \"#utility.yul\":13206:13248   */\n              sstore\n                /* \"#utility.yul\":13287:13288   */\n              0x01\n                /* \"#utility.yul\":13279:13285   */\n              dup3\n                /* \"#utility.yul\":13275:13289   */\n              add\n                /* \"#utility.yul\":13265:13289   */\n              swap2\n              pop\n                /* \"#utility.yul\":13334:13336   */\n              0x20\n                /* \"#utility.yul\":13323:13332   */\n              dup6\n                /* \"#utility.yul\":13319:13337   */\n              add\n                /* \"#utility.yul\":13306:13337   */\n              swap5\n              pop\n                /* \"#utility.yul\":13180:13184   */\n              0x20\n                /* \"#utility.yul\":13177:13178   */\n              dup2\n                /* \"#utility.yul\":13173:13185   */\n              add\n                /* \"#utility.yul\":13168:13185   */\n              swap1\n              pop\n                /* \"#utility.yul\":13143:13351   */\n              jump(tag_306)\n            tag_308:\n                /* \"#utility.yul\":13379:13385   */\n              dup7\n                /* \"#utility.yul\":13370:13377   */\n              dup4\n                /* \"#utility.yul\":13367:13386   */\n              lt\n                /* \"#utility.yul\":13364:13543   */\n              iszero\n              tag_309\n              jumpi\n                /* \"#utility.yul\":13437:13446   */\n              dup5\n                /* \"#utility.yul\":13432:13435   */\n              dup10\n                /* \"#utility.yul\":13428:13447   */\n              add\n                /* \"#utility.yul\":13422:13448   */\n              mload\n                /* \"#utility.yul\":13480:13528   */\n              tag_310\n                /* \"#utility.yul\":13522:13526   */\n              0x1f\n                /* \"#utility.yul\":13514:13520   */\n              dup10\n                /* \"#utility.yul\":13510:13527   */\n              and\n                /* \"#utility.yul\":13499:13508   */\n              dup3\n                /* \"#utility.yul\":13480:13528   */\n              tag_150\n              jump\t// in\n            tag_310:\n                /* \"#utility.yul\":13472:13478   */\n              dup4\n                /* \"#utility.yul\":13465:13529   */\n              sstore\n                /* \"#utility.yul\":13387:13543   */\n              pop\n                /* \"#utility.yul\":13364:13543   */\n            tag_309:\n                /* \"#utility.yul\":13589:13590   */\n              0x01\n                /* \"#utility.yul\":13585:13586   */\n              0x02\n                /* \"#utility.yul\":13577:13583   */\n              dup9\n                /* \"#utility.yul\":13573:13587   */\n              mul\n                /* \"#utility.yul\":13569:13591   */\n              add\n                /* \"#utility.yul\":13563:13567   */\n              dup9\n                /* \"#utility.yul\":13556:13592   */\n              sstore\n                /* \"#utility.yul\":12991:13602   */\n              pop\n              pop\n              pop\n                /* \"#utility.yul\":12954:13841   */\n            tag_301:\n              pop\n                /* \"#utility.yul\":12544:13847   */\n              pop\n              pop\n              pop\n                /* \"#utility.yul\":12452:13847   */\n              pop\n              pop\n              jump\t// out\n                /* \"#utility.yul\":13853:14086   */\n            tag_98:\n                /* \"#utility.yul\":13892:13895   */\n              0x00\n                /* \"#utility.yul\":13915:13939   */\n              tag_312\n                /* \"#utility.yul\":13933:13938   */\n              dup3\n                /* \"#utility.yul\":13915:13939   */\n              tag_109\n              jump\t// in\n            tag_312:\n                /* \"#utility.yul\":13906:13939   */\n              swap2\n              pop\n                /* \"#utility.yul\":13961:14027   */\n              0xffffffffffffffffffffffffffffffffffffffffffffffffffffffffffffffff\n                /* \"#utility.yul\":13954:13959   */\n              dup3\n                /* \"#utility.yul\":13951:14028   */\n              sub\n                /* \"#utility.yul\":13948:14051   */\n              tag_313\n              jumpi\n                /* \"#utility.yul\":14031:14049   */\n              tag_314\n              tag_135\n              jump\t// in\n            tag_314:\n                /* \"#utility.yul\":13948:14051   */\n            tag_313:\n                /* \"#utility.yul\":14078:14079   */\n              0x01\n                /* \"#utility.yul\":14071:14076   */\n              dup3\n                /* \"#utility.yul\":14067:14080   */\n              add\n                /* \"#utility.yul\":14060:14080   */\n              swap1\n              pop\n                /* \"#utility.yul\":13853:14086   */\n              swap2\n              swap1\n              pop\n              jump\t// out\n\n            auxdata: 0xa2646970667358221220b590f932d4adb3cef4256d263757c0e1f3571a5398f72ff636b7d49b21119ae164736f6c63430008190033\n        }\n    }\n\n    auxdata: 0xa264697066735822122025172e1cb5807648c87610eb423e8a7af404d606c487a7f1d00b3842aa7266f464736f6c63430008190033\n}\n",
    "bytecode": {
      "linkReferences": {},
      "object": "6080604052348015600e575f80fd5b506121778061001c5f395ff3fe608060405234801561000f575f80fd5b5060043610610055575f3560e01c8063339d50a5146100595780634acb9d4f146100895780639b9e4aa9146100a7578063a3303a75146100c3578063a87430ba146100df575b5f80fd5b610073600480360381019061006e91906106ea565b610111565b6040516100809190610754565b60405180910390f35b61009161014b565b60405161009e9190610824565b60405180910390f35b6100c160048036038101906100bc91906109de565b6101d5565b005b6100dd60048036038101906100d891906106ea565b610475565b005b6100f960048036038101906100f49190610a4a565b6105c2565b60405161010893929190610b57565b60405180910390f35b5f818154811061011f575f80fd5b905f5260205f20015f915054906101000a900473ffffffffffffffffffffffffffffffffffffffff1681565b60605f8054806020026020016040519081016040528092919081815260200182805480156101cb57602002820191905f5260205f20905b815f9054906101000a900473ffffffffffffffffffffffffffffffffffffffff1673ffffffffffffffffffffffffffffffffffffffff1681526020019060010190808311610182575b5050505050905090565b5f73ffffffffffffffffffffffffffffffffffffffff1660015f8473ffffffffffffffffffffffffffffffffffffffff1673ffffffffffffffffffffffffffffffffffffffff1681526020019081526020015f205f015f9054906101000a900473ffffffffffffffffffffffffffffffffffffffff1673ffffffffffffffffffffffffffffffffffffffff16146102a1576040517f08c379a000000000000000000000000000000000000000000000000000000000815260040161029890610bdd565b60405180910390fd5b5f60028111156102b4576102b3610a84565b5b8160028111156102c7576102c6610a84565b5b14806102f75750600160028111156102e2576102e1610a84565b5b8160028111156102f5576102f4610a84565b5b145b8061032557506002808111156103105761030f610a84565b5b81600281111561032357610322610a84565b5b145b610364576040517f08c379a000000000000000000000000000000000000000000000000000000000815260040161035b90610c45565b60405180910390fd5b60405180606001604052808373ffffffffffffffffffffffffffffffffffffffff16815260200182600281111561039e5761039d610a84565b5b81526020018481525060015f8473ffffffffffffffffffffffffffffffffffffffff1673ffffffffffffffffffffffffffffffffffffffff1681526020019081526020015f205f820151815f015f6101000a81548173ffffffffffffffffffffffffffffffffffffffff021916908373ffffffffffffffffffffffffffffffffffffffff1602179055506020820151815f0160146101000a81548160ff0219169083600281111561045257610451610a84565b5b0217905550604082015181600101908161046c9190610e5d565b50905050505050565b5f80600281111561048957610488610a84565b5b60015f3373ffffffffffffffffffffffffffffffffffffffff1673ffffffffffffffffffffffffffffffffffffffff1681526020019081526020015f205f0160149054906101000a900460ff1660028111156104e8576104e7610a84565b5b14610528576040517f08c379a000000000000000000000000000000000000000000000000000000000815260040161051f90610f76565b60405180910390fd5b5f823360405161053790610699565b610542929190610fa3565b604051809103905ff08015801561055b573d5f803e3d5ffd5b5090505f81908060018154018082558091505060019003905f5260205f20015f9091909190916101000a81548173ffffffffffffffffffffffffffffffffffffffff021916908373ffffffffffffffffffffffffffffffffffffffff160217905550505050565b6001602052805f5260405f205f91509050805f015f9054906101000a900473ffffffffffffffffffffffffffffffffffffffff1690805f0160149054906101000a900460ff169080600101805461061890610c90565b80601f016020809104026020016040519081016040528092919081815260200182805461064490610c90565b801561068f5780601f106106665761010080835404028352916020019161068f565b820191905f5260205f20905b81548152906001019060200180831161067257829003601f168201915b5050505050905083565b61117780610fcb83390190565b5f604051905090565b5f80fd5b5f80fd5b5f819050919050565b6106c9816106b7565b81146106d3575f80fd5b50565b5f813590506106e4816106c0565b92915050565b5f602082840312156106ff576106fe6106af565b5b5f61070c848285016106d6565b91505092915050565b5f73ffffffffffffffffffffffffffffffffffffffff82169050919050565b5f61073e82610715565b9050919050565b61074e81610734565b82525050565b5f6020820190506107675f830184610745565b92915050565b5f81519050919050565b5f82825260208201905092915050565b5f819050602082019050919050565b61079f81610734565b82525050565b5f6107b08383610796565b60208301905092915050565b5f602082019050919050565b5f6107d28261076d565b6107dc8185610777565b93506107e783610787565b805f5b838110156108175781516107fe88826107a5565b9750610809836107bc565b9250506001810190506107ea565b5085935050505092915050565b5f6020820190508181035f83015261083c81846107c8565b905092915050565b5f80fd5b5f80fd5b5f601f19601f8301169050919050565b7f4e487b71000000000000000000000000000000000000000000000000000000005f52604160045260245ffd5b6108928261084c565b810181811067ffffffffffffffff821117156108b1576108b061085c565b5b80604052505050565b5f6108c36106a6565b90506108cf8282610889565b919050565b5f67ffffffffffffffff8211156108ee576108ed61085c565b5b6108f78261084c565b9050602081019050919050565b828183375f83830152505050565b5f61092461091f846108d4565b6108ba565b9050828152602081018484840111156109405761093f610848565b5b61094b848285610904565b509392505050565b5f82601f83011261096757610966610844565b5b8135610977848260208601610912565b91505092915050565b5f61098a82610715565b9050919050565b61099a81610980565b81146109a4575f80fd5b50565b5f813590506109b581610991565b92915050565b600381106109c7575f80fd5b50565b5f813590506109d8816109bb565b92915050565b5f805f606084860312156109f5576109f46106af565b5b5f84013567ffffffffffffffff811115610a1257610a116106b3565b5b610a1e86828701610953565b9350506020610a2f868287016109a7565b9250506040610a40868287016109ca565b9150509250925092565b5f60208284031215610a5f57610a5e6106af565b5b5f610a6c848285016109a7565b91505092915050565b610a7e81610980565b82525050565b7f4e487b71000000000000000000000000000000000000000000000000000000005f52602160045260245ffd5b60038110610ac257610ac1610a84565b5b50565b5f819050610ad282610ab1565b919050565b5f610ae182610ac5565b9050919050565b610af181610ad7565b82525050565b5f81519050919050565b5f82825260208201905092915050565b8281835e5f83830152505050565b5f610b2982610af7565b610b338185610b01565b9350610b43818560208601610b11565b610b4c8161084c565b840191505092915050565b5f606082019050610b6a5f830186610a75565b610b776020830185610ae8565b8181036040830152610b898184610b1f565b9050949350505050565b7f5573657220616c726561647920657869737473000000000000000000000000005f82015250565b5f610bc7601383610b01565b9150610bd282610b93565b602082019050919050565b5f6020820190508181035f830152610bf481610bbb565b9050919050565b7f496e76616c696420726f6c6500000000000000000000000000000000000000005f82015250565b5f610c2f600c83610b01565b9150610c3a82610bfb565b602082019050919050565b5f6020820190508181035f830152610c5c81610c23565b9050919050565b7f4e487b71000000000000000000000000000000000000000000000000000000005f52602260045260245ffd5b5f6002820490506001821680610ca757607f821691505b602082108103610cba57610cb9610c63565b5b50919050565b5f819050815f5260205f209050919050565b5f6020601f8301049050919050565b5f82821b905092915050565b5f60088302610d1c7fffffffffffffffffffffffffffffffffffffffffffffffffffffffffffffffff82610ce1565b610d268683610ce1565b95508019841693508086168417925050509392505050565b5f819050919050565b5f610d61610d5c610d57846106b7565b610d3e565b6106b7565b9050919050565b5f819050919050565b610d7a83610d47565b610d8e610d8682610d68565b848454610ced565b825550505050565b5f90565b610da2610d96565b610dad818484610d71565b505050565b5b81811015610dd057610dc55f82610d9a565b600181019050610db3565b5050565b601f821115610e1557610de681610cc0565b610def84610cd2565b81016020851015610dfe578190505b610e12610e0a85610cd2565b830182610db2565b50505b505050565b5f82821c905092915050565b5f610e355f1984600802610e1a565b1980831691505092915050565b5f610e4d8383610e26565b9150826002028217905092915050565b610e6682610af7565b67ffffffffffffffff811115610e7f57610e7e61085c565b5b610e898254610c90565b610e94828285610dd4565b5f60209050601f831160018114610ec5575f8415610eb3578287015190505b610ebd8582610e42565b865550610f24565b601f198416610ed386610cc0565b5f5b82811015610efa57848901518255600182019150602085019450602081019050610ed5565b86831015610f175784890151610f13601f891682610e26565b8355505b6001600288020188555050505b505050505050565b7f556e617574686f72697a656420616374696f6e000000000000000000000000005f82015250565b5f610f60601383610b01565b9150610f6b82610f2c565b602082019050919050565b5f6020820190508181035f830152610f8d81610f54565b9050919050565b610f9d816106b7565b82525050565b5f604082019050610fb65f830185610f94565b610fc36020830184610a75565b939250505056fe608060405234801561000f575f80fd5b5060405161117738038061117783398181016040528101906100319190610110565b8060015f6101000a81548173ffffffffffffffffffffffffffffffffffffffff021916908373ffffffffffffffffffffffffffffffffffffffff16021790555081600281905550505061014e565b5f80fd5b5f819050919050565b61009581610083565b811461009f575f80fd5b50565b5f815190506100b08161008c565b92915050565b5f73ffffffffffffffffffffffffffffffffffffffff82169050919050565b5f6100df826100b6565b9050919050565b6100ef816100d5565b81146100f9575f80fd5b50565b5f8151905061010a816100e6565b92915050565b5f80604083850312156101265761012561007f565b5b5f610133858286016100a2565b9250506020610144858286016100fc565b9150509250929050565b61101c8061015b5f395ff3fe60806040526004361061009b575f3560e01c806381d12c581161006357806381d12c581461018557806382fde093146101c55780638a9cfd55146101ef578063937e09b114610217578063d7bb99ba14610241578063d7d1bbdb1461024b5761009b565b8063034410061461009f5780630a144391146100c75780633410452a146101035780634051ddac1461012d578063481c6a751461015b575b5f80fd5b3480156100aa575f80fd5b506100c560048036038101906100c0919061083b565b610273565b005b3480156100d2575f80fd5b506100ed60048036038101906100e891906108c0565b6103b1565b6040516100fa9190610905565b60405180910390f35b34801561010e575f80fd5b506101176103ce565b604051610124919061092d565b60405180910390f35b348015610138575f80fd5b506101416103d9565b604051610152959493929190610955565b60405180910390f35b348015610166575f80fd5b5061016f61041d565b60405161017c91906109a6565b60405180910390f35b348015610190575f80fd5b506101ab60048036038101906101a6919061083b565b610442565b6040516101bc959493929190610a2f565b60405180910390f35b3480156101d0575f80fd5b506101d9610534565b6040516101e6919061092d565b60405180910390f35b3480156101fa575f80fd5b5061021560048036038101906102109190610bb3565b61053a565b005b348015610222575f80fd5b5061022b610639565b604051610238919061092d565b60405180910390f35b61024961063f565b005b348015610256575f80fd5b50610271600480360381019061026c919061083b565b6106ba565b005b60015f9054906101000a900473ffffffffffffffffffffffffffffffffffffffff1673ffffffffffffffffffffffffffffffffffffffff163373ffffffffffffffffffffffffffffffffffffffff16146102cb575f80fd5b5f8082815481106102df576102de610c1f565b5b905f5260205f209060050201905060026004546102fc9190610ca6565b81600301541161030a575f80fd5b8060020160149054906101000a900460ff1615610325575f80fd5b806002015f9054906101000a900473ffffffffffffffffffffffffffffffffffffffff1673ffffffffffffffffffffffffffffffffffffffff166108fc826001015490811502906040515f60405180830381858888f1935050505015801561038f573d5f803e3d5ffd5b5060018160020160146101000a81548160ff0219169083151502179055505050565b6003602052805f5260405f205f915054906101000a900460ff1681565b5f8080549050905090565b5f805f805f600254475f8054905060045460015f9054906101000a900473ffffffffffffffffffffffffffffffffffffffff16945094509450945094509091929394565b60015f9054906101000a900473ffffffffffffffffffffffffffffffffffffffff1681565b5f8181548110610450575f80fd5b905f5260205f2090600502015f91509050805f01805461046f90610d03565b80601f016020809104026020016040519081016040528092919081815260200182805461049b90610d03565b80156104e65780601f106104bd576101008083540402835291602001916104e6565b820191905f5260205f20905b8154815290600101906020018083116104c957829003601f168201915b505050505090806001015490806002015f9054906101000a900473ffffffffffffffffffffffffffffffffffffffff16908060020160149054906101000a900460ff16908060030154905085565b60045481565b60015f9054906101000a900473ffffffffffffffffffffffffffffffffffffffff1673ffffffffffffffffffffffffffffffffffffffff163373ffffffffffffffffffffffffffffffffffffffff1614610592575f80fd5b5f8060018160018154018082558091505003905f5260205f209060050201905083815f0190816105c29190610ed0565b5082816001018190555081816002015f6101000a81548173ffffffffffffffffffffffffffffffffffffffff021916908373ffffffffffffffffffffffffffffffffffffffff1602179055505f8160020160146101000a81548160ff0219169083151502179055505f816003018190555050505050565b60025481565b600254341161064c575f80fd5b600160035f3373ffffffffffffffffffffffffffffffffffffffff1673ffffffffffffffffffffffffffffffffffffffff1681526020019081526020015f205f6101000a81548160ff02191690831515021790555060045f8154809291906106b390610f9f565b9190505550565b5f8082815481106106ce576106cd610c1f565b5b905f5260205f209060050201905060035f3373ffffffffffffffffffffffffffffffffffffffff1673ffffffffffffffffffffffffffffffffffffffff1681526020019081526020015f205f9054906101000a900460ff1661072e575f80fd5b806004015f3373ffffffffffffffffffffffffffffffffffffffff1673ffffffffffffffffffffffffffffffffffffffff1681526020019081526020015f205f9054906101000a900460ff1615610783575f80fd5b6001816004015f3373ffffffffffffffffffffffffffffffffffffffff1673ffffffffffffffffffffffffffffffffffffffff1681526020019081526020015f205f6101000a81548160ff021916908315150217905550806003015f8154809291906107ee90610f9f565b91905055505050565b5f604051905090565b5f80fd5b5f80fd5b5f819050919050565b61081a81610808565b8114610824575f80fd5b50565b5f8135905061083581610811565b92915050565b5f602082840312156108505761084f610800565b5b5f61085d84828501610827565b91505092915050565b5f73ffffffffffffffffffffffffffffffffffffffff82169050919050565b5f61088f82610866565b9050919050565b61089f81610885565b81146108a9575f80fd5b50565b5f813590506108ba81610896565b92915050565b5f602082840312156108d5576108d4610800565b5b5f6108e2848285016108ac565b91505092915050565b5f8115159050919050565b6108ff816108eb565b82525050565b5f6020820190506109185f8301846108f6565b92915050565b61092781610808565b82525050565b5f6020820190506109405f83018461091e565b92915050565b61094f81610885565b82525050565b5f60a0820190506109685f83018861091e565b610975602083018761091e565b610982604083018661091e565b61098f606083018561091e565b61099c6080830184610946565b9695505050505050565b5f6020820190506109b95f830184610946565b92915050565b5f81519050919050565b5f82825260208201905092915050565b8281835e5f83830152505050565b5f601f19601f8301169050919050565b5f610a01826109bf565b610a0b81856109c9565b9350610a1b8185602086016109d9565b610a24816109e7565b840191505092915050565b5f60a0820190508181035f830152610a4781886109f7565b9050610a56602083018761091e565b610a636040830186610946565b610a7060608301856108f6565b610a7d608083018461091e565b9695505050505050565b5f80fd5b5f80fd5b7f4e487b71000000000000000000000000000000000000000000000000000000005f52604160045260245ffd5b610ac5826109e7565b810181811067ffffffffffffffff82111715610ae457610ae3610a8f565b5b80604052505050565b5f610af66107f7565b9050610b028282610abc565b919050565b5f67ffffffffffffffff821115610b2157610b20610a8f565b5b610b2a826109e7565b9050602081019050919050565b828183375f83830152505050565b5f610b57610b5284610b07565b610aed565b905082815260208101848484011115610b7357610b72610a8b565b5b610b7e848285610b37565b509392505050565b5f82601f830112610b9a57610b99610a87565b5b8135610baa848260208601610b45565b91505092915050565b5f805f60608486031215610bca57610bc9610800565b5b5f84013567ffffffffffffffff811115610be757610be6610804565b5b610bf386828701610b86565b9350506020610c0486828701610827565b9250506040610c15868287016108ac565b9150509250925092565b7f4e487b71000000000000000000000000000000000000000000000000000000005f52603260045260245ffd5b7f4e487b71000000000000000000000000000000000000000000000000000000005f52601260045260245ffd5b7f4e487b71000000000000000000000000000000000000000000000000000000005f52601160045260245ffd5b5f610cb082610808565b9150610cbb83610808565b925082610ccb57610cca610c4c565b5b828204905092915050565b7f4e487b71000000000000000000000000000000000000000000000000000000005f52602260045260245ffd5b5f6002820490506001821680610d1a57607f821691505b602082108103610d2d57610d2c610cd6565b5b50919050565b5f819050815f5260205f209050919050565b5f6020601f8301049050919050565b5f82821b905092915050565b5f60088302610d8f7fffffffffffffffffffffffffffffffffffffffffffffffffffffffffffffffff82610d54565b610d998683610d54565b95508019841693508086168417925050509392505050565b5f819050919050565b5f610dd4610dcf610dca84610808565b610db1565b610808565b9050919050565b5f819050919050565b610ded83610dba565b610e01610df982610ddb565b848454610d60565b825550505050565b5f90565b610e15610e09565b610e20818484610de4565b505050565b5b81811015610e4357610e385f82610e0d565b600181019050610e26565b5050565b601f821115610e8857610e5981610d33565b610e6284610d45565b81016020851015610e71578190505b610e85610e7d85610d45565b830182610e25565b50505b505050565b5f82821c905092915050565b5f610ea85f1984600802610e8d565b1980831691505092915050565b5f610ec08383610e99565b9150826002028217905092915050565b610ed9826109bf565b67ffffffffffffffff811115610ef257610ef1610a8f565b5b610efc8254610d03565b610f07828285610e47565b5f60209050601f831160018114610f38575f8415610f26578287015190505b610f308582610eb5565b865550610f97565b601f198416610f4686610d33565b5f5b82811015610f6d57848901518255600182019150602085019450602081019050610f48565b86831015610f8a5784890151610f86601f891682610e99565b8355505b6001600288020188555050505b505050505050565b5f610fa982610808565b91507fffffffffffffffffffffffffffffffffffffffffffffffffffffffffffffffff8203610fdb57610fda610c79565b5b60018201905091905056fea2646970667358221220b590f932d4adb3cef4256d263757c0e1f3571a5398f72ff636b7d49b21119ae164736f6c63430008190033a264697066735822122025172e1cb5807648c87610eb423e8a7af404d606c487a7f1d00b3842aa7266f464736f6c63430008190033",
      "opcodes": "PUSH1 0x80 PUSH1 0x40 MSTORE CALLVALUE DUP1 ISZERO PUSH1 0xE JUMPI PUSH0 DUP1 REVERT JUMPDEST POP PUSH2 0x2177 DUP1 PUSH2 0x1C PUSH0 CODECOPY PUSH0 RETURN INVALID PUSH1 0x80 PUSH1 0x40 MSTORE CALLVALUE DUP1 ISZERO PUSH2 0xF JUMPI PUSH0 DUP1 REVERT JUMPDEST POP PUSH1 0x4 CALLDATASIZE LT PUSH2 0x55 JUMPI PUSH0 CALLDATALOAD PUSH1 0xE0 SHR DUP1 PUSH4 0x339D50A5 EQ PUSH2 0x59 JUMPI DUP1 PUSH4 0x4ACB9D4F EQ PUSH2 0x89 JUMPI DUP1 PUSH4 0x9B9E4AA9 EQ PUSH2 0xA7 JUMPI DUP1 PUSH4 0xA3303A75 EQ PUSH2 0xC3 JUMPI DUP1 PUSH4 0xA87430BA EQ PUSH2 0xDF JUMPI JUMPDEST PUSH0 DUP1 REVERT JUMPDEST PUSH2 0x73 PUSH1 0x4 DUP1 CALLDATASIZE SUB DUP2 ADD SWAP1 PUSH2 0x6E SWAP2 SWAP1 PUSH2 0x6EA JUMP JUMPDEST PUSH2 0x111 JUMP JUMPDEST PUSH1 0x40 MLOAD PUSH2 0x80 SWAP2 SWAP1 PUSH2 0x754 JUMP JUMPDEST PUSH1 0x40 MLOAD DUP1 SWAP2 SUB SWAP1 RETURN JUMPDEST PUSH2 0x91 PUSH2 0x14B JUMP JUMPDEST PUSH1 0x40 MLOAD PUSH2 0x9E SWAP2 SWAP1 PUSH2 0x824 JUMP JUMPDEST PUSH1 0x40 MLOAD DUP1 SWAP2 SUB SWAP1 RETURN JUMPDEST PUSH2 0xC1 PUSH1 0x4 DUP1 CALLDATASIZE SUB DUP2 ADD SWAP1 PUSH2 0xBC SWAP2 SWAP1 PUSH2 0x9DE JUMP JUMPDEST PUSH2 0x1D5 JUMP JUMPDEST STOP JUMPDEST PUSH2 0xDD PUSH1 0x4 DUP1 CALLDATASIZE SUB DUP2 ADD SWAP1 PUSH2 0xD8 SWAP2 SWAP1 PUSH2 0x6EA JUMP JUMPDEST PUSH2 0x475 JUMP JUMPDEST STOP JUMPDEST PUSH2 0xF9 PUSH1 0x4 DUP1 CALLDATASIZE SUB DUP2 ADD SWAP1 PUSH2 0xF4 SWAP2 SWAP1 PUSH2 0xA4A JUMP JUMPDEST PUSH2 0x5C2 JUMP JUMPDEST PUSH1 0x40 MLOAD PUSH2 0x108 SWAP4 SWAP3 SWAP2 SWAP1 PUSH2 0xB57 JUMP JUMPDEST PUSH1 0x40 MLOAD DUP1 SWAP2 SUB SWAP1 RETURN JUMPDEST PUSH0 DUP2 DUP2 SLOAD DUP2 LT PUSH2 0x11F JUMPI PUSH0 DUP1 REVERT JUMPDEST SWAP1 PUSH0 MSTORE PUSH1 0x20 PUSH0 KECCAK256 ADD PUSH0 SWAP2 POP SLOAD SWAP1 PUSH2 0x100 EXP SWAP1 DIV PUSH20 0xFFFFFFFFFFFFFFFFFFFFFFFFFFFFFFFFFFFFFFFF AND DUP2 JUMP JUMPDEST PUSH1 0x60 PUSH0 DUP1 SLOAD DUP1 PUSH1 0x20 MUL PUSH1 0x20 ADD PUSH1 0x40 MLOAD SWAP1 DUP2 ADD PUSH1 0x40 MSTORE DUP1 SWAP3 SWAP2 SWAP1 DUP2 DUP2 MSTORE PUSH1 0x20 ADD DUP3 DUP1 SLOAD DUP1 ISZERO PUSH2 0x1CB JUMPI PUSH1 0x20 MUL DUP3 ADD SWAP2 SWAP1 PUSH0 MSTORE PUSH1 0x20 PUSH0 KECCAK256 SWAP1 JUMPDEST DUP2 PUSH0 SWAP1 SLOAD SWAP1 PUSH2 0x100 EXP SWAP1 DIV PUSH20 0xFFFFFFFFFFFFFFFFFFFFFFFFFFFFFFFFFFFFFFFF AND PUSH20 0xFFFFFFFFFFFFFFFFFFFFFFFFFFFFFFFFFFFFFFFF AND DUP2 MSTORE PUSH1 0x20 ADD SWAP1 PUSH1 0x1 ADD SWAP1 DUP1 DUP4 GT PUSH2 0x182 JUMPI JUMPDEST POP POP POP POP POP SWAP1 POP SWAP1 JUMP JUMPDEST PUSH0 PUSH20 0xFFFFFFFFFFFFFFFFFFFFFFFFFFFFFFFFFFFFFFFF AND PUSH1 0x1 PUSH0 DUP5 PUSH20 0xFFFFFFFFFFFFFFFFFFFFFFFFFFFFFFFFFFFFFFFF AND PUSH20 0xFFFFFFFFFFFFFFFFFFFFFFFFFFFFFFFFFFFFFFFF AND DUP2 MSTORE PUSH1 0x20 ADD SWAP1 DUP2 MSTORE PUSH1 0x20 ADD PUSH0 KECCAK256 PUSH0 ADD PUSH0 SWAP1 SLOAD SWAP1 PUSH2 0x100 EXP SWAP1 DIV PUSH20 0xFFFFFFFFFFFFFFFFFFFFFFFFFFFFFFFFFFFFFFFF AND PUSH20 0xFFFFFFFFFFFFFFFFFFFFFFFFFFFFFFFFFFFFFFFF AND EQ PUSH2 0x2A1 JUMPI PUSH1 0x40 MLOAD PUSH32 0x8C379A000000000000000000000000000000000000000000000000000000000 DUP2 MSTORE PUSH1 0x4 ADD PUSH2 0x298 SWAP1 PUSH2 0xBDD JUMP JUMPDEST PUSH1 0x40 MLOAD DUP1 SWAP2 SUB SWAP1 REVERT JUMPDEST PUSH0 PUSH1 0x2 DUP2 GT ISZERO PUSH2 0x2B4 JUMPI PUSH2 0x2B3 PUSH2 0xA84 JUMP JUMPDEST JUMPDEST DUP2 PUSH1 0x2 DUP2 GT ISZERO PUSH2 0x2C7 JUMPI PUSH2 0x2C6 PUSH2 0xA84 JUMP JUMPDEST JUMPDEST EQ DUP1 PUSH2 0x2F7 JUMPI POP PUSH1 0x1 PUSH1 0x2 DUP2 GT ISZERO PUSH2 0x2E2 JUMPI PUSH2 0x2E1 PUSH2 0xA84 JUMP JUMPDEST JUMPDEST DUP2 PUSH1 0x2 DUP2 GT ISZERO PUSH2 0x2F5 JUMPI PUSH2 0x2F4 PUSH2 0xA84 JUMP JUMPDEST JUMPDEST EQ JUMPDEST DUP1 PUSH2 0x325 JUMPI POP PUSH1 0x2 DUP1 DUP2 GT ISZERO PUSH2 0x310 JUMPI PUSH2 0x30F PUSH2 0xA84 JUMP JUMPDEST JUMPDEST DUP2 PUSH1 0x2 DUP2 GT ISZERO PUSH2 0x323 JUMPI PUSH2 0x322 PUSH2 0xA84 JUMP JUMPDEST JUMPDEST EQ JUMPDEST PUSH2 0x364 JUMPI PUSH1 0x40 MLOAD PUSH32 0x8C379A000000000000000000000000000000000000000000000000000000000 DUP2 MSTORE PUSH1 0x4 ADD PUSH2 0x35B SWAP1 PUSH2 0xC45 JUMP JUMPDEST PUSH1 0x40 MLOAD DUP1 SWAP2 SUB SWAP1 REVERT JUMPDEST PUSH1 0x40 MLOAD DUP1 PUSH1 0x60 ADD PUSH1 0x40 MSTORE DUP1 DUP4 PUSH20 0xFFFFFFFFFFFFFFFFFFFFFFFFFFFFFFFFFFFFFFFF AND DUP2 MSTORE PUSH1 0x20 ADD DUP3 PUSH1 0x2 DUP2 GT ISZERO PUSH2 0x39E JUMPI PUSH2 0x39D PUSH2 0xA84 JUMP JUMPDEST JUMPDEST DUP2 MSTORE PUSH1 0x20 ADD DUP5 DUP2 MSTORE POP PUSH1 0x1 PUSH0 DUP5 PUSH20 0xFFFFFFFFFFFFFFFFFFFFFFFFFFFFFFFFFFFFFFFF AND PUSH20 0xFFFFFFFFFFFFFFFFFFFFFFFFFFFFFFFFFFFFFFFF AND DUP2 MSTORE PUSH1 0x20 ADD SWAP1 DUP2 MSTORE PUSH1 0x20 ADD PUSH0 KECCAK256 PUSH0 DUP3 ADD MLOAD DUP2 PUSH0 ADD PUSH0 PUSH2 0x100 EXP DUP2 SLOAD DUP2 PUSH20 0xFFFFFFFFFFFFFFFFFFFFFFFFFFFFFFFFFFFFFFFF MUL NOT AND SWAP1 DUP4 PUSH20 0xFFFFFFFFFFFFFFFFFFFFFFFFFFFFFFFFFFFFFFFF AND MUL OR SWAP1 SSTORE POP PUSH1 0x20 DUP3 ADD MLOAD DUP2 PUSH0 ADD PUSH1 0x14 PUSH2 0x100 EXP DUP2 SLOAD DUP2 PUSH1 0xFF MUL NOT AND SWAP1 DUP4 PUSH1 0x2 DUP2 GT ISZERO PUSH2 0x452 JUMPI PUSH2 0x451 PUSH2 0xA84 JUMP JUMPDEST JUMPDEST MUL OR SWAP1 SSTORE POP PUSH1 0x40 DUP3 ADD MLOAD DUP2 PUSH1 0x1 ADD SWAP1 DUP2 PUSH2 0x46C SWAP2 SWAP1 PUSH2 0xE5D JUMP JUMPDEST POP SWAP1 POP POP POP POP POP JUMP JUMPDEST PUSH0 DUP1 PUSH1 0x2 DUP2 GT ISZERO PUSH2 0x489 JUMPI PUSH2 0x488 PUSH2 0xA84 JUMP JUMPDEST JUMPDEST PUSH1 0x1 PUSH0 CALLER PUSH20 0xFFFFFFFFFFFFFFFFFFFFFFFFFFFFFFFFFFFFFFFF AND PUSH20 0xFFFFFFFFFFFFFFFFFFFFFFFFFFFFFFFFFFFFFFFF AND DUP2 MSTORE PUSH1 0x20 ADD SWAP1 DUP2 MSTORE PUSH1 0x20 ADD PUSH0 KECCAK256 PUSH0 ADD PUSH1 0x14 SWAP1 SLOAD SWAP1 PUSH2 0x100 EXP SWAP1 DIV PUSH1 0xFF AND PUSH1 0x2 DUP2 GT ISZERO PUSH2 0x4E8 JUMPI PUSH2 0x4E7 PUSH2 0xA84 JUMP JUMPDEST JUMPDEST EQ PUSH2 0x528 JUMPI PUSH1 0x40 MLOAD PUSH32 0x8C379A000000000000000000000000000000000000000000000000000000000 DUP2 MSTORE PUSH1 0x4 ADD PUSH2 0x51F SWAP1 PUSH2 0xF76 JUMP JUMPDEST PUSH1 0x40 MLOAD DUP1 SWAP2 SUB SWAP1 REVERT JUMPDEST PUSH0 DUP3 CALLER PUSH1 0x40 MLOAD PUSH2 0x537 SWAP1 PUSH2 0x699 JUMP JUMPDEST PUSH2 0x542 SWAP3 SWAP2 SWAP1 PUSH2 0xFA3 JUMP JUMPDEST PUSH1 0x40 MLOAD DUP1 SWAP2 SUB SWAP1 PUSH0 CREATE DUP1 ISZERO DUP1 ISZERO PUSH2 0x55B JUMPI RETURNDATASIZE PUSH0 DUP1 RETURNDATACOPY RETURNDATASIZE PUSH0 REVERT JUMPDEST POP SWAP1 POP PUSH0 DUP2 SWAP1 DUP1 PUSH1 0x1 DUP2 SLOAD ADD DUP1 DUP3 SSTORE DUP1 SWAP2 POP POP PUSH1 0x1 SWAP1 SUB SWAP1 PUSH0 MSTORE PUSH1 0x20 PUSH0 KECCAK256 ADD PUSH0 SWAP1 SWAP2 SWAP1 SWAP2 SWAP1 SWAP2 PUSH2 0x100 EXP DUP2 SLOAD DUP2 PUSH20 0xFFFFFFFFFFFFFFFFFFFFFFFFFFFFFFFFFFFFFFFF MUL NOT AND SWAP1 DUP4 PUSH20 0xFFFFFFFFFFFFFFFFFFFFFFFFFFFFFFFFFFFFFFFF AND MUL OR SWAP1 SSTORE POP POP POP POP JUMP JUMPDEST PUSH1 0x1 PUSH1 0x20 MSTORE DUP1 PUSH0 MSTORE PUSH1 0x40 PUSH0 KECCAK256 PUSH0 SWAP2 POP SWAP1 POP DUP1 PUSH0 ADD PUSH0 SWAP1 SLOAD SWAP1 PUSH2 0x100 EXP SWAP1 DIV PUSH20 0xFFFFFFFFFFFFFFFFFFFFFFFFFFFFFFFFFFFFFFFF AND SWAP1 DUP1 PUSH0 ADD PUSH1 0x14 SWAP1 SLOAD SWAP1 PUSH2 0x100 EXP SWAP1 DIV PUSH1 0xFF AND SWAP1 DUP1 PUSH1 0x1 ADD DUP1 SLOAD PUSH2 0x618 SWAP1 PUSH2 0xC90 JUMP JUMPDEST DUP1 PUSH1 0x1F ADD PUSH1 0x20 DUP1 SWAP2 DIV MUL PUSH1 0x20 ADD PUSH1 0x40 MLOAD SWAP1 DUP2 ADD PUSH1 0x40 MSTORE DUP1 SWAP3 SWAP2 SWAP1 DUP2 DUP2 MSTORE PUSH1 0x20 ADD DUP3 DUP1 SLOAD PUSH2 0x644 SWAP1 PUSH2 0xC90 JUMP JUMPDEST DUP1 ISZERO PUSH2 0x68F JUMPI DUP1 PUSH1 0x1F LT PUSH2 0x666 JUMPI PUSH2 0x100 DUP1 DUP4 SLOAD DIV MUL DUP4 MSTORE SWAP2 PUSH1 0x20 ADD SWAP2 PUSH2 0x68F JUMP JUMPDEST DUP3 ADD SWAP2 SWAP1 PUSH0 MSTORE PUSH1 0x20 PUSH0 KECCAK256 SWAP1 JUMPDEST DUP2 SLOAD DUP2 MSTORE SWAP1 PUSH1 0x1 ADD SWAP1 PUSH1 0x20 ADD DUP1 DUP4 GT PUSH2 0x672 JUMPI DUP3 SWAP1 SUB PUSH1 0x1F AND DUP3 ADD SWAP2 JUMPDEST POP POP POP POP POP SWAP1 POP DUP4 JUMP JUMPDEST PUSH2 0x1177 DUP1 PUSH2 0xFCB DUP4 CODECOPY ADD SWAP1 JUMP JUMPDEST PUSH0 PUSH1 0x40 MLOAD SWAP1 POP SWAP1 JUMP JUMPDEST PUSH0 DUP1 REVERT JUMPDEST PUSH0 DUP1 REVERT JUMPDEST PUSH0 DUP2 SWAP1 POP SWAP2 SWAP1 POP JUMP JUMPDEST PUSH2 0x6C9 DUP2 PUSH2 0x6B7 JUMP JUMPDEST DUP2 EQ PUSH2 0x6D3 JUMPI PUSH0 DUP1 REVERT JUMPDEST POP JUMP JUMPDEST PUSH0 DUP2 CALLDATALOAD SWAP1 POP PUSH2 0x6E4 DUP2 PUSH2 0x6C0 JUMP JUMPDEST SWAP3 SWAP2 POP POP JUMP JUMPDEST PUSH0 PUSH1 0x20 DUP3 DUP5 SUB SLT ISZERO PUSH2 0x6FF JUMPI PUSH2 0x6FE PUSH2 0x6AF JUMP JUMPDEST JUMPDEST PUSH0 PUSH2 0x70C DUP5 DUP3 DUP6 ADD PUSH2 0x6D6 JUMP JUMPDEST SWAP2 POP POP SWAP3 SWAP2 POP POP JUMP JUMPDEST PUSH0 PUSH20 0xFFFFFFFFFFFFFFFFFFFFFFFFFFFFFFFFFFFFFFFF DUP3 AND SWAP1 POP SWAP2 SWAP1 POP JUMP JUMPDEST PUSH0 PUSH2 0x73E DUP3 PUSH2 0x715 JUMP JUMPDEST SWAP1 POP SWAP2 SWAP1 POP JUMP JUMPDEST PUSH2 0x74E DUP2 PUSH2 0x734 JUMP JUMPDEST DUP3 MSTORE POP POP JUMP JUMPDEST PUSH0 PUSH1 0x20 DUP3 ADD SWAP1 POP PUSH2 0x767 PUSH0 DUP4 ADD DUP5 PUSH2 0x745 JUMP JUMPDEST SWAP3 SWAP2 POP POP JUMP JUMPDEST PUSH0 DUP2 MLOAD SWAP1 POP SWAP2 SWAP1 POP JUMP JUMPDEST PUSH0 DUP3 DUP3 MSTORE PUSH1 0x20 DUP3 ADD SWAP1 POP SWAP3 SWAP2 POP POP JUMP JUMPDEST PUSH0 DUP2 SWAP1 POP PUSH1 0x20 DUP3 ADD SWAP1 POP SWAP2 SWAP1 POP JUMP JUMPDEST PUSH2 0x79F DUP2 PUSH2 0x734 JUMP JUMPDEST DUP3 MSTORE POP POP JUMP JUMPDEST PUSH0 PUSH2 0x7B0 DUP4 DUP4 PUSH2 0x796 JUMP JUMPDEST PUSH1 0x20 DUP4 ADD SWAP1 POP SWAP3 SWAP2 POP POP JUMP JUMPDEST PUSH0 PUSH1 0x20 DUP3 ADD SWAP1 POP SWAP2 SWAP1 POP JUMP JUMPDEST PUSH0 PUSH2 0x7D2 DUP3 PUSH2 0x76D JUMP JUMPDEST PUSH2 0x7DC DUP2 DUP6 PUSH2 0x777 JUMP JUMPDEST SWAP4 POP PUSH2 0x7E7 DUP4 PUSH2 0x787 JUMP JUMPDEST DUP1 PUSH0 JUMPDEST DUP4 DUP2 LT ISZERO PUSH2 0x817 JUMPI DUP2 MLOAD PUSH2 0x7FE DUP9 DUP3 PUSH2 0x7A5 JUMP JUMPDEST SWAP8 POP PUSH2 0x809 DUP4 PUSH2 0x7BC JUMP JUMPDEST SWAP3 POP POP PUSH1 0x1 DUP2 ADD SWAP1 POP PUSH2 0x7EA JUMP JUMPDEST POP DUP6 SWAP4 POP POP POP POP SWAP3 SWAP2 POP POP JUMP JUMPDEST PUSH0 PUSH1 0x20 DUP3 ADD SWAP1 POP DUP2 DUP2 SUB PUSH0 DUP4 ADD MSTORE PUSH2 0x83C DUP2 DUP5 PUSH2 0x7C8 JUMP JUMPDEST SWAP1 POP SWAP3 SWAP2 POP POP JUMP JUMPDEST PUSH0 DUP1 REVERT JUMPDEST PUSH0 DUP1 REVERT JUMPDEST PUSH0 PUSH1 0x1F NOT PUSH1 0x1F DUP4 ADD AND SWAP1 POP SWAP2 SWAP1 POP JUMP JUMPDEST PUSH32 0x4E487B7100000000000000000000000000000000000000000000000000000000 PUSH0 MSTORE PUSH1 0x41 PUSH1 0x4 MSTORE PUSH1 0x24 PUSH0 REVERT JUMPDEST PUSH2 0x892 DUP3 PUSH2 0x84C JUMP JUMPDEST DUP2 ADD DUP2 DUP2 LT PUSH8 0xFFFFFFFFFFFFFFFF DUP3 GT OR ISZERO PUSH2 0x8B1 JUMPI PUSH2 0x8B0 PUSH2 0x85C JUMP JUMPDEST JUMPDEST DUP1 PUSH1 0x40 MSTORE POP POP POP JUMP JUMPDEST PUSH0 PUSH2 0x8C3 PUSH2 0x6A6 JUMP JUMPDEST SWAP1 POP PUSH2 0x8CF DUP3 DUP3 PUSH2 0x889 JUMP JUMPDEST SWAP2 SWAP1 POP JUMP JUMPDEST PUSH0 PUSH8 0xFFFFFFFFFFFFFFFF DUP3 GT ISZERO PUSH2 0x8EE JUMPI PUSH2 0x8ED PUSH2 0x85C JUMP JUMPDEST JUMPDEST PUSH2 0x8F7 DUP3 PUSH2 0x84C JUMP JUMPDEST SWAP1 POP PUSH1 0x20 DUP2 ADD SWAP1 POP SWAP2 SWAP1 POP JUMP JUMPDEST DUP3 DUP2 DUP4 CALLDATACOPY PUSH0 DUP4 DUP4 ADD MSTORE POP POP POP JUMP JUMPDEST PUSH0 PUSH2 0x924 PUSH2 0x91F DUP5 PUSH2 0x8D4 JUMP JUMPDEST PUSH2 0x8BA JUMP JUMPDEST SWAP1 POP DUP3 DUP2 MSTORE PUSH1 0x20 DUP2 ADD DUP5 DUP5 DUP5 ADD GT ISZERO PUSH2 0x940 JUMPI PUSH2 0x93F PUSH2 0x848 JUMP JUMPDEST JUMPDEST PUSH2 0x94B DUP5 DUP3 DUP6 PUSH2 0x904 JUMP JUMPDEST POP SWAP4 SWAP3 POP POP POP JUMP JUMPDEST PUSH0 DUP3 PUSH1 0x1F DUP4 ADD SLT PUSH2 0x967 JUMPI PUSH2 0x966 PUSH2 0x844 JUMP JUMPDEST JUMPDEST DUP2 CALLDATALOAD PUSH2 0x977 DUP5 DUP3 PUSH1 0x20 DUP7 ADD PUSH2 0x912 JUMP JUMPDEST SWAP2 POP POP SWAP3 SWAP2 POP POP JUMP JUMPDEST PUSH0 PUSH2 0x98A DUP3 PUSH2 0x715 JUMP JUMPDEST SWAP1 POP SWAP2 SWAP1 POP JUMP JUMPDEST PUSH2 0x99A DUP2 PUSH2 0x980 JUMP JUMPDEST DUP2 EQ PUSH2 0x9A4 JUMPI PUSH0 DUP1 REVERT JUMPDEST POP JUMP JUMPDEST PUSH0 DUP2 CALLDATALOAD SWAP1 POP PUSH2 0x9B5 DUP2 PUSH2 0x991 JUMP JUMPDEST SWAP3 SWAP2 POP POP JUMP JUMPDEST PUSH1 0x3 DUP2 LT PUSH2 0x9C7 JUMPI PUSH0 DUP1 REVERT JUMPDEST POP JUMP JUMPDEST PUSH0 DUP2 CALLDATALOAD SWAP1 POP PUSH2 0x9D8 DUP2 PUSH2 0x9BB JUMP JUMPDEST SWAP3 SWAP2 POP POP JUMP JUMPDEST PUSH0 DUP1 PUSH0 PUSH1 0x60 DUP5 DUP7 SUB SLT ISZERO PUSH2 0x9F5 JUMPI PUSH2 0x9F4 PUSH2 0x6AF JUMP JUMPDEST JUMPDEST PUSH0 DUP5 ADD CALLDATALOAD PUSH8 0xFFFFFFFFFFFFFFFF DUP2 GT ISZERO PUSH2 0xA12 JUMPI PUSH2 0xA11 PUSH2 0x6B3 JUMP JUMPDEST JUMPDEST PUSH2 0xA1E DUP7 DUP3 DUP8 ADD PUSH2 0x953 JUMP JUMPDEST SWAP4 POP POP PUSH1 0x20 PUSH2 0xA2F DUP7 DUP3 DUP8 ADD PUSH2 0x9A7 JUMP JUMPDEST SWAP3 POP POP PUSH1 0x40 PUSH2 0xA40 DUP7 DUP3 DUP8 ADD PUSH2 0x9CA JUMP JUMPDEST SWAP2 POP POP SWAP3 POP SWAP3 POP SWAP3 JUMP JUMPDEST PUSH0 PUSH1 0x20 DUP3 DUP5 SUB SLT ISZERO PUSH2 0xA5F JUMPI PUSH2 0xA5E PUSH2 0x6AF JUMP JUMPDEST JUMPDEST PUSH0 PUSH2 0xA6C DUP5 DUP3 DUP6 ADD PUSH2 0x9A7 JUMP JUMPDEST SWAP2 POP POP SWAP3 SWAP2 POP POP JUMP JUMPDEST PUSH2 0xA7E DUP2 PUSH2 0x980 JUMP JUMPDEST DUP3 MSTORE POP POP JUMP JUMPDEST PUSH32 0x4E487B7100000000000000000000000000000000000000000000000000000000 PUSH0 MSTORE PUSH1 0x21 PUSH1 0x4 MSTORE PUSH1 0x24 PUSH0 REVERT JUMPDEST PUSH1 0x3 DUP2 LT PUSH2 0xAC2 JUMPI PUSH2 0xAC1 PUSH2 0xA84 JUMP JUMPDEST JUMPDEST POP JUMP JUMPDEST PUSH0 DUP2 SWAP1 POP PUSH2 0xAD2 DUP3 PUSH2 0xAB1 JUMP JUMPDEST SWAP2 SWAP1 POP JUMP JUMPDEST PUSH0 PUSH2 0xAE1 DUP3 PUSH2 0xAC5 JUMP JUMPDEST SWAP1 POP SWAP2 SWAP1 POP JUMP JUMPDEST PUSH2 0xAF1 DUP2 PUSH2 0xAD7 JUMP JUMPDEST DUP3 MSTORE POP POP JUMP JUMPDEST PUSH0 DUP2 MLOAD SWAP1 POP SWAP2 SWAP1 POP JUMP JUMPDEST PUSH0 DUP3 DUP3 MSTORE PUSH1 0x20 DUP3 ADD SWAP1 POP SWAP3 SWAP2 POP POP JUMP JUMPDEST DUP3 DUP2 DUP4 MCOPY PUSH0 DUP4 DUP4 ADD MSTORE POP POP POP JUMP JUMPDEST PUSH0 PUSH2 0xB29 DUP3 PUSH2 0xAF7 JUMP JUMPDEST PUSH2 0xB33 DUP2 DUP6 PUSH2 0xB01 JUMP JUMPDEST SWAP4 POP PUSH2 0xB43 DUP2 DUP6 PUSH1 0x20 DUP7 ADD PUSH2 0xB11 JUMP JUMPDEST PUSH2 0xB4C DUP2 PUSH2 0x84C JUMP JUMPDEST DUP5 ADD SWAP2 POP POP SWAP3 SWAP2 POP POP JUMP JUMPDEST PUSH0 PUSH1 0x60 DUP3 ADD SWAP1 POP PUSH2 0xB6A PUSH0 DUP4 ADD DUP7 PUSH2 0xA75 JUMP JUMPDEST PUSH2 0xB77 PUSH1 0x20 DUP4 ADD DUP6 PUSH2 0xAE8 JUMP JUMPDEST DUP2 DUP2 SUB PUSH1 0x40 DUP4 ADD MSTORE PUSH2 0xB89 DUP2 DUP5 PUSH2 0xB1F JUMP JUMPDEST SWAP1 POP SWAP5 SWAP4 POP POP POP POP JUMP JUMPDEST PUSH32 0x5573657220616C72656164792065786973747300000000000000000000000000 PUSH0 DUP3 ADD MSTORE POP JUMP JUMPDEST PUSH0 PUSH2 0xBC7 PUSH1 0x13 DUP4 PUSH2 0xB01 JUMP JUMPDEST SWAP2 POP PUSH2 0xBD2 DUP3 PUSH2 0xB93 JUMP JUMPDEST PUSH1 0x20 DUP3 ADD SWAP1 POP SWAP2 SWAP1 POP JUMP JUMPDEST PUSH0 PUSH1 0x20 DUP3 ADD SWAP1 POP DUP2 DUP2 SUB PUSH0 DUP4 ADD MSTORE PUSH2 0xBF4 DUP2 PUSH2 0xBBB JUMP JUMPDEST SWAP1 POP SWAP2 SWAP1 POP JUMP JUMPDEST PUSH32 0x496E76616C696420726F6C650000000000000000000000000000000000000000 PUSH0 DUP3 ADD MSTORE POP JUMP JUMPDEST PUSH0 PUSH2 0xC2F PUSH1 0xC DUP4 PUSH2 0xB01 JUMP JUMPDEST SWAP2 POP PUSH2 0xC3A DUP3 PUSH2 0xBFB JUMP JUMPDEST PUSH1 0x20 DUP3 ADD SWAP1 POP SWAP2 SWAP1 POP JUMP JUMPDEST PUSH0 PUSH1 0x20 DUP3 ADD SWAP1 POP DUP2 DUP2 SUB PUSH0 DUP4 ADD MSTORE PUSH2 0xC5C DUP2 PUSH2 0xC23 JUMP JUMPDEST SWAP1 POP SWAP2 SWAP1 POP JUMP JUMPDEST PUSH32 0x4E487B7100000000000000000000000000000000000000000000000000000000 PUSH0 MSTORE PUSH1 0x22 PUSH1 0x4 MSTORE PUSH1 0x24 PUSH0 REVERT JUMPDEST PUSH0 PUSH1 0x2 DUP3 DIV SWAP1 POP PUSH1 0x1 DUP3 AND DUP1 PUSH2 0xCA7 JUMPI PUSH1 0x7F DUP3 AND SWAP2 POP JUMPDEST PUSH1 0x20 DUP3 LT DUP2 SUB PUSH2 0xCBA JUMPI PUSH2 0xCB9 PUSH2 0xC63 JUMP JUMPDEST JUMPDEST POP SWAP2 SWAP1 POP JUMP JUMPDEST PUSH0 DUP2 SWAP1 POP DUP2 PUSH0 MSTORE PUSH1 0x20 PUSH0 KECCAK256 SWAP1 POP SWAP2 SWAP1 POP JUMP JUMPDEST PUSH0 PUSH1 0x20 PUSH1 0x1F DUP4 ADD DIV SWAP1 POP SWAP2 SWAP1 POP JUMP JUMPDEST PUSH0 DUP3 DUP3 SHL SWAP1 POP SWAP3 SWAP2 POP POP JUMP JUMPDEST PUSH0 PUSH1 0x8 DUP4 MUL PUSH2 0xD1C PUSH32 0xFFFFFFFFFFFFFFFFFFFFFFFFFFFFFFFFFFFFFFFFFFFFFFFFFFFFFFFFFFFFFFFF DUP3 PUSH2 0xCE1 JUMP JUMPDEST PUSH2 0xD26 DUP7 DUP4 PUSH2 0xCE1 JUMP JUMPDEST SWAP6 POP DUP1 NOT DUP5 AND SWAP4 POP DUP1 DUP7 AND DUP5 OR SWAP3 POP POP POP SWAP4 SWAP3 POP POP POP JUMP JUMPDEST PUSH0 DUP2 SWAP1 POP SWAP2 SWAP1 POP JUMP JUMPDEST PUSH0 PUSH2 0xD61 PUSH2 0xD5C PUSH2 0xD57 DUP5 PUSH2 0x6B7 JUMP JUMPDEST PUSH2 0xD3E JUMP JUMPDEST PUSH2 0x6B7 JUMP JUMPDEST SWAP1 POP SWAP2 SWAP1 POP JUMP JUMPDEST PUSH0 DUP2 SWAP1 POP SWAP2 SWAP1 POP JUMP JUMPDEST PUSH2 0xD7A DUP4 PUSH2 0xD47 JUMP JUMPDEST PUSH2 0xD8E PUSH2 0xD86 DUP3 PUSH2 0xD68 JUMP JUMPDEST DUP5 DUP5 SLOAD PUSH2 0xCED JUMP JUMPDEST DUP3 SSTORE POP POP POP POP JUMP JUMPDEST PUSH0 SWAP1 JUMP JUMPDEST PUSH2 0xDA2 PUSH2 0xD96 JUMP JUMPDEST PUSH2 0xDAD DUP2 DUP5 DUP5 PUSH2 0xD71 JUMP JUMPDEST POP POP POP JUMP JUMPDEST JUMPDEST DUP2 DUP2 LT ISZERO PUSH2 0xDD0 JUMPI PUSH2 0xDC5 PUSH0 DUP3 PUSH2 0xD9A JUMP JUMPDEST PUSH1 0x1 DUP2 ADD SWAP1 POP PUSH2 0xDB3 JUMP JUMPDEST POP POP JUMP JUMPDEST PUSH1 0x1F DUP3 GT ISZERO PUSH2 0xE15 JUMPI PUSH2 0xDE6 DUP2 PUSH2 0xCC0 JUMP JUMPDEST PUSH2 0xDEF DUP5 PUSH2 0xCD2 JUMP JUMPDEST DUP2 ADD PUSH1 0x20 DUP6 LT ISZERO PUSH2 0xDFE JUMPI DUP2 SWAP1 POP JUMPDEST PUSH2 0xE12 PUSH2 0xE0A DUP6 PUSH2 0xCD2 JUMP JUMPDEST DUP4 ADD DUP3 PUSH2 0xDB2 JUMP JUMPDEST POP POP JUMPDEST POP POP POP JUMP JUMPDEST PUSH0 DUP3 DUP3 SHR SWAP1 POP SWAP3 SWAP2 POP POP JUMP JUMPDEST PUSH0 PUSH2 0xE35 PUSH0 NOT DUP5 PUSH1 0x8 MUL PUSH2 0xE1A JUMP JUMPDEST NOT DUP1 DUP4 AND SWAP2 POP POP SWAP3 SWAP2 POP POP JUMP JUMPDEST PUSH0 PUSH2 0xE4D DUP4 DUP4 PUSH2 0xE26 JUMP JUMPDEST SWAP2 POP DUP3 PUSH1 0x2 MUL DUP3 OR SWAP1 POP SWAP3 SWAP2 POP POP JUMP JUMPDEST PUSH2 0xE66 DUP3 PUSH2 0xAF7 JUMP JUMPDEST PUSH8 0xFFFFFFFFFFFFFFFF DUP2 GT ISZERO PUSH2 0xE7F JUMPI PUSH2 0xE7E PUSH2 0x85C JUMP JUMPDEST JUMPDEST PUSH2 0xE89 DUP3 SLOAD PUSH2 0xC90 JUMP JUMPDEST PUSH2 0xE94 DUP3 DUP3 DUP6 PUSH2 0xDD4 JUMP JUMPDEST PUSH0 PUSH1 0x20 SWAP1 POP PUSH1 0x1F DUP4 GT PUSH1 0x1 DUP2 EQ PUSH2 0xEC5 JUMPI PUSH0 DUP5 ISZERO PUSH2 0xEB3 JUMPI DUP3 DUP8 ADD MLOAD SWAP1 POP JUMPDEST PUSH2 0xEBD DUP6 DUP3 PUSH2 0xE42 JUMP JUMPDEST DUP7 SSTORE POP PUSH2 0xF24 JUMP JUMPDEST PUSH1 0x1F NOT DUP5 AND PUSH2 0xED3 DUP7 PUSH2 0xCC0 JUMP JUMPDEST PUSH0 JUMPDEST DUP3 DUP2 LT ISZERO PUSH2 0xEFA JUMPI DUP5 DUP10 ADD MLOAD DUP3 SSTORE PUSH1 0x1 DUP3 ADD SWAP2 POP PUSH1 0x20 DUP6 ADD SWAP5 POP PUSH1 0x20 DUP2 ADD SWAP1 POP PUSH2 0xED5 JUMP JUMPDEST DUP7 DUP4 LT ISZERO PUSH2 0xF17 JUMPI DUP5 DUP10 ADD MLOAD PUSH2 0xF13 PUSH1 0x1F DUP10 AND DUP3 PUSH2 0xE26 JUMP JUMPDEST DUP4 SSTORE POP JUMPDEST PUSH1 0x1 PUSH1 0x2 DUP9 MUL ADD DUP9 SSTORE POP POP POP JUMPDEST POP POP POP POP POP POP JUMP JUMPDEST PUSH32 0x556E617574686F72697A656420616374696F6E00000000000000000000000000 PUSH0 DUP3 ADD MSTORE POP JUMP JUMPDEST PUSH0 PUSH2 0xF60 PUSH1 0x13 DUP4 PUSH2 0xB01 JUMP JUMPDEST SWAP2 POP PUSH2 0xF6B DUP3 PUSH2 0xF2C JUMP JUMPDEST PUSH1 0x20 DUP3 ADD SWAP1 POP SWAP2 SWAP1 POP JUMP JUMPDEST PUSH0 PUSH1 0x20 DUP3 ADD SWAP1 POP DUP2 DUP2 SUB PUSH0 DUP4 ADD MSTORE PUSH2 0xF8D DUP2 PUSH2 0xF54 JUMP JUMPDEST SWAP1 POP SWAP2 SWAP1 POP JUMP JUMPDEST PUSH2 0xF9D DUP2 PUSH2 0x6B7 JUMP JUMPDEST DUP3 MSTORE POP POP JUMP JUMPDEST PUSH0 PUSH1 0x40 DUP3 ADD SWAP1 POP PUSH2 0xFB6 PUSH0 DUP4 ADD DUP6 PUSH2 0xF94 JUMP JUMPDEST PUSH2 0xFC3 PUSH1 0x20 DUP4 ADD DUP5 PUSH2 0xA75 JUMP JUMPDEST SWAP4 SWAP3 POP POP POP JUMP INVALID PUSH1 0x80 PUSH1 0x40 MSTORE CALLVALUE DUP1 ISZERO PUSH2 0xF JUMPI PUSH0 DUP1 REVERT JUMPDEST POP PUSH1 0x40 MLOAD PUSH2 0x1177 CODESIZE SUB DUP1 PUSH2 0x1177 DUP4 CODECOPY DUP2 DUP2 ADD PUSH1 0x40 MSTORE DUP2 ADD SWAP1 PUSH2 0x31 SWAP2 SWAP1 PUSH2 0x110 JUMP JUMPDEST DUP1 PUSH1 0x1 PUSH0 PUSH2 0x100 EXP DUP2 SLOAD DUP2 PUSH20 0xFFFFFFFFFFFFFFFFFFFFFFFFFFFFFFFFFFFFFFFF MUL NOT AND SWAP1 DUP4 PUSH20 0xFFFFFFFFFFFFFFFFFFFFFFFFFFFFFFFFFFFFFFFF AND MUL OR SWAP1 SSTORE POP DUP2 PUSH1 0x2 DUP2 SWAP1 SSTORE POP POP POP PUSH2 0x14E JUMP JUMPDEST PUSH0 DUP1 REVERT JUMPDEST PUSH0 DUP2 SWAP1 POP SWAP2 SWAP1 POP JUMP JUMPDEST PUSH2 0x95 DUP2 PUSH2 0x83 JUMP JUMPDEST DUP2 EQ PUSH2 0x9F JUMPI PUSH0 DUP1 REVERT JUMPDEST POP JUMP JUMPDEST PUSH0 DUP2 MLOAD SWAP1 POP PUSH2 0xB0 DUP2 PUSH2 0x8C JUMP JUMPDEST SWAP3 SWAP2 POP POP JUMP JUMPDEST PUSH0 PUSH20 0xFFFFFFFFFFFFFFFFFFFFFFFFFFFFFFFFFFFFFFFF DUP3 AND SWAP1 POP SWAP2 SWAP1 POP JUMP JUMPDEST PUSH0 PUSH2 0xDF DUP3 PUSH2 0xB6 JUMP JUMPDEST SWAP1 POP SWAP2 SWAP1 POP JUMP JUMPDEST PUSH2 0xEF DUP2 PUSH2 0xD5 JUMP JUMPDEST DUP2 EQ PUSH2 0xF9 JUMPI PUSH0 DUP1 REVERT JUMPDEST POP JUMP JUMPDEST PUSH0 DUP2 MLOAD SWAP1 POP PUSH2 0x10A DUP2 PUSH2 0xE6 JUMP JUMPDEST SWAP3 SWAP2 POP POP JUMP JUMPDEST PUSH0 DUP1 PUSH1 0x40 DUP4 DUP6 SUB SLT ISZERO PUSH2 0x126 JUMPI PUSH2 0x125 PUSH2 0x7F JUMP JUMPDEST JUMPDEST PUSH0 PUSH2 0x133 DUP6 DUP3 DUP7 ADD PUSH2 0xA2 JUMP JUMPDEST SWAP3 POP POP PUSH1 0x20 PUSH2 0x144 DUP6 DUP3 DUP7 ADD PUSH2 0xFC JUMP JUMPDEST SWAP2 POP POP SWAP3 POP SWAP3 SWAP1 POP JUMP JUMPDEST PUSH2 0x101C DUP1 PUSH2 0x15B PUSH0 CODECOPY PUSH0 RETURN INVALID PUSH1 0x80 PUSH1 0x40 MSTORE PUSH1 0x4 CALLDATASIZE LT PUSH2 0x9B JUMPI PUSH0 CALLDATALOAD PUSH1 0xE0 SHR DUP1 PUSH4 0x81D12C58 GT PUSH2 0x63 JUMPI DUP1 PUSH4 0x81D12C58 EQ PUSH2 0x185 JUMPI DUP1 PUSH4 0x82FDE093 EQ PUSH2 0x1C5 JUMPI DUP1 PUSH4 0x8A9CFD55 EQ PUSH2 0x1EF JUMPI DUP1 PUSH4 0x937E09B1 EQ PUSH2 0x217 JUMPI DUP1 PUSH4 0xD7BB99BA EQ PUSH2 0x241 JUMPI DUP1 PUSH4 0xD7D1BBDB EQ PUSH2 0x24B JUMPI PUSH2 0x9B JUMP JUMPDEST DUP1 PUSH4 0x3441006 EQ PUSH2 0x9F JUMPI DUP1 PUSH4 0xA144391 EQ PUSH2 0xC7 JUMPI DUP1 PUSH4 0x3410452A EQ PUSH2 0x103 JUMPI DUP1 PUSH4 0x4051DDAC EQ PUSH2 0x12D JUMPI DUP1 PUSH4 0x481C6A75 EQ PUSH2 0x15B JUMPI JUMPDEST PUSH0 DUP1 REVERT JUMPDEST CALLVALUE DUP1 ISZERO PUSH2 0xAA JUMPI PUSH0 DUP1 REVERT JUMPDEST POP PUSH2 0xC5 PUSH1 0x4 DUP1 CALLDATASIZE SUB DUP2 ADD SWAP1 PUSH2 0xC0 SWAP2 SWAP1 PUSH2 0x83B JUMP JUMPDEST PUSH2 0x273 JUMP JUMPDEST STOP JUMPDEST CALLVALUE DUP1 ISZERO PUSH2 0xD2 JUMPI PUSH0 DUP1 REVERT JUMPDEST POP PUSH2 0xED PUSH1 0x4 DUP1 CALLDATASIZE SUB DUP2 ADD SWAP1 PUSH2 0xE8 SWAP2 SWAP1 PUSH2 0x8C0 JUMP JUMPDEST PUSH2 0x3B1 JUMP JUMPDEST PUSH1 0x40 MLOAD PUSH2 0xFA SWAP2 SWAP1 PUSH2 0x905 JUMP JUMPDEST PUSH1 0x40 MLOAD DUP1 SWAP2 SUB SWAP1 RETURN JUMPDEST CALLVALUE DUP1 ISZERO PUSH2 0x10E JUMPI PUSH0 DUP1 REVERT JUMPDEST POP PUSH2 0x117 PUSH2 0x3CE JUMP JUMPDEST PUSH1 0x40 MLOAD PUSH2 0x124 SWAP2 SWAP1 PUSH2 0x92D JUMP JUMPDEST PUSH1 0x40 MLOAD DUP1 SWAP2 SUB SWAP1 RETURN JUMPDEST CALLVALUE DUP1 ISZERO PUSH2 0x138 JUMPI PUSH0 DUP1 REVERT JUMPDEST POP PUSH2 0x141 PUSH2 0x3D9 JUMP JUMPDEST PUSH1 0x40 MLOAD PUSH2 0x152 SWAP6 SWAP5 SWAP4 SWAP3 SWAP2 SWAP1 PUSH2 0x955 JUMP JUMPDEST PUSH1 0x40 MLOAD DUP1 SWAP2 SUB SWAP1 RETURN JUMPDEST CALLVALUE DUP1 ISZERO PUSH2 0x166 JUMPI PUSH0 DUP1 REVERT JUMPDEST POP PUSH2 0x16F PUSH2 0x41D JUMP JUMPDEST PUSH1 0x40 MLOAD PUSH2 0x17C SWAP2 SWAP1 PUSH2 0x9A6 JUMP JUMPDEST PUSH1 0x40 MLOAD DUP1 SWAP2 SUB SWAP1 RETURN JUMPDEST CALLVALUE DUP1 ISZERO PUSH2 0x190 JUMPI PUSH0 DUP1 REVERT JUMPDEST POP PUSH2 0x1AB PUSH1 0x4 DUP1 CALLDATASIZE SUB DUP2 ADD SWAP1 PUSH2 0x1A6 SWAP2 SWAP1 PUSH2 0x83B JUMP JUMPDEST PUSH2 0x442 JUMP JUMPDEST PUSH1 0x40 MLOAD PUSH2 0x1BC SWAP6 SWAP5 SWAP4 SWAP3 SWAP2 SWAP1 PUSH2 0xA2F JUMP JUMPDEST PUSH1 0x40 MLOAD DUP1 SWAP2 SUB SWAP1 RETURN JUMPDEST CALLVALUE DUP1 ISZERO PUSH2 0x1D0 JUMPI PUSH0 DUP1 REVERT JUMPDEST POP PUSH2 0x1D9 PUSH2 0x534 JUMP JUMPDEST PUSH1 0x40 MLOAD PUSH2 0x1E6 SWAP2 SWAP1 PUSH2 0x92D JUMP JUMPDEST PUSH1 0x40 MLOAD DUP1 SWAP2 SUB SWAP1 RETURN JUMPDEST CALLVALUE DUP1 ISZERO PUSH2 0x1FA JUMPI PUSH0 DUP1 REVERT JUMPDEST POP PUSH2 0x215 PUSH1 0x4 DUP1 CALLDATASIZE SUB DUP2 ADD SWAP1 PUSH2 0x210 SWAP2 SWAP1 PUSH2 0xBB3 JUMP JUMPDEST PUSH2 0x53A JUMP JUMPDEST STOP JUMPDEST CALLVALUE DUP1 ISZERO PUSH2 0x222 JUMPI PUSH0 DUP1 REVERT JUMPDEST POP PUSH2 0x22B PUSH2 0x639 JUMP JUMPDEST PUSH1 0x40 MLOAD PUSH2 0x238 SWAP2 SWAP1 PUSH2 0x92D JUMP JUMPDEST PUSH1 0x40 MLOAD DUP1 SWAP2 SUB SWAP1 RETURN JUMPDEST PUSH2 0x249 PUSH2 0x63F JUMP JUMPDEST STOP JUMPDEST CALLVALUE DUP1 ISZERO PUSH2 0x256 JUMPI PUSH0 DUP1 REVERT JUMPDEST POP PUSH2 0x271 PUSH1 0x4 DUP1 CALLDATASIZE SUB DUP2 ADD SWAP1 PUSH2 0x26C SWAP2 SWAP1 PUSH2 0x83B JUMP JUMPDEST PUSH2 0x6BA JUMP JUMPDEST STOP JUMPDEST PUSH1 0x1 PUSH0 SWAP1 SLOAD SWAP1 PUSH2 0x100 EXP SWAP1 DIV PUSH20 0xFFFFFFFFFFFFFFFFFFFFFFFFFFFFFFFFFFFFFFFF AND PUSH20 0xFFFFFFFFFFFFFFFFFFFFFFFFFFFFFFFFFFFFFFFF AND CALLER PUSH20 0xFFFFFFFFFFFFFFFFFFFFFFFFFFFFFFFFFFFFFFFF AND EQ PUSH2 0x2CB JUMPI PUSH0 DUP1 REVERT JUMPDEST PUSH0 DUP1 DUP3 DUP2 SLOAD DUP2 LT PUSH2 0x2DF JUMPI PUSH2 0x2DE PUSH2 0xC1F JUMP JUMPDEST JUMPDEST SWAP1 PUSH0 MSTORE PUSH1 0x20 PUSH0 KECCAK256 SWAP1 PUSH1 0x5 MUL ADD SWAP1 POP PUSH1 0x2 PUSH1 0x4 SLOAD PUSH2 0x2FC SWAP2 SWAP1 PUSH2 0xCA6 JUMP JUMPDEST DUP2 PUSH1 0x3 ADD SLOAD GT PUSH2 0x30A JUMPI PUSH0 DUP1 REVERT JUMPDEST DUP1 PUSH1 0x2 ADD PUSH1 0x14 SWAP1 SLOAD SWAP1 PUSH2 0x100 EXP SWAP1 DIV PUSH1 0xFF AND ISZERO PUSH2 0x325 JUMPI PUSH0 DUP1 REVERT JUMPDEST DUP1 PUSH1 0x2 ADD PUSH0 SWAP1 SLOAD SWAP1 PUSH2 0x100 EXP SWAP1 DIV PUSH20 0xFFFFFFFFFFFFFFFFFFFFFFFFFFFFFFFFFFFFFFFF AND PUSH20 0xFFFFFFFFFFFFFFFFFFFFFFFFFFFFFFFFFFFFFFFF AND PUSH2 0x8FC DUP3 PUSH1 0x1 ADD SLOAD SWAP1 DUP2 ISZERO MUL SWAP1 PUSH1 0x40 MLOAD PUSH0 PUSH1 0x40 MLOAD DUP1 DUP4 SUB DUP2 DUP6 DUP9 DUP9 CALL SWAP4 POP POP POP POP ISZERO DUP1 ISZERO PUSH2 0x38F JUMPI RETURNDATASIZE PUSH0 DUP1 RETURNDATACOPY RETURNDATASIZE PUSH0 REVERT JUMPDEST POP PUSH1 0x1 DUP2 PUSH1 0x2 ADD PUSH1 0x14 PUSH2 0x100 EXP DUP2 SLOAD DUP2 PUSH1 0xFF MUL NOT AND SWAP1 DUP4 ISZERO ISZERO MUL OR SWAP1 SSTORE POP POP POP JUMP JUMPDEST PUSH1 0x3 PUSH1 0x20 MSTORE DUP1 PUSH0 MSTORE PUSH1 0x40 PUSH0 KECCAK256 PUSH0 SWAP2 POP SLOAD SWAP1 PUSH2 0x100 EXP SWAP1 DIV PUSH1 0xFF AND DUP2 JUMP JUMPDEST PUSH0 DUP1 DUP1 SLOAD SWAP1 POP SWAP1 POP SWAP1 JUMP JUMPDEST PUSH0 DUP1 PUSH0 DUP1 PUSH0 PUSH1 0x2 SLOAD SELFBALANCE PUSH0 DUP1 SLOAD SWAP1 POP PUSH1 0x4 SLOAD PUSH1 0x1 PUSH0 SWAP1 SLOAD SWAP1 PUSH2 0x100 EXP SWAP1 DIV PUSH20 0xFFFFFFFFFFFFFFFFFFFFFFFFFFFFFFFFFFFFFFFF AND SWAP5 POP SWAP5 POP SWAP5 POP SWAP5 POP SWAP5 POP SWAP1 SWAP2 SWAP3 SWAP4 SWAP5 JUMP JUMPDEST PUSH1 0x1 PUSH0 SWAP1 SLOAD SWAP1 PUSH2 0x100 EXP SWAP1 DIV PUSH20 0xFFFFFFFFFFFFFFFFFFFFFFFFFFFFFFFFFFFFFFFF AND DUP2 JUMP JUMPDEST PUSH0 DUP2 DUP2 SLOAD DUP2 LT PUSH2 0x450 JUMPI PUSH0 DUP1 REVERT JUMPDEST SWAP1 PUSH0 MSTORE PUSH1 0x20 PUSH0 KECCAK256 SWAP1 PUSH1 0x5 MUL ADD PUSH0 SWAP2 POP SWAP1 POP DUP1 PUSH0 ADD DUP1 SLOAD PUSH2 0x46F SWAP1 PUSH2 0xD03 JUMP JUMPDEST DUP1 PUSH1 0x1F ADD PUSH1 0x20 DUP1 SWAP2 DIV MUL PUSH1 0x20 ADD PUSH1 0x40 MLOAD SWAP1 DUP2 ADD PUSH1 0x40 MSTORE DUP1 SWAP3 SWAP2 SWAP1 DUP2 DUP2 MSTORE PUSH1 0x20 ADD DUP3 DUP1 SLOAD PUSH2 0x49B SWAP1 PUSH2 0xD03 JUMP JUMPDEST DUP1 ISZERO PUSH2 0x4E6 JUMPI DUP1 PUSH1 0x1F LT PUSH2 0x4BD JUMPI PUSH2 0x100 DUP1 DUP4 SLOAD DIV MUL DUP4 MSTORE SWAP2 PUSH1 0x20 ADD SWAP2 PUSH2 0x4E6 JUMP JUMPDEST DUP3 ADD SWAP2 SWAP1 PUSH0 MSTORE PUSH1 0x20 PUSH0 KECCAK256 SWAP1 JUMPDEST DUP2 SLOAD DUP2 MSTORE SWAP1 PUSH1 0x1 ADD SWAP1 PUSH1 0x20 ADD DUP1 DUP4 GT PUSH2 0x4C9 JUMPI DUP3 SWAP1 SUB PUSH1 0x1F AND DUP3 ADD SWAP2 JUMPDEST POP POP POP POP POP SWAP1 DUP1 PUSH1 0x1 ADD SLOAD SWAP1 DUP1 PUSH1 0x2 ADD PUSH0 SWAP1 SLOAD SWAP1 PUSH2 0x100 EXP SWAP1 DIV PUSH20 0xFFFFFFFFFFFFFFFFFFFFFFFFFFFFFFFFFFFFFFFF AND SWAP1 DUP1 PUSH1 0x2 ADD PUSH1 0x14 SWAP1 SLOAD SWAP1 PUSH2 0x100 EXP SWAP1 DIV PUSH1 0xFF AND SWAP1 DUP1 PUSH1 0x3 ADD SLOAD SWAP1 POP DUP6 JUMP JUMPDEST PUSH1 0x4 SLOAD DUP2 JUMP JUMPDEST PUSH1 0x1 PUSH0 SWAP1 SLOAD SWAP1 PUSH2 0x100 EXP SWAP1 DIV PUSH20 0xFFFFFFFFFFFFFFFFFFFFFFFFFFFFFFFFFFFFFFFF AND PUSH20 0xFFFFFFFFFFFFFFFFFFFFFFFFFFFFFFFFFFFFFFFF AND CALLER PUSH20 0xFFFFFFFFFFFFFFFFFFFFFFFFFFFFFFFFFFFFFFFF AND EQ PUSH2 0x592 JUMPI PUSH0 DUP1 REVERT JUMPDEST PUSH0 DUP1 PUSH1 0x1 DUP2 PUSH1 0x1 DUP2 SLOAD ADD DUP1 DUP3 SSTORE DUP1 SWAP2 POP POP SUB SWAP1 PUSH0 MSTORE PUSH1 0x20 PUSH0 KECCAK256 SWAP1 PUSH1 0x5 MUL ADD SWAP1 POP DUP4 DUP2 PUSH0 ADD SWAP1 DUP2 PUSH2 0x5C2 SWAP2 SWAP1 PUSH2 0xED0 JUMP JUMPDEST POP DUP3 DUP2 PUSH1 0x1 ADD DUP2 SWAP1 SSTORE POP DUP2 DUP2 PUSH1 0x2 ADD PUSH0 PUSH2 0x100 EXP DUP2 SLOAD DUP2 PUSH20 0xFFFFFFFFFFFFFFFFFFFFFFFFFFFFFFFFFFFFFFFF MUL NOT AND SWAP1 DUP4 PUSH20 0xFFFFFFFFFFFFFFFFFFFFFFFFFFFFFFFFFFFFFFFF AND MUL OR SWAP1 SSTORE POP PUSH0 DUP2 PUSH1 0x2 ADD PUSH1 0x14 PUSH2 0x100 EXP DUP2 SLOAD DUP2 PUSH1 0xFF MUL NOT AND SWAP1 DUP4 ISZERO ISZERO MUL OR SWAP1 SSTORE POP PUSH0 DUP2 PUSH1 0x3 ADD DUP2 SWAP1 SSTORE POP POP POP POP POP JUMP JUMPDEST PUSH1 0x2 SLOAD DUP2 JUMP JUMPDEST PUSH1 0x2 SLOAD CALLVALUE GT PUSH2 0x64C JUMPI PUSH0 DUP1 REVERT JUMPDEST PUSH1 0x1 PUSH1 0x3 PUSH0 CALLER PUSH20 0xFFFFFFFFFFFFFFFFFFFFFFFFFFFFFFFFFFFFFFFF AND PUSH20 0xFFFFFFFFFFFFFFFFFFFFFFFFFFFFFFFFFFFFFFFF AND DUP2 MSTORE PUSH1 0x20 ADD SWAP1 DUP2 MSTORE PUSH1 0x20 ADD PUSH0 KECCAK256 PUSH0 PUSH2 0x100 EXP DUP2 SLOAD DUP2 PUSH1 0xFF MUL NOT AND SWAP1 DUP4 ISZERO ISZERO MUL OR SWAP1 SSTORE POP PUSH1 0x4 PUSH0 DUP2 SLOAD DUP1 SWAP3 SWAP2 SWAP1 PUSH2 0x6B3 SWAP1 PUSH2 0xF9F JUMP JUMPDEST SWAP2 SWAP1 POP SSTORE POP JUMP JUMPDEST PUSH0 DUP1 DUP3 DUP2 SLOAD DUP2 LT PUSH2 0x6CE JUMPI PUSH2 0x6CD PUSH2 0xC1F JUMP JUMPDEST JUMPDEST SWAP1 PUSH0 MSTORE PUSH1 0x20 PUSH0 KECCAK256 SWAP1 PUSH1 0x5 MUL ADD SWAP1 POP PUSH1 0x3 PUSH0 CALLER PUSH20 0xFFFFFFFFFFFFFFFFFFFFFFFFFFFFFFFFFFFFFFFF AND PUSH20 0xFFFFFFFFFFFFFFFFFFFFFFFFFFFFFFFFFFFFFFFF AND DUP2 MSTORE PUSH1 0x20 ADD SWAP1 DUP2 MSTORE PUSH1 0x20 ADD PUSH0 KECCAK256 PUSH0 SWAP1 SLOAD SWAP1 PUSH2 0x100 EXP SWAP1 DIV PUSH1 0xFF AND PUSH2 0x72E JUMPI PUSH0 DUP1 REVERT JUMPDEST DUP1 PUSH1 0x4 ADD PUSH0 CALLER PUSH20 0xFFFFFFFFFFFFFFFFFFFFFFFFFFFFFFFFFFFFFFFF AND PUSH20 0xFFFFFFFFFFFFFFFFFFFFFFFFFFFFFFFFFFFFFFFF AND DUP2 MSTORE PUSH1 0x20 ADD SWAP1 DUP2 MSTORE PUSH1 0x20 ADD PUSH0 KECCAK256 PUSH0 SWAP1 SLOAD SWAP1 PUSH2 0x100 EXP SWAP1 DIV PUSH1 0xFF AND ISZERO PUSH2 0x783 JUMPI PUSH0 DUP1 REVERT JUMPDEST PUSH1 0x1 DUP2 PUSH1 0x4 ADD PUSH0 CALLER PUSH20 0xFFFFFFFFFFFFFFFFFFFFFFFFFFFFFFFFFFFFFFFF AND PUSH20 0xFFFFFFFFFFFFFFFFFFFFFFFFFFFFFFFFFFFFFFFF AND DUP2 MSTORE PUSH1 0x20 ADD SWAP1 DUP2 MSTORE PUSH1 0x20 ADD PUSH0 KECCAK256 PUSH0 PUSH2 0x100 EXP DUP2 SLOAD DUP2 PUSH1 0xFF MUL NOT AND SWAP1 DUP4 ISZERO ISZERO MUL OR SWAP1 SSTORE POP DUP1 PUSH1 0x3 ADD PUSH0 DUP2 SLOAD DUP1 SWAP3 SWAP2 SWAP1 PUSH2 0x7EE SWAP1 PUSH2 0xF9F JUMP JUMPDEST SWAP2 SWAP1 POP SSTORE POP POP POP JUMP JUMPDEST PUSH0 PUSH1 0x40 MLOAD SWAP1 POP SWAP1 JUMP JUMPDEST PUSH0 DUP1 REVERT JUMPDEST PUSH0 DUP1 REVERT JUMPDEST PUSH0 DUP2 SWAP1 POP SWAP2 SWAP1 POP JUMP JUMPDEST PUSH2 0x81A DUP2 PUSH2 0x808 JUMP JUMPDEST DUP2 EQ PUSH2 0x824 JUMPI PUSH0 DUP1 REVERT JUMPDEST POP JUMP JUMPDEST PUSH0 DUP2 CALLDATALOAD SWAP1 POP PUSH2 0x835 DUP2 PUSH2 0x811 JUMP JUMPDEST SWAP3 SWAP2 POP POP JUMP JUMPDEST PUSH0 PUSH1 0x20 DUP3 DUP5 SUB SLT ISZERO PUSH2 0x850 JUMPI PUSH2 0x84F PUSH2 0x800 JUMP JUMPDEST JUMPDEST PUSH0 PUSH2 0x85D DUP5 DUP3 DUP6 ADD PUSH2 0x827 JUMP JUMPDEST SWAP2 POP POP SWAP3 SWAP2 POP POP JUMP JUMPDEST PUSH0 PUSH20 0xFFFFFFFFFFFFFFFFFFFFFFFFFFFFFFFFFFFFFFFF DUP3 AND SWAP1 POP SWAP2 SWAP1 POP JUMP JUMPDEST PUSH0 PUSH2 0x88F DUP3 PUSH2 0x866 JUMP JUMPDEST SWAP1 POP SWAP2 SWAP1 POP JUMP JUMPDEST PUSH2 0x89F DUP2 PUSH2 0x885 JUMP JUMPDEST DUP2 EQ PUSH2 0x8A9 JUMPI PUSH0 DUP1 REVERT JUMPDEST POP JUMP JUMPDEST PUSH0 DUP2 CALLDATALOAD SWAP1 POP PUSH2 0x8BA DUP2 PUSH2 0x896 JUMP JUMPDEST SWAP3 SWAP2 POP POP JUMP JUMPDEST PUSH0 PUSH1 0x20 DUP3 DUP5 SUB SLT ISZERO PUSH2 0x8D5 JUMPI PUSH2 0x8D4 PUSH2 0x800 JUMP JUMPDEST JUMPDEST PUSH0 PUSH2 0x8E2 DUP5 DUP3 DUP6 ADD PUSH2 0x8AC JUMP JUMPDEST SWAP2 POP POP SWAP3 SWAP2 POP POP JUMP JUMPDEST PUSH0 DUP2 ISZERO ISZERO SWAP1 POP SWAP2 SWAP1 POP JUMP JUMPDEST PUSH2 0x8FF DUP2 PUSH2 0x8EB JUMP JUMPDEST DUP3 MSTORE POP POP JUMP JUMPDEST PUSH0 PUSH1 0x20 DUP3 ADD SWAP1 POP PUSH2 0x918 PUSH0 DUP4 ADD DUP5 PUSH2 0x8F6 JUMP JUMPDEST SWAP3 SWAP2 POP POP JUMP JUMPDEST PUSH2 0x927 DUP2 PUSH2 0x808 JUMP JUMPDEST DUP3 MSTORE POP POP JUMP JUMPDEST PUSH0 PUSH1 0x20 DUP3 ADD SWAP1 POP PUSH2 0x940 PUSH0 DUP4 ADD DUP5 PUSH2 0x91E JUMP JUMPDEST SWAP3 SWAP2 POP POP JUMP JUMPDEST PUSH2 0x94F DUP2 PUSH2 0x885 JUMP JUMPDEST DUP3 MSTORE POP POP JUMP JUMPDEST PUSH0 PUSH1 0xA0 DUP3 ADD SWAP1 POP PUSH2 0x968 PUSH0 DUP4 ADD DUP9 PUSH2 0x91E JUMP JUMPDEST PUSH2 0x975 PUSH1 0x20 DUP4 ADD DUP8 PUSH2 0x91E JUMP JUMPDEST PUSH2 0x982 PUSH1 0x40 DUP4 ADD DUP7 PUSH2 0x91E JUMP JUMPDEST PUSH2 0x98F PUSH1 0x60 DUP4 ADD DUP6 PUSH2 0x91E JUMP JUMPDEST PUSH2 0x99C PUSH1 0x80 DUP4 ADD DUP5 PUSH2 0x946 JUMP JUMPDEST SWAP7 SWAP6 POP POP POP POP POP POP JUMP JUMPDEST PUSH0 PUSH1 0x20 DUP3 ADD SWAP1 POP PUSH2 0x9B9 PUSH0 DUP4 ADD DUP5 PUSH2 0x946 JUMP JUMPDEST SWAP3 SWAP2 POP POP JUMP JUMPDEST PUSH0 DUP2 MLOAD SWAP1 POP SWAP2 SWAP1 POP JUMP JUMPDEST PUSH0 DUP3 DUP3 MSTORE PUSH1 0x20 DUP3 ADD SWAP1 POP SWAP3 SWAP2 POP POP JUMP JUMPDEST DUP3 DUP2 DUP4 MCOPY PUSH0 DUP4 DUP4 ADD MSTORE POP POP POP JUMP JUMPDEST PUSH0 PUSH1 0x1F NOT PUSH1 0x1F DUP4 ADD AND SWAP1 POP SWAP2 SWAP1 POP JUMP JUMPDEST PUSH0 PUSH2 0xA01 DUP3 PUSH2 0x9BF JUMP JUMPDEST PUSH2 0xA0B DUP2 DUP6 PUSH2 0x9C9 JUMP JUMPDEST SWAP4 POP PUSH2 0xA1B DUP2 DUP6 PUSH1 0x20 DUP7 ADD PUSH2 0x9D9 JUMP JUMPDEST PUSH2 0xA24 DUP2 PUSH2 0x9E7 JUMP JUMPDEST DUP5 ADD SWAP2 POP POP SWAP3 SWAP2 POP POP JUMP JUMPDEST PUSH0 PUSH1 0xA0 DUP3 ADD SWAP1 POP DUP2 DUP2 SUB PUSH0 DUP4 ADD MSTORE PUSH2 0xA47 DUP2 DUP9 PUSH2 0x9F7 JUMP JUMPDEST SWAP1 POP PUSH2 0xA56 PUSH1 0x20 DUP4 ADD DUP8 PUSH2 0x91E JUMP JUMPDEST PUSH2 0xA63 PUSH1 0x40 DUP4 ADD DUP7 PUSH2 0x946 JUMP JUMPDEST PUSH2 0xA70 PUSH1 0x60 DUP4 ADD DUP6 PUSH2 0x8F6 JUMP JUMPDEST PUSH2 0xA7D PUSH1 0x80 DUP4 ADD DUP5 PUSH2 0x91E JUMP JUMPDEST SWAP7 SWAP6 POP POP POP POP POP POP JUMP JUMPDEST PUSH0 DUP1 REVERT JUMPDEST PUSH0 DUP1 REVERT JUMPDEST PUSH32 0x4E487B7100000000000000000000000000000000000000000000000000000000 PUSH0 MSTORE PUSH1 0x41 PUSH1 0x4 MSTORE PUSH1 0x24 PUSH0 REVERT JUMPDEST PUSH2 0xAC5 DUP3 PUSH2 0x9E7 JUMP JUMPDEST DUP2 ADD DUP2 DUP2 LT PUSH8 0xFFFFFFFFFFFFFFFF DUP3 GT OR ISZERO PUSH2 0xAE4 JUMPI PUSH2 0xAE3 PUSH2 0xA8F JUMP JUMPDEST JUMPDEST DUP1 PUSH1 0x40 MSTORE POP POP POP JUMP JUMPDEST PUSH0 PUSH2 0xAF6 PUSH2 0x7F7 JUMP JUMPDEST SWAP1 POP PUSH2 0xB02 DUP3 DUP3 PUSH2 0xABC JUMP JUMPDEST SWAP2 SWAP1 POP JUMP JUMPDEST PUSH0 PUSH8 0xFFFFFFFFFFFFFFFF DUP3 GT ISZERO PUSH2 0xB21 JUMPI PUSH2 0xB20 PUSH2 0xA8F JUMP JUMPDEST JUMPDEST PUSH2 0xB2A DUP3 PUSH2 0x9E7 JUMP JUMPDEST SWAP1 POP PUSH1 0x20 DUP2 ADD SWAP1 POP SWAP2 SWAP1 POP JUMP JUMPDEST DUP3 DUP2 DUP4 CALLDATACOPY PUSH0 DUP4 DUP4 ADD MSTORE POP POP POP JUMP JUMPDEST PUSH0 PUSH2 0xB57 PUSH2 0xB52 DUP5 PUSH2 0xB07 JUMP JUMPDEST PUSH2 0xAED JUMP JUMPDEST SWAP1 POP DUP3 DUP2 MSTORE PUSH1 0x20 DUP2 ADD DUP5 DUP5 DUP5 ADD GT ISZERO PUSH2 0xB73 JUMPI PUSH2 0xB72 PUSH2 0xA8B JUMP JUMPDEST JUMPDEST PUSH2 0xB7E DUP5 DUP3 DUP6 PUSH2 0xB37 JUMP JUMPDEST POP SWAP4 SWAP3 POP POP POP JUMP JUMPDEST PUSH0 DUP3 PUSH1 0x1F DUP4 ADD SLT PUSH2 0xB9A JUMPI PUSH2 0xB99 PUSH2 0xA87 JUMP JUMPDEST JUMPDEST DUP2 CALLDATALOAD PUSH2 0xBAA DUP5 DUP3 PUSH1 0x20 DUP7 ADD PUSH2 0xB45 JUMP JUMPDEST SWAP2 POP POP SWAP3 SWAP2 POP POP JUMP JUMPDEST PUSH0 DUP1 PUSH0 PUSH1 0x60 DUP5 DUP7 SUB SLT ISZERO PUSH2 0xBCA JUMPI PUSH2 0xBC9 PUSH2 0x800 JUMP JUMPDEST JUMPDEST PUSH0 DUP5 ADD CALLDATALOAD PUSH8 0xFFFFFFFFFFFFFFFF DUP2 GT ISZERO PUSH2 0xBE7 JUMPI PUSH2 0xBE6 PUSH2 0x804 JUMP JUMPDEST JUMPDEST PUSH2 0xBF3 DUP7 DUP3 DUP8 ADD PUSH2 0xB86 JUMP JUMPDEST SWAP4 POP POP PUSH1 0x20 PUSH2 0xC04 DUP7 DUP3 DUP8 ADD PUSH2 0x827 JUMP JUMPDEST SWAP3 POP POP PUSH1 0x40 PUSH2 0xC15 DUP7 DUP3 DUP8 ADD PUSH2 0x8AC JUMP JUMPDEST SWAP2 POP POP SWAP3 POP SWAP3 POP SWAP3 JUMP JUMPDEST PUSH32 0x4E487B7100000000000000000000000000000000000000000000000000000000 PUSH0 MSTORE PUSH1 0x32 PUSH1 0x4 MSTORE PUSH1 0x24 PUSH0 REVERT JUMPDEST PUSH32 0x4E487B7100000000000000000000000000000000000000000000000000000000 PUSH0 MSTORE PUSH1 0x12 PUSH1 0x4 MSTORE PUSH1 0x24 PUSH0 REVERT JUMPDEST PUSH32 0x4E487B7100000000000000000000000000000000000000000000000000000000 PUSH0 MSTORE PUSH1 0x11 PUSH1 0x4 MSTORE PUSH1 0x24 PUSH0 REVERT JUMPDEST PUSH0 PUSH2 0xCB0 DUP3 PUSH2 0x808 JUMP JUMPDEST SWAP2 POP PUSH2 0xCBB DUP4 PUSH2 0x808 JUMP JUMPDEST SWAP3 POP DUP3 PUSH2 0xCCB JUMPI PUSH2 0xCCA PUSH2 0xC4C JUMP JUMPDEST JUMPDEST DUP3 DUP3 DIV SWAP1 POP SWAP3 SWAP2 POP POP JUMP JUMPDEST PUSH32 0x4E487B7100000000000000000000000000000000000000000000000000000000 PUSH0 MSTORE PUSH1 0x22 PUSH1 0x4 MSTORE PUSH1 0x24 PUSH0 REVERT JUMPDEST PUSH0 PUSH1 0x2 DUP3 DIV SWAP1 POP PUSH1 0x1 DUP3 AND DUP1 PUSH2 0xD1A JUMPI PUSH1 0x7F DUP3 AND SWAP2 POP JUMPDEST PUSH1 0x20 DUP3 LT DUP2 SUB PUSH2 0xD2D JUMPI PUSH2 0xD2C PUSH2 0xCD6 JUMP JUMPDEST JUMPDEST POP SWAP2 SWAP1 POP JUMP JUMPDEST PUSH0 DUP2 SWAP1 POP DUP2 PUSH0 MSTORE PUSH1 0x20 PUSH0 KECCAK256 SWAP1 POP SWAP2 SWAP1 POP JUMP JUMPDEST PUSH0 PUSH1 0x20 PUSH1 0x1F DUP4 ADD DIV SWAP1 POP SWAP2 SWAP1 POP JUMP JUMPDEST PUSH0 DUP3 DUP3 SHL SWAP1 POP SWAP3 SWAP2 POP POP JUMP JUMPDEST PUSH0 PUSH1 0x8 DUP4 MUL PUSH2 0xD8F PUSH32 0xFFFFFFFFFFFFFFFFFFFFFFFFFFFFFFFFFFFFFFFFFFFFFFFFFFFFFFFFFFFFFFFF DUP3 PUSH2 0xD54 JUMP JUMPDEST PUSH2 0xD99 DUP7 DUP4 PUSH2 0xD54 JUMP JUMPDEST SWAP6 POP DUP1 NOT DUP5 AND SWAP4 POP DUP1 DUP7 AND DUP5 OR SWAP3 POP POP POP SWAP4 SWAP3 POP POP POP JUMP JUMPDEST PUSH0 DUP2 SWAP1 POP SWAP2 SWAP1 POP JUMP JUMPDEST PUSH0 PUSH2 0xDD4 PUSH2 0xDCF PUSH2 0xDCA DUP5 PUSH2 0x808 JUMP JUMPDEST PUSH2 0xDB1 JUMP JUMPDEST PUSH2 0x808 JUMP JUMPDEST SWAP1 POP SWAP2 SWAP1 POP JUMP JUMPDEST PUSH0 DUP2 SWAP1 POP SWAP2 SWAP1 POP JUMP JUMPDEST PUSH2 0xDED DUP4 PUSH2 0xDBA JUMP JUMPDEST PUSH2 0xE01 PUSH2 0xDF9 DUP3 PUSH2 0xDDB JUMP JUMPDEST DUP5 DUP5 SLOAD PUSH2 0xD60 JUMP JUMPDEST DUP3 SSTORE POP POP POP POP JUMP JUMPDEST PUSH0 SWAP1 JUMP JUMPDEST PUSH2 0xE15 PUSH2 0xE09 JUMP JUMPDEST PUSH2 0xE20 DUP2 DUP5 DUP5 PUSH2 0xDE4 JUMP JUMPDEST POP POP POP JUMP JUMPDEST JUMPDEST DUP2 DUP2 LT ISZERO PUSH2 0xE43 JUMPI PUSH2 0xE38 PUSH0 DUP3 PUSH2 0xE0D JUMP JUMPDEST PUSH1 0x1 DUP2 ADD SWAP1 POP PUSH2 0xE26 JUMP JUMPDEST POP POP JUMP JUMPDEST PUSH1 0x1F DUP3 GT ISZERO PUSH2 0xE88 JUMPI PUSH2 0xE59 DUP2 PUSH2 0xD33 JUMP JUMPDEST PUSH2 0xE62 DUP5 PUSH2 0xD45 JUMP JUMPDEST DUP2 ADD PUSH1 0x20 DUP6 LT ISZERO PUSH2 0xE71 JUMPI DUP2 SWAP1 POP JUMPDEST PUSH2 0xE85 PUSH2 0xE7D DUP6 PUSH2 0xD45 JUMP JUMPDEST DUP4 ADD DUP3 PUSH2 0xE25 JUMP JUMPDEST POP POP JUMPDEST POP POP POP JUMP JUMPDEST PUSH0 DUP3 DUP3 SHR SWAP1 POP SWAP3 SWAP2 POP POP JUMP JUMPDEST PUSH0 PUSH2 0xEA8 PUSH0 NOT DUP5 PUSH1 0x8 MUL PUSH2 0xE8D JUMP JUMPDEST NOT DUP1 DUP4 AND SWAP2 POP POP SWAP3 SWAP2 POP POP JUMP JUMPDEST PUSH0 PUSH2 0xEC0 DUP4 DUP4 PUSH2 0xE99 JUMP JUMPDEST SWAP2 POP DUP3 PUSH1 0x2 MUL DUP3 OR SWAP1 POP SWAP3 SWAP2 POP POP JUMP JUMPDEST PUSH2 0xED9 DUP3 PUSH2 0x9BF JUMP JUMPDEST PUSH8 0xFFFFFFFFFFFFFFFF DUP2 GT ISZERO PUSH2 0xEF2 JUMPI PUSH2 0xEF1 PUSH2 0xA8F JUMP JUMPDEST JUMPDEST PUSH2 0xEFC DUP3 SLOAD PUSH2 0xD03 JUMP JUMPDEST PUSH2 0xF07 DUP3 DUP3 DUP6 PUSH2 0xE47 JUMP JUMPDEST PUSH0 PUSH1 0x20 SWAP1 POP PUSH1 0x1F DUP4 GT PUSH1 0x1 DUP2 EQ PUSH2 0xF38 JUMPI PUSH0 DUP5 ISZERO PUSH2 0xF26 JUMPI DUP3 DUP8 ADD MLOAD SWAP1 POP JUMPDEST PUSH2 0xF30 DUP6 DUP3 PUSH2 0xEB5 JUMP JUMPDEST DUP7 SSTORE POP PUSH2 0xF97 JUMP JUMPDEST PUSH1 0x1F NOT DUP5 AND PUSH2 0xF46 DUP7 PUSH2 0xD33 JUMP JUMPDEST PUSH0 JUMPDEST DUP3 DUP2 LT ISZERO PUSH2 0xF6D JUMPI DUP5 DUP10 ADD MLOAD DUP3 SSTORE PUSH1 0x1 DUP3 ADD SWAP2 POP PUSH1 0x20 DUP6 ADD SWAP5 POP PUSH1 0x20 DUP2 ADD SWAP1 POP PUSH2 0xF48 JUMP JUMPDEST DUP7 DUP4 LT ISZERO PUSH2 0xF8A JUMPI DUP5 DUP10 ADD MLOAD PUSH2 0xF86 PUSH1 0x1F DUP10 AND DUP3 PUSH2 0xE99 JUMP JUMPDEST DUP4 SSTORE POP JUMPDEST PUSH1 0x1 PUSH1 0x2 DUP9 MUL ADD DUP9 SSTORE POP POP POP JUMPDEST POP POP POP POP POP POP JUMP JUMPDEST PUSH0 PUSH2 0xFA9 DUP3 PUSH2 0x808 JUMP JUMPDEST SWAP2 POP PUSH32 0xFFFFFFFFFFFFFFFFFFFFFFFFFFFFFFFFFFFFFFFFFFFFFFFFFFFFFFFFFFFFFFFF DUP3 SUB PUSH2 0xFDB JUMPI PUSH2 0xFDA PUSH2 0xC79 JUMP JUMPDEST JUMPDEST PUSH1 0x1 DUP3 ADD SWAP1 POP SWAP2 SWAP1 POP JUMP INVALID LOG2 PUSH5 0x6970667358 0x22 SLT KECCAK256 0xB5 SWAP1 0xF9 ORIGIN 0xD4 0xAD 0xB3 0xCE DELEGATECALL 0x25 PUSH14 0x263757C0E1F3571A5398F72FF636 0xB7 0xD4 SWAP12 0x21 GT SWAP11 0xE1 PUSH5 0x736F6C6343 STOP ADDMOD NOT STOP CALLER LOG2 PUSH5 0x6970667358 0x22 SLT KECCAK256 0x25 OR 0x2E SHR 0xB5 DUP1 PUSH23 0x48C87610EB423E8A7AF404D606C487A7F1D00B3842AA72 PUSH7 0xF464736F6C6343 STOP ADDMOD NOT STOP CALLER "
    },
    "gasEstimates": {
      "creation": {
        "codeDepositCost": "1713400",
        "executionCost": "1797",
        "totalCost": "1715197"
      },
      "external": {
        "addUser(string,address,uint8)": "infinite",
        "createCampaign(uint256)": "infinite",
        "deployedCampaigns(uint256)": "4921",
        "getDeployedCampaigns()": "infinite",
        "users(address)": "infinite"
      }
    },
    "methodIdentifiers": {
      "addUser(string,address,uint8)": "9b9e4aa9",
      "createCampaign(uint256)": "a3303a75",
      "deployedCampaigns(uint256)": "339d50a5",
      "getDeployedCampaigns()": "4acb9d4f",
      "users(address)": "a87430ba"
    }
  },
  "storageLayout": {
    "storage": [
      {
        "astId": 16,
        "contract": "Campaign.sol:CampaignFactory",
        "label": "deployedCampaigns",
        "offset": 0,
        "slot": "0",
        "type": "t_array(t_address_payable)dyn_storage"
      },
      {
        "astId": 21,
        "contract": "Campaign.sol:CampaignFactory",
        "label": "users",
        "offset": 0,
        "slot": "1",
        "type": "t_mapping(t_address,t_struct(User)13_storage)"
      }
    ],
    "types": {
      "t_address": {
        "encoding": "inplace",
        "label": "address",
        "numberOfBytes": "20"
      },
      "t_address_payable": {
        "encoding": "inplace",
        "label": "address payable",
        "numberOfBytes": "20"
      },
      "t_array(t_address_payable)dyn_storage": {
        "base": "t_address_payable",
        "encoding": "dynamic_array",
        "label": "address payable[]",
        "numberOfBytes": "32"
      },
      "t_enum(Role)5": {
        "encoding": "inplace",
        "label": "enum Role",
        "numberOfBytes": "1"
      },
      "t_mapping(t_address,t_struct(User)13_storage)": {
        "encoding": "mapping",
        "key": "t_address",
        "label": "mapping(address => struct User)",
        "numberOfBytes": "32",
        "value": "t_struct(User)13_storage"
      },
      "t_string_storage": {
        "encoding": "bytes",
        "label": "string",
        "numberOfBytes": "32"
      },
      "t_struct(User)13_storage": {
        "encoding": "inplace",
        "label": "struct User",
        "members": [
          {
            "astId": 7,
            "contract": "Campaign.sol:CampaignFactory",
            "label": "walletAddress",
            "offset": 0,
            "slot": "0",
            "type": "t_address"
          },
          {
            "astId": 10,
            "contract": "Campaign.sol:CampaignFactory",
            "label": "role",
            "offset": 20,
            "slot": "0",
            "type": "t_enum(Role)5"
          },
          {
            "astId": 12,
            "contract": "Campaign.sol:CampaignFactory",
            "label": "name",
            "offset": 0,
            "slot": "1",
            "type": "t_string_storage"
          }
        ],
        "numberOfBytes": "64"
      }
    }
  },
  "userdoc": {
    "kind": "user",
    "methods": {},
    "version": 1
  }
}